:020000040800F2
:1000000068190020491B000819250008252500084B
:10001000312500083D2500084925000800000000A2
:10002000000000000000000000000000552500084E
:1000300061250008000000006D25000879250008F2
:10004000A91B0008A91B0008A91B0008A91B000880
:10005000A91B0008A91B00089D2F0008A91B000868
:10006000A91B0008A91B0008A91B0008A90D00086E
:10007000A91B0008A91B0008A91B0008A91B000850
:10008000A91B0008A91B0008A91B0008512800088B
:100090009D200008A91B0008A91B0008A91B000837
:1000A000A91B0008A91B0008A91B0008A91B000820
:1000B000A91B0008A91B000819260008A91B000895
:1000C000A91B0008A91B0008A91B0008A91B000800
:1000D000A91B0008ED4B0008214C0008E54C000866
:1000E000A91B0008A91B0008D5250008A91B0008AA
:1000F000F1260008A91B0008A91B00089D0D000897
:10010000A91B00088129000885260008B50D0008F4
:10011000A91B0008A91B0008A91B0008A91B0008AF
:10012000A91B0008A91B0008A91B00088D290008AD
:10013000A91B0008A91B0008A91B0008A91B00088F
:10014000A91B0008A91B0008A91B0008C12500085D
:10015000A91B0008A91B0008A91B0008A91B00086F
:10016000A91B0008A91B0008A91B0008A91B00085F
:10017000A91B0008A91B0008A91B0008A91B00084F
:10018000A91B0008A91B000880B489B000AFF86063
:10019000B960FA71BB800023FB76FB68DB78002B2B
:1001A00023D100237B610023FB61BB880333DA1C6E
:1001B000002BB8BF13469B107B61FB79FA68323382
:1001C0009B0013449B683B610023FB6109E0BB6813
:1001D0001A683B691A60FB690133FB61BB68043331
:1001E000BB60FA697B699A42F1D3FB7E18462437DB
:1001F000BD465DF8047B704780B489B000AFF860FD
:10020000B9601346FB800023FB61FB880333DA1CD3
:10021000002BB8BF13469B10BB61FB68D3F8D030EE
:100220007B610023FB6109E07B691A68BB681A6087
:10023000FB690133FB61BB680433BB60FA69BB69CE
:100240009A42F1D3BB6818462437BD465DF8047B5B
:10025000704700BF80B586B000AF7860396000237A
:10026000FB7400237B610023FB60FB6843F02003E9
:10027000FB603B68DBB203F01F03DAB2FB6862F39A
:100280008A13FB607B68DB68FA681A617B68DB684D
:100290001B69FB607B6901337B617A694FF45463AE
:1002A000C0F203039A4200D905E0FB68C3F3401390
:1002B000DBB2012BEAD0032002F076FEFB7C18466D
:1002C0001837BD4680BD00BF80B483B000AF7860F2
:1002D0007B68DB685B6903F0010318460C37BD4699
:1002E0005DF8047B704700BF80B582B000AF7860D6
:1002F0007868FFF7E9FF0346012B0CBF00230123B9
:10030000DBB218460837BD4680BD00BF80B485B05B
:1003100000AF78600023FB607B68DB685B69FB6093
:100320007B68DB689B69FA681340FB60FB681846D2
:100330001437BD465DF8047B704700BF80B485B0BC
:1003400000AF78600023FB737B681B699B68BB6010
:100350003B7AC3F34103DBB2022B09D0032B04D059
:10036000012B02D00323FB7305E00223FB7302E0A1
:100370000123FB7300BFFB7B18461437BD465DF8B5
:10038000047B704780B487B000AF78600023FB75B2
:100390000023BB607B681B699B683B617B689B6932
:1003A0001B68FB603B7CC3F34103DBB2022B04D030
:1003B000BB896FF30A03BB8105E0BB89032262F3AB
:1003C0000A03BB8100BF7B689B69FA681A607B7A6D
:1003D00043F001037B727B681B697A68126951687C
:1003E000BA68D2431140BA680A435A60FB7D184686
:1003F0001C37BD465DF8047B704700BF80B487B0F2
:1004000000AF786039600023FB740023FB60002399
:10041000BB603B685B78012B0FD13B681B787A6827
:1004200004339B0013449B687B613B681B7801226B
:1004300002FA03F39BB23B810EE03B681B787A68BB
:1004400014339B0013445B687B613B681B7801227B
:1004500002FA03F39BB27B817B691B68FB607B7BA9
:10046000C3F3C013DBB2002B27D13B689B689BB260
:10047000C3F30A039AB2BB8962F30A03BB813B68E8
:10048000DB7803F00303DAB2BB7B62F38303BB7355
:100490003B68DB88DBB203F00F03DAB2FB8962F35F
:1004A0008913FB81FB7B43F01003FB737B7B43F0E1
:1004B00080037B73FA687B691A607B681B697A68C2
:1004C0001269D169BA680A43DA61FB7C18461C37A5
:1004D000BD465DF8047B704780B588B000AF78609A
:1004E00039600023FB770023BB6100237B6100237D
:1004F0003B613B685B78012B40F0AB803B681B782D
:100500007A6804339B0013449B681B687B613B68DB
:100510001B787A6804339B0013449B681B693B611A
:100520003B685B69002B09D13B696FF312033B61A8
:100530007B8A012262F3CC037B8222E03B685B6909
:10054000C3F312023B6962F312033B613B685A69D1
:100550003B689B6813445A1E3B689B68B2FBF3F3ED
:100560009BB2C3F309039AB27B8A62F3CC037B820A
:100570003B68DB78012B04D1FB7C012262F346133C
:10058000FB743B681B787A6804339B0013449B68B8
:100590003A691A617B68DB78012B0AD13B681B78CA
:1005A0007A6804339B0013449B683A6812695A6165
:1005B00015E03B68DB78012B11D03B685B69002BB1
:1005C0000DD03B681B78012202FA03F3BB617B6804
:1005D0001B697A681269516BBA690A435A633B68AE
:1005E000DB78012B14D17B681B699B68FB60FB687F
:1005F000C3F30D239BB203F00103002B04D1FB7D59
:1006000043F02003FB7503E0FB7D43F01003FB7513
:10061000FB7D43F00403FB75FB7D43F08003FB751A
:100620003B681B787A6804339B0013449B687A69A3
:100630001A603B68DB78012B40F088803B68D96802
:100640003B681A783B685B699BB27868FFF79CFD52
:100650007CE03B681B787A6814339B0013445B682A
:100660001B687B613B681B787A6814339B001344DA
:100670005B681B693B613B685B69002B0DD13B6884
:100680009B68C3F312023B6962F312033B617B8AEE
:10069000012262F3CC037B821FE03B685A693B680E
:1006A0009B6813445A1E3B689B68B2FBF3F39BB2F2
:1006B000C3F309039AB27B8A62F3CC037B827B8A01
:1006C000C3F3C9039BB23A68926802FB03F3C3F316
:1006D00012023B6962F312033B613B681B787A6844
:1006E00014339B0013445B683A691A617B68DB78BA
:1006F000012B09D13B681B787A6814339B001344A3
:100700005B683A6812695A613B68DB78012B0CD14F
:100710003B685B79002B04D0FB7D43F02003FB7525
:1007200003E0FB7D43F01003FB75FB7D43F0040306
:10073000FB75FB7D43F08003FB753B681B787A6893
:1007400014339B0013445B687A691A60FB7F184678
:100750002037BD4680BD00BF80B489B000AF78604F
:1007600039600023FB770023BB6100233B6100233A
:10077000BB603B685B78012B6FD17B689B697B61B9
:100780007B691B683B617B691B69BB603B685B697C
:10079000002B09D13B7A6FF306033B72BB7A01222F
:1007A00062F3C403BB7223E03B685A693B689B68F1
:1007B0009A420ED93B689A683B685A613B689B68CD
:1007C000DBB203F07F03DAB23B7A62F306033B72DB
:1007D00009E03B685B69DBB203F07F03DAB23B7A86
:1007E00062F306033B72BB7A012262F3C403BB725D
:1007F000BA687B691A617B68DB78012B09D13B6899
:100800001B787A6804339B0013449B683A6812692A
:100810005A61FB7C43F00403FB74FB7C43F08003D0
:10082000FB743A697B691A607B68DB78002B75D1B1
:100830003B685B69002B71D03B681B78012202FA90
:1008400003F3BA691343BB617B681B697A68126959
:10085000516BBA690A435A6360E03B681B787A6857
:1008600014339B0013445B681B683B613B681B7837
:100870007A6814339B0013445B681B69BB603B6858
:100880005B69002B0FD13B689B68DBB203F07F03F1
:10089000DAB23B7A62F306033B72BB7A012262F35F
:1008A000C403BB7212E03B689A683B685A613B68BC
:1008B0009B68DBB203F07F03DAB23B7A62F3060394
:1008C0003B72BB7A012262F3C403BB723B681B78A4
:1008D0007A6814339B0013445B68BA681A617B68BA
:1008E000DB78012B09D13B681B787A6814339B00B5
:1008F00013445B683A6812695A61FB7C43F0040355
:10090000FB74FB7C43F08003FB743B681B787A68C4
:1009100014339B0013445B683A691A60FB7F1846E6
:100920002437BD465DF8047B704700BF80B487B0B4
:1009300000AF786039600023FB750023FB603B68E3
:100940005B78012B1CD13B681B787A6804339B00D1
:1009500013449B683B613B691B68FB60FB7BC3F3F3
:10096000C013DBB2002B03D0FB7B43F04003FB73CF
:10097000BB7B43F02003BB73FA683B691A6011E04C
:100980003B681B787A6814339B0013445B683B61B7
:100990003B691B68FB60BB7B43F02003BB73FA68B9
:1009A0003B691A60FB7D18461C37BD465DF8047B29
:1009B000704700BF80B487B000AF78603960002313
:1009C000FB740023FB603B685B78012B08D13B681C
:1009D0001B787A6804339B0013449B687B6107E0B3
:1009E0003B681B787A6814339B0013445B687B6117
:1009F0007B691B68FB60BB7B6FF34513BB733B6874
:100A0000DB78032B03D03B68DB78022B03D1FB7B25
:100A100043F01003FB73FA687B691A60FB7C18468D
:100A20001C37BD465DF8047B704700BF80B485B0BD
:100A300000AF78607B681B699B69FB607B681B6902
:100A4000DB69FA681340FB60FB681B0C184614371F
:100A5000BD465DF8047B704780B485B000AF786018
:100A60000B46FB70FB787A6814339B0013445B6879
:100A70009B68FB607B681B695B69FA681340FB60DD
:100A8000FB6818461437BD465DF8047B704700BF0D
:100A900080B485B000AF78607B681B699B69FB60A0
:100AA0007B681B69DB69FA681340FB60FB689BB2DB
:100AB00018461437BD465DF8047B704780B487B094
:100AC00000AF786000233B61FB7C43F0C003FB7404
:100AD000BB7C012262F3C403BB743B7C182262F32B
:100AE00006033B747B685B6D3A691A617B68DB784F
:100AF000012B16D10023FB607B685B6D7A6802F5E1
:100B0000B9625A617B685B6D1B68FB60FB7B43F0DD
:100B10008003FB734FF08023FB607B685B6DFA689A
:100B20001A601C37BD465DF8047B704780B485B001
:100B300000AF78607B689B7A002B1BD07B681B69B9
:100B40009B68FB603B7BC3F30003DBB2012B11D13D
:100B50007B6803F586731B68BB603B7A6FF34103C8
:100B60003B723B7A6FF300033B727B68D3F80C3126
:100B7000BA681A601437BD465DF8047B704700BF41
:100B800080B483B000AF78600B46FB70FB78002B1D
:100B90000CD04FF43053C4F201034FF43052C4F27E
:100BA0000102D16B7A680A43DA630CE04FF43053E8
:100BB000C4F201034FF43052C4F20102D16B7A68DF
:100BC000D2430A40DA630C37BD465DF8047B7047B8
:100BD00080B485B000AF78600023FB734FF43053CE
:100BE000C4F201035A6B7B681340002B02D001232F
:100BF000FB7301E00023FB73FB7B18461437BD46F3
:100C00005DF8047B704700BF80B483B000AF7860AC
:100C10004FF43053C4F201037A689A630C37BD462F
:100C20005DF8047B704700BF80B500AF40F214034D
:100C3000C2F200031A6840F22003C2F200031B68EC
:100C40001046194602F03CF90346002B00F0A5803F
:100C500040F20403C2F200031B68002B7DD000BFEA
:100C600040F21403C2F200031B68184602F010F9A8
:100C70000346002BF4D140F21403C2F200031A68B9
:100C800040F22003C2F200031B681046194602F02E
:100C900055F940F6BC43C2F200031B681A4640F601
:100CA000FC43C2F200039A6040F20403C2F2000364
:100CB0001A684FF6FF739A4228BF1A4640F6FC4363
:100CC000C2F200031A6140F21403C2F200031B686F
:100CD000184640F6FC41C2F2000102F065F840F20D
:100CE0001403C2F200031B681846012102F0B4F895
:100CF00040F6BC43C2F200031A6840F20403C2F299
:100D0000000319684FF6FF73994238BF0B465B002A
:100D10001A4440F6BC43C2F200031A6040F20403D6
:100D2000C2F200031A6840F20403C2F20003196819
:100D30004FF6FF73994238BF0B46D21A40F20403B4
:100D4000C2F200031A6040F21403C2F200031B68EF
:100D50001846012102F080F81FE040F21403C2F2AD
:100D600000031B681846002102F076F840F21403D5
:100D7000C2F200031A6840F22003C2F200031B68AB
:100D80001046194602F0DAF840F6BC43C2F20003FE
:100D90001B681846002103F0E3FA80BD80B500AF60
:100DA000FFF742FF80BD00BF80B500AFFFF73CFFFB
:100DB00080BD00BF80B500AF4FF47050C4F200009A
:100DC000022103F0EDFA0346002B17D040F20C038A
:100DD000C2F200031B68022B06D103F0CBFA0346D4
:100DE0000420194600F096FE03F0C4FA03464FF4BF
:100DF0007050C4F20000194603F0C4FA80BD00BF71
:100E000080B58AB000AF7860396000237B62002330
:100E10003B620023FB610023BB617B681B8A9BB2A2
:100E20007B627B6A23F440537B623B68DB887A6A8F
:100E300013437B627B6A9AB27B681A827B689B89C8
:100E40009BB27B627B6A23F4B05323F00C037B627A
:100E50003B689A883B681B8913439AB23B685B895D
:100E600013439BB27A6A13437B627B6A9AB27B68B4
:100E70009A817B689B8A9BB27B627B6A23F4407376
:100E80007B623B689B897A6A13437B627B6A9AB276
:100E90007B689A8207F10803184601F0C7F97A685F
:100EA0004FF48053C4F201039A4206D07A684FF49B
:100EB000A053C4F201039A4202D17B693B6201E074
:100EC0003B693B627B689B899BB29BB21BB2002B48
:100ED0000CDA3A6A13469B0013449A001A443B68A2
:100EE0001B685B00B2FBF3F3FB610BE03A6A13464D
:100EF0009B0013449A001A443B681B689B00B2FB9A
:100F0000F3F3FB61FA6948F21F53C5F2EB13A3FB3D
:100F100002135B091B017B627B6A1B09642202FBD3
:100F200003F3FA69D31ABB617B689B899BB29BB2BE
:100F30001BB2002B10DABB69DB0003F1320248F26E
:100F40001F53C5F2EB13A3FB02135B0903F0070366
:100F50007A6A13437B620FE0BB691B0103F1320223
:100F600048F21F53C5F2EB13A3FB02135B0903F016
:100F70000F037A6A13437B627B6A9AB27B681A8199
:100F80002837BD4680BD00BF80B483B000AF786015
:100F90000B46FB70FB78002B08D07B689B899BB2CB
:100FA00043F400539AB27B689A8107E07B689B897F
:100FB0009BB223F400539AB27B689A810C37BD46EA
:100FC0005DF8047B704700BF80B483B000AF7860E9
:100FD0000B467B807B88C3F308039AB27B689A80B8
:100FE0000C37BD465DF8047B704700BF80B483B00A
:100FF00000AF78607B689B889BB2C3F308039BB209
:1010000018460C37BD465DF8047B704780B487B046
:1010100000AF786013460A467A807B7000233B61FC
:101020000023FB600023BB6000237B617B687B6146
:101030007B88DBB25B09DBB23B617B8803F01F037B
:10104000FB60FB68012202FA03F3BB603B69012BE2
:1010500003D17B690C337B6109E03B69022B03D12F
:101060007B6910337B6102E07B6914337B617B78A1
:10107000002B06D07B697A691168BA680A431A6046
:1010800006E07B697A691168BA68D2430A401A603F
:101090001C37BD465DF8047B704700BF80B487B045
:1010A00000AF78600B467B800023FB6000237B61F0
:1010B0000023BB600023FB747B88DBB25B09DBB2DF
:1010C000BB607B8803F01F037B617B69012202FA0E
:1010D00003F37B61BB68012B06D17B689B899BB2C4
:1010E0007A6913407B610FE0BB68022B06D17B68F5
:1010F0001B8A9BB27A6913407B6105E07B689B8AFF
:101100009BB27A6913407B617B881B0A9BB2FB60B0
:10111000FB68012202FA03F3FB607B681B889BB229
:10112000FA681340FB607B69002B05D0FB68002B3D
:1011300002D00123FB7401E00023FB74FB7C184602
:101140001C37BD465DF8047B704700BF80B582B098
:1011500000AF78607A684FF4C843C4F200039A4243
:101160000AD14FF00070012101F084F94FF00070B6
:10117000002101F07FF909E04FF08060012101F0CA
:1011800079F94FF08060002101F074F90837BD460D
:1011900080BD00BF80B485B000AF786039600023A7
:1011A000FB730023BB607B681B6823F002027B6833
:1011B0001A607B681B6843F001027B681A6002E0DA
:1011C000BB680133BB607B685B6803F00103002BE5
:1011D00004D1BA684FF6FF739A42F1D17B685B681D
:1011E00003F00103002B02D10023FB739CE03B685A
:1011F0009B79012B06D17B681B6843F080027B68DA
:101200001A6005E07B681B6823F080027B681A6027
:101210003B68DB79012B06D17B681B6843F04002F9
:101220007B681A6005E07B681B6823F040027B68DE
:101230001A603B681B7A012B06D17B681B6843F060
:1012400020027B681A6005E07B681B6823F020029F
:101250007B681A603B685B7A012B06D17B681B6850
:1012600043F010027B681A6005E07B681B6823F07E
:1012700010027B681A603B689B7A012B06D17B6861
:101280001B6843F008027B681A6005E07B681B68F6
:1012900023F008027B681A603B68DB7A012B06D1D9
:1012A0007B681B6843F004027B681A6005E07B687A
:1012B0001B6823F004027B681A603B689B789A07DE
:1012C0003B68DB781B061A433B681B791B041A43F7
:1012D0003B685B791B051A433B681B88013B1A433B
:1012E0007B68DA617B681B6823F001027B681A6007
:1012F0000023BB6002E0BB680133BB607B685B68B6
:1013000003F00103002B04D0BA684FF6FF739A4232
:10131000F1D17B685B6803F00103002B02D000234E
:10132000FB7301E00123FB73FB7B18461437BD46BA
:101330005DF8047B704700BF80B485B000AF786073
:101340000023FB607B689B7A012202FA03F3FB60B7
:101350004FF4C843C4F200034FF4C842C4F2000281
:10136000D2F8002242F00102C3F800224FF4C84331
:10137000C4F200034FF4C842C4F20002D2F81C12B7
:10138000FA68D2430A40C3F81C227B681B7B002BFF
:101390002DD14FF4C843C4F200034FF4C842C4F245
:1013A0000002D2F80C12FA68D2430A40C3F80C22A9
:1013B0004FF4C843C4F200037A68927A7968C98806
:1013C0000804796849880143483243F832104FF4E1
:1013D000C842C4F200027B689B7A79688988080455
:1013E0007968098801434833DB00134459607B68FE
:1013F0001B7B012B2CD14FF4C843C4F200034FF4E4
:10140000C842C4F20002D2F80C12FA680A43C3F8C8
:101410000C224FF4C843C4F200037A68927A7968C8
:1014200009880804796849880143483243F8321032
:101430004FF4C842C4F200027B689B7A79688988BD
:1014400008047968C98801434833DB0013445960B4
:101450007B68DB7A002B0FD14FF4C843C4F2000342
:101460004FF4C842C4F20002D2F80412FA68D24320
:101470000A40C3F804220DE04FF4C843C4F200034D
:101480004FF4C842C4F20002D2F80412FA680A43C8
:10149000C3F804227B681B89002B0ED14FF4C8438C
:1014A000C4F200034FF4C842C4F20002D2F814128E
:1014B000FA68D2430A40C3F814227B681B89012BC7
:1014C0000DD14FF4C843C4F200034FF4C842C4F234
:1014D0000002D2F81412FA680A43C3F814227B6897
:1014E0005B7B012B0DD14FF4C843C4F200034FF4D2
:1014F000C842C4F20002D2F81C12FA680A43C3F8C8
:101500001C224FF4C843C4F200034FF4C842C4F293
:101510000002D2F8002222F00102C3F800221437A0
:10152000BD465DF8047B704780B485B000AF78603D
:1015300039600023FB737B689B6803F08063002B9A
:1015400002D00023FB7313E07B689B6803F0006309
:10155000002B02D00123FB730AE07B689B6803F039
:101560008053002B02D00223FB7301E00423FB73A2
:10157000FB7B042B00F09880FB7BFA7B79681832A8
:1015800012010A44126802F00102796818331B0143
:101590000B441A603B681B7A002B13D1FB7BFA7B50
:1015A0007968183212010A4411683A6812685005C5
:1015B0003A68527A02430A43796818331B010B4494
:1015C0001A6015E0FB7BFA7B7968183212010A4435
:1015D00011683A685268D0003A68127A10433A6843
:1015E000527A02430A43796818331B010B441A608C
:1015F0003B689B7A03F00F03DAB23B689A72FB7B7D
:10160000FA7B7968183212010A44526822F00F02FC
:10161000796818331B010B445A60FB7BFA7B7968AD
:10162000183212010A4451683A68927A0A4379687A
:1016300018331B010B445A60FB7B3A68927B1106FE
:101640003A68527B120411433A68127B120211432A
:101650003A68D27A0A4379681B010B4403F5C473D4
:101660001A60FB7B3A68927C11063A68527C12043D
:1016700011433A68127C120211433A68D27B0A4342
:1016800079681B010B4403F5C4735A60FB7BFA7B3A
:101690007968183212010A44126842F0010279682E
:1016A00018331B010B441A60FB7B18461437BD46E8
:1016B0005DF8047B704700BF80B485B000AF7860F0
:1016C0000B46FB700023FB60FB78012B0BD0022B39
:1016D00012D0002B18D17B689A680323C0F2004314
:1016E0001340FB6013E07B689A684FF44073C0F6C8
:1016F00000031340FB600AE07B689A680023C1F294
:1017000003031340FB6002E00023FB6000BFFB68A3
:101710004FF48072C0F60002934229D04FF48072D9
:10172000C0F6000293420CD80122C0F2004293425C
:101730001BD00322C0F2004293421FD0002B11D0D5
:1017400025E00022C1F20102934214D00022C1F22E
:101750000302934218D04FF44072C0F60002934245
:101760000FD014E00223FB6014E00023FB6011E0C3
:101770000023FB600EE00023FB600BE00123FB6015
:1017800008E00123FB6005E00123FB6002E0002389
:10179000FB6000BFFB68DBB218461437BD465DF83E
:1017A000047B704780B485B000AFF8600B467A6068
:1017B000FB72FB7AFA681B331B0113441B68DBB214
:1017C00003F00403DAB27B681A727B681B7A002B81
:1017D00009D1FB7AFA681B331B0113441B685A0DAD
:1017E0007B681A6008E0FB7AFA681B331B0113441C
:1017F0001B68DA087B685A60FB7AFA681B331B01A6
:1018000013441B68DBB203F00203DAB27B685A723E
:10181000FB7AFA681B331B0113445B68DBB203F0ED
:101820000F03DAB27B689A72FB7AFA681B331B01EA
:1018300013445B681B0ADAB27B68DA74FB7AFA68D5
:101840001B01134403F5DC731B68DAB27B68DA72A0
:10185000FB7AFA681B01134403F5DC731B681B0A4F
:10186000DAB27B681A73FB7AFA681B01134403F53A
:10187000DC731B681B0CDAB27B685A73FB7AFA685C
:101880001B01134403F5DC731B681B0EDAB27B6883
:101890009A73FB7AFA681B01134403F5DC735B68E7
:1018A000DAB27B68DA73FB7AFA681B01134403F53A
:1018B000DC735B681B0ADAB27B681A74FB7AFA681D
:1018C0001B01134403F5DC735B681B0CDAB27B6805
:1018D0005A74FB7AFA681B01134403F5DC735B68E6
:1018E0001B0EDAB27B689A74FB7A002B06D1FB6878
:1018F000DB6843F02002FB68DA6005E0FB681B69E7
:1019000043F02002FB681A611437BD465DF8047B82
:10191000704700BF80B485B000AFF860B96013466F
:10192000FB71FB79002B06D0FB685A69BB681A4330
:10193000FB685A6106E0FB685A69BB68DB431A40E2
:10194000FB685A611437BD465DF8047B704700BFE1
:1019500080B584B000AF786039600023FB737B688A
:101960005A693B681340002B00F0B5803B68402B60
:1019700065D0402B0FD8042B3DD0042B04D8012B6D
:1019800024D0022B2ED0A2E0102B46D0202B4DD0FD
:10199000082B39D09BE0B3F5006F00F08680B3F5DB
:1019A000006F09D8B3F5007F6DD0B3F5806F73D0A9
:1019B000B3F5807F5ED08AE0B3F5803F48D0B3F5C1
:1019C000003F4ED0B3F5004F78D080E07B689B6835
:1019D000184640F20111C0F2010100F083F80346FD
:1019E000FB7377E07B68DB681846032100F07AF828
:1019F0000346FB736EE07B68DB681846082100F045
:101A000071F80346FB7365E07B68DB6818461021BC
:101A100000F068F80346FB735CE07B681B691846BE
:101A2000032100F05FF80346FB7353E07B681B69FA
:101A30001846082100F056F80346FB734AE07B681D
:101A40001B691846102100F04DF80346FB7341E076
:101A50007B685B681846082100F044F80346FB7376
:101A600038E07B685B681846102100F03BF80346BD
:101A7000FB732FE07B689B691846012100F032F868
:101A80000346FB7326E07B689B691846022100F041
:101A900029F80346FB731DE07B689B691846042107
:101AA00000F020F80346FB7314E07B689B6918463E
:101AB000702100F017F80346FB730BE07B685B684E
:101AC0001846042100F00EF80346FB7302E00023E1
:101AD000FB7300BF01E00023FB73FB7B184610374C
:101AE000BD4680BD80B485B000AF7860396000230A
:101AF000FB737A683B681340002B02D00123FB7311
:101B000001E00023FB73FB7B18461437BD465DF8EC
:101B1000047B704780B485B000AF78600B467B8053
:101B20000023FB604FF4E843C4F20003FB60FA6853
:101B30007B6813440833FB60FB687A881A601437AB
:101B4000BD465DF8047B704780B582B000AF4AF6B1
:101B5000C873C0F600037B6040F20003C2F20003CA
:101B60003B6007E03B681A1D3A607A68111D796096
:101B700012681A603A6840F21C63C2F200039A428B
:101B8000F0D3074807494FF000028842B8BF40F839
:101B9000042BFADB00F0A2FA0837BD4680BD000036
:101BA0001C0600206411002080B400AFFEE700BFD7
:101BB00080B584B000AF786007F1080378681946F3
:101BC00001F01EFE3B7A03F01F03012B0AD0022B0B
:101BD0000FD0002B14D107F108037868194601F0E3
:101BE00009FA16E007F108037868194601F052FA7D
:101BF0000FE007F108037868194601F07FFA08E062
:101C00003B7A23F07F03DBB27868194602F096FD39
:101C100000BF002318461037BD4680BD80B584B094
:101C200000AF78600B46FB70FB78002B45D17B68DA
:101C300003F55C73FB607B6893F81131032B4FD184
:101C4000FB68DA69FB689B689A4221D9FB68DA690C
:101C5000FB689B68D21AFB68DA617B68DB78012B32
:101C600006D1FB68DA68FB689B681A44FB68DA6097
:101C7000FB68DA68FB689968FB68DB69994238BFE2
:101C80000B469BB2786811461A4602F01DFE27E00B
:101C90007B68D3F8E0351B69002B0AD07B6893F88A
:101CA0001231032B05D17B68D3F8E0351B697868C6
:101CB0009847786802F01CFE12E07B68D3F8E035A4
:101CC0009B69002B0CD07B6893F81231032B07D152
:101CD0007B68D3F8E0359B69FA78786811469847B5
:101CE000002318461037BD4680BD00BF80B584B0C4
:101CF00000AF78600B46FB70FB78002B60D17B68EF
:101D000003F58C73FB607B6893F81131022B6AD169
:101D1000FB68DA69FB689B689A421CD9FB68DA6940
:101D2000FB689B68D21AFB68DA617B68DB78012B61
:101D300006D1FB68DA68FB689B681A44FB68DA60C6
:101D4000FB68DA68FB68DB699BB2786811461A4663
:101D500002F0A6FD47E0FB681B6AFA689268B3FBD5
:101D6000F2F102FB01F29B1A002B14D1FB681A6AF4
:101D7000FB689B689A420ED3FB681A6AFB685B6A31
:101D80009A4208D278680021002202F089FDFB689F
:101D900000225A6227E07B68D3F8E035DB68002B2D
:101DA0000AD07B6893F81231032B05D17B68D3F8F6
:101DB000E035DB6878689847786802F0B1FD12E09A
:101DC0007B68D3F8E0355B69002B0CD07B6893F817
:101DD0001231032B07D17B68D3F8E0355B69FA78C1
:101DE000786811469847002318461037BD4680BDD5
:101DF00080B582B000AF786078680021402200236F
:101E000002F0D2FB786880214022002302F0CCFB54
:101E10007B68012283F812217B68D3F8E4355B6884
:101E20007A68927810469847002318460837BD46CE
:101E300080BD00BF80B582B000AF78607B68D3F80A
:101E4000E4351B6998477B68032283F8122100233D
:101E500018460837BD4680BD80B582B000AF7860B7
:101E60007B68042283F812217B68D3F8E435DB68B1
:101E70009847002318460837BD4680BD80B582B01C
:101E800000AF78607B68D3F8E035DB69002B05D0C4
:101E90007B68D3F8E035DB697868984700231846FB
:101EA0000837BD4680BD00BF80B582B000AF786006
:101EB0000B46FB707B68D3F8E0351B68FA787868CE
:101EC000114698477B68D3F8E4359B689847002310
:101ED00018460837BD4680BD80B582B000AF786037
:101EE0000B46FB707B68D3F8E0355B68FA7878685E
:101EF00011469847002318460837BD4680BD00BFED
:101F000080B582B000AF78607B68D3F8E0351B6A9B
:101F100078689847002318460837BD4680BD00BF43
:101F200080B582B000AF78607B68D3F8E0355B6A3B
:101F300078689847002318460837BD4680BD00BF23
:101F400080B483B000AF03463960FB7197F9073066
:101F5000002B0EDA4FF46D43CEF20003FA7902F053
:101F60000F02111F3A68D2B21201D2B20B441A7694
:101F70000CE04FF46143CEF2000397F907103A6882
:101F8000D2B21201D2B20B4483F800230C37BD4603
:101F90005DF8047B704700BF80B582B000AF786009
:101FA0007B68B3F1807F01D301231AE04EF2100366
:101FB000CEF200037A6822F07F42013A5A604FF075
:101FC000FF300F21FFF7BCFF4EF21003CEF20003EB
:101FD00000229A604EF21003CEF2000307221A602C
:101FE000002318460837BD4680BD00BF80B582B0CB
:101FF00000AF00F0A5FD9D20012100F0EBF94FF4AA
:1020000000433B6001233B710023BB710023FB7144
:1020100003237B713B460020C4F20200194600F006
:10202000BBFC4FF4C0433B603B464FF40060C4F23E
:102030000200194600F0B0FC4FF470433B603B4691
:102040004FF44060C4F20200194600F0A5FC0223E0
:102050003B603B464FF48050C4F20200194600F04A
:102060009BFC40F27403C2F200031A6844F6D35397
:10207000C1F26203A3FB02139B091846FFF78CFF12
:102080000346002B01D000F01DFA02F09BFC00F08B
:1020900065FB02F0D9F90837BD4680BD80B500AFB9
:1020A0004FF4C840C4F200000221FFF751FC034680
:1020B000002B11D04FF4C840C4F20000002140F6BC
:1020C0003852C2F20002FFF76DFB4FF44063C4F2D6
:1020D00002034FF400421A8380BD00BFF0B595B0F3
:1020E00004AF3A1D3C23104600211A4602F05CFE64
:1020F000FFF77CFF40F64C53C2F200030F221A6038
:1021000040F64C53C2F2000300225A6040F64C5392
:10211000C2F2000300221A7240F64C53C2F20003CE
:1021200000225A7240F64C53C2F2000301229A7206
:1021300040F64C53C2F20003CC22DA7200BF40F2E8
:102140001C63C2F200031B68B3F5FA7FF7DB4FF4A0
:10215000C840C4F2000040F64C51C2F20001FFF743
:10216000E3F94FF44063C4F202034FF480521A8340
:1021700000BF4FF4C840C4F200000021FFF79CFAF2
:102180000346012BF5D14FF44063C4F202034FF430
:1021900000521A834FF44063C4F202034FF48042AA
:1021A0001A8339E040F21C63C2F2000300221A6075
:1021B00040F63853C2F200031A6840F63853C2F2B0
:1021C00000031B7A1C4640F63853C2F200035B7AC8
:1021D0001E4640F63853C2F200039B7A1D4640F675
:1021E0003853C2F20003DB7A184640F63853C2F285
:1021F0000003DB7C19463B1D00960195029003917C
:1022000018464AF6B051C0F60001234602F03EFEE1
:102210003B1D184602F0A6FC40F21C63C2F200030C
:102220001B68B3F57A7FBDDC00BFF5E780B489B0E9
:1022300000AF78600023BB6100237B610023FB615A
:1022400002233B610023FB600223BB604FF4605319
:10225000C4F202039B6803F00C03BB61BB69042B4F
:102260000AD0082B0FD0002B5AD17A684FF41053A4
:10227000C0F2F40313605AE07A684FF49053C0F24E
:102280007A03136053E04FF46053C4F202035B68B7
:1022900003F480039B0DFB604FF46053C4F2020310
:1022A0005B6803F03F03BB60FB68002B13D04FF467
:1022B0009053C0F27A03BA68B3FBF2F24FF4605362
:1022C000C4F20203596847F6C0730B409B0903FB35
:1022D00002F3FB6112E04FF41053C0F2F403BA684A
:1022E000B3FBF2F24FF46053C4F20203596847F6AD
:1022F000C0730B409B0903FB02F3FB614FF4605377
:10230000C4F202035B6803F440331B0C01335B002F
:102310003B61FA693B69B2FBF3F27B681A6006E045
:102320007A684FF41053C0F2F403136000BF4FF407
:102330006053C4F202039B6803F0F003BB61BB6906
:102340001B09BB6140F26403C2F20003BA69134483
:102350001B78DBB27B617B681A687B69DA407B683B
:102360005A604FF46053C4F202039B6803F4E053D5
:10237000BB61BB699B0ABB6140F26403C2F200030C
:10238000BA6913441B78DBB27B617B685A687B694E
:10239000DA407B689A604FF46053C4F202039B6892
:1023A00003F46043BB61BB695B0BBB6140F2640338
:1023B000C2F20003BA6913441B78DBB27B617B680D
:1023C0005A687B69DA407B68DA602437BD465DF87D
:1023D000047B704780B483B000AF78600B46FB701D
:1023E000FB78002B0CD04FF46053C4F202034FF47F
:1023F0006052C4F20202116B7A680A431A630CE05D
:102400004FF46053C4F202034FF46052C4F202026C
:10241000116B7A68D2430A401A630C37BD465DF8E7
:10242000047B704780B483B000AF78600B46FB70CC
:10243000FB78002B0CD04FF46053C4F202034FF42E
:102440006052C4F20202116C7A680A431A640CE00A
:102450004FF46053C4F202034FF46052C4F202021C
:10246000116C7A68D2430A401A640C37BD465DF895
:10247000047B704780B483B000AF78600B46FB707C
:10248000FB78002B0CD04FF46053C4F202034FF4DE
:102490006052C4F20202116A7A680A431A620CE0BE
:1024A0004FF46053C4F202034FF46052C4F20202CC
:1024B000116A7A68D2430A401A620C37BD465DF849
:1024C000047B704780B483B000AF0123FB800023FE
:1024D0003B6000BF3A68531C3B604AF21F13C0F2D6
:1024E00007039A42F6D94FF44063C4F20203FA8814
:1024F000120392B25A83FB885B00FB80FB880F2B90
:1025000001D90123FB804FF44063C4F20203FA882F
:10251000120392B21A83DAE780B400AFBD465DF8C9
:10252000047B704780B500AFFFF7CCFF80BD00BFD4
:1025300080B500AFFFF7C6FF80BD00BF80B500AF1C
:10254000FFF7C0FF80BD00BF80B500AFFFF7BAFF47
:1025500080BD00BF80B400AFBD465DF8047B70470E
:1025600080B400AFBD465DF8047B704780B400AF17
:10257000BD465DF8047B704780B400AF40F21C6339
:10258000C2F200031B685A1C40F21C63C2F2000333
:102590001A6040F22063C2F200031B68002B0AD0CD
:1025A00040F22063C2F200031B685A1E40F220630F
:1025B000C2F200031A60BD465DF8047B704700BF9D
:1025C00080B500AF40F2CC60C2F2000001F082F9A9
:1025D00080BD00BF80B500AF40F2CC63C2F2000303
:1025E0009B7A002B13D04EF61053CEF200034EF61A
:1025F0001052CEF20002126822F006021A6000F0B9
:102600009FFA40F2CC60C2F20000FEF78FFA4FF45E
:10261000802001F009FF80BD80B500AF4FF400605D
:10262000C4F20000012102F0A3F90346002B27D0D9
:102630004FF40063C4F200031B889BB21B099BB2DA
:10264000012B0BD140F66053C2F200031B685A1CE9
:1026500040F66053C2F200031A600AE040F670537D
:10266000C2F200031B685A1C40F67053C2F200030A
:102670001A604FF40060C4F20000012102F068F912
:1026800080BD00BF80B500AF4FF44060C4F20000D1
:10269000012102F06DF90346002B27D04FF440636F
:1026A000C4F200031B889BB21B099BB2012B0BD108
:1026B00040F66453C2F200031B685A1C40F6645390
:1026C000C2F200031A600AE040F66C53C2F2000343
:1026D0001B685A1C40F66C53C2F200031A604FF498
:1026E0004060C4F20000012102F032F980BD00BF59
:1026F00080B500AF4FF48060C4F20100012102F008
:1027000037F90346002B27D04FF48063C4F201034E
:102710001B889BB21B099BB2012B0BD140F6745353
:10272000C2F200031B685A1C40F67453C2F2000345
:102730001A600AE040F66853C2F200031B685A1C94
:1027400040F66853C2F200031A604FF48060C4F28E
:102750000100012102F0FCF880BD00BF80B58AB005
:1027600000AF07F114031846FEF7F0FC0820012122
:10277000FFF730FE4FF000700121FFF753FE0323F7
:102780003B62022387F82430022387F82530002398
:1027900087F82630012387F8273007F120034FF40C
:1027A0004060C4F20200194600F0F6F84FF44060B1
:1027B000C4F202000021092200F07CF94FF44060CD
:1027C000C4F202000121092200F074F90123BB7652
:1027D0000023FB7600233B7700237B770023BB7726
:1027E0000023FB770123BB750023FB7507233B7692
:1027F00006237B760523BB8207F114034FF4C84000
:10280000C4F200001946FEF7C5FC0023BB73012388
:10281000FB7300233B744FF4F073BB800023FB80F9
:1028200000233B8100237B810023BB8101237B7438
:102830003B1D1846FEF780FD4FF4C840C4F200006F
:1028400002210122FFF766F82837BD4680BD00BF90
:1028500080B400AFBD465DF8047B704780B500AF23
:102860004FF48070FEF7B4F90346002B10D040F20D
:102870006063C2F2000300221A704FF48070FEF70A
:10288000C3F940F26463C2F2000301221A6050E00F
:102890000220FEF79DF90346002B09D00220FEF727
:1028A000B3F940F26063C2F2000302221A7040E002
:1028B0000820FEF78DF90346002B09D00820FEF70B
:1028C000A3F940F26063C2F2000304221A7030E000
:1028D0002020FEF77DF90346002B09D02020FEF7CB
:1028E00093F940F26063C2F2000306221A7020E0FE
:1028F0001020FEF76DF90346002B09D01020FEF7DB
:1029000083F940F26063C2F2000305221A7010E0FE
:102910004FF40070FEF75CF90346002B09D04FF42A
:102920000070FEF771F940F26063C2F20003072203
:102930001A704CF23A300021FEF722F940F260633F
:10294000C2F200031B78DBB2184680BD80B500AF31
:102950004FF4C843C4F202031B6803F0C053002BBA
:102960000DD040F26863C2F2000301221A6046F201
:102970005840C4F202004FF0C25100F0DFFA80BDAF
:1029800080B500AFFFF76AFF80BD00BF80B500AF24
:10299000FFF7DCFF80BD00BF80B487B000AF786078
:1029A000396000237B6100233B610023FB6000232F
:1029B0007B6176E07B69012202FA03F33B613B68AD
:1029C0001A683B691340FB60FA683B699A4265D11B
:1029D0007B681A687B695B00032101FA03F3DB4320
:1029E0001A407B681A607B681A683B681B79194635
:1029F0007B695B0001FA03F31A437B681A603B684A
:102A00001B79012B03D03B681B79022B2ED17B68ED
:102A10009A687B695B00032101FA03F3DB431A40E8
:102A20007B689A607B689A683B685B7919467B692A
:102A30005B0001FA03F31A437B689A607B685A686B
:102A40007B699BB2012101FA03F3DB431A407B68E7
:102A50005A607B685A683B689B7919467B699BB2D0
:102A600001FA03F39BB21A437B685A607B68DA6809
:102A70007B699BB25B00032101FA03F3DB431A403D
:102A80007B68DA607B68DA683B68DB7919467B69CA
:102A90005B0001FA03F31A437B68DA607B69013358
:102AA0007B617B690F2B85D91C37BD465DF8047BA4
:102AB000704700BF80B485B000AF786013460A4607
:102AC0007A807B700023FB600023BB607A787B8870
:102AD00003F007039B0002FA03F3FB607B88DB082B
:102AE0009BB21A467B88DB089BB219467B6808318B
:102AF00053F821107B8803F007039B000F2000FA96
:102B000003F3DB4319407B68083243F822107B88CB
:102B1000DB089BB21A467B68083253F82220FB6818
:102B20001343BB607B88DB089BB21A467B68083284
:102B3000B96843F822101437BD465DF8047B70472E
:102B400080B500AF4FF46053C4F202034FF46052FB
:102B5000C4F20202126842F001021A604FF460539C
:102B6000C4F2020300229A604FF46053C4F20203DD
:102B70004FF46052C4F20202126822F0847222F40E
:102B800080321A604FF46053C4F2020343F2100221
:102B9000C2F200425A604FF46053C4F202034FF491
:102BA0006052C4F20202126822F480221A604FF4CA
:102BB0006053C4F202030022DA6000F009F84FF417
:102BC0006D43CEF200034FF000629A6080BD00BFFB
:102BD00080B483B000AF00237B6000233B604FF4E0
:102BE0006053C4F202034FF46052C4F2020212684E
:102BF00042F480321A604FF46053C4F202031B683F
:102C000003F400333B607B6801337B603B68002B3F
:102C100003D17B68B3F5A06FEDD14FF46053C4F2DC
:102C200002031B6803F40033002B02D001233B6036
:102C300001E000233B603B68012B40F082804FF4B1
:102C40006053C4F202034FF46052C4F20202126CE9
:102C500042F080521A644FF4E043C4F200034FF490
:102C6000E042C4F20002126842F480421A604FF45B
:102C70006053C4F202034FF46052C4F2020292683D
:102C80009A604FF46053C4F202034FF46052C4F2EE
:102C90000202926842F400429A604FF46053C4F218
:102CA00002034FF46052C4F20202926842F4A0524E
:102CB0009A604FF46053C4F2020345F20842C0F236
:102CC00040725A604FF46053C4F202034FF46052F2
:102CD000C4F20202126842F080721A6000BF4FF420
:102CE0006053C4F202031B6803F00073002BF6D09C
:102CF0004FF47053C4F2020340F205621A604FF4BD
:102D00006053C4F202034FF46052C4F202029268AC
:102D100022F003029A604FF46053C4F202034FF4AE
:102D20006052C4F20202926842F002029A6000BF4E
:102D30004FF46053C4F202039B6803F00C03082BAA
:102D4000F6D10C37BD465DF8047B704780B485B082
:102D500000AF786040F26C63C2F200031B68002B86
:102D600008D140F26C63C2F2000341F26412C2F275
:102D700000021A6040F26C63C2F200031B68FB6041
:102D800040F26C63C2F200031A687B681A4440F296
:102D90006C63C2F200031A60FB6818461437BD4624
:102DA0005DF8047B704700BF80B485B000AF7860E9
:102DB00039600023FB607B681B68FB60FA6848F29F
:102DC0003F03CFF21C031340FB603B681A683B686B
:102DD000DB681A433B685B691A433B689B691A438B
:102DE0003B68DB691A433B681B6A1A433B685B6AB2
:102DF0001A433B689B6A1A433B685B6B1A433B6808
:102E00009B6B1343FA681343FB607B68FA681A6094
:102E10007B685B69FB60FB6823F00703FB603B6832
:102E2000DA6A3B681B6B1343FA681343FB607B68E9
:102E3000FA685A613B681A697B685A603B685A684D
:102E40007B689A603B689A687B68DA601437BD4695
:102E50005DF8047B704700BF80B483B000AF78603A
:102E60000B46FB70FB78002B06D07B681B6843F099
:102E700001027B681A6005E07B681B6823F0010291
:102E80007B681A600C37BD465DF8047B704700BF55
:102E900080B485B000AF78600023FB737B681B684B
:102EA00003F00103002B02D00123FB7301E0002398
:102EB000FB73FB7B18461437BD465DF8047B7047F7
:102EC00080B487B000AF786039600023FB750023C1
:102ED000FB607A6846F20F43C4F202039A4205D8B7
:102EE0004FF4C043C4F202033B6104E04FF4C84313
:102EF000C4F202033B613B6803F00053002B03D094
:102F00003B695B68FB6002E03B691B68FB60FB6838
:102F100023F0F02323F08213FB60FA683B68134030
:102F2000002B02D00123FB7501E00023FB75FB7D24
:102F300018461C37BD465DF8047B704780B485B0E9
:102F400000AF786039607A6846F20F43C4F202033A
:102F50009A4205D84FF4C043C4F20203FB6004E078
:102F60004FF4C843C4F20203FB603B6803F0005314
:102F7000002B07D03B6823F0F02323F08213FA687C
:102F8000D36006E03B6823F0F02323F08213FA6855
:102F900093601437BD465DF8047B704780B500AF81
:102FA000012001F019FA80BD80B485B000AF7860CF
:102FB0000023FB607A6813461B019B1ADB001A464C
:102FC00044F62513C2F29243A3FB0213D21A52080D
:102FD00013449B08BB60FB680133FB60FA68BB6865
:102FE0009A4200D900E0F6E71437BD465DF8047B4D
:102FF000704700BF80B584B000AF786039600023AF
:10300000FB733B685B78092B39D801A252F823F097
:1030100061300008753000087F3000086B30000810
:103020007F30000843300008393000087F30000846
:10303000573000084D3000087868396800F042F9D0
:1030400022E07868396800F019FA1DE0786839687C
:1030500000F052FA18E07868396800F0E5FA13E0F9
:103060007868396800F010FB0EE07868396800F085
:1030700039FB09E07868396800F09AFB04E0786869
:10308000396800F003FC00BFFB7B18461037BD46D3
:1030900080BD00BF80B584B000AF78603960002388
:1030A000FB737B6893F81231032B1CD13B689B8820
:1030B000DBB2012B11D87B68D3F8E0359B687868C8
:1030C000396898473B68DB88002B0BD1FB7B002BD2
:1030D00008D1786801F00CFC0AE07868396800F0E3
:1030E000D5FB05E004E07868396800F0CFFB00BF4D
:1030F000FB7B18461037BD4680BD00BF80B584B04D
:1031000000AF786039600023FB733B689B88BB731A
:103110003B685B78012B39D0032B02D0002B6BD09E
:10312000CBE07B6893F81231022B02D0032B0DD039
:1031300026E0BB7B002B08D0BB7B802B05D0BB7B64
:103140007868194601F0FAFA1FE01EE03B685B88D8
:10315000002B0AD1BB7B002B07D0BB7B802B04D07C
:10316000BB7B7868194601F0E9FA7B68D3F8E03553
:103170009B68786839689847786801F0B9FB04E083
:103180007868396800F082FB00BF96E07B6893F8AE
:103190001231022B02D0032B0DD027E0BB7B002B7A
:1031A00008D0BB7B802B05D0BB7B7868194601F02B
:1031B000C5FA20E01FE03B685B88002B15D1BB7B84
:1031C000002B0ED0BB7B802B0BD0BB7B78681946C5
:1031D00001F0EEFA7B68D3F8E0359B6878683968CF
:1031E0009847786801F084FB05E004E07868396866
:1031F00000F04CFB00BF60E07B6893F81231022BBB
:1032000002D0032B0DD052E0BB7B002B08D0BB7B40
:10321000802B05D0BB7B7868194601F08FFA4BE014
:103220004AE0BB7B5BB2002B1BDABB7B03F07F0267
:10323000796813469B001344DB000B4403F58C7341
:103240009B78002B06D040F27063C2F2000301228B
:103250001A6023E040F27063C2F2000300221A6099
:103260001CE0BB7B5BB2002B18DBBA7B7968134692
:103270009B001344DB000B4403F55C739B78002B2D
:1032800006D040F27063C2F2000301221A6005E02A
:1032900040F27063C2F2000300221A60786840F2C4
:1032A0007061C2F20001022201F0DAFA04E07868EB
:1032B000396800F0EBFA00BF00BFFB7B18461037FF
:1032C000BD4680BD80B584B000AF786039603B6892
:1032D0005B881B0A9BB2013B062B00F2B18001A266
:1032E00052F823F001330008333300085D3300083F
:1032F00041340008413400082D34000837340008F8
:103300007B68D3F8E8351B687A68917807F10A0280
:10331000084611469847F8603B68DB88402B04D08C
:103320007B6893F81231012B02D108237B818CE05A
:103330008BE07B68D3F8E0359B6A7A68917807F177
:103340000A02084611469847F860FB6801330222DA
:103350001A707B68FA68C3F8EC2576E03B685B88F6
:10336000DBB2052B5CD801A252F823F085330008AC
:103370009F330008B9330008D3330008ED33000849
:10338000073400087B68D3F8E8355B687A68917881
:1033900007F10A02084611469847F86045E07B6845
:1033A000D3F8E8359B687A68917807F10A020846F5
:1033B00011469847F86038E07B68D3F8E835DB6859
:1033C0007A68917807F10A02084611469847F86032
:1033D0002BE07B68D3F8E8351B697A68917807F1B0
:1033E0000A02084611469847F8601EE07B68D3F849
:1033F000E8355B697A68917807F10A020846114658
:103400009847F86011E07B68D3F8E8359B697A68E3
:10341000917807F10A02084611469847F86004E0DF
:103420007868396800F032FA24E00EE0786839688C
:1034300000F02CFA1EE07868396800F027FA19E0ED
:103440007868396800F022FA14E07B89002B11D0EB
:103450003B68DB88002B0DD03B68DA887B899A4279
:1034600038BF13469BB27B817B897868F9681A461E
:1034700001F0F6F91037BD4680BD00BF80B584B0BD
:1034800000AF786039603B689B88002B2DD13B688A
:10349000DB88002B29D13B685B88DBB203F07F031C
:1034A000FB737B6893F81231032B04D17868396879
:1034B00000F0ECF918E07B68FA7B83F81321FB7BC2
:1034C0007868194601F0AEF9786801F011FAFB7BD3
:1034D000002B04D07B68022283F8122104E07B6871
:1034E000012283F8122104E003E07868396800F0D3
:1034F000CDF91037BD4680BD80B582B000AF786091
:1035000039603B685B88DAB240F27C63C2F2000348
:103510001A7040F27C63C2F200031B78012B04D9BD
:103520007868396800F0B2F97BE07B6893F8123173
:10353000022B02D0032B24D06EE040F27C63C2F257
:1035400000031B78002B18D040F27C63C2F200030A
:103550001A787B6883F810217B68032283F8122194
:1035600040F27C63C2F200031B7878681946FEF7CC
:103570009BFC786801F0BCF953E0786801F0B8F979
:103580004FE040F27C63C2F200031B78002B18D19D
:103590007B68022283F8122140F27C63C2F20003AE
:1035A0001A787B6883F8102140F27C63C2F2000332
:1035B0001B7878681946FEF78FFC786801F098F957
:1035C00029E07B6893F8102140F27C63C2F200038B
:1035D0001B789A421BD07B6893F8103178681946A3
:1035E000FEF77AFC40F27C63C2F200031A787B6833
:1035F00083F8102140F27C63C2F200031B787868E4
:103600001946FEF751FC786801F072F903E078681A
:1036100001F06EF905E004E07868396800F036F9E9
:1036200000BF0837BD4680BD80B582B000AF78606E
:1036300039603B68DB88012B04D07868396800F07A
:1036400025F91EE07B6893F81231022B02D0032B80
:1036500009D011E0786840F27461C2F200010122E1
:1036600001F0FEF80DE07B6803F588737868194671
:10367000012201F0F5F804E07868396800F006F9F5
:1036800000BF0837BD4680BD80B582B000AF78600E
:1036900039607B6893F81231023B012B1AD87B68A2
:1036A000D3F81431002B06D040F27863C2F2000345
:1036B00003221A6005E040F27863C2F2000301229F
:1036C0001A60786840F27861C2F20001012201F0CC
:1036D000C7F804E07868396800F0D8F800BF083708
:1036E000BD4680BD80B584B000AF786039600023EE
:1036F000FB733B685B88012B0ED17B680122C3F80A
:1037000014217B68D3F8E0359B687868396898475E
:10371000786801F0EDF848E03B685B88022B44D103
:103720003B689B88DBB2002B3FD17B681B695B68E1
:10373000BB603B689B881B0A9BB2FB73FB7B013B16
:10374000042B2BD801A252F823F000BF61370008E8
:103750006D37000879370008853700089137000871
:103760003B7A012262F306133B7217E03B7A022296
:1037700062F306133B7211E03B7A032262F30613F5
:103780003B720BE03B7A042262F306133B7205E0C6
:103790003B7A052262F306133B7200BF7B681B690C
:1037A000BA685A60786801F0A3F81037BD4680BD4A
:1037B00080B582B000AF786039607B6893F81231D1
:1037C000023B012B13D83B685B88012B0ED17B6831
:1037D0000022C3F814217B68D3F8E0359B68786831
:1037E00039689847786801F083F805E004E0786864
:1037F000396800F04BF800BF0837BD4680BD00BFF8
:1038000080B483B000AF786039607B6893F8C825D6
:103810003B681A707B6893F8C9253B685A707B68CF
:1038200093F8CA351A467B6893F8CB351B029BB2D6
:1038300013449AB23B685A807B6893F8CC351A4699
:103840007B6893F8CD351B029BB213449AB23B6858
:103850009A807B6893F8CE351A467B6893F8CF350B
:103860001B029BB213449AB23B68DA803B68DB8848
:103870001A467B68C3F83C217B68012283F811213A
:103880000C37BD465DF8047B704700BF80B582B041
:1038900000AF786039603B681B78DBB25BB2002B0D
:1038A00004DA7868802100F049FF0CE03B68DB888F
:1038B000002B04D17868802100F040FF03E0786895
:1038C000002100F03BFF7868FDF7F8F80837BD46A7
:1038D00080BD00BF80B586B000AF786000237B61FB
:1038E0007868FCF701FD0346002B00F09C807868A7
:1038F000FCF70CFD03463B613B69002B01D1002323
:1039000092E0BB7CC3F3C003DBB2002B06D0786827
:1039100000F018FA03467A6913437B61BB7CC3F35A
:103920008003DBB2002B06D0786800F015F903465F
:103930007A6913437B613B7CC3F34003DBB2002B0A
:1039400009D00023FB603B7B43F002033B737B68A1
:10395000DB68FA685A61FB7CC3F3C013DBB2002B4F
:1039600006D0786800F064F803467A6913437B61F7
:103970007B7CC3F3C003DBB2002B06D0786800F079
:1039800097F803467A6913437B613B7CC3F3C0031A
:10399000DBB2002B06D0786800F094FA03467A690F
:1039A00013437B613B7CC3F30013DBB2002B06D0D7
:1039B000786800F0A3FA03467A6913437B617B7C45
:1039C000C3F30013DBB2002B06D0786800F08AFB4B
:1039D00003467A6913437B617B7CC3F34013DBB2FC
:1039E000002B06D0786800F01FFC03467A69134369
:1039F0007B61BB7CC3F30013DBB2002B06D078687D
:103A000000F04EFC03467A6913437B61BB7CC3F331
:103A10004013DBB2002B06D0786800F05DFC034653
:103A20007A6913437B617B6918461837BD4680BDB0
:103A300080B586B000AF78607B689B7A002B11D090
:103A40007B6803F586731B68FB603B7B6FF3410368
:103A50003B733B7B6FF300033B737B68D3F80C3104
:103A6000FA681A6000233B613B7C43F001033B741E
:103A70007B681B697A68126951683A69D2430A40C7
:103A80005A6040F26003C2F200031B689B697868C9
:103A9000984700237B61FB7D43F08003FB757B68C7
:103AA000DB687A695A61012318461837BD4680BD24
:103AB00080B586B000AF786040F26003C2F20003C8
:103AC0001B685B69786898477B681B699B68FB602B
:103AD00000237B617B7D43F008037B757B68DB689B
:103AE0007A695A617B689B7A002B2FD03B7BC3F3AA
:103AF0000003DBB2012B29D100233B613B7C43F067
:103B000001033B747B68D3F80C317A68D2F80C213E
:103B100011683A690A431A603B7C43F002033B7424
:103B20007B68D3F80C317A68D2F80C2111683A69B5
:103B30000A431A604FF46D43CEF200034FF46D4216
:103B4000CEF20002126942F006021A610123184601
:103B50001837BD4680BD00BF80B586B000AF786025
:103B600000233B610023BB607868FCF791FF78611C
:103B7000DFE07B6903F00103002B00F0D4803B6998
:103B8000DBB27868194600F0C3FB0346BB603B7AA2
:103B9000C3F30003DBB2002B35D03B69012202FAEC
:103BA00003F3FB607B681B697A681269516BFA68E2
:103BB000D2430A405A630023BB603B7A43F00103BF
:103BC0003B727A683B6904339B0013449B68BA6874
:103BD0009A6040F26003C2F200031B685B683A69B6
:103BE000D2B27868114698477B68DB78012B0AD1FE
:103BF0003B69002B07D17B6893F81131042B02D16C
:103C00007868FCF75BFF3B7AC3F38003DBB2002BE1
:103C10000DD00023BB603B7A43F004033B727A680B
:103C20003B6904339B0013449B68BA689A603B7AF3
:103C3000C3F3C003DBB2002B0DD00023BB603B7A83
:103C400043F008033B727A683B6904339B001344DA
:103C50009B68BA689A603B7AC3F30013DBB2002B0F
:103C60000DD00023BB603B7A43F010033B727A68AF
:103C70003B6904339B0013449B68BA689A603B7AA3
:103C8000C3F34013DBB2002B0DD00023BB603B7AA3
:103C900043F020033B727A683B6904339B00134472
:103CA0009B68BA689A603B7AC3F38013DBB2002B3F
:103CB0000DD00023BB603B7A43F040033B727A682F
:103CC0003B6904339B0013449B68BA689A603B7A53
:103CD000C3F34003DBB2002B0DD00023BB603B7A63
:103CE00043F002033B727A683B6904339B00134440
:103CF0009B68BA689A603B7AC3F3C013DBB2002BAF
:103D000011D07868396900F07BF90023BB603B7AF9
:103D100043F080033B727A683B6904339B00134491
:103D20009B68BA689A603B6901333B617B695B08B9
:103D30007B617B69002B7FF41CAF01231846183789
:103D4000BD4680BD80B586B000AF786000233B6182
:103D50000023FB607868FCF769FE7861A9E07B6965
:103D600003F00103002B00F09E803B69DBB2786812
:103D70001946FCF771FE0346FB603B7BC3F300036F
:103D8000DBB2002B4BD00023FB603B7B43F00103F5
:103D90003B737A683B6914339B0013445B68FA6891
:103DA0009A607B68DB78012B1FD17A683B691433FA
:103DB0009B0013445B681B69BB6079683A691346D2
:103DC0009B001344DB000B4403F55E731A68BB6869
:103DD000C3F31203D11A78683A6913469B0013445F
:103DE000DB00034403F56273196040F26003C2F222
:103DF00000031B681B683A69D2B27868114698477D
:103E00007B68DB78012B0AD13B69002B07D17B68EB
:103E100093F81131052B02D17868FCF74FFE3B7BFC
:103E2000C3F34003DBB2002B0DD00023FB603B7BD0
:103E300043F002033B737A683B6914339B001344DD
:103E40005B68FA689A603B7BC3F38003DBB2002BAC
:103E50000DD00023FB603B7B43F004033B737A6887
:103E60003B6914339B0013445B68FA689A603B7BA0
:103E7000C3F3C003DBB2002B15D040F26003C2F2E3
:103E800000031B689B68786898470023FB603B7BB6
:103E900043F008033B737A683B6914339B00134477
:103EA0005B68FA689A603B6901333B617B695B0838
:103EB0007B617B69002B7FF452AF012318461837D2
:103EC000BD4680BD80B584B000AF786040F260032D
:103ED000C2F200031B68DB68786898470023FB6028
:103EE0003B7B43F008033B737B68DB68FA685A61ED
:103EF000012318461037BD4680BD00BF80B586B08F
:103F000000AF786000233B613B7C43F010033B74BF
:103F10007B68DB687A68D26891693A69D2430A4063
:103F20009A617B68DB681B6AFB603B7BC3F303031E
:103F3000DBB21A4613469B001344DB0003F55C73A7
:103F40007A6813447B61BB7BC3F34303DBB2013B61
:103F5000052B46D801A252F823F000BFE33F00082A
:103F6000753F0008E33F0008E33F0008E33F000817
:103F7000BF3F0008BB89C3F30A139BB2002B1DD0BF
:103F80007B69DA68BB89C3F30A139BB27868114670
:103F90001A46FCF731F97B69DA68BB89C3F30A1367
:103FA0009BB21A447B69DA607B699A69BB89C3F367
:103FB0000A139BB21A447B699A6113E012E07B6892
:103FC00003F5B963786819460822FCF715F97B698F
:103FD0009A69BB89C3F30A139BB21A447B699A613D
:103FE00000E000BF7B68DB687A68D26891693A6953
:103FF0000A439A61012318461837BD4680BD00BFA9
:1040000080B586B000AF7860396000237B61002303
:10401000BB603A6813469B001344DB0003F58C73C6
:104020007A681344FB60FB685A69FB689B69D31A82
:104030007B61FB689A687B699A4202D2FB689B6845
:104040007B617B6903339B083B617A683B6804337F
:104050009B0013449B689B69BB602EE0FB685A6918
:10406000FB689B69D31A7B61FB689A687B699A42FB
:1040700002D2FB689B687B617B6903339B083B61D1
:10408000FB68D9683B68DAB27B699BB27868FCF759
:104090007BF8FB68DA687B691A44FB68DA60FB68C6
:1040A0009A697B691A44FB689A617A683B680433B1
:1040B0009B0013449B689B69BB603B891A463B6924
:1040C0009A4209D9FB689A69FB685B699A4203D2F4
:1040D000FB685B69002BC1D1012318461837BD4628
:1040E00080BD00BF80B58AB000AF786000233B611F
:1040F00000233B620023FB610023BB6100237B6143
:104100000023FB603B7C43F001033B747B681B692D
:104110007A68126951683A69D2430A405A607868ED
:104120000021FCF797F800237B6212E07A687B6A33
:1041300004339B0013449B68FF229A607A687B6A71
:1041400014339B0013445B68FF229A607B6A01333F
:104150007B627B685B781A467B6A9A42E6D87B680A
:104160001B694FF0FF329A613B8C012262F30F030F
:104170003B847B8C012262F30F037B847B681B6989
:104180003A6ADA613B7F43F008033B773B7F43F0B9
:1041900001033B773B7F43F004033B773B7F43F0D6
:1041A00002033B777B681B69FA695A613B7E43F0E7
:1041B00001033B763B7E43F008033B763B7E43F0B6
:1041C00002033B763B7E43F004033B763B7E43F0A9
:1041D00020033B767B681B69BA691A617B681B699F
:1041E0001B687B61BB8A6FF30A13BB827B681B6908
:1041F0007A691A607868FCF761FC0023FB607B7BBE
:1042000043F010037B737B68DB68FA685A6140F205
:104210006003C2F200031B681B697868984701239A
:1042200018462837BD4680BD80B584B000AF7860A1
:104230007868FCF7A7F87B68DB68DB68BB607868A8
:10424000FCF77CF80346032B0CD17B6800229A70A4
:104250007B684FF400729A807B7A092262F38503AF
:104260007B720AE07B6801229A707B6840229A8008
:104270007B7A052262F385037B727B68DB68BA6810
:10428000DA600023FB607B7B43F020037B737B6859
:10429000DB68FA685A61012318461037BD4680BDB5
:1042A00080B584B000AF78600023FB6040F260030B
:1042B000C2F200031B68DB6978689847BB7B43F058
:1042C0001003BB737B68DB68FA685A6101231846E8
:1042D0001037BD4680BD00BF80B584B000AF7860A8
:1042E0000023FB6040F26003C2F200031B681B6AFC
:1042F00078689847BB7B43F02003BB737B68DB681F
:10430000FA685A61012318461037BD4680BD00BFC8
:1043100080B487B000AF78600B46FB707B681B6988
:104320001B697B617B681B695B6B3B61FB783A694E
:1043300022FA03F3DB01DBB27A6913437B61FB787A
:104340007A6804339B0013449B689A687B69134026
:10435000FB60FB6818461C37BD465DF8047B704760
:1043600080B483B000AF786039600C37BD465DF82B
:10437000047B704780B400AF00231846BD465DF84B
:10438000047B704780B483B000AF78600B467B80BD
:104390007B687A889A810C37BD465DF8047B70474C
:1043A00080B485B000AF78600B467B800023FB7340
:1043B0007B681B899AB27B8813409BB2002B02D08A
:1043C0000123FB7301E00023FB73FB7B18461437CA
:1043D000BD465DF8047B704780B485B000AF78605F
:1043E0000023FB730023BB604FF47053C4F201033E
:1043F0001A687B681340BB604FF47053C4F201032A
:104400005A697B681340002B05D0BB68002B02D093
:104410000123FB7301E00023FB73FB7B1846143779
:10442000BD465DF8047B704780B483B000AF786010
:104430004FF47053C4F201037A685A610C37BD46D9
:104440005DF8047B704700BF80B582B000AF4FF4C9
:10445000C06000F02FF827233B7101237B710023FC
:10446000BB710123FB713B1D184600F037F84FF478
:10447000E06000F01FF814233B7100237B710023E0
:10448000BB710123FB713B1D184600F027F84FF468
:10449000E06000F00FF813233B7101237B710023D0
:1044A000BB710123FB713B1D184600F017F808375C
:1044B000BD4680BD80B483B000AF78604FF46D43DB
:1044C000CEF200037A6842F0BF6242F40032DA6052
:1044D0000C37BD465DF8047B704700BF80B485B0E3
:1044E00000AF78600023FB730023BB730F237B7343
:1044F0007B68DB78002B40D04FF46D43CEF2000395
:10450000DB68DB4303F4E0631B0AFB73FB7BC3F153
:104510000403BB737A7BFB7B42FA03F37B737B68F8
:104520005B781A46BB7B02FA03F3FB737B689A78CD
:104530007B7B1340DAB2FB7B1343FB73FB7B1B01DA
:10454000FB734FF46143CEF200037A681278134490
:10455000FA7B83F800234FF46143CEF200037A68BC
:1045600012785209D2B27968097801F01F0101204E
:1045700000FA01F143F8221011E04FF46143CEF24A
:1045800000037A6812785209D2B27968097801F08A
:104590001F01012000FA01F1203243F822101437E4
:1045A000BD465DF8047B704780B584B000AF78608D
:1045B000F9703A80BB70FB785BB2002B0CDAFB78A9
:1045C00003F07F0213469B001344DB0003F58C735A
:1045D0007A681344FB600BE0FB7803F07F0213461C
:1045E0009B001344DB0003F55C737A681344FB60A3
:1045F000FB7803F07F03DAB2FB681A70FB78DB0903
:10460000DBB21A46FB685A703A88FB689A60FB680E
:10461000BA78DA70FB685B78002B04D0FB681B78F3
:104620001A46FB68DA80BB78022B02D1FB680022B5
:104630001A717868F968FBF7E1FE00231846103715
:10464000BD4680BD80B586B000AFF8607A600A468E
:10465000FA723B81FB7A03F07F0213469B001344FE
:10466000DB0003F55C73FA6813447B617B697A684D
:10467000DA603A897B695A617B6900229A617B69B9
:1046800000225A70FB7A03F07F03DAB27B691A705A
:10469000FB68DB78012B02D17A687B691A617B6940
:1046A0001B78002B04D1F8687969FCF755F803E012
:1046B000F8687969FBF710FF002318461837BD46E4
:1046C00080BD00BF80B586B000AFF8607A603B6007
:1046D0000B46FB72FB7A03F07F0213469B001344E8
:1046E000DB0003F58C73FA6813447B617B6901225C
:1046F0005A70FB7A03F07F03DAB27B691A707B6928
:104700007A68DA607A687B691A617B6900229A614B
:104710007B693A685A617B691B78002B04D1F86881
:104720007969FCF719F803E0F8687969FBF7D4FEBA
:10473000002318461837BD4680BD00BF80B584B041
:1047400000AF78600B46FB70FB785BB2002B0CDA95
:10475000FB7803F07F0213469B001344DB0003F554
:104760008C737A681344FB6009E0FA7813469B0067
:104770001344DB0003F55C737A681344FB60FB6849
:1047800001229A70FB7803F07F03DAB2FB681A709B
:10479000FB78DB09DBB21A46FB685A707868F96867
:1047A000FCF7C4F8002318461037BD4680BD00BF93
:1047B00080B584B000AF78600B46FB70FB785BB2CD
:1047C000002B0CDAFB7803F07F0213469B001344A6
:1047D000DB0003F58C737A681344FB6009E0FA7818
:1047E00013469B001344DB0003F55C737A681344A3
:1047F000FB60FB6800229A70FB7803F07F03DAB25B
:10480000FB681A70FB78DB09DBB21A46FB685A704A
:104810007868F968FCF7CEF8002318461037BD46D3
:1048200080BD00BF80B485B000AF78600B46FB70E0
:104830000023FB60FB7803F07F03DAB2BB8962F3ED
:104840000A13BB817B681B697A6812691168FA6870
:104850000A431A601437BD465DF8047B704700BFF9
:1048600080B586B000AFF860B9601346FB800023C6
:10487000FB75FA88FB68C3F83821FA88FB68C3F82F
:104880003421FB68022283F81121FB88F86800219B
:10489000BA68FFF717FFFB7D18461837BD4680BD85
:1048A00080B586B000AFF860B9601346FB80002386
:1048B000FB75FB88F8680021BA68FFF703FFFB7DF2
:1048C00018461837BD4680BD80B586B000AFF86089
:1048D000B9601346FB800023FB75FB88F868002154
:1048E000BA68FFF7AFFEFB7D18461837BD4680BD9E
:1048F00080B584B000AF78600023FB737B6804222E
:1049000083F811217868002100220023FFF7DAFEE6
:104910007868FCF7D3F8FB7B18461037BD4680BD9E
:1049200080B584B000AF78600023FB737B680522FC
:1049300083F811217868002100220023FFF782FE0E
:104940007868FCF7BBF8FB7B18461037BD4680BD86
:1049500080B483B000AF78600B467B807B88DB43FC
:104960009AB27B681A820C37BD465DF8047B7047AB
:1049700080B485B000AF78600B467B800023FB736A
:104980000023BB8100237B817B681B8A9AB27B88D2
:104990001340BB817B689B899AB27B8813407B81E3
:1049A000BB89002B05D07B89002B02D00123FB7330
:1049B00001E00023FB73FB7B18461437BD465DF80E
:1049C000047B704780B586B000AF4FF48020012192
:1049D000FDF728FD08200121FDF7FCFC4FF4407392
:1049E0003B6102233B750023BB750023FB7503234A
:1049F0007B7507F110034FF44060C4F202001946C2
:104A0000FDF7CAFF4FF44060C4F2020008210722FC
:104A1000FEF750F84FF44060C4F20200092107226B
:104A2000FEF748F84FF4E1333B600023BB800023DE
:104A3000FB8000233B810023BB810C237B813B4611
:104A40004FF49040C4F200001946FCF7D9F94FF436
:104A50009040C4F200000121FCF796FA4FF4904018
:104A6000C4F2000040F225510122FCF7CFFA1837BA
:104A7000BD4680BD80B483B000AF0346FB7140F2F9
:104A80008C03C2F200031A6840F64063C2F20003CE
:104A9000F979995440F28C03C2F200031B685A1C46
:104AA00040F28C03C2F200031A6040F28C03C2F29F
:104AB00000031B68C72B05DD40F28463C2F20003CC
:104AC00000221A6040F28C03C2F2000301221A6035
:104AD0000C37BD465DF8047B704700BF80B582B0DF
:104AE00000AF0346FB714FF49040C4F2000040F267
:104AF00027710022FCF78AFA40F29403C2F2000305
:104B00001A6840F67853C2F20003F979995440F2DA
:104B10009403C2F200031B685A1C40F29403C2F2D1
:104B200000031A6040F29403C2F200031B68C72B13
:104B300005DD40F28C63C2F2000300221A6040F2ED
:104B40009403C2F2000301221A604FF49040C4F2B1
:104B5000000040F227710122FCF758FA0837BD46E1
:104B600080BD00BF80B582B000AF78604FF4904048
:104B7000C4F2000040F227710022FCF747FA25E05A
:104B800040F29403C2F200031A687B68591C7960F2
:104B9000197840F67853C2F20003995440F2940316
:104BA000C2F200031B685A1C40F29403C2F20003D5
:104BB0001A6040F29403C2F200031B68C72B05DDA4
:104BC00040F29403C2F2000300221A607B681B7853
:104BD000002BD5D14FF49040C4F2000040F2277171
:104BE0000122FCF713FA0837BD4680BD80B582B0BC
:104BF00000AF4FF48050C4F2010040F22551FCF7A1
:104C00004DFA0346002B07D04FF48050C4F2010048
:104C1000FCF7ECF90346FB710837BD4680BD00BFC9
:104C200080B582B000AF4FF48840C4F2000040F27B
:104C30002551FCF733FA0346002B0BD04FF4884084
:104C4000C4F20000FCF7D2F90346FB71FB79184669
:104C5000FFF710FF4FF48840C4F2000040F22771C4
:104C6000FCF71CFA0346002B39D040F28463C2F2F1
:104C700000031B681A46511C40F28463C2F2000311
:104C8000196040F64063C2F200039B5C4FF4884019
:104C9000C4F200001946FCF797F940F28463C2F2AF
:104CA00000031B68C72B05DD40F28463C2F20003DA
:104CB00000221A6040F28463C2F200031A6840F2D4
:104CC0008C03C2F200031B689A4208D14FF488405B
:104CD000C4F2000040F227710022FCF797F9083770
:104CE000BD4680BD80B582B000AF4FF49040C4F2A5
:104CF000000040F22551FCF7D1F90346002B0BD000
:104D00004FF49040C4F20000FCF770F90346FB71C9
:104D1000FB791846FFF7E2FE4FF49040C4F2000022
:104D200040F22771FCF7BAF90346002B39D040F264
:104D30008C63C2F200031B681A46511C40F28C635C
:104D4000C2F20003196040F67853C2F200039B5C84
:104D50004FF49040C4F200001946FCF735F940F2D8
:104D60008C63C2F200031B68C72B05DD40F28C6325
:104D7000C2F2000300221A6040F28C63C2F2000308
:104D80001A6840F29403C2F200031B689A4208D1E9
:104D90004FF49040C4F2000040F227710022FCF76B
:104DA00035F90837BD4680BD8307F0B448D0541E9E
:104DB000002A43D0CDB2034602E0002C3ED0144678
:104DC00003F8015B13F0030F04F1FF32F5D1032C5C
:104DD0002DD9CDB20F2C45EA052545EA054518D950
:104DE000A4F1100703F110061A463F0906EB071657
:104DF0001560103242F80C5C42F8085C42F8045C22
:104E0000B242F5D104F00F040137032C03EB071372
:104E10000DD91E462246043A46F8045B032AFAD806
:104E2000221F04F0030422F00302043213442CB1C5
:104E3000C9B21C4403F8011BA342FBD1F0BC70476C
:104E400014460346C3E700BF0CB40B4670B59CB0D4
:104E500020AC02A902936FF0004554F8042B4FF4E4
:104E6000027606932346ADF8146001944FF6FF7462
:104E700004950795ADF8164000F030F8029B00222B
:104E80001A701CB0BDE8704002B070470EB440F21A
:104E90009C03F0B59CB021ACC2F20003064602A907
:104EA00054F8042B6FF0004518684FF4027723463E
:104EB000029606964FF6FF760194ADF814700495AD
:104EC0000795ADF8166000F009F8029B00221A70F1
:104ED0001CB0BDE8F04003B0704700BF2DE9F04FB3
:104EE000C9B0914614930B910E9002F0F9FA006844
:104EF0001A9003F065FC0B9CA3891D90180603D53E
:104F00002369002B01F079804AF6F45538ACC0F6DD
:104F1000000515950DF1DF050895159D38AF09942D
:104F20004AF6546405F11006089D0023C0F60004FB
:104F3000119317947C1B1B931C9319931E9312932C
:104F400021942D932C932B9799F80030252B18BF83
:104F5000002B00F0B38009F10102144601322378DE
:104F6000252B18BF002BF8D1B4EB09050FD02C9BD3
:104F70002D9A0133C7F80090072B7D602A442C93AB
:104F80002D92D8BF08377FDC1298284412902378DE
:104F9000002B00F0818000238DF88F301A46139388
:104FA0000A9304F1010963784FF0FF340C9409F17E
:104FB0000109A3F12001582900F20A84DFE811F069
:104FC0008E03080408049503080408040804080470
:104FD000080408049C03480308045D003502080423
:104FE000EF03F603F603F603F603F603F603F60300
:104FF000F603F60308040804080408040804080477
:1050000008040804080408046E02900208049002D0
:105010000804080408040804CD0208040804D402A3
:1050200008040804080408040804550208040804D5
:10503000BC0308040804080408040804080408045D
:10504000080408040804A803D70390029002900201
:105050008703D703080408044C0308045E032402F2
:105060007003F0020804F702080480000804080432
:105070002003139C1493644213940A9D45F0040585
:105080000A9599F8003092E70E982BAA0B9903F035
:10509000C7FB40B938AF77E72D9B23B10E982BAAF9
:1050A0000B9903F0BDFB0B9C1298A38913F0400FE2
:1050B00018BF4FF0FF3049B0BDE8F08F4C4666E7AF
:1050C0000A9C1693A30640F1D981149D0123EA1D81
:1050D00022F0070202F108041494D2E900454FF0CF
:1050E000000A8DF88FA00C9800280C98A2BF0A998E
:1050F00021F080010A9154EA05020CBF002201222E
:10510000002818BF42F00102002A00F0E583012BBD
:1051100000F00985022B0DF1DF0240F05981DDF826
:1051200064C004F00F01230943EA057328091CF841
:1051300001101C460546904654EA050002F1FF3274
:1051400088F80010EDD1099BC8EB030310930C9C69
:10515000109DA542B8BF254600240D951894BAF1BC
:10516000000F02D00D9D01350D950A9B13F002032F
:105170000F931EBF0D9C02340D940A9C14F08405FD
:1051800040F04683139C0D98C0EB040BBBF1000F5D
:1051900040F33E83BBF1100F4AF6F45A2D99DCBF61
:1051A000C0F6000A2C9A32DDC0F6000ACDF87C80E9
:1051B0002095D8462C9AD3461024CA46159DDDF872
:1051C0002C9004E0A8F11008B8F1100F19DD01329D
:1051D0001031072A3D607C6007F108072C922D9161
:1051E000F0DD0E9849462BAA38AF03F019FB0028D2
:1051F0007FF459AFA8F110082D99B8F1100F2C9A2F
:10520000E5DCD146209DDA46C346DDF87C800132DC
:105210000BEB0104072A2C922D9487E8000C00F375
:10522000EC829DF88FA00837BAF1000F0ED02C9BAE
:105230000DF18F0201343A6001330122072B7A60AD
:105240002D94D8BF08372C9300F302840F9B6BB1C9
:105250002C9B24AA02343A6001330222072B7A6085
:105260002D94D8BF08372C9300F3FE83802D00F0D7
:1052700046830C9D109BC3EB050ABAF1000F43DD7A
:10528000BAF1100F2C9BDCBF944D0F9527DD93488E
:1052900022461025DDF838B00B9C0F9004E0AAF1EF
:1052A000100ABAF1100F19DD01331032072B3E60DE
:1052B0007D6007F108072C932D92F0DD58462146BA
:1052C0002BAA38AF03F0ACFA00287FF4ECAEAAF1B9
:1052D000100A2D9ABAF1100F2C9BE5DC144601330D
:1052E0000F9D072B54442C9387E82004D8BF083720
:1052F0002D9409DD0E982BAA0B9903F091FA002842
:105300007FF4D1AE2D9C38AF0A9DEB0500F182826F
:105310002C9B109D0133C7F80080072B2C447D6027
:105320002D942C9300F37A8308370A9D6B0740D5A0
:1053300013980D99451A002D3BDD102D4AF6F45AAD
:105340002C9BC0F6000A22DD22464FF01008DDF843
:1053500038B0159C02E0103D102D17DD01331032DE
:10536000072B87E810012C9307F108072D92F2DD37
:1053700058460B992BAA38AF03F052FA00287FF455
:1053800092AE103D2D9A102D2C9BE7DC1446013374
:105390002C44072B2C932D94C7F800A07D6008DDCA
:1053A0000E982BAA0B9903F03BFA00287FF47BAEF2
:1053B0002D9C129D0D9913988142ACBF6D182D182C
:1053C0001295002C40F03583002338AF2C93BBE5B9
:1053D000E308E90843EA457390460D4604F00702E6
:1053E0001C4602F1300354EA050108F1FF3288F847
:1053F0000030EDD10A9C4146E00700F1F584099D9B
:10540000C8EB05051095A2E60A9D169315F020033A
:1054100000F0B480149C0023E21D22F0070202F188
:1054200008051495D2E9004559E699F8003009F1CC
:1054300001042A2B00F09187A3F13001092982BFD2
:10544000A14600240C943FF6B4AD002000EB800090
:1054500014F8013B01EB4000A3F130010929F5D913
:1054600040EAE070A1460C90A3E50A9D169345F032
:1054700010050A950A9CA3063FF527AE0A9DED0686
:1054800000F1C4830A9C640640F1C083149800258F
:105490000123043030F8044C149020E60A9C169343
:1054A00044F010040A940A9D8DF88F20A90640F15B
:1054B0006581149CE31D23F0070303F1080514958F
:1054C000D3E9002314461D46002A73F10000C0F200
:1054D000BB839DF88FA0012305E600BF04AE000842
:1054E0000A9C169325078DF88F2040F1AB84149DFC
:1054F000EB1D23F0070303F1080414941D681B95AA
:105500005B681C931B981C9903F000F801281B98FA
:1055100040F07884002200231C9905F089F80028C7
:1055200040F04A869DF88FA0032500244AF61868AB
:105530004AF614630D95C0F600080A9DC0F60003F4
:105540000C94169C25F080050A950325472CD8BF9E
:10555000984610950024189401E60A9D45F0080528
:105560000A9599F8003022E50A9C169344F010043D
:105570000A940A9D15F020037FF44CAF0A9C14F0A6
:10558000100240F04C830A9C14F0400300F0478363
:10559000149813460025043030F8044C14909EE50E
:1055A0000A9D45F020050A9599F80030FFE4149C07
:1055B0000025169304348DF88F5054F8048CB8F1FC
:1055C000000F00F0D9850C9800284046C0F2AB854A
:1055D00029460C9A02F05EFA002800F0FF85149428
:1055E000C8EB00000C9C0C95A042B8BF0446109478
:1055F00024EAE4750C9C0D959DF88FA01894AEE5F7
:105600000A9D4AF63864C0F600041693A8068DF881
:105610008F20199440F19C80149CE31D23F0070314
:1056200003F108051495D3E900450A98C30740F132
:10563000278254EA050100F02382169A302340F0B5
:1056400002008DF890300A9002238DF8912046E5F3
:1056500099F800302B22AAE499F8003049466C2BC7
:1056600005BF09F101090A9D0A9C45F020050BBF01
:105670004B7844F010040A950A9498E40A9D8DF83A
:105680008F20A90640F1EB83149C2168129C2246CE
:10569000E5172B46149DC1E900230435149553E406
:1056A000149A4AF638600A9D7823C0F600008DF8F7
:1056B000913045F0020516930A953023151D8DF89B
:1056C00090301495022314680025199007E50A9C70
:1056D00044F040040A9499F8003068E499F80030E6
:1056E000002A7FF464AC202261E40A9D45F00105A4
:1056F0000A9599F800305AE4149C149D24682B1DD7
:10570000002C1394FFF6B5AC149399F800304EE4D6
:10571000149A0124149D0DF1B80816930023126801
:1057200004359A460D9414958DF88F300C93189388
:1057300010948DF8B82018E50A9D4AF62464C0F646
:1057400000041693A8068DF88F2019943FF564AFD6
:105750000A9CE10600F153820A9C620640F14F82E6
:1057600014980025043030F8044C14905DE70A9D2D
:105770001693A9068DF88F203FF59BAE0A9CE20692
:1057800000F155820A9C630640F15182149804305E
:1057900030F9044C14902246E5172B4694E60A9DF6
:1057A00045F080050A9599F8003000E40024A3F143
:1057B00030012046139400EB800019F8013B01EB07
:1057C0004000A3F130010929F5D91390FFF7F1BB8F
:1057D00016938DF88F20002B3FF45EAC169C0023AF
:1057E00001259A460D950DF1B8088DF8B8408DF851
:1057F0008F300C9318931095B7E40E982BAA0B9941
:1058000003F00EF800287FF44EAC9DF88FA038AF5F
:105810002D9C09E5169D652D40F3B9801B9800224B
:1058200000231C9904F0FAFE002800F02C812C9B28
:105830000122179D013413447A60072B2D943D609B
:10584000D8BF08372C9300F31683259B119DAB42DC
:1058500003DB0A9DED077FF568AD1D9D2C9B2C4455
:105860001A9D01332D94072B2C933D601D9D7D6067
:10587000D8BF083700F35E83119D05F1FF38B8F1FA
:10588000000F7FF752ADB8F1100F2C9B40F3AA81A7
:10589000AC4D4FF0100ADDF82CB00F950E9D05E0D1
:1058A000A8F11008B8F1100F40F39E8101331034B5
:1058B000072B87E840042C9307F108072D94EFDDB0
:1058C000284659462BAA38AF02F0AAFF00287FF4D9
:1058D000EAAB2D9C2C9BE3E7002B40F0B4800A9CA4
:1058E000E2075CBF10930DF1E0087FF530AC219D1D
:1058F00030230DF1DF088DF8DF30109527E4139881
:105900000D99451A002D7FF7B4AC102D2C9BDCBFF0
:105910008C4A0F9224DD8B4822464FF0100BDDF8A5
:1059200038A00B9C0F9002E0103D102D17DD0133C5
:105930001032072B87E840082C9307F108072D92B7
:10594000F2DD504621462BAA38AF02F069FF00284D
:105950007FF4A9AB103D2D9A102D2C9BE7DC14464B
:1059600001330F99072B2C442C9387E82200D8BFD2
:1059700008372D947FF77DAC0E982BAA0B9902F077
:105980004FFF00287FF48FAB2D9C38AF71E4119D41
:105990002C9B012D40F3E2810121621C0B44C7F8CE
:1059A0000080072B79602D92D8BF08372C9300F325
:1059B000F4811A9D5C1CDDF874A0072C2C943D60CA
:1059C00092441D9DCDF8B4A07D60D8BF083700F388
:1059D000D7811B98002200231C9904F01FFE002889
:1059E00040F0B2800134119D072C08F1010205F14D
:1059F000FF332C949A443A60CDF8B4A07B6000F356
:105A0000E4800837631C1E9D1E9C072B27AA2C933D
:105A1000544487E824002D947FF786AC0E982BAA77
:105A20000B9902F0FDFE00287FF43DAB2D9C38AFB2
:105A30007BE40E982BAA0B9902F0F2FE00283FF4AB
:105A4000C3ACFFF730BB10920DF1E008FFF77FBB4E
:105A50000E982BAA0B9902F0E3FE00287FF423ABEB
:105A60002D9C38AFFFF7F2BB0E982BAA0B9902F0D2
:105A7000D7FE00287FF417AB2D9C38AFFFF7F6BB9D
:105A80000223FFF72CBB259B002B40F3FF81119DC8
:105A9000189811998542A8BF0546002D41440C91E4
:105AA0000CDD2C9B2C44C7F8008001337D60072B54
:105AB0002D942C93D8BF083700F34383189A25EA16
:105AC000E575C5EB020ABAF1000F40F3DD80BAF1CB
:105AD000100F2C9BDCBF1B4D0F9540F3C080194D60
