:020000040800F2
:1000000050190020C5130008C51F0008D11F0008A3
:10001000DD1F0008E91F0008F51F000800000000B0
:1000200000000000000000000000000001200008A7
:100030000D200008000000001920000825200008FD
:1000400025140008251400082514000825140008AC
:10005000251400082514000825140008251400089C
:10006000251400082514000825140008ED0F0008C9
:10007000251400082514000825140008251400087C
:10008000251400082514000825140008251400086C
:10009000251400082514000825140008251400085C
:1000A000251400082514000825140008251400084C
:1000B0002514000825140008C52000082514000890
:1000C000251400082514000825140008251400082C
:1000D0002514000895490008C94900088D4A000800
:1000E00025140008251400088120000825140008A4
:1000F0009D2100082514000825140008E10F0008C0
:10010000251400082D23000831210008F90F0008EC
:1001100025140008251400082514000825140008DB
:1001200025140008251400082514000839230008A8
:1001300025140008251400082514000825140008BB
:100140002514000825140008251400086D20000857
:10015000251400082514000825140008251400089B
:10016000251400082514000825140008251400088B
:10017000251400082514000825140008251400087B
:10018000251400082514000880B489B000AFF86079
:10019000B960FA71BB800023FB76FB68DB78002B2B
:1001A00023D100237B610023FB61BB880333DA1C6E
:1001B000002BB8BF13469B107B61FB79FA68323382
:1001C0009B0013449B683B610023FB6109E0BB6813
:1001D0001A683B691A60FB690133FB61BB68043331
:1001E000BB60FA697B699A42F1D3FB7E18462437DB
:1001F000BD465DF8047B704780B489B000AFF860FD
:10020000B9601346FB800023FB61FB880333DA1CD3
:10021000002BB8BF13469B10BB61FB68D3F8D030EE
:100220007B610023FB6109E07B691A68BB681A6087
:10023000FB690133FB61BB680433BB60FA69BB69CE
:100240009A42F1D3BB6818462437BD465DF8047B5B
:10025000704700BF80B586B000AF7860396000237A
:10026000FB7400237B610023FB60FB6843F02003E9
:10027000FB603B68DBB203F01F03DAB2FB6862F39A
:100280008A13FB607B68DB68FA681A617B68DB684D
:100290001B69FB607B6901337B617A694FF45463AE
:1002A000C0F203039A4200D905E0FB68C3F3401390
:1002B000DBB2012BEAD0032002F046FBFB7C1846A0
:1002C0001837BD4680BD00BF80B483B000AF7860F2
:1002D0007B68DB685B6903F0010318460C37BD4699
:1002E0005DF8047B704700BF80B582B000AF7860D6
:1002F0007868FFF7E9FF0346012B0CBF00230123B9
:10030000DBB218460837BD4680BD00BF80B485B05B
:1003100000AF78600023FB607B68DB685B69FB6093
:100320007B68DB689B69FA681340FB60FB681846D2
:100330001437BD465DF8047B704700BF80B485B0BC
:1003400000AF78600023FB737B681B699B68BB6010
:100350003B7AC3F34103DBB2022B09D0032B04D059
:10036000012B02D00323FB7305E00223FB7302E0A1
:100370000123FB7300BFFB7B18461437BD465DF8B5
:10038000047B704780B487B000AF78600023FB75B2
:100390000023BB607B681B699B683B617B689B6932
:1003A0001B68FB603B7CC3F34103DBB2022B04D030
:1003B000BB896FF30A03BB8105E0BB89032262F3AB
:1003C0000A03BB8100BF7B689B69FA681A607B7A6D
:1003D00043F001037B727B681B697A68126951687C
:1003E000BA68D2431140BA680A435A60FB7D184686
:1003F0001C37BD465DF8047B704700BF80B487B0F2
:1004000000AF786039600023FB740023FB60002399
:10041000BB603B685B78012B0FD13B681B787A6827
:1004200004339B0013449B687B613B681B7801226B
:1004300002FA03F39BB23B810EE03B681B787A68BB
:1004400014339B0013445B687B613B681B7801227B
:1004500002FA03F39BB27B817B691B68FB607B7BA9
:10046000C3F3C013DBB2002B27D13B689B689BB260
:10047000C3F30A039AB2BB8962F30A03BB813B68E8
:10048000DB7803F00303DAB2BB7B62F38303BB7355
:100490003B68DB88DBB203F00F03DAB2FB8962F35F
:1004A0008913FB81FB7B43F01003FB737B7B43F0E1
:1004B00080037B73FA687B691A607B681B697A68C2
:1004C0001269D169BA680A43DA61FB7C18461C37A5
:1004D000BD465DF8047B704780B588B000AF78609A
:1004E00039600023FB770023BB6100237B6100237D
:1004F0003B613B685B78012B40F0AB803B681B782D
:100500007A6804339B0013449B681B687B613B68DB
:100510001B787A6804339B0013449B681B693B611A
:100520003B685B69002B09D13B696FF312033B61A8
:100530007B8A012262F3CC037B8222E03B685B6909
:10054000C3F312023B6962F312033B613B685A69D1
:100550003B689B6813445A1E3B689B68B2FBF3F3ED
:100560009BB2C3F309039AB27B8A62F3CC037B820A
:100570003B68DB78012B04D1FB7C012262F346133C
:10058000FB743B681B787A6804339B0013449B68B8
:100590003A691A617B68DB78012B0AD13B681B78CA
:1005A0007A6804339B0013449B683A6812695A6165
:1005B00015E03B68DB78012B11D03B685B69002BB1
:1005C0000DD03B681B78012202FA03F3BB617B6804
:1005D0001B697A681269516BBA690A435A633B68AE
:1005E000DB78012B14D17B681B699B68FB60FB687F
:1005F000C3F30D239BB203F00103002B04D1FB7D59
:1006000043F02003FB7503E0FB7D43F01003FB7513
:10061000FB7D43F00403FB75FB7D43F08003FB751A
:100620003B681B787A6804339B0013449B687A69A3
:100630001A603B68DB78012B40F088803B68D96802
:100640003B681A783B685B699BB27868FFF79CFD52
:100650007CE03B681B787A6814339B0013445B682A
:100660001B687B613B681B787A6814339B001344DA
:100670005B681B693B613B685B69002B0DD13B6884
:100680009B68C3F312023B6962F312033B617B8AEE
:10069000012262F3CC037B821FE03B685A693B680E
:1006A0009B6813445A1E3B689B68B2FBF3F39BB2F2
:1006B000C3F309039AB27B8A62F3CC037B827B8A01
:1006C000C3F3C9039BB23A68926802FB03F3C3F316
:1006D00012023B6962F312033B613B681B787A6844
:1006E00014339B0013445B683A691A617B68DB78BA
:1006F000012B09D13B681B787A6814339B001344A3
:100700005B683A6812695A613B68DB78012B0CD14F
:100710003B685B79002B04D0FB7D43F02003FB7525
:1007200003E0FB7D43F01003FB75FB7D43F0040306
:10073000FB75FB7D43F08003FB753B681B787A6893
:1007400014339B0013445B687A691A60FB7F184678
:100750002037BD4680BD00BF80B489B000AF78604F
:1007600039600023FB770023BB6100233B6100233A
:10077000BB603B685B78012B6FD17B689B697B61B9
:100780007B691B683B617B691B69BB603B685B697C
:10079000002B09D13B7A6FF306033B72BB7A01222F
:1007A00062F3C403BB7223E03B685A693B689B68F1
:1007B0009A420ED93B689A683B685A613B689B68CD
:1007C000DBB203F07F03DAB23B7A62F306033B72DB
:1007D00009E03B685B69DBB203F07F03DAB23B7A86
:1007E00062F306033B72BB7A012262F3C403BB725D
:1007F000BA687B691A617B68DB78012B09D13B6899
:100800001B787A6804339B0013449B683A6812692A
:100810005A61FB7C43F00403FB74FB7C43F08003D0
:10082000FB743A697B691A607B68DB78002B75D1B1
:100830003B685B69002B71D03B681B78012202FA90
:1008400003F3BA691343BB617B681B697A68126959
:10085000516BBA690A435A6360E03B681B787A6857
:1008600014339B0013445B681B683B613B681B7837
:100870007A6814339B0013445B681B69BB603B6858
:100880005B69002B0FD13B689B68DBB203F07F03F1
:10089000DAB23B7A62F306033B72BB7A012262F35F
:1008A000C403BB7212E03B689A683B685A613B68BC
:1008B0009B68DBB203F07F03DAB23B7A62F3060394
:1008C0003B72BB7A012262F3C403BB723B681B78A4
:1008D0007A6814339B0013445B68BA681A617B68BA
:1008E000DB78012B09D13B681B787A6814339B00B5
:1008F00013445B683A6812695A61FB7C43F0040355
:10090000FB74FB7C43F08003FB743B681B787A68C4
:1009100014339B0013445B683A691A60FB7F1846E6
:100920002437BD465DF8047B704700BF80B487B0B4
:1009300000AF786039600023FB750023FB603B68E3
:100940005B78012B1CD13B681B787A6804339B00D1
:1009500013449B683B613B691B68FB60FB7BC3F3F3
:10096000C013DBB2002B03D0FB7B43F04003FB73CF
:10097000BB7B43F02003BB73FA683B691A6011E04C
:100980003B681B787A6814339B0013445B683B61B7
:100990003B691B68FB60BB7B43F02003BB73FA68B9
:1009A0003B691A60FB7D18461C37BD465DF8047B29
:1009B000704700BF80B487B000AF78603960002313
:1009C000FB740023FB603B685B78012B08D13B681C
:1009D0001B787A6804339B0013449B687B6107E0B3
:1009E0003B681B787A6814339B0013445B687B6117
:1009F0007B691B68FB60BB7B6FF34513BB733B6874
:100A0000DB78032B03D03B68DB78022B03D1FB7B25
:100A100043F01003FB73FA687B691A60FB7C18468D
:100A20001C37BD465DF8047B704700BF80B485B0BD
:100A300000AF78607B681B699B69FB607B681B6902
:100A4000DB69FA681340FB60FB681B0C184614371F
:100A5000BD465DF8047B704780B485B000AF786018
:100A60000B46FB70FB787A6814339B0013445B6879
:100A70009B68FB607B681B695B69FA681340FB60DD
:100A8000FB6818461437BD465DF8047B704700BF0D
:100A900080B485B000AF78607B681B699B69FB60A0
:100AA0007B681B69DB69FA681340FB60FB689BB2DB
:100AB00018461437BD465DF8047B704780B487B094
:100AC00000AF786000233B61FB7C43F0C003FB7404
:100AD000BB7C012262F3C403BB743B7C182262F32B
:100AE00006033B747B685B6D3A691A617B68DB784F
:100AF000012B16D10023FB607B685B6D7A6802F5E1
:100B0000B9625A617B685B6D1B68FB60FB7B43F0DD
:100B10008003FB734FF08023FB607B685B6DFA689A
:100B20001A601C37BD465DF8047B704780B485B001
:100B300000AF78607B689B7A002B1BD07B681B69B9
:100B40009B68FB603B7BC3F30003DBB2012B11D13D
:100B50007B6803F586731B68BB603B7A6FF34103C8
:100B60003B723B7A6FF300033B727B68D3F80C3126
:100B7000BA681A601437BD465DF8047B704700BF41
:100B800080B483B000AF78600B46FB70FB78002B1D
:100B90000CD04FF43053C4F201034FF43052C4F27E
:100BA0000102D16B7A680A43DA630CE04FF43053E8
:100BB000C4F201034FF43052C4F20102D16B7A68DF
:100BC000D2430A40DA630C37BD465DF8047B7047B8
:100BD00080B485B000AF78600023FB734FF43053CE
:100BE000C4F201035A6B7B681340002B02D001232F
:100BF000FB7301E00023FB73FB7B18461437BD46F3
:100C00005DF8047B704700BF80B483B000AF7860AC
:100C10004FF43053C4F201037A689A630C37BD462F
:100C20005DF8047B704700BF80B588B000AF3B1D06
:100C3000184603F0A3F94FF40010012101F048F920
:100C40000F20012101F01CF94FF44073BB61022316
:100C50003B7703237B770123BB770023FB7707F1E7
:100C600018034FF48060C4F20200194601F06AFBD9
:100C70004FF48060C4F202000821042201F0F0FB6E
:100C80004FF48060C4F202000921042201F0E8FB65
:100C90004FF4A840C4F2000003F06EF800233B813B
:100CA0004FF480437B814FF48063FB814FF480439A
:100CB0003B824CF250337B603B1D4FF4A840C4F2A2
:100CC0000000194603F094F84FF4A840C4F2000065
:100CD000012103F071F91F233B7501237B7500236C
:100CE000BB750123FB7507F11403184603F0A8FA3E
:100CF0002037BD4680BD00BF80B582B000AF7860B0
:100D000013460A46FA70BB7040F20003C2F20003B9
:100D10001B68002B11D000BF4FF4A840C4F20000A4
:100D20004FF4003103F034FA0346002BF4D140F2C3
:100D30000003C2F2000300221A607868012103F068
:100D40005BF900BF78680121C0F2030103F0F0F9FC
:100D50000346002BF6D0FA78BB78786811461A461D
:100D600003F08AF9BB78002B0AD100BF7868822192
:100D7000C0F2070103F0DCF90346002BF6D00CE0CB
:100D8000BB78012B09D100BF78680221C0F20301B2
:100D900003F0CEF90346002BF6D00837BD4680BDE0
:100DA00080B582B000AF78600B46FB70FB78786846
:100DB000194603F09FF900BF78688421C0F207014B
:100DC00003F0B6F90346002BF6D00837BD4680BDC8
:100DD00080B584B000AF78607868012103F06AF9CB
:100DE00000BF78684021C0F2030103F0A1F9034677
:100DF000002BF6D0786803F08DF90346FB73FB7B7C
:100E000018461037BD4680BD80B584B000AF78600D
:100E10007868002103F04EF97868012103F00CF99D
:100E200000BF78684021C0F2030103F081F9034656
:100E3000002BF6D0786803F06DF90346FB73FB7B5B
:100E400018461037BD4680BD80B582B000AF7860CF
:100E50007868012103F0F0F840F20003C2F20003C9
:100E600001221A600837BD4680BD00BF80B500AFC3
:100E700040F22003C2F200031A6840F22C03C2F2CF
:100E800000031B681046194601F0F0FC0346002BD6
:100E900000F0A58040F21003C2F200031B68002B93
:100EA0007DD000BF40F22003C2F200031B68184649
:100EB00001F0C4FC0346002BF4D140F22003C2F23F
:100EC00000031A6840F22C03C2F200031B681046AC
:100ED000194601F009FD40F2DC63C2F200031B6811
:100EE0001A4640F21C73C2F200039A6040F21003EB
:100EF000C2F200031A684FF6FF739A4228BF1A46DF
:100F000040F21C73C2F200031A6140F22003C2F2E5
:100F100000031B68184640F21C71C2F2000101F088
:100F200019FC40F22003C2F200031B68184601219D
:100F300001F068FC40F2DC63C2F200031A6840F280
:100F40001003C2F2000319684FF6FF73994238BFCD
:100F50000B465B001A4440F2DC63C2F200031A60E5
:100F600040F21003C2F200031A6840F21003C2F20A
:100F7000000319684FF6FF73994238BF0B46D21A27
:100F800040F21003C2F200031A6040F22003C2F2E2
:100F900000031B681846012101F034FC1FE040F2F9
:100FA0002003C2F200031B681846002101F02AFC4E
:100FB00040F22003C2F200031A6840F22C03C2F28E
:100FC00000031B681046194601F08EFC40F2DC63FA
:100FD000C2F200031B681846002102F091FE80BD9A
:100FE00080B500AFFFF742FF80BD00BF80B500AF06
:100FF000FFF73CFF80BD00BF80B500AF4FF47050DD
:10100000C4F20000022102F09BFE0346002B17D021
:1010100040F21803C2F200031B68022B06D102F053
:1010200079FE03460420194600F0B2F902F072FE80
:1010300003464FF47050C4F20000194602F072FEED
:1010400080BD00BF80B58AB000AF786039600023F2
:101050007B6200233B620023FB610023BB617B6852
:101060001B8A9BB27B627B6A23F440537B623B68A2
:10107000DB887A6A13437B627B6A9AB27B681A8246
:101080007B689B899BB27B627B6A23F4B05323F01D
:101090000C037B623B689A883B681B8913439AB2B6
:1010A0003B685B8913439BB27A6A13437B627B6A1A
:1010B0009AB27B689A817B689B8A9BB27B627B6ACF
:1010C00023F440737B623B689B897A6A13437B629B
:1010D0007B6A9AB27B689A8207F10803184600F08F
:1010E000FBFD7A684FF48053C4F201039A4206D0A4
:1010F0007A684FF4A053C4F201039A4202D17B698B
:101100003B6201E03B693B627B689B899BB29BB27F
:101110001BB2002B0CDA3A6A13469B0013449A0068
:101120001A443B681B685B00B2FBF3F3FB610BE006
:101130003A6A13469B0013449A001A443B681B68A2
:101140009B00B2FBF3F3FB61FA6948F21F53C5F24F
:10115000EB13A3FB02135B091B017B627B6A1B0978
:10116000642202FB03F3FA69D31ABB617B689B8993
:101170009BB29BB21BB2002B10DABB69DB0003F100
:10118000320248F21F53C5F2EB13A3FB02135B09B3
:1011900003F007037A6A13437B620FE0BB691B010C
:1011A00003F1320248F21F53C5F2EB13A3FB021303
:1011B0005B0903F00F037A6A13437B627B6A9AB27E
:1011C0007B681A812837BD4680BD00BF80B483B0DC
:1011D00000AF78600B46FB70FB78002B08D07B6873
:1011E0009B899BB243F400539AB27B689A8107E0D3
:1011F0007B689B899BB223F400539AB27B689A81E7
:101200000C37BD465DF8047B704700BF80B483B0E7
:1012100000AF78600B467B807B88C3F308039AB2EB
:101220007B689A800C37BD465DF8047B704700BF31
:1012300080B483B000AF78607B689B889BB2C3F3B7
:1012400008039BB218460C37BD465DF8047B704717
:1012500080B487B000AF786013460A467A807B700E
:1012600000233B610023FB600023BB6000237B6104
:101270007B687B617B88DBB25B09DBB23B617B888F
:1012800003F01F03FB60FB68012202FA03F3BB605B
:101290003B69012B03D17B690C337B6109E03B691E
:1012A000022B03D17B6910337B6102E07B6914332D
:1012B0007B617B78002B06D07B697A691168BA68FC
:1012C0000A431A6006E07B697A691168BA68D243FA
:1012D0000A401A601C37BD465DF8047B704700BFAA
:1012E00080B487B000AF78600B467B800023FB6042
:1012F00000237B610023BB600023FB747B88DBB28F
:101300005B09DBB2BB607B8803F01F037B617B69F9
:10131000012202FA03F37B61BB68012B06D17B68D3
:101320009B899BB27A6913407B610FE0BB68022BFB
:1013300006D17B681B8A9BB27A6913407B6105E00A
:101340007B689B8A9BB27A6913407B617B881B0A0E
:101350009BB2FB60FB68012202FA03F3FB607B682F
:101360001B889BB2FA681340FB607B69002B05D099
:10137000FB68002B02D00123FB7401E00023FB7407
:10138000FB7C18461C37BD465DF8047B704700BFE8
:1013900080B485B000AF78600B467B800023FB6093
:1013A0004FF4E843C4F20003FB60FA687B6813441F
:1013B0000833FB60FB687A881A601437BD465DF815
:1013C000047B704780B582B000AF4AF66053C0F628
:1013D00000037B6040F20003C2F200033B6007E0C1
:1013E0003B681A1D3A607A68111D796012681A60AC
:1013F0003A6840F22863C2F200039A42F0D30748E9
:1014000007494FF000028842B8BF40F8042BFADBCE
:1014100000F080FA0837BD4680BD00002806002095
:101420005011002080B400AFFEE700BF80B584B04B
:1014300000AF786007F108037868194601F0B0FE44
:101440003B7A03F01F03012B0AD0022B0FD0002B95
:1014500014D107F108037868194601F09BFA16E0E9
:1014600007F108037868194601F0E4FA0FE007F184
:1014700008037868194601F011FB08E03B7A23F075
:101480007F03DBB27868194603F00AF800BF002337
:1014900018461037BD4680BD80B584B000AF786077
:1014A0000B46FB70FB78002B45D17B6803F55C7322
:1014B000FB607B6893F81131032B4FD1FB68DA692D
:1014C000FB689B689A4221D9FB68DA69FB689B68D4
:1014D000D21AFB68DA617B68DB78012B06D1FB68E6
:1014E000DA68FB689B681A44FB68DA60FB68DA68B4
:1014F000FB689968FB68DB69994238BF0B469BB271
:10150000786811461A4603F091F827E07B68D3F813
:10151000E0351B69002B0AD07B6893F81231032B4E
:1015200005D17B68D3F8E0351B69786898477868FF
:1015300003F090F812E07B68D3F8E0359B69002B4C
:101540000CD07B6893F81231032B07D17B68D3F85A
:10155000E0359B69FA787868114698470023184669
:101560001037BD4680BD00BF80B584B000AF786045
:101570000B46FB70FB78002B60D17B6803F58C7306
:10158000FB607B6893F81131022B6AD1FB68DA6942
:10159000FB689B689A421CD9FB68DA69FB689B6808
:1015A000D21AFB68DA617B68DB78012B06D1FB6815
:1015B000DA68FB689B681A44FB68DA60FB68DA68E3
:1015C000FB68DB699BB2786811461A4603F01AF88B
:1015D00047E0FB681B6AFA689268B3FBF2F102FB12
:1015E00001F29B1A002B14D1FB681A6AFB689B68F6
:1015F0009A420ED3FB681A6AFB685B6A9A4208D269
:1016000078680021002202F0FDFFFB6800225A6288
:1016100027E07B68D3F8E035DB68002B0AD07B68D5
:1016200093F81231032B05D17B68D3F8E035DB68E2
:1016300078689847786803F025F812E07B68D3F85B
:10164000E0355B69002B0CD07B6893F81231032BDB
:1016500007D17B68D3F8E0355B69FA787868114682
:101660009847002318461037BD4680BD80B582B02C
:1016700000AF7860786800214022002302F046FE27
:10168000786880214022002302F040FE7B6801221E
:1016900083F812217B68D3F8E4355B687A68927826
:1016A00010469847002318460837BD4680BD00BF46
:1016B00080B582B000AF78607B68D3F8E4351B69F1
:1016C00098477B68032283F81221002318460837C5
:1016D000BD4680BD80B582B000AF78607B680422D3
:1016E00083F812217B68D3F8E435DB689847002340
:1016F00018460837BD4680BD80B582B000AF78601F
:101700007B68D3F8E035DB69002B05D07B68D3F824
:10171000E035DB6978689847002318460837BD46EE
:1017200080BD00BF80B582B000AF78600B46FB7013
:101730007B68D3F8E0351B68FA78786811469847DB
:101740007B68D3F8E4359B68984700231846083730
:10175000BD4680BD80B582B000AF78600B46FB709F
:101760007B68D3F8E0355B68FA787868114698476B
:10177000002318460837BD4680BD00BF80B582B043
:1017800000AF78607B68D3F8E0351B6A78689847CB
:10179000002318460837BD4680BD00BF80B582B023
:1017A00000AF78607B68D3F8E0355B6A786898476B
:1017B000002318460837BD4680BD00BF80B483B003
:1017C00000AF03463960FB7197F90730002B0EDA42
:1017D0004FF46D43CEF20003FA7902F00F02111FAD
:1017E0003A68D2B21201D2B20B441A760CE04FF42E
:1017F0006143CEF2000397F907103A68D2B21201A2
:10180000D2B20B4483F800230C37BD465DF8047B4D
:10181000704700BF80B582B000AF78607B68B3F1DD
:10182000807F01D301231AE04EF21003CEF20003B1
:101830007A6822F07F42013A5A604FF0FF300F2160
:10184000FFF7BCFF4EF21003CEF2000300229A60B5
:101850004EF21003CEF2000307221A60002318464E
:101860000837BD4680BD00BF80B582B000AF00F034
:101870003DFE9D20012100F003FB4FF400433B603F
:1018800001233B710023BB710023FB7103237B7198
:101890003B460020C4F20200194600F053FD4FF40D
:1018A000C0433B603B464FF40060C4F2020019465F
:1018B00000F048FD4EF208033B603B464FF44060A9
:1018C000C4F20200194600F03DFD02233B603B4696
:1018D0004FF48050C4F20200194600F033FD40F28C
:1018E0008003C2F200031A6844F6D353C1F26203C4
:1018F000A3FB02139B091846FFF78CFF0346002B3E
:1019000001D000F035FBFFF78FF902F00DFF08372B
:10191000BD4680BDF0B595B006AF3B1D00221A60F4
:10192000043300221A60043300221A6004330022B8
:101930001A60043300221A60043300221A60043350
:1019400000221A60043300221A60043300221A6055
:10195000043300221A60043300221A600433002288
:101960001A60043300221A800233FFF77DFF4FF420
:10197000A840C4F2000054210022FFF7BDF94FF443
:10198000A840C4F200000021FFF70AFA4FF4A84073
:10199000C4F200008B21FFF703FA4FF4A840C4F211
:1019A000000054210022FFF7A7F94FF44063C4F26E
:1019B00002034FF400521A834FF4A840C4F200000F
:1019C0000021FFF7EDF94FF4A840C4F200000B210D
:1019D000FFF7E6F94FF4A840C4F20000FFF734FA2D
:1019E00040F23063C2F2000300221A6000BF40F2EE
:1019F0003063C2F200031B68012BF8DD4FF4A840EE
:101A0000C4F2000054210022FFF776F94FF4A840F9
:101A1000C4F200000321FFF7C3F94FF4A840C4F259
:101A2000000054210122FFF767F94FF4A840C4F2E7
:101A30000000FFF7CDF90346DAB240F22863C2F2A4
:101A400000031A704FF4A840C4F20000FFF7C0F979
:101A50000346DAB240F22863C2F200035A704FF430
:101A6000A840C4F20000FFF7B3F90346DAB240F22F
:101A70002863C2F200039A704FF4A840C4F2000039
:101A8000FFF7A6F90346DAB240F22863C2F2000378
:101A9000DA704FF4A840C4F20000FFF799F903464A
:101AA000DAB240F22863C2F200031A714FF4A84080
:101AB000C4F20000FFF78CF90346DAB240F2286363
:101AC000C2F200035A714FF4A840C4F20000FFF7BD
:101AD0007FF90346DAB240F22863C2F200039A713A
:101AE0004FF4A840C4F20000FFF78EF90346DAB2C3
:101AF00040F22863C2F20003DA714FF4A840C4F246
:101B00000000FFF7A1F94FF44063C4F202034FF461
:101B100080421A83D6E040F23063C2F20003002212
:101B20001A604FF4A840C4F2000054210022FFF7CD
:101B3000E3F84FF44063C4F202034FF400421A8307
:101B40004FF4A840C4F200000321FFF729F94FF435
:101B5000A840C4F2000054210122FFF7CDF84FF451
:101B6000A840C4F20000FFF733F90346DAB240F2AE
:101B70002863C2F200031A704FF4A840C4F20000B8
:101B8000FFF726F90346DAB240F22863C2F20003F7
:101B90005A704FF4A840C4F20000FFF719F9034649
:101BA000DAB240F22863C2F200039A704FF4A84000
:101BB000C4F20000FFF70CF90346DAB240F22863E2
:101BC000C2F20003DA704FF4A840C4F20000FFF73D
:101BD000FFF80346DAB240F22863C2F200031A713A
:101BE0004FF4A840C4F20000FFF7F2F80346DAB25F
:101BF00040F22863C2F200035A714FF4A840C4F2C5
:101C00000000FFF7E5F80346DAB240F22863C2F2BB
:101C100000039A714FF4A840C4F20000FFF7F4F8F3
:101C20000346DAB240F22863C2F20003DA714FF4DD
:101C3000A840C4F20000FFF707F940F22863C2F29F
:101C400000031B781A4640F22863C2F200035B7857
:101C50001C4640F22863C2F200039B789C4640F287
:101C60002863C2F20003DB789E4640F22863C2F28A
:101C700000031B791E4640F22863C2F200035B7921
:101C80001D4640F22863C2F200039B79184640F2D9
:101C90002863C2F20003DB7919463B1DCDF800C072
:101CA000CDF804E0029603950490059118464AF693
:101CB0005831C0F60001234602F0BCFF3B1D184618
:101CC00002F024FE40F23063C2F200031B68322BA4
:101CD0003FF721AF00BFF5E780B489B000AF78606F
:101CE0000023BB6100237B610023FB6102233B6176
:101CF0000023FB600223BB604FF46053C4F2020375
:101D00009B6803F00C03BB61BB69042B0AD0082B52
:101D10000FD0002B5AD17A684FF41053C0F2F4035D
:101D200013605AE07A684FF49053C0F27A0313605C
:101D300053E04FF46053C4F202035B6803F4800382
:101D40009B0DFB604FF46053C4F202035B6803F029
:101D50003F03BB60FB68002B13D04FF49053C0F2DD
:101D60007A03BA68B3FBF2F24FF46053C4F2020391
:101D7000596847F6C0730B409B0903FB02F3FB61F4
:101D800012E04FF41053C0F2F403BA68B3FBF2F25E
:101D90004FF46053C4F20203596847F6C0730B4016
:101DA0009B0903FB02F3FB614FF46053C4F202038F
:101DB0005B6803F440331B0C01335B003B61FA6941
:101DC0003B69B2FBF3F27B681A6006E07A684FF475
:101DD0001053C0F2F403136000BF4FF46053C4F219
:101DE00002039B6803F0F003BB61BB691B09BB6185
:101DF00040F27003C2F20003BA6913441B78DBB2ED
:101E00007B617B681A687B69DA407B685A604FF4B3
:101E10006053C4F202039B6803F4E053BB61BB69E7
:101E20009B0ABB6140F27003C2F20003BA6913441B
:101E30001B78DBB27B617B685A687B69DA407B6820
:101E40009A604FF46053C4F202039B6803F460434A
:101E5000BB61BB695B0BBB6140F27003C2F2000364
:101E6000BA6913441B78DBB27B617B685A687B6973
:101E7000DA407B68DA602437BD465DF8047B704742
:101E800080B483B000AF78600B46FB70FB78002B0A
:101E90000CD04FF46053C4F202034FF46052C4F20A
:101EA0000202116B7A680A431A630CE04FF4605324
:101EB000C4F202034FF46052C4F20202116B7A685A
:101EC000D2430A401A630C37BD465DF8047B704765
:101ED00080B483B000AF78600B46FB70FB78002BBA
:101EE0000CD04FF46053C4F202034FF46052C4F2BA
:101EF0000202116C7A680A431A640CE04FF46053D2
:101F0000C4F202034FF46052C4F20202116C7A6808
:101F1000D2430A401A640C37BD465DF8047B704713
:101F200080B483B000AF78600B46FB70FB78002B69
:101F30000CD04FF46053C4F202034FF46052C4F269
:101F40000202116A7A680A431A620CE04FF4605385
:101F5000C4F202034FF46052C4F20202116A7A68BA
:101F6000D2430A401A620C37BD465DF8047B7047C5
:101F700080B483B000AF0123FB8000233B6000BF2F
:101F80003A68531C3B604AF21F13C0F207039A429F
:101F9000F6D94FF44063C4F20203FA88120392B2F6
:101FA0005A83FB885B00FB80FB880F2B01D9012340
:101FB000FB804FF44063C4F20203FA88120392B22A
:101FC0001A83DAE780B400AFBD465DF8047B704742
:101FD00080B500AFFFF7CCFF80BD00BF80B500AF7C
:101FE000FFF7C6FF80BD00BF80B500AFFFF7C0FFA1
:101FF00080BD00BF80B500AFFFF7BAFF80BD00BF56
:1020000080B400AFBD465DF8047B704780B400AF7C
:10201000BD465DF8047B704780B400AFBD465DF8F7
:10202000047B704780B400AF40F23063C2F200031B
:102030001B685A1C40F23063C2F200031A6040F27F
:102040003463C2F200031B68002B0AD040F23463F1
:10205000C2F200031B685A1E40F23463C2F200034E
:102060001A60BD465DF8047B704700BF80B500AFC5
:1020700040F25C70C2F2000001F0FCF880BD00BFCD
:1020800080B500AF40F25C73C2F200039B7A002B74
:1020900013D04EF61053CEF200034EF61052CEF28D
:1020A0000002126822F006021A6000F01FFA40F2E5
:1020B0005C70C2F20000FEF739FD4FF4802002F0A0
:1020C0009BF880BD80B500AF4FF40060C4F2000003
:1020D000012102F0FFFA0346002B27D04FF40063E2
:1020E000C4F200031B889BB21B099BB2012B0BD1CE
:1020F00040F64C53C2F200031B685A1C40F64C5386
:10210000C2F200031A600AE040F65C53C2F2000318
:102110001B685A1C40F65C53C2F200031A604FF46D
:102120000060C4F20000012102F0C4FA80BD00BFCB
:1021300080B500AF4FF44060C4F20000012102F00E
:10214000C9FA0346002B27D04FF44063C4F20003C2
:102150001B889BB21B099BB2012B0BD140F650533D
:10216000C2F200031B685A1C40F65053C2F200032F
:102170001A600AE040F65853C2F200031B685A1C6A
:1021800040F65853C2F200031A604FF44060C4F2A4
:102190000000012102F08EFA80BD00BF80B500AFC3
:1021A0004FF48060C4F20100012102F093FA03466B
:1021B000002B27D04FF48063C4F201031B889BB22D
:1021C0001B099BB2012B0BD140F66053C2F20003F6
:1021D0001B685A1C40F66053C2F200031A600AE002
:1021E00040F65453C2F200031B685A1C40F6545385
:1021F000C2F200031A604FF48060C4F201000121B2
:1022000002F058FA80BD00BF80B500AF4FF4807077
:10221000FEF7DEFC0346002B10D040F27463C2F2DE
:10222000000300221A704FF48070FEF7EDFC40F2BC
:102230007863C2F2000301221A6050E00220FEF728
:10224000C7FC0346002B09D00220FEF7DDFC40F25C
:102250007463C2F2000302221A7040E00820FEF705
:10226000B7FC0346002B09D00820FEF7CDFC40F256
:102270007463C2F2000304221A7030E02020FEF7DB
:10228000A7FC0346002B09D02020FEF7BDFC40F23E
:102290007463C2F2000306221A7020E01020FEF7D9
:1022A00097FC0346002B09D01020FEF7ADFC40F24E
:1022B0007463C2F2000305221A7010E04FF400703C
:1022C000FEF786FC0346002B09D04FF40070FEF7A2
:1022D0009BFC40F27463C2F2000307221A704CF2B6
:1022E0003A300021FEF74CFC40F27463C2F2000366
:1022F0001B78DBB2184680BD80B500AF4FF4C843F1
:10230000C4F202031B6803F0C053002B0DD040F24F
:102310007C63C2F2000301221A6046F25840C4F204
:1023200002004FF0C25100F0DFFA80BD80B500AF6F
:10233000FFF76AFF80BD00BF80B500AFFFF7DCFF8D
:1023400080BD00BF80B487B000AF786039600023E3
:102350007B6100233B610023FB6000237B6176E00F
:102360007B69012202FA03F33B613B681A683B690F
:102370001340FB60FA683B699A4265D17B681A6832
:102380007B695B00032101FA03F3DB431A407B689E
:102390001A607B681A683B681B7919467B695B0089
:1023A00001FA03F31A437B681A603B681B79012B1F
:1023B00003D03B681B79022B2ED17B689A687B691E
:1023C0005B00032101FA03F3DB431A407B689A6048
:1023D0007B689A683B685B7919467B695B0001FA08
:1023E00003F31A437B689A607B685A687B699BB2E7
:1023F000012101FA03F3DB431A407B685A607B68D2
:102400005A683B689B7919467B699BB201FA03F3D2
:102410009BB21A437B685A607B68DA687B699BB21F
:102420005B00032101FA03F3DB431A407B68DA60A7
:102430007B68DA683B68DB7919467B695B0001FAE7
:1024400003F31A437B68DA607B6901337B617B6944
:102450000F2B85D91C37BD465DF8047B704700BF44
:1024600080B485B000AF786013460A467A807B70EE
:102470000023FB600023BB607A787B8803F00703AE
:102480009B0002FA03F3FB607B88DB089BB21A46D1
:102490007B88DB089BB219467B68083153F8211012
:1024A0007B8803F007039B000F2000FA03F3DB4354
:1024B00019407B68083243F822107B88DB089BB206
:1024C0001A467B68083253F82220FB681343BB602E
:1024D0007B88DB089BB21A467B680832B96843F8F0
:1024E00022101437BD465DF8047B704780B500AFFD
:1024F0004FF46053C4F202034FF46052C4F202027C
:10250000126842F001021A604FF46053C4F20203F1
:1025100000229A604FF46053C4F202034FF46052F9
:10252000C4F20202126822F0847222F480321A602D
:102530004FF46053C4F2020343F21002C2F20042AD
:102540005A604FF46053C4F202034FF46052C4F275
:102550000202126822F480221A604FF46053C4F21F
:1025600002030022DA6000F009F84FF46D43CEF266
:1025700000034FF000629A6080BD00BF80B483B05A
:1025800000AF00237B6000233B604FF46053C4F234
:1025900002034FF46052C4F20202126842F4803225
:1025A0001A604FF46053C4F202031B6803F4003353
:1025B0003B607B6801337B603B68002B03D17B6809
:1025C000B3F5A06FEDD14FF46053C4F202031B6862
:1025D00003F40033002B02D001233B6001E0002311
:1025E0003B603B68012B40F082804FF46053C4F2A3
:1025F00002034FF46052C4F20202126C42F08052A5
:102600001A644FF4E043C4F200034FF4E042C4F212
:102610000002126842F480421A604FF46053C4F220
:1026200002034FF46052C4F2020292689A604FF4BF
:102630006053C4F202034FF46052C4F20202926883
:1026400042F400429A604FF46053C4F202034FF424
:102650006052C4F20202926842F4A0529A604FF4AF
:102660006053C4F2020345F20842C0F240725A605D
:102670004FF46053C4F202034FF46052C4F20202FA
:10268000126842F080721A6000BF4FF46053C4F2C7
:1026900002031B6803F00073002BF6D04FF4705355
:1026A000C4F2020340F205621A604FF46053C4F2B0
:1026B00002034FF46052C4F20202926822F0030255
:1026C0009A604FF46053C4F202034FF46052C4F2B4
:1026D0000202926842F002029A6000BF4FF4605317
:1026E000C4F202039B6803F00C03082BF6D10C37ED
:1026F000BD465DF8047B704780B485B000AF78605C
:1027000040F28063C2F200031B68002B08D140F244
:102710008063C2F2000341F25012C2F200021A605A
:1027200040F28063C2F200031B68FB6040F28063EA
:10273000C2F200031A687B681A4440F28063C2F256
:1027400000031A60FB6818461437BD465DF8047B29
:10275000704700BF80B485B000AF78603960002357
:10276000FB607B681B68FB60FA6848F23F03CFF2AE
:102770001C031340FB603B681A683B68DB681A4324
:102780003B685B691A433B689B691A433B68DB699A
:102790001A433B681B6A1A433B685B6A1A433B68EF
:1027A0009B6A1A433B685B6B1A433B689B6B134302
:1027B000FA681343FB607B68FA681A607B685B69A0
:1027C000FB60FB6823F00703FB603B68DA6A3B6849
:1027D0001B6B1343FA681343FB607B68FA685A610A
:1027E0003B681A697B685A603B685A687B689A60E4
:1027F0003B689A687B68DA601437BD465DF8047BF5
:10280000704700BF80B483B000AF78600B46FB70A8
:10281000FB78002B06D07B681B6843F001027B68C5
:102820001A6005E07B681B6823F001027B681A6070
:102830000C37BD465DF8047B704700BF80B485B09F
:1028400000AF78600023FB737B681B6803F0010313
:10285000002B02D00123FB7301E00023FB73FB7B01
:1028600018461437BD465DF8047B704780B487B0C6
:1028700000AF786039600023FB750023FB607A6845
:1028800046F20F43C4F202039A4205D84FF4C04304
:10289000C4F202033B6104E04FF4C843C4F20203F4
:1028A0003B613B6803F00053002B03D03B695B683E
:1028B000FB6002E03B691B68FB60FB6823F0F023D0
:1028C00023F08213FB60FA683B681340002B02D0B0
:1028D0000123FB7501E00023FB75FB7D18461C37C7
:1028E000BD465DF8047B704780B485B000AF78606A
:1028F00039607A6846F20F43C4F202039A4205D85F
:102900004FF4C043C4F20203FB6004E04FF4C84339
:10291000C4F20203FB603B6803F00053002B07D0B6
:102920003B6823F0F02323F08213FA68D36006E0BB
:102930003B6823F0F02323F08213FA689360143786
:10294000BD465DF8047B704780B485B000AF786009
:102950000023FB607A6813461B019B1ADB001A46B2
:1029600044F62513C2F29243A3FB0213D21A520873
:1029700013449B08BB60FB680133FB60FA68BB68CB
:102980009A4200D900E0F6E71437BD465DF8047BB3
:10299000704700BF80B584B000AF78603960002315
:1029A000FB733B685B78092B39D801A252F823F0FE
:1029B000012A0008152A00081F2A00080B2A00080F
:1029C0001F2A0008E3290008D92900081F2A000847
:1029D000F7290008ED2900087868396800F042F905
:1029E00022E07868396800F019FA1DE078683968E3
:1029F00000F052FA18E07868396800F0E5FA13E060
:102A00007868396800F010FB0EE07868396800F0EB
:102A100039FB09E07868396800F09AFB04E07868CF
:102A2000396800F003FC00BFFB7B18461037BD4639
:102A300080BD00BF80B584B000AF786039600023EE
:102A4000FB737B6893F81231032B1CD13B689B8886
:102A5000DBB2012B11D87B68D3F8E0359B6878682E
:102A6000396898473B68DB88002B0BD1FB7B002B38
:102A700008D1786801F0EEFD0AE07868396800F066
:102A8000D5FB05E004E07868396800F0CFFB00BFB3
:102A9000FB7B18461037BD4680BD00BF80B584B0B3
:102AA00000AF786039600023FB733B689B88BB7381
:102AB0003B685B78012B39D0032B02D0002B6BD005
:102AC000CBE07B6893F81231022B02D0032B0DD0A0
:102AD00026E0BB7B002B08D0BB7B802B05D0BB7BCB
:102AE0007868194601F0DCFC1FE01EE03B685B885B
:102AF000002B0AD1BB7B002B07D0BB7B802B04D0E3
:102B0000BB7B7868194601F0CBFC7B68D3F8E035D5
:102B10009B68786839689847786801F09BFD04E005
:102B20007868396800F082FB00BF96E07B6893F814
:102B30001231022B02D0032B0DD027E0BB7B002BE0
:102B400008D0BB7B802B05D0BB7B7868194601F091
:102B5000A7FC20E01FE03B685B88002B15D1BB7B06
:102B6000002B0ED0BB7B802B0BD0BB7B786819462B
:102B700001F0D0FC7B68D3F8E0359B687868396851
:102B80009847786801F066FD05E004E078683968E8
:102B900000F04CFB00BF60E07B6893F81231022B21
:102BA00002D0032B0DD052E0BB7B002B08D0BB7BA7
:102BB000802B05D0BB7B7868194601F071FC4BE097
:102BC0004AE0BB7B5BB2002B1BDABB7B03F07F02CE
:102BD000796813469B001344DB000B4403F58C73A8
:102BE0009B78002B06D040F28463C2F200030122DE
:102BF0001A6023E040F28463C2F2000300221A60EC
:102C00001CE0BB7B5BB2002B18DBBA7B79681346F8
:102C10009B001344DB000B4403F55C739B78002B93
:102C200006D040F28463C2F2000301221A6005E07C
:102C300040F28463C2F2000300221A60786840F216
:102C40008461C2F20001022201F0BCFC04E0786859
:102C5000396800F0EBFA00BF00BFFB7B1846103765
:102C6000BD4680BD80B584B000AF786039603B68F8
:102C70005B881B0A9BB2013B062B00F2B18001A2CC
:102C800052F823F0A12C0008D32C0008FD2C0008DA
:102C9000E12D0008E12D0008CD2D0008D72D0008FA
:102CA0007B68D3F8E8351B687A68917807F10A02E7
:102CB000084611469847F8603B68DB88402B04D0F3
:102CC0007B6893F81231012B02D108237B818CE0C1
:102CD0008BE07B68D3F8E0359B6A7A68917807F1DE
:102CE0000A02084611469847F860FB680133022241
:102CF0001A707B68FA68C3F8EC2576E03B685B885D
:102D0000DBB2052B5CD801A252F823F0252D000878
:102D10003F2D0008592D0008732D00088D2D000847
:102D2000A72D00087B68D3F8E8355B687A6891784E
:102D300007F10A02084611469847F86045E07B68AB
:102D4000D3F8E8359B687A68917807F10A0208465B
:102D500011469847F86038E07B68D3F8E835DB68BF
:102D60007A68917807F10A02084611469847F86098
:102D70002BE07B68D3F8E8351B697A68917807F116
:102D80000A02084611469847F8601EE07B68D3F8AF
:102D9000E8355B697A68917807F10A0208461146BE
:102DA0009847F86011E07B68D3F8E8359B697A684A
:102DB000917807F10A02084611469847F86004E046
:102DC0007868396800F032FA24E00EE078683968F3
:102DD00000F02CFA1EE07868396800F027FA19E054
:102DE0007868396800F022FA14E07B89002B11D052
:102DF0003B68DB88002B0DD03B68DA887B899A42E0
:102E000038BF13469BB27B817B897868F9681A4684
:102E100001F0D8FB1037BD4680BD00BF80B584B03F
:102E200000AF786039603B689B88002B2DD13B68F0
:102E3000DB88002B29D13B685B88DBB203F07F0382
:102E4000FB737B6893F81231032B04D178683968DF
:102E500000F0ECF918E07B68FA7B83F81321FB7B28
:102E60007868194601F090FB786801F0F3FBFB7B72
:102E7000002B04D07B68022283F8122104E07B68D7
:102E8000012283F8122104E003E07868396800F039
:102E9000CDF91037BD4680BD80B582B000AF7860F7
:102EA00039603B685B88DAB240F29063C2F200039B
:102EB0001A7040F29063C2F200031B78012B04D910
:102EC0007868396800F0B2F97BE07B6893F81231DA
:102ED000022B02D0032B24D06EE040F29063C2F2AA
:102EE00000031B78002B18D040F29063C2F200035D
:102EF0001A787B6883F810217B68032283F81221FB
:102F000040F29063C2F200031B7878681946FEF71E
:102F100009FC786801F09EFB53E0786801F09AFBA9
:102F20004FE040F29063C2F200031B78002B18D1EF
:102F30007B68022283F8122140F29063C2F2000300
:102F40001A787B6883F8102140F29063C2F2000384
:102F50001B7878681946FEF7FDFB786801F07AFB6C
:102F600029E07B6893F8102140F29063C2F20003DD
:102F70001B789A421BD07B6893F810317868194609
:102F8000FEF7E8FB40F29063C2F200031A787B6818
:102F900083F8102140F29063C2F200031B78786836
:102FA0001946FEF7BFFB786801F054FB03E0786830
:102FB00001F050FB05E004E07868396800F036F96C
:102FC00000BF0837BD4680BD80B582B000AF7860D5
:102FD00039603B68DB88012B04D07868396800F0E1
:102FE00025F91EE07B6893F81231022B02D0032BE7
:102FF00009D011E0786840F28861C2F20001012234
:1030000001F0E0FA0DE07B6803F5887378681946F3
:10301000012201F0D7FA04E07868396800F006F977
:1030200000BF0837BD4680BD80B582B000AF786074
:1030300039607B6893F81231023B012B1AD87B6808
:10304000D3F81431002B06D040F28C63C2F2000397
:1030500003221A6005E040F28C63C2F200030122F1
:103060001A60786840F28C61C2F20001012201F01E
:10307000A9FA04E07868396800F0D8F800BF08378A
:10308000BD4680BD80B584B000AF78603960002354
:10309000FB733B685B88012B0ED17B680122C3F870
:1030A00014217B68D3F8E0359B68786839689847C5
:1030B000786801F0CFFA48E03B685B88022B44D186
:1030C0003B689B88DBB2002B3FD17B681B695B6848
:1030D000BB603B689B881B0A9BB2FB73FB7B013B7D
:1030E000042B2BD801A252F823F000BF01310008B5
:1030F0000D31000819310008253100083131000870
:103100003B7A012262F306133B7217E03B7A0222FC
:1031100062F306133B7211E03B7A032262F306135B
:103120003B720BE03B7A042262F306133B7205E02C
:103130003B7A052262F306133B7200BF7B681B6972
:10314000BA685A60786801F085FA1037BD4680BDCC
:1031500080B582B000AF786039607B6893F8123137
:10316000023B012B13D83B685B88012B0ED17B6897
:103170000022C3F814217B68D3F8E0359B68786897
:1031800039689847786801F065FA05E004E07868E6
:10319000396800F04BF800BF0837BD4680BD00BF5E
:1031A00080B483B000AF786039607B6893F8C8253D
:1031B0003B681A707B6893F8C9253B685A707B6836
:1031C00093F8CA351A467B6893F8CB351B029BB23D
:1031D00013449AB23B685A807B6893F8CC351A4600
:1031E0007B6893F8CD351B029BB213449AB23B68BF
:1031F0009A807B6893F8CE351A467B6893F8CF3572
:103200001B029BB213449AB23B68DA803B68DB88AE
:103210001A467B68C3F83C217B68012283F81121A0
:103220000C37BD465DF8047B704700BF80B582B0A7
:1032300000AF786039603B681B78DBB25BB2002B73
:1032400004DA7868802101F02BF90CE03B68DB8818
:10325000002B04D17868802101F022F903E078681E
:10326000002101F01DF97868FDF728FC0837BD46FC
:1032700080BD00BF80B586B000AF786000237B6161
:103280007868FDF731F80346002B00F09C807868E1
:10329000FDF73CF803463B613B69002B01D100235D
:1032A00092E0BB7CC3F3C003DBB2002B06D078688E
:1032B00000F018FA03467A6913437B61BB7CC3F3C1
:1032C0008003DBB2002B06D0786800F015F90346C6
:1032D0007A6913437B613B7CC3F34003DBB2002B71
:1032E00009D00023FB603B7B43F002033B737B6808
:1032F000DB68FA685A61FB7CC3F3C013DBB2002BB6
:1033000006D0786800F064F803467A6913437B615D
:103310007B7CC3F3C003DBB2002B06D0786800F0DF
:1033200097F803467A6913437B613B7CC3F3C00380
:10333000DBB2002B06D0786800F094FA03467A6975
:1033400013437B613B7CC3F30013DBB2002B06D03D
:10335000786800F0A3FA03467A6913437B617B7CAB
:10336000C3F30013DBB2002B06D0786800F08AFBB1
:1033700003467A6913437B617B7CC3F34013DBB262
:10338000002B06D0786800F01FFC03467A691343CF
:103390007B61BB7CC3F30013DBB2002B06D07868E3
:1033A00000F04EFC03467A6913437B61BB7CC3F398
:1033B0004013DBB2002B06D0786800F05DFC0346BA
:1033C0007A6913437B617B6918461837BD4680BD17
:1033D00080B586B000AF78607B689B7A002B11D0F7
:1033E0007B6803F586731B68FB603B7B6FF34103CF
:1033F0003B733B7B6FF300033B737B68D3F80C316B
:10340000FA681A6000233B613B7C43F001033B7484
:103410007B681B697A68126951683A69D2430A402D
:103420005A6040F26C03C2F200031B689B69786823
:10343000984700237B61FB7D43F08003FB757B682D
:10344000DB687A695A61012318461837BD4680BD8A
:1034500080B586B000AF786040F26C03C2F2000322
:103460001B685B69786898477B681B699B68FB6091
:1034700000237B617B7D43F008037B757B68DB6801
:103480007A695A617B689B7A002B2FD03B7BC3F310
:103490000003DBB2012B29D100233B613B7C43F0CD
:1034A00001033B747B68D3F80C317A68D2F80C21A5
:1034B00011683A690A431A603B7C43F002033B748B
:1034C0007B68D3F80C317A68D2F80C2111683A691C
:1034D0000A431A604FF46D43CEF200034FF46D427D
:1034E000CEF20002126942F006021A610123184668
:1034F0001837BD4680BD00BF80B586B000AF78608C
:1035000000233B610023BB607868FDF7C1FA786156
:10351000DFE07B6903F00103002B00F0D4803B69FE
:10352000DBB27868194600F0C3FB0346BB603B7A08
:10353000C3F30003DBB2002B35D03B69012202FA52
:1035400003F3FB607B681B697A681269516BFA6848
:10355000D2430A405A630023BB603B7A43F0010325
:103560003B727A683B6904339B0013449B68BA68DA
:103570009A6040F26C03C2F200031B685B683A6910
:10358000D2B27868114698477B68DB78012B0AD164
:103590003B69002B07D17B6893F81131042B02D1D2
:1035A0007868FDF78BFA3B7AC3F38003DBB2002B1C
:1035B0000DD00023BB603B7A43F004033B727A6872
:1035C0003B6904339B0013449B68BA689A603B7A5A
:1035D000C3F3C003DBB2002B0DD00023BB603B7AEA
:1035E00043F008033B727A683B6904339B00134441
:1035F0009B68BA689A603B7AC3F30013DBB2002B76
:103600000DD00023BB603B7A43F010033B727A6815
:103610003B6904339B0013449B68BA689A603B7A09
:10362000C3F34013DBB2002B0DD00023BB603B7A09
:1036300043F020033B727A683B6904339B001344D8
:103640009B68BA689A603B7AC3F38013DBB2002BA5
:103650000DD00023BB603B7A43F040033B727A6895
:103660003B6904339B0013449B68BA689A603B7AB9
:10367000C3F34003DBB2002B0DD00023BB603B7AC9
:1036800043F002033B727A683B6904339B001344A6
:103690009B68BA689A603B7AC3F3C013DBB2002B15
:1036A00011D07868396900F07BF90023BB603B7A60
:1036B00043F080033B727A683B6904339B001344F8
:1036C0009B68BA689A603B6901333B617B695B0820
:1036D0007B617B69002B7FF41CAF012318461837F0
:1036E000BD4680BD80B586B000AF786000233B61E9
:1036F0000023FB607868FDF799F97861A9E07B69A0
:1037000003F00103002B00F09E803B69DBB2786878
:103710001946FDF7A1F90346FB603B7BC3F30003A9
:10372000DBB2002B4BD00023FB603B7B43F001035B
:103730003B737A683B6914339B0013445B68FA68F7
:103740009A607B68DB78012B1FD17A683B69143360
:103750009B0013445B681B69BB6079683A69134638
:103760009B001344DB000B4403F55E731A68BB68CF
:10377000C3F31203D11A78683A6913469B001344C5
:10378000DB00034403F56273196040F26C03C2F27C
:1037900000031B681B683A69D2B2786811469847E3
:1037A0007B68DB78012B0AD13B69002B07D17B6852
:1037B00093F81131052B02D17868FDF77FF93B7B37
:1037C000C3F34003DBB2002B0DD00023FB603B7B37
:1037D00043F002033B737A683B6914339B00134444
:1037E0005B68FA689A603B7BC3F38003DBB2002B13
:1037F0000DD00023FB603B7B43F004033B737A68EE
:103800003B6914339B0013445B68FA689A603B7B06
:10381000C3F3C003DBB2002B15D040F26C03C2F23D
:1038200000031B689B68786898470023FB603B7B1C
:1038300043F008033B737A683B6914339B001344DD
:103840005B68FA689A603B6901333B617B695B089E
:103850007B617B69002B7FF452AF01231846183738
:10386000BD4680BD80B584B000AF786040F26C0387
:10387000C2F200031B68DB68786898470023FB608E
:103880003B7B43F008033B737B68DB68FA685A6153
:10389000012318461037BD4680BD00BF80B586B0F5
:1038A00000AF786000233B613B7C43F010033B7426
:1038B0007B68DB687A68D26891693A69D2430A40CA
:1038C0009A617B68DB681B6AFB603B7BC3F3030385
:1038D000DBB21A4613469B001344DB0003F55C730E
:1038E0007A6813447B61BB7BC3F34303DBB2013BC8
:1038F000052B46D801A252F823F000BF83390008F7
:103900001539000883390008833900088339000815
:103910005F390008BB89C3F30A139BB2002B1DD08B
:103920007B69DA68BB89C3F30A139BB278681146D6
:103930001A46FCF761FC7B69DA68BB89C3F30A139A
:103940009BB21A447B69DA607B699A69BB89C3F3CD
:103950000A139BB21A447B699A6113E012E07B68F8
:1039600003F5B963786819460822FCF745FC7B69C2
:103970009A69BB89C3F30A139BB21A447B699A61A3
:1039800000E000BF7B68DB687A68D26891693A69B9
:103990000A439A61012318461837BD4680BD00BF0F
:1039A00080B586B000AF7860396000237B6100236A
:1039B000BB603A6813469B001344DB0003F58C732D
:1039C0007A681344FB60FB685A69FB689B69D31AE9
:1039D0007B61FB689A687B699A4202D2FB689B68AC
:1039E0007B617B6903339B083B617A683B680433E6
:1039F0009B0013449B689B69BB602EE0FB685A697F
:103A0000FB689B69D31A7B61FB689A687B699A4261
:103A100002D2FB689B687B617B6903339B083B6137
:103A2000FB68D9683B68DAB27B699BB27868FCF7BF
:103A3000ABFBFB68DA687B691A44FB68DA60FB68F9
:103A40009A697B691A44FB689A617A683B68043317
:103A50009B0013449B689B69BB603B891A463B698A
:103A60009A4209D9FB689A69FB685B699A4203D25A
:103A7000FB685B69002BC1D1012318461837BD468E
:103A800080BD00BF80B58AB000AF786000233B6185
:103A900000233B620023FB610023BB6100237B61A9
:103AA0000023FB603B7C43F001033B747B681B6994
:103AB0007A68126951683A69D2430A405A60786854
:103AC0000021FCF7C7FB00237B6212E07A687B6A67
:103AD00004339B0013449B68FF229A607A687B6AD8
:103AE00014339B0013445B68FF229A607B6A0133A6
:103AF0007B627B685B781A467B6A9A42E6D87B6871
:103B00001B694FF0FF329A613B8C012262F30F0375
:103B10003B847B8C012262F30F037B847B681B69EF
:103B20003A6ADA613B7F43F008033B773B7F43F01F
:103B300001033B773B7F43F004033B773B7F43F03C
:103B400002033B777B681B69FA695A613B7E43F04D
:103B500001033B763B7E43F008033B763B7E43F01C
:103B600002033B763B7E43F004033B763B7E43F00F
:103B700020033B767B681B69BA691A617B681B6905
:103B80001B687B61BB8A6FF30A13BB827B681B696E
:103B90007A691A607868FCF791FF0023FB607B7BF1
:103BA00043F010037B737B68DB68FA685A6140F26C
:103BB0006C03C2F200031B681B69786898470123F5
:103BC00018462837BD4680BD80B584B000AF786008
:103BD0007868FCF7D7FB7B68DB68DB68BB607868DC
:103BE000FCF7ACFB0346032B0CD17B6800229A70D8
:103BF0007B684FF400729A807B7A092262F3850316
:103C00007B720AE07B6801229A707B6840229A806E
:103C10007B7A052262F385037B727B68DB68BA6876
:103C2000DA600023FB607B7B43F020037B737B68BF
:103C3000DB68FA685A61012318461037BD4680BD1B
:103C400080B584B000AF78600023FB6040F26C0365
:103C5000C2F200031B68DB6978689847BB7B43F0BE
:103C60001003BB737B68DB68FA685A61012318464E
:103C70001037BD4680BD00BF80B584B000AF78600E
:103C80000023FB6040F26C03C2F200031B681B6A56
:103C900078689847BB7B43F02003BB737B68DB6885
:103CA000FA685A61012318461037BD4680BD00BF2F
:103CB00080B487B000AF78600B46FB707B681B69EF
:103CC0001B697B617B681B695B6B3B61FB783A69B5
:103CD00022FA03F3DB01DBB27A6913437B61FB78E1
:103CE0007A6804339B0013449B689A687B6913408D
:103CF000FB60FB6818461C37BD465DF8047B7047C7
:103D000080B483B000AF786039600C37BD465DF891
:103D1000047B704780B400AF00231846BD465DF8B1
:103D2000047B704780B483B000AF78600B467B8023
:103D30007B687A889A810C37BD465DF8047B7047B2
:103D400080B485B000AF78600B467B800023FB73A6
:103D50007B681B899AB27B8813409BB2002B02D0F0
:103D60000123FB7301E00023FB73FB7B1846143730
:103D7000BD465DF8047B704780B582B000AF7860C7
:103D80007A684FF4A843C4F200039A420AD14FF470
:103D900000100121FEF7C4F84FF400100021FEF7D7
:103DA000BFF822E07A684FF4B043C4F200039A42AD
:103DB0000AD14FF480000121FEF7B2F84FF48000E1
:103DC0000021FEF7ADF810E07A684FF4B843C4F272
:103DD00000039A4209D14FF400000121FEF7A0F838
:103DE0004FF400000021FEF79BF80837BD4680BD68
:103DF00080B58AB000AF786039600023FB8400236F
:103E00007B840423BB844FF49053C0F27A03FB619C
:103E10007B689B88FB84FB8C23F03F03FB8407F1CA
:103E20000C031846FDF758FF7B69FB61FA694DF6F4
:103E30008363C4F21B33A3FB02139B0C7B84FA8CB9
:103E40007B8C1343FB847B68FA8C9A807B681B888D
:103E50009BB223F001039AB27B681A800023FB8493
:103E60003B681A6848F2A063C0F201039A4215D871
:103E70003B681B685B00FA69B2FBF3F3BB84BB8C45
:103E8000032B01D80423BB84FA8CBB8C1343FB8423
:103E90007B8C01339AB27B681A8443E03B68DA88F2
:103EA0004BF6FF739A4209D13B681A6813465B00D0
:103EB0001344FA69B2FBF3F3BB840EE03B681A6863
:103EC00013469B0013449A001344FA69B2FBF3F3C0
:103ED000BB84BB8C43F48043BB84BB8CC3F30B0318
:103EE000002B03D1BB8C43F00103BB84BA8CFB8C49
:103EF00013439BB26FEA43436FEA5343FB847B8CCB
:103F00004FF4967202FB03F244F6D353C1F26203FC
:103F100083FB02139911D317CB1A9BB201339AB2C8
:103F20007B681A847B68FA8C9A837B681B889BB2B7
:103F300043F001039AB27B681A807B681B88FB847C
:103F4000FB8C23F4816323F00203FB843B689A8893
:103F50003B685B8913439AB2FB8C1343FB847B68F9
:103F6000FA8C1A803B689A893B681B8913439AB282
:103F70007B681A812837BD4680BD00BF80B483B0FE
:103F800000AF78607B6841F288321A607B6800225B
:103F90009A807B684BF6FF72DA807B6800221A8178
:103FA0007B6800225A817B684FF480429A810C37EB
:103FB000BD465DF8047B704780B483B000AF786085
:103FC0000B46FB70FB78002B08D07B681B889BB2EC
:103FD00043F001039AB27B681A8007E07B681B8874
:103FE0009BB223F001039AB27B681A800C37BD465E
:103FF0005DF8047B704700BF80B483B000AF786089
:104000000B46FB70FB78002B08D07B681B889BB2AB
:1040100043F480739AB27B681A8007E07B681B8840
:104020009BB223F480739AB27B681A800C37BD462A
:104030005DF8047B704700BF80B483B000AF786048
:104040000B46FB70FB78002B08D07B681B889BB26B
:1040500043F400739AB27B681A8007E07B681B8880
:104060009BB223F400739AB27B681A800C37BD466A
:104070005DF8047B704700BF80B483B000AF786008
:1040800013460A46FA70BB70BB78002B04D0FB784D
:1040900043F00103FB7003E0FB7823F00103FB70A6
:1040A000FB789AB27B681A820C37BD465DF8047BB8
:1040B000704700BF80B483B000AF78600B46FB70E0
:1040C000FB78002B08D07B681B889BB243F480638D
:1040D0009AB27B681A8007E07B681B889BB223F446
:1040E00080639AB27B681A800C37BD465DF8047B0A
:1040F000704700BF80B483B000AF78600B46FB70A0
:10410000FB789AB27B681A820C37BD465DF8047B57
:10411000704700BF80B483B000AF78607B681B8AB3
:104120009BB2DBB218460C37BD465DF8047B704786
:1041300080B487B000AF7860396000233B61002312
:10414000FB600023BB600023FB757B689B8A9BB2EE
:10415000FB607B681B8B9BB2BB60BB681B04BB60B6
:10416000FA68BB68134323F07F433B613A693B68BD
:104170001A403B689A4202D10123FB7501E00023FB
:10418000FB75FB7D18461C37BD465DF8047B704708
:1041900080B487B000AF786039600023FB750023DE
:1041A0003B610023FB607B68FB603B681B0F3B614E
:1041B0003B6823F07F433B603B69002B03D0FB68E7
:1041C0001433FB6005E03B681B0C3B60FB68183355
:1041D000FB60FB681A683B681340002B02D0012388
:1041E000FB7501E00023FB75FB7D18461C37BD46BF
:1041F0005DF8047B704700BF80B483B000AF786087
:104200004FF47053C4F201037A685A610C37BD460B
:104210005DF8047B704700BF80B483B000AF786066
:104220004FF46D43CEF200037A6842F0BF6242F46D
:104230000032DA600C37BD465DF8047B704700BF82
:1042400080B485B000AF78600023FB730023BB739C
:104250000F237B737B68DB78002B40D04FF46D43DA
:10426000CEF20003DB68DB4303F4E0631B0AFB735D
:10427000FB7BC3F10403BB737A7BFB7B42FA03F342
:104280007B737B685B781A46BB7B02FA03F3FB7394
:104290007B689A787B7B1340DAB2FB7B1343FB731A
:1042A000FB7B1B01FB734FF46143CEF200037A6882
:1042B00012781344FA7B83F800234FF46143CEF263
:1042C00000037A6812785209D2B27968097801F04D
:1042D0001F01012000FA01F143F8221011E04FF410
:1042E0006143CEF200037A6812785209D2B279683B
:1042F000097801F01F01012000FA01F1203243F892
:1043000022101437BD465DF8047B704780B584B039
:1043100000AF7860F9703A80BB70FB785BB2002B1D
:104320000CDAFB7803F07F0213469B001344DB009A
:1043300003F58C737A681344FB600BE0FB7803F0A1
:104340007F0213469B001344DB0003F55C737A681D
:104350001344FB60FB7803F07F03DAB2FB681A704A
:10436000FB78DB09DBB21A46FB685A703A88FB68B7
:104370009A60FB68BA78DA70FB685B78002B04D02F
:10438000FB681B781A46FB68DA80BB78022B02D1E7
:10439000FB6800221A717868F968FCF72FF800238F
:1043A00018461037BD4680BD80B586B000AFF860B6
:1043B0007A600A46FA723B81FB7A03F07F02134669
:1043C0009B001344DB0003F55C73FA6813447B61C4
:1043D0007B697A68DA603A897B695A617B69002275
:1043E0009A617B6900225A70FB7A03F07F03DAB28C
:1043F0007B691A70FB68DB78012B02D17A687B69D4
:104400001A617B691B78002B04D1F8687969FCF785
:10441000A3F903E0F8687969FCF75EF80023184611
:104420001837BD4680BD00BF80B586B000AFF860CC
:104430007A603B600B46FB72FB7A03F07F02134607
:104440009B001344DB0003F58C73FA6813447B6113
:104450007B6901225A70FB7A03F07F03DAB27B6931
:104460001A707B697A68DA607A687B691A617B699D
:1044700000229A617B693A685A617B691B78002B3C
:1044800004D1F8687969FCF767F903E0F86879699D
:10449000FCF722F8002318461837BD4680BD00BF40
:1044A00080B584B000AF78600B46FB70FB785BB2E0
:1044B000002B0CDAFB7803F07F0213469B001344B9
:1044C000DB0003F58C737A681344FB6009E0FA782B
:1044D00013469B001344DB0003F55C737A681344B6
:1044E000FB60FB6801229A70FB7803F07F03DAB26D
:1044F000FB681A70FB78DB09DBB21A46FB685A705E
:104500007868F968FCF712FA002318461037BD46A0
:1045100080BD00BF80B584B000AF78600B46FB70F3
:10452000FB785BB2002B0CDAFB7803F07F021346BA
:104530009B001344DB0003F58C737A681344FB6023
:1045400009E0FA7813469B001344DB0003F55C7323
:104550007A681344FB60FB6800229A70FB7803F0D2
:104560007F03DAB2FB681A70FB78DB09DBB21A460C
:10457000FB685A707868F968FCF71CFA0023184643
:104580001037BD4680BD00BF80B485B000AF7860F5
:104590000B46FB700023FB60FB7803F07F03DAB26D
:1045A000BB8962F30A13BB817B681B697A68126955
:1045B0001168FA680A431A601437BD465DF8047B37
:1045C000704700BF80B586B000AFF860B960134691
:1045D000FB800023FB75FA88FB68C3F83821FA8852
:1045E000FB68C3F83421FB68022283F81121FB88A1
:1045F000F8680021BA68FFF717FFFB7D18461837E7
:10460000BD4680BD80B586B000AFF860B960134686
:10461000FB800023FB75FB88F8680021BA68FFF770
:1046200003FFFB7D18461837BD4680BD80B586B0B8
:1046300000AFF860B9601346FB800023FB75FB8870
:10464000F8680021BA68FFF7AFFEFB7D18461837FF
:10465000BD4680BD80B584B000AF78600023FB7399
:104660007B68042283F8112178680021002200234E
:10467000FFF7DAFE7868FCF721FAFB7B1846103763
:10468000BD4680BD80B584B000AF78600023FB7369
:104690007B68052283F8112178680021002200231D
:1046A000FFF782FE7868FCF709FAFB7B18461037A3
:1046B000BD4680BD80B483B000AF78600B467B8080
:1046C0007B88DB439AB27B681A820C37BD465DF863
:1046D000047B704780B485B000AF78600B467B8068
:1046E0000023FB730023BB8100237B817B681B8A33
:1046F0009AB27B881340BB817B689B899AB27B8886
:1047000013407B81BB89002B05D07B89002B02D015
:104710000123FB7301E00023FB73FB7B1846143776
:10472000BD465DF8047B704780B588B000AF4FF49C
:1047300080200121FDF7CCFB08200121FDF7A0FB23
:104740004FF44073BB6102233B770023BB77002308
:10475000FB7703237B7707F118034FF44060C4F223
:1047600002001946FDF7EEFD4FF44060C4F202006E
:1047700008210722FDF774FE4FF44060C4F20200E6
:1047800009210722FDF76CFE4FF49643BB6000231E
:10479000BB810023FB8100233B820023BB820C23CF
:1047A0007B8207F108034FF49040C4F200001946E1
:1047B000FCF748FC4FF49040C4F2000040F2255151
:1047C0000122FCF745FD4FF49040C4F200000121A6
:1047D000FCF7FCFC4FF4C060FFF71EFD27233B7184
:1047E00001237B710023BB710123FB713B1D184624
:1047F000FFF726FD2037BD4680BD00BF80B582B0E3
:1048000000AF0346FB714FF48840C4F2000040F251
:1048100027710022FCF71CFD40F29803C2F200034E
:104820001A6840F66453C2F20003F979995440F2D1
:104830009803C2F200031B685A1C40F29803C2F2AC
:1048400000031A6040F29803C2F200031B68C72BF2
:1048500005DD40F29863C2F2000300221A6040F2C4
:104860009803C2F2000301221A604FF48840C4F298
:10487000000040F227710122FCF7EAFC0837BD4630
:1048800080BD00BF80B582B000AF0346FB714FF41E
:104890009040C4F2000040F227710022FCF7D8FCDF
:1048A00040F2A003C2F200031A6840F6F463C2F2B9
:1048B0000003F979995440F2A003C2F200031B6887
:1048C0005A1C40F2A003C2F200031A6040F2A00397
:1048D000C2F200031B68C72B05DD40F2A063C2F2E1
:1048E000000300221A6040F2A003C2F2000301227A
:1048F0001A604FF49040C4F2000040F22771012288
:10490000FCF7A6FC0837BD4680BD00BF80B582B06D
:1049100000AF78604FF49040C4F2000040F227717D
:104920000022FCF795FC25E040F2A003C2F2000350
:104930001A687B68591C7960197840F6F463C2F2F2
:104940000003995440F2A003C2F200031B685A1CF2
:1049500040F2A003C2F200031A6040F2A003C2F2C8
:1049600000031B68C72B05DD40F2A003C2F2000361
:1049700000221A607B681B78002BD5D14FF4904041
:10498000C4F2000040F227710122FCF761FC0837F5
:10499000BD4680BD80B582B000AF4FF48050C4F2F8
:1049A000010040F22551FCF79BFC0346002B07D089
:1049B0004FF48050C4F20100FCF73AFC0346FB714F
:1049C0000837BD4680BD00BF80B582B000AF4FF450
:1049D0008840C4F2000040F22551FCF781FC0346F8
:1049E000002B0BD04FF48840C4F20000FCF720FCF1
:1049F0000346FB71FB791846FFF700FF4FF4884030
:104A0000C4F2000040F22771FCF76AFC0346002B59
:104A100039D040F29863C2F200031B681A46511C59
:104A200040F29863C2F20003196040F66453C2F288
:104A300000039B5C4FF48840C4F200001946FCF769
:104A4000E5FB40F29863C2F200031B68C72B05DD4B
:104A500040F29863C2F2000300221A6040F29863A9
:104A6000C2F200031A6840F29803C2F200031B6806
:104A70009A4208D14FF48840C4F2000040F22771F6
:104A80000022FCF7E5FB0837BD4680BD80B582B04B
:104A900000AF4FF49040C4F2000040F22551FCF703
:104AA0001FFC0346002B0BD04FF49040C4F20000D3
:104AB000FCF7BEFB0346FB71FB791846FFF7E2FEED
:104AC0004FF49040C4F2000040F22771FCF708FC5C
:104AD0000346002B39D040F2A063C2F200031B68EA
:104AE0001A46511C40F2A063C2F20003196040F65E
:104AF000F463C2F200039B5C4FF49040C4F20000E8
:104B00001946FCF783FB40F2A063C2F200031B6866
:104B1000C72B05DD40F2A063C2F2000300221A6039
:104B200040F2A063C2F200031A6840F2A003C2F28E
:104B300000031B689A4208D14FF49040C4F2000071
:104B400040F227710022FCF783FB0837BD4680BD89
:104B50008307F0B448D0541E002A43D0CDB2034698
:104B600002E0002C3ED0144603F8015B13F0030F63
:104B700004F1FF32F5D1032C2DD9CDB20F2C45EA2B
:104B8000052545EA054518D9A4F1100703F11006DB
:104B90001A463F0906EB07161560103242F80C5C06
:104BA00042F8085C42F8045CB242F5D104F00F040C
:104BB0000137032C03EB07130DD91E462246043A96
:104BC00046F8045B032AFAD8221F04F0030422F0FB
:104BD0000302043213442CB1C9B21C4403F8011B74
:104BE000A342FBD1F0BC704714460346C3E700BFA5
:104BF0000CB40B4670B59CB020AC02A902936FF0C8
:104C0000004554F8042B4FF4027606932346ADF882
:104C1000146001944FF6FF7404950795ADF81640A3
:104C200000F030F8029B00221A701CB0BDE8704002
:104C300002B070470EB440F2A803F0B59CB021ACAE
:104C4000C2F20003064602A954F8042B6FF0004597
:104C500018684FF402772346029606964FF6FF76C1
:104C60000194ADF8147004950795ADF8166000F046
:104C700009F8029B00221A701CB0BDE8F04003B096
:104C8000704700BF2DE9F04FC9B0914614930B91C6
:104C90000E9002F0F9FA00681A9003F065FC0B9C84
:104CA000A3891D90180603D52369002B01F0798094
:104CB0004AF68C3538ACC0F6000515950DF1DF05C8
:104CC0000895159D38AF09944AF6EC3405F11006A5
:104CD000089D0023C0F60004119317947C1B1B93BE
:104CE0001C9319931E93129321942D932C932B971D
:104CF00099F80030252B18BF002B00F0B38009F184
:104D00000102144601322378252B18BF002BF8D15D
:104D1000B4EB09050FD02C9B2D9A0133C7F80090F6
:104D2000072B7D602A442C932D92D8BF08377FDC57
:104D30001298284412902378002B00F081800023E1
:104D40008DF88F301A4613930A9304F101096378A2
:104D50004FF0FF340C9409F10109A3F12001582907
:104D600000F20A84DFE811F08E03080408049503BA
:104D70000804080408040804080408049C03480301
:104D800008045D0035020804EF03F603F603F6039A
:104D9000F603F603F603F603F603F6030804080425
:104DA00008040804080408040804080408040804A3
:104DB0006E02900208049002080408040804080423
:104DC000CD0208040804D4020804080408040804F6
:104DD0000804550208040804BC0308040804080475
:104DE0000804080408040804080408040804A803C4
:104DF000D7039002900290028703D70308040804A7
:104E00004C0308045E0324027003F0020804F70256
:104E100008048000080408042003139C14936442CF
:104E200013940A9D45F004050A9599F8003092E71D
:104E30000E982BAA0B9903F0C7FB40B938AF77E760
:104E40002D9B23B10E982BAA0B9903F0BDFB0B9C55
:104E50001298A38913F0400F18BF4FF0FF3049B0EC
:104E6000BDE8F08F4C4666E70A9C1693A30640F116
:104E7000D981149D0123EA1D22F0070202F10804E2
:104E80001494D2E900454FF0000A8DF88FA00C98D9
:104E900000280C98A2BF0A9921F080010A9154EAD7
:104EA00005020CBF00220122002818BF42F00102B7
:104EB000002A00F0E583012B00F00985022B0DF19B
:104EC000DF0240F05981DDF864C004F00F012309CE
:104ED00043EA057328091CF801101C460546904654
:104EE00054EA050002F1FF3288F80010EDD1099B69
:104EF000C8EB030310930C9C109DA542B8BF254638
:104F000000240D951894BAF1000F02D00D9D0135C3
:104F10000D950A9B13F002030F931EBF0D9C0234E4
:104F20000D940A9C14F0840540F04683139C0D9860
:104F3000C0EB040BBBF1000F40F33E83BBF1100F3D
:104F40004AF68C3A2D99DCBFC0F6000A2C9A32DD65
:104F5000C0F6000ACDF87C802095D8462C9AD3461E
:104F60001024CA46159DDDF82C9004E0A8F1100825
:104F7000B8F1100F19DD01321031072A3D607C6055
:104F800007F108072C922D91F0DD0E9849462BAAC7
:104F900038AF03F019FB00287FF459AFA8F11008CF
:104FA0002D99B8F1100F2C9AE5DCD146209DDA46F8
:104FB000C346DDF87C8001320BEB0104072A2C92FA
:104FC0002D9487E8000C00F3EC829DF88FA0083741
:104FD000BAF1000F0ED02C9B0DF18F0201343A6014
:104FE00001330122072B7A602D94D8BF08372C9308
:104FF00000F302840F9B6BB12C9B24AA02343A600D
:1050000001330222072B7A602D94D8BF08372C93E6
:1050100000F3FE83802D00F046830C9D109BC3EBB4
:10502000050ABAF1000F43DDBAF1100F2C9BDCBF6B
:10503000944D0F9527DD934822461025DDF838B0B2
:105040000B9C0F9004E0AAF1100ABAF1100F19DDC1
:1050500001331032072B3E607D6007F108072C9367
:105060002D92F0DD584621462BAA38AF03F0ACFA5A
:1050700000287FF4ECAEAAF1100A2D9ABAF1100FB5
:105080002C9BE5DC144601330F9D072B54442C93D5
:1050900087E82004D8BF08372D9409DD0E982BAA85
:1050A0000B9903F091FA00287FF4D1AE2D9C38AF14
:1050B0000A9DEB0500F182822C9B109D0133C7F8FD
:1050C0000080072B2C447D602D942C9300F37A8371
:1050D00008370A9D6B0740D513980D99451A002D86
:1050E0003BDD102D4AF68C3A2C9BC0F6000A22DDDF
:1050F00022464FF01008DDF838B0159C02E0103D54
:10510000102D17DD01331032072B87E810012C9387
:1051100007F108072D92F2DD58460B992BAA38AFFC
:1051200003F052FA00287FF492AE103D2D9A102D14
:105130002C9BE7DC144601332C44072B2C932D9435
:10514000C7F800A07D6008DD0E982BAA0B9903F02C
:105150003BFA00287FF47BAE2D9C129D0D9913988D
:105160008142ACBF6D182D181295002C40F035838C
:10517000002338AF2C93BBE5E308E90843EA457305
:1051800090460D4604F007021C4602F1300354EA33
:10519000050108F1FF3288F80030EDD10A9C414644
:1051A000E00700F1F584099DC8EB05051095A2E61E
:1051B0000A9D169315F0200300F0B480149C002380
:1051C000E21D22F0070202F108051495D2E900451C
:1051D00059E699F8003009F101042A2B00F0918773
:1051E000A3F13001092982BFA14600240C943FF6A7
:1051F000B4AD002000EB800014F8013B01EB40004F
:10520000A3F130010929F5D940EAE070A1460C90DC
:10521000A3E50A9D169345F010050A950A9CA3067E
:105220003FF527AE0A9DED0600F1C4830A9C640693
:1052300040F1C083149800250123043030F8044C59
:10524000149020E60A9C169344F010040A940A9DD8
:105250008DF88F20A90640F16581149CE31D23F091
:10526000070303F108051495D3E9002314461D46EE
:10527000002A73F10000C0F2BB839DF88FA00123C8
:1052800005E600BF9CAB00080A9C169325078DF825
:105290008F2040F1AB84149DEB1D23F0070303F135
:1052A000080414941D681B955B681C931B981C993B
:1052B00003F000F801281B9840F0788400220023B6
:1052C0001C9905F089F8002840F04A869DF88FA0C7
:1052D000032500244AF6B0384AF6AC330D95C0F6E3
:1052E00000080A9DC0F600030C94169C25F080056A
:1052F0000A950325472CD8BF98461095002418948A
:1053000001E60A9D45F008050A9599F8003022E566
:105310000A9C169344F010040A940A9D15F0200389
:105320007FF44CAF0A9C14F0100240F04C830A9CAE
:1053300014F0400300F0478314981346002504300E
:1053400030F8044C14909EE50A9D45F020050A951E
:1053500099F80030FFE4149C0025169304348DF86E
:105360008F5054F8048CB8F1000F00F0D9850C98D8
:1053700000284046C0F2AB8529460C9A02F05EFA3E
:10538000002800F0FF851494C8EB00000C9C0C95DD
:10539000A042B8BF0446109424EAE4750C9C0D9515
:1053A0009DF88FA01894AEE50A9D4AF6D034C0F659
:1053B00000041693A8068DF88F20199440F19C8064
:1053C000149CE31D23F0070303F108051495D3E9AA
:1053D00000450A98C30740F1278254EA050100F00E
:1053E0002382169A302340F002008DF890300A9004
:1053F00002238DF8912046E599F800302B22AAE48B
:1054000099F8003049466C2B05BF09F101090A9D46
:105410000A9C45F020050BBF4B7844F010040A9518
:105420000A9498E40A9D8DF88F20A90640F1EB8339
:10543000149C2168129C2246E5172B46149DC1E955
:1054400000230435149553E4149A4AF6D0300A9D8B
:105450007823C0F600008DF8913045F002051693D0
:105460000A953023151D8DF8903014950223146889
:105470000025199007E50A9C44F040040A9499F825
:10548000003068E499F80030002A7FF464AC2022F0
:1054900061E40A9D45F001050A9599F800305AE447
:1054A000149C149D24682B1D002C1394FFF6B5AC9E
:1054B000149399F800304EE4149A0124149D0DF1D0
:1054C000B80816930023126804359A460D94149573
:1054D0008DF88F300C93189310948DF8B82018E540
:1054E0000A9D4AF6BC34C0F600041693A8068DF84F
:1054F0008F2019943FF564AF0A9CE10600F15382B6
:105500000A9C620640F14F8214980025043030F85E
:10551000044C14905DE70A9D1693A9068DF88F2020
:105520003FF59BAE0A9CE20600F155820A9C630699
:1055300040F151821498043030F9044C1490224602
:10554000E5172B4694E60A9D45F080050A9599F8E3
:10555000003000E40024A3F130012046139400EB56
:10556000800019F8013B01EB4000A3F1300109294B
:10557000F5D91390FFF7F1BB16938DF88F20002B10
:105580003FF45EAC169C002301259A460D950DF163
:10559000B8088DF8B8408DF88F300C93189310959B
:1055A000B7E40E982BAA0B9903F00EF800287FF4AD
:1055B0004EAC9DF88FA038AF2D9C09E5169D652D4A
:1055C00040F3B9801B98002200231C9904F0FAFED6
:1055D000002800F02C812C9B0122179D01341344DC
:1055E0007A60072B2D943D60D8BF08372C9300F3C9
:1055F0001683259B119DAB4203DB0A9DED077FF5CA
:1056000068AD1D9D2C9B2C441A9D01332D94072BB6
:105610002C933D601D9D7D60D8BF083700F35E83ED
:10562000119D05F1FF38B8F1000F7FF752ADB8F1C9
:10563000100F2C9B40F3AA81AC4D4FF0100ADDF8FF
:105640002CB00F950E9D05E0A8F11008B8F1100FD1
:1056500040F39E8101331034072B87E840042C93DC
:1056600007F108072D94EFDD284659462BAA38AFDD
:1056700002F0AAFF00287FF4EAAB2D9C2C9BE3E705
:10568000002B40F0B4800A9CE2075CBF10930DF140
:10569000E0087FF530AC219D30230DF1DF088DF857
:1056A000DF30109527E413980D99451A002D7FF7E8
:1056B000B4AC102D2C9BDCBF8C4A0F9224DD8B48A0
:1056C00022464FF0100BDDF838A00B9C0F9002E043
:1056D000103D102D17DD01331032072B87E84008ED
:1056E0002C9307F108072D92F2DD504621462BAA94
:1056F00038AF02F069FF00287FF4A9AB103D2D9A66
:10570000102D2C9BE7DC144601330F99072B2C44FA
:105710002C9387E82200D8BF08372D947FF77DAC03
:105720000E982BAA0B9902F04FFF00287FF48FAB45
:105730002D9C38AF71E4119D2C9B012D40F3E2812B
:105740000121621C0B44C7F80080072B79602D9261
:10575000D8BF08372C9300F3F4811A9D5C1CDDF848
:1057600074A0072C2C943D6092441D9DCDF8B4A0EC
:105770007D60D8BF083700F3D7811B980022002333
:105780001C9904F01FFE002840F0B2800134119DE6
:10579000072C08F1010205F1FF332C949A443A607A
:1057A000CDF8B4A07B6000F3E4800837631C1E9D35
:1057B0001E9C072B27AA2C93544487E824002D9481
:1057C0007FF786AC0E982BAA0B9902F0FDFE0028FD
:1057D0007FF43DAB2D9C38AF7BE40E982BAA0B9940
:1057E00002F0F2FE00283FF4C3ACFFF730BB10928A
:1057F0000DF1E008FFF77FBB0E982BAA0B9902F082
:10580000E3FE00287FF423AB2D9C38AFFFF7F2BBFB
:105810000E982BAA0B9902F0D7FE00287FF417AB45
:105820002D9C38AFFFF7F6BB0223FFF72CBB259B5F
:10583000002B40F3FF81119D189811998542A8BF54
:105840000546002D41440C910CDD2C9B2C44C7F8DF
:10585000008001337D60072B2D942C93D8BF08372F
:1058600000F34383189A25EAE575C5EB020ABAF1FD
:10587000000F40F3DD80BAF1100F2C9BDCBF1B4DF5
:105880000F9540F3C080194D22464FF0100B0B9C32
:105890000F950E9D05E0AAF1100ABAF1100F40F322
:1058A000B18001331032072B87E840082C9307F1B1
:1058B00008072D92EFDD284621462BAA38AF02F0CB
:1058C00083FE00287FF4C3AA2D9A2C9BE3E7002DCA
:1058D00008BF0A2C80F04181219D30340DF1DF0892
:1058E0008DF8DF401095FFF706BB00BF9CAB0008AA
:1058F000119D05F1FF38B8F1000F7FF757AFB8F1F0
:10590000100FDCBFA84B0F9328DDA74D53464FF077
:10591000100BDDF82CA00F950E9D04E0A8F11008E7
:10592000B8F1100F19DD01341033072C87E8400857
:105930002C9407F108072D93F0DD284651462BAA39
:1059400038AF02F041FE00287FF481AAA8F11008C8
:105950002D9BB8F1100F2C9CE5DC9A4601340F9B6F
:10596000072CC2442C94CDF8B4A087E808017FF737
:105970001CAF0E982BAA0B9902F026FE00287FF48C
:1059800066AADDF8B4A038AF2C9C0FE7864D0F95C2
:1059900001330F9D072B44442C932D9487E820015D
:1059A0007FF796AB0EE7149D043555F8044C14951B
:1059B00000250EE5149D0123043555F8044C14957B
:1059C0000025FFF760BA149D043555F8044C149572
:1059D0000025FFF758BA149D043555F8044C14956A
:1059E0002246E5172B46002A73F10000BFF645ACAE
:1059F0004FF02D0A644265EB45058DF88FA0012319
:105A0000FFF745BA144601330F9D072B54442C93DE
:105A100087E82004D8BF08372D9409DD0E982BAAFB
:105A20000B9902F0D1FD00287FF411AA2D9C38AF0C
:105A3000189D259BA844119DAB4249DB0A9DE907AF
:105A400046D40C981199C8EB0005CB1AAB42B8BFED
:105A50001D46002D0CDD2C9A2C44C7F80080013225
:105A60007D60072A2D942C92D8BF083700F34A8214
:105A700025EAE575C5EB0308B8F1000F7FF729AB00
:105A8000B8F1100F2C9B81DD474D4FF0100ADDF867
:105A90002CB00F950E9D05E0A8F11008B8F1100F7D
:105AA0007FF776AF01331034072B87E840042C933F
:105AB00007F108072D94EFDD284659462BAA38AF89
:105AC00002F082FD00287FF4C2A92D9C2C9BE3E705
:105AD0001D9D2C9A2C441A9D01322D94072A2C923C
