:020000040800F2
:1000000070130020B90F0008211600082D160008F3
:1000100039160008451600085116000800000000B7
:100020000000000000000000000000005D16000855
:100030006916000800000000751600088116000807
:1000400019100008191000081910000819100008EC
:1000500019100008191000081910000819100008DC
:10006000191000081910000819100008A90D00083F
:1000700019100008191000081910000819100008BC
:1000800019100008191000081910000819100008AC
:10009000191000081910000819100008191000089C
:1000A000191000081910000819100008191000088C
:1000B000191000081910000821170008191000086D
:1000C000191000081910000819100008191000086C
:1000D00019100008F93700082D380008F138000819
:1000E0001910000819100008DD1600081910000882
:1000F000F917000819100008191000089D0D0008D4
:1001000019100008891900088D170008B50D00089E
:10011000191000081910000819100008191000081B
:100120001910000819100008191000089519000886
:1001300019100008191000081910000819100008FB
:10014000191000081910000819100008C916000835
:1001500019100008191000081910000819100008DB
:1001600019100008191000081910000819100008CB
:1001700019100008191000081910000819100008BB
:10018000191000081910000880B489B000AFF86099
:10019000B960FA71BB800023FB76FB68DB78002B2B
:1001A00023D100237B610023FB61BB880333DA1C6E
:1001B000002BB8BF13469B107B61FB79FA68323382
:1001C0009B0013449B683B610023FB6109E0BB6813
:1001D0001A683B691A60FB690133FB61BB68043331
:1001E000BB60FA697B699A42F1D3FB7E18462437DB
:1001F000BD465DF8047B704780B489B000AFF860FD
:10020000B9601346FB800023FB61FB880333DA1CD3
:10021000002BB8BF13469B10BB61FB68D3F8D030EE
:100220007B610023FB6109E07B691A68BB681A6087
:10023000FB690133FB61BB680433BB60FA69BB69CE
:100240009A42F1D3BB6818462437BD465DF8047B5B
:10025000704700BF80B586B000AF7860396000237A
:10026000FB7400237B610023FB60FB6843F02003E9
:10027000FB603B68DBB203F01F03DAB2FB6862F39A
:100280008A13FB607B68DB68FA681A617B68DB684D
:100290001B69FB607B6901337B617A694FF45463AE
:1002A000C0F203039A4200D905E0FB68C3F3401390
:1002B000DBB2012BEAD0032001F000FEFB7C1846E4
:1002C0001837BD4680BD00BF80B483B000AF7860F2
:1002D0007B68DB685B6903F0010318460C37BD4699
:1002E0005DF8047B704700BF80B582B000AF7860D6
:1002F0007868FFF7E9FF0346012B0CBF00230123B9
:10030000DBB218460837BD4680BD00BF80B485B05B
:1003100000AF78600023FB607B68DB685B69FB6093
:100320007B68DB689B69FA681340FB60FB681846D2
:100330001437BD465DF8047B704700BF80B485B0BC
:1003400000AF78600023FB737B681B699B68BB6010
:100350003B7AC3F34103DBB2022B09D0032B04D059
:10036000012B02D00323FB7305E00223FB7302E0A1
:100370000123FB7300BFFB7B18461437BD465DF8B5
:10038000047B704780B487B000AF78600023FB75B2
:100390000023BB607B681B699B683B617B689B6932
:1003A0001B68FB603B7CC3F34103DBB2022B04D030
:1003B000BB896FF30A03BB8105E0BB89032262F3AB
:1003C0000A03BB8100BF7B689B69FA681A607B7A6D
:1003D00043F001037B727B681B697A68126951687C
:1003E000BA68D2431140BA680A435A60FB7D184686
:1003F0001C37BD465DF8047B704700BF80B487B0F2
:1004000000AF786039600023FB740023FB60002399
:10041000BB603B685B78012B0FD13B681B787A6827
:1004200004339B0013449B687B613B681B7801226B
:1004300002FA03F39BB23B810EE03B681B787A68BB
:1004400014339B0013445B687B613B681B7801227B
:1004500002FA03F39BB27B817B691B68FB607B7BA9
:10046000C3F3C013DBB2002B27D13B689B689BB260
:10047000C3F30A039AB2BB8962F30A03BB813B68E8
:10048000DB7803F00303DAB2BB7B62F38303BB7355
:100490003B68DB88DBB203F00F03DAB2FB8962F35F
:1004A0008913FB81FB7B43F01003FB737B7B43F0E1
:1004B00080037B73FA687B691A607B681B697A68C2
:1004C0001269D169BA680A43DA61FB7C18461C37A5
:1004D000BD465DF8047B704780B588B000AF78609A
:1004E00039600023FB770023BB6100237B6100237D
:1004F0003B613B685B78012B40F0AB803B681B782D
:100500007A6804339B0013449B681B687B613B68DB
:100510001B787A6804339B0013449B681B693B611A
:100520003B685B69002B09D13B696FF312033B61A8
:100530007B8A012262F3CC037B8222E03B685B6909
:10054000C3F312023B6962F312033B613B685A69D1
:100550003B689B6813445A1E3B689B68B2FBF3F3ED
:100560009BB2C3F309039AB27B8A62F3CC037B820A
:100570003B68DB78012B04D1FB7C012262F346133C
:10058000FB743B681B787A6804339B0013449B68B8
:100590003A691A617B68DB78012B0AD13B681B78CA
:1005A0007A6804339B0013449B683A6812695A6165
:1005B00015E03B68DB78012B11D03B685B69002BB1
:1005C0000DD03B681B78012202FA03F3BB617B6804
:1005D0001B697A681269516BBA690A435A633B68AE
:1005E000DB78012B14D17B681B699B68FB60FB687F
:1005F000C3F30D239BB203F00103002B04D1FB7D59
:1006000043F02003FB7503E0FB7D43F01003FB7513
:10061000FB7D43F00403FB75FB7D43F08003FB751A
:100620003B681B787A6804339B0013449B687A69A3
:100630001A603B68DB78012B40F088803B68D96802
:100640003B681A783B685B699BB27868FFF79CFD52
:100650007CE03B681B787A6814339B0013445B682A
:100660001B687B613B681B787A6814339B001344DA
:100670005B681B693B613B685B69002B0DD13B6884
:100680009B68C3F312023B6962F312033B617B8AEE
:10069000012262F3CC037B821FE03B685A693B680E
:1006A0009B6813445A1E3B689B68B2FBF3F39BB2F2
:1006B000C3F309039AB27B8A62F3CC037B827B8A01
:1006C000C3F3C9039BB23A68926802FB03F3C3F316
:1006D00012023B6962F312033B613B681B787A6844
:1006E00014339B0013445B683A691A617B68DB78BA
:1006F000012B09D13B681B787A6814339B001344A3
:100700005B683A6812695A613B68DB78012B0CD14F
:100710003B685B79002B04D0FB7D43F02003FB7525
:1007200003E0FB7D43F01003FB75FB7D43F0040306
:10073000FB75FB7D43F08003FB753B681B787A6893
:1007400014339B0013445B687A691A60FB7F184678
:100750002037BD4680BD00BF80B489B000AF78604F
:1007600039600023FB770023BB6100233B6100233A
:10077000BB603B685B78012B6FD17B689B697B61B9
:100780007B691B683B617B691B69BB603B685B697C
:10079000002B09D13B7A6FF306033B72BB7A01222F
:1007A00062F3C403BB7223E03B685A693B689B68F1
:1007B0009A420ED93B689A683B685A613B689B68CD
:1007C000DBB203F07F03DAB23B7A62F306033B72DB
:1007D00009E03B685B69DBB203F07F03DAB23B7A86
:1007E00062F306033B72BB7A012262F3C403BB725D
:1007F000BA687B691A617B68DB78012B09D13B6899
:100800001B787A6804339B0013449B683A6812692A
:100810005A61FB7C43F00403FB74FB7C43F08003D0
:10082000FB743A697B691A607B68DB78002B75D1B1
:100830003B685B69002B71D03B681B78012202FA90
:1008400003F3BA691343BB617B681B697A68126959
:10085000516BBA690A435A6360E03B681B787A6857
:1008600014339B0013445B681B683B613B681B7837
:100870007A6814339B0013445B681B69BB603B6858
:100880005B69002B0FD13B689B68DBB203F07F03F1
:10089000DAB23B7A62F306033B72BB7A012262F35F
:1008A000C403BB7212E03B689A683B685A613B68BC
:1008B0009B68DBB203F07F03DAB23B7A62F3060394
:1008C0003B72BB7A012262F3C403BB723B681B78A4
:1008D0007A6814339B0013445B68BA681A617B68BA
:1008E000DB78012B09D13B681B787A6814339B00B5
:1008F00013445B683A6812695A61FB7C43F0040355
:10090000FB74FB7C43F08003FB743B681B787A68C4
:1009100014339B0013445B683A691A60FB7F1846E6
:100920002437BD465DF8047B704700BF80B487B0B4
:1009300000AF786039600023FB750023FB603B68E3
:100940005B78012B1CD13B681B787A6804339B00D1
:1009500013449B683B613B691B68FB60FB7BC3F3F3
:10096000C013DBB2002B03D0FB7B43F04003FB73CF
:10097000BB7B43F02003BB73FA683B691A6011E04C
:100980003B681B787A6814339B0013445B683B61B7
:100990003B691B68FB60BB7B43F02003BB73FA68B9
:1009A0003B691A60FB7D18461C37BD465DF8047B29
:1009B000704700BF80B487B000AF78603960002313
:1009C000FB740023FB603B685B78012B08D13B681C
:1009D0001B787A6804339B0013449B687B6107E0B3
:1009E0003B681B787A6814339B0013445B687B6117
:1009F0007B691B68FB60BB7B6FF34513BB733B6874
:100A0000DB78032B03D03B68DB78022B03D1FB7B25
:100A100043F01003FB73FA687B691A60FB7C18468D
:100A20001C37BD465DF8047B704700BF80B485B0BD
:100A300000AF78607B681B699B69FB607B681B6902
:100A4000DB69FA681340FB60FB681B0C184614371F
:100A5000BD465DF8047B704780B485B000AF786018
:100A60000B46FB70FB787A6814339B0013445B6879
:100A70009B68FB607B681B695B69FA681340FB60DD
:100A8000FB6818461437BD465DF8047B704700BF0D
:100A900080B485B000AF78607B681B699B69FB60A0
:100AA0007B681B69DB69FA681340FB60FB689BB2DB
:100AB00018461437BD465DF8047B704780B487B094
:100AC00000AF786000233B61FB7C43F0C003FB7404
:100AD000BB7C012262F3C403BB743B7C182262F32B
:100AE00006033B747B685B6D3A691A617B68DB784F
:100AF000012B16D10023FB607B685B6D7A6802F5E1
:100B0000B9625A617B685B6D1B68FB60FB7B43F0DD
:100B10008003FB734FF08023FB607B685B6DFA689A
:100B20001A601C37BD465DF8047B704780B485B001
:100B300000AF78607B689B7A002B1BD07B681B69B9
:100B40009B68FB603B7BC3F30003DBB2012B11D13D
:100B50007B6803F586731B68BB603B7A6FF34103C8
:100B60003B723B7A6FF300033B727B68D3F80C3126
:100B7000BA681A601437BD465DF8047B704700BF41
:100B800080B483B000AF78600B46FB70FB78002B1D
:100B90000CD04FF43053C4F201034FF43052C4F27E
:100BA0000102D16B7A680A43DA630CE04FF43053E8
:100BB000C4F201034FF43052C4F20102D16B7A68DF
:100BC000D2430A40DA630C37BD465DF8047B7047B8
:100BD00080B485B000AF78600023FB734FF43053CE
:100BE000C4F201035A6B7B681340002B02D001232F
:100BF000FB7301E00023FB73FB7B18461437BD46F3
:100C00005DF8047B704700BF80B483B000AF7860AC
:100C10004FF43053C4F201037A689A630C37BD462F
:100C20005DF8047B704700BF80B500AF40F214034D
:100C3000C2F200031A6840F22003C2F200031B68EC
:100C40001046194601F0CCF80346002B00F0A580B1
:100C500040F20403C2F200031B68002B7DD000BFEA
:100C600040F21403C2F200031B68184601F0A0F81A
:100C70000346002BF4D140F21403C2F200031A68B9
:100C800040F22003C2F200031B681046194601F02F
:100C9000E5F840F2F463C2F200031B681A4640F222
:100CA0003473C2F200039A6040F20403C2F20003FC
:100CB0001A684FF6FF739A4228BF1A4640F23473FF
:100CC000C2F200031A6140F21403C2F200031B686F
:100CD000184640F23471C2F2000100F0F5FF40F214
:100CE0001403C2F200031B681846012101F044F806
:100CF00040F2F463C2F200031A6840F20403C2F245
:100D0000000319684FF6FF73994238BF0B465B002A
:100D10001A4440F2F463C2F200031A6040F2040382
:100D2000C2F200031A6840F20403C2F20003196819
:100D30004FF6FF73994238BF0B46D21A40F20403B4
:100D4000C2F200031A6040F21403C2F200031B68EF
:100D50001846012101F010F81FE040F21403C2F21E
:100D600000031B681846002101F006F840F2140346
:100D7000C2F200031A6840F22003C2F200031B68AB
:100D80001046194601F06AF840F2F463C2F200031B
:100D90001B681846002102F06DFA80BD80B500AFD7
:100DA000FFF742FF80BD00BF80B500AFFFF73CFFFB
:100DB00080BD00BF80B500AF4FF47050C4F200009A
:100DC000022102F077FA0346002B17D040F20C0301
:100DD000C2F200031B68022B06D102F055FA03464B
:100DE0000420194600F0CEF802F04EFA03464FF404
:100DF0007050C4F20000194602F04EFA80BD00BFE8
:100E000080B483B000AF78600B467B807B88C3F3EF
:100E100008039AB27B689A800C37BD465DF8047B64
:100E2000704700BF80B483B000AF78607B689B8858
:100E30009BB2C3F308039BB218460C37BD465DF85E
:100E4000047B704780B487B000AF786013460A46D1
:100E50007A807B7000233B610023FB600023BB6032
:100E600000237B617B687B617B88DBB25B09DBB243
:100E70003B617B8803F01F03FB60FB68012202FAE1
:100E800003F3BB603B69012B03D17B690C337B61AE
:100E900009E03B69022B03D17B6910337B6102E0DF
:100EA0007B6914337B617B78002B06D07B697A6980
:100EB0001168BA680A431A6006E07B697A691168AA
:100EC000BA68D2430A401A601C37BD465DF8047BFD
:100ED000704700BF80B487B000AF78600B467B805E
:100EE0000023FB6000237B610023BB600023FB74B5
:100EF0007B88DBB25B09DBB2BB607B8803F01F033E
:100F00007B617B69012202FA03F37B61BB68012BE1
:100F100006D17B689B899BB27A6913407B610FE0A5
:100F2000BB68022B06D17B681B8A9BB27A6913408F
:100F30007B6105E07B689B8A9BB27A6913407B6189
:100F40007B881B0A9BB2FB60FB68012202FA03F359
:100F5000FB607B681B889BB2FA681340FB607B696F
:100F6000002B05D0FB68002B02D00123FB7401E0AD
:100F70000023FB74FB7C18461C37BD465DF8047BE0
:100F8000704700BF80B485B000AF78600B467B80AF
:100F90000023FB604FF4E843C4F20003FB60FA68EF
:100FA0007B6813440833FB60FB687A881A60143747
:100FB000BD465DF8047B704780B582B000AF43F654
:100FC000B413C0F600037B6040F20003C2F20003DA
:100FD0003B6007E03B681A1D3A607A68111D796032
:100FE00012681A603A6840F28C03C2F200039A4217
:100FF000F0D3074807494FF000028842B8BF40F8D5
:10100000042BFADB00F07CFA0837BD4680BD0000F7
:101010008C000020700B002080B400AFFEE700BF02
:1010200080B584B000AF786007F10803786819468E
:1010300001F070FB3B7A03F01F03012B0AD0022B57
:101040000FD0002B14D107F108037868194600F07F
:101050005BFF16E007F108037868194600F0A4FF6B
:101060000FE007F108037868194600F0D1FF08E0A7
:101070003B7A23F07F03DBB27868194602F010FA5E
:1010800000BF002318461037BD4680BD80B584B030
:1010900000AF78600B46FB70FB78002B45D17B6876
:1010A00003F55C73FB607B6893F81131032B4FD120
:1010B000FB68DA69FB689B689A4221D9FB68DA69A8
:1010C000FB689B68D21AFB68DA617B68DB78012BCE
:1010D00006D1FB68DA68FB689B681A44FB68DA6033
:1010E000FB68DA68FB689968FB68DB69994238BF7E
:1010F0000B469BB2786811461A4602F097FA27E031
:101100007B68D3F8E0351B69002B0AD07B6893F825
:101110001231032B05D17B68D3F8E0351B69786861
:101120009847786802F096FA12E07B68D3F8E035C9
:101130009B69002B0CD07B6893F81231032B07D1ED
:101140007B68D3F8E0359B69FA7878681146984750
:10115000002318461037BD4680BD00BF80B584B05F
:1011600000AF78600B46FB70FB78002B60D17B688A
:1011700003F58C73FB607B6893F81131022B6AD105
:10118000FB68DA69FB689B689A421CD9FB68DA69DC
:10119000FB689B68D21AFB68DA617B68DB78012BFD
:1011A00006D1FB68DA68FB689B681A44FB68DA6062
:1011B000FB68DA68FB68DB699BB2786811461A46FF
:1011C00002F020FA47E0FB681B6AFA689268B3FBFA
:1011D000F2F102FB01F29B1A002B14D1FB681A6A90
:1011E000FB689B689A420ED3FB681A6AFB685B6ACD
:1011F0009A4208D278680021002202F003FAFB68C4
:1012000000225A6227E07B68D3F8E035DB68002BC8
:101210000AD07B6893F81231032B05D17B68D3F891
:10122000E035DB6878689847786802F02BFA12E0BE
:101230007B68D3F8E0355B69002B0CD07B6893F8B2
:101240001231032B07D17B68D3F8E0355B69FA785C
:10125000786811469847002318461037BD4680BD70
:1012600080B582B000AF786078680021402200230A
:1012700002F04CF8786880214022002302F046F802
:101280007B68012283F812217B68D3F8E4355B6820
:101290007A68927810469847002318460837BD466A
:1012A00080BD00BF80B582B000AF78607B68D3F8A6
:1012B000E4351B6998477B68032283F812210023D9
:1012C00018460837BD4680BD80B582B000AF786053
:1012D0007B68042283F812217B68D3F8E435DB684D
:1012E0009847002318460837BD4680BD80B582B0B8
:1012F00000AF78607B68D3F8E035DB69002B05D060
:101300007B68D3F8E035DB69786898470023184696
:101310000837BD4680BD00BF80B582B000AF7860A1
:101320000B46FB707B68D3F8E0351B68FA78786869
:10133000114698477B68D3F8E4359B6898470023AB
:1013400018460837BD4680BD80B582B000AF7860D2
:101350000B46FB707B68D3F8E0355B68FA787868F9
:1013600011469847002318460837BD4680BD00BF88
:1013700080B582B000AF78607B68D3F8E0351B6A37
:1013800078689847002318460837BD4680BD00BFDF
:1013900080B582B000AF78607B68D3F8E0355B6AD7
:1013A00078689847002318460837BD4680BD00BFBF
:1013B00080B483B000AF03463960FB7197F9073002
:1013C000002B0EDA4FF46D43CEF20003FA7902F0EF
:1013D0000F02111F3A68D2B21201D2B20B441A7630
:1013E0000CE04FF46143CEF2000397F907103A681E
:1013F000D2B21201D2B20B4483F800230C37BD469F
:101400005DF8047B704700BF80B582B000AF7860A4
:101410007B68B3F1807F01D301231AE04EF2100301
:10142000CEF200037A6822F07F42013A5A604FF010
:10143000FF300F21FFF7BCFF4EF21003CEF2000386
:1014400000229A604EF21003CEF2000307221A60C7
:10145000002318460837BD4680BD00BF80B582B066
:1014600000AF00F02BFB9D20012100F087F84FF426
:1014700000433B6001233B710023BB710023FB71E0
:1014800003237B713B460020C4F20200194600F0A2
:1014900087FA4FF4C0433B603B464FF40060C4F210
:1014A0000200194600F07CFA4CF208033B603B4610
:1014B0004FF44060C4F20200194600F071FA0223B2
:1014C0003B603B464FF48050C4F20200194600F0E6
:1014D00067FA40F26403C2F200031A6844F6D35379
:1014E000C1F26203A3FB02139B091846FFF78CFFAE
:1014F0000346002B01D000F069F80837BD4680BDD7
:1015000080B58EB000AF3B1D00221A60043300226C
:101510001A60043300221A60043300221A60043374
:1015200000221A60043300221A60043300221A6079
:10153000043300221A60043300221A6004330022AC
:101540001A60043300221A60043300221A60043344
:1015500000221A800233FFF781FF05E040F28C037E
:10156000C2F2000300221A6040F28C03C2F20003B0
:101570001B68322BF2DC00BFF6E700BF80B483B0FB
:1015800000AF78600B46FB70FB78002B0CD04FF45B
:101590006053C4F202034FF46052C4F20202116BB2
:1015A0007A680A431A630CE04FF46053C4F20203F2
:1015B0004FF46052C4F20202116B7A68D2430A40BF
:1015C0001A630C37BD465DF8047B704780B483B066
:1015D00000AF0123FB8000233B6000BF3A68531C2F
:1015E0003B604AF21F13C0F207039A42F6D94FF448
:1015F0004063C4F20203FA88120392B25A83FB8852
:101600005B00FB80FB880F2B01D90123FB804FF48B
:101610004063C4F20203FA88120392B21A83DAE733
:1016200080B400AFBD465DF8047B704780B500AF65
:10163000FFF7CCFF80BD00BF80B500AFFFF7C6FF4E
:1016400080BD00BF80B500AFFFF7C0FF80BD00BF09
:1016500080B500AFFFF7BAFF80BD00BF80B400AF18
:10166000BD465DF8047B704780B400AFBD465DF8B1
:10167000047B704780B400AFBD465DF8047B7047C3
:1016800080B400AF40F28C03C2F200031B685A1C06
:1016900040F28C03C2F200031A6040F29003C2F2DF
:1016A00000031B68002B0AD040F29003C2F2000333
:1016B0001B685A1E40F29003C2F200031A60BD4636
:1016C0005DF8047B704700BF80B500AF40F20410A6
:1016D000C2F2000001F088F880BD00BF80B500AF05
:1016E00040F20413C2F200039B7A002B13D04EF693
:1016F0001053CEF200034EF61052CEF200021268E2
:1017000022F006021A6000F0D9F940F20410C2F289
:101710000000FFF70BFA4FF4802001F0E7FD80BDD9
:1017200080B500AF4FF40060C4F20000012101F069
:10173000D1FF0346002B27D04FF40063C4F200030F
:101740001B889BB21B099BB2012B0BD140F270731B
:10175000C2F200031B685A1C40F27073C2F200030D
:101760001A600AE040F28073C2F200031B685A1C40
:1017700040F28073C2F200031A604FF40060C4F2BA
:101780000000012101F096FF80BD00BF80B500AFD1
:101790004FF44060C4F20000012101F09BFF0346BA
:1017A000002B27D04FF44063C4F200031B889BB288
:1017B0001B099BB2012B0BD140F27473C2F20003E0
:1017C0001B685A1C40F27473C2F200031A600AE0EC
:1017D00040F27C73C2F200031B685A1C40F27C7317
:1017E000C2F200031A604FF44060C4F2000001210D
:1017F00001F060FF80BD00BF80B500AF4FF4806096
:10180000C4F20100012101F065FF0346002B27D03F
:101810004FF48063C4F201031B889BB21B099BB287
:10182000012B0BD140F28473C2F200031B685A1CD7
:1018300040F28473C2F200031A600AE040F2787347
:10184000C2F200031B685A1C40F27873C2F2000314
:101850001A604FF48060C4F20100012101F02AFFF8
:1018600080BD00BF80B500AF4FF48070FFF7B0F9C6
:101870000346002B10D040F2D003C2F20003002236
:101880001A704FF48070FFF7BFF940F2D403C2F230
:10189000000301221A6050E00220FFF799F9034685
:1018A000002B09D00220FFF7AFF940F2D003C2F2BB
:1018B000000302221A7040E00820FFF789F903466E
:1018C000002B09D00820FFF79FF940F2D003C2F2A5
:1018D000000304221A7030E02020FFF779F9034654
:1018E000002B09D02020FFF78FF940F2D003C2F27D
:1018F000000306221A7020E01020FFF769F9034662
:10190000002B09D01020FFF77FF940F2D003C2F27C
:10191000000305221A7010E04FF40070FFF758F929
:101920000346002B09D04FF40070FFF76DF940F229
:10193000D003C2F2000307221A704CF23A300021A1
:10194000FFF71EF940F2D003C2F200031B78DBB2AE
:10195000184680BD80B500AF4FF4C843C4F20203FF
:101960001B6803F0C053002B0DD040F2D803C2F225
:10197000000301221A6046F25840C4F202004FF000
:10198000C25100F06BFA80BD80B500AFFFF76AFF6F
:1019900080BD00BF80B500AFFFF7DCFF80BD00BF9A
:1019A00080B487B000AF7860396000237B6100238A
:1019B0003B610023FB6000237B6176E07B690122B1
:1019C00002FA03F33B613B681A683B691340FB6012
:1019D000FA683B699A4265D17B681A687B695B004B
:1019E000032101FA03F3DB431A407B681A607B682A
:1019F0001A683B681B7919467B695B0001FA03F39F
:101A00001A437B681A603B681B79012B03D03B6843
:101A10001B79022B2ED17B689A687B695B000321BE
:101A200001FA03F3DB431A407B689A607B689A688B
:101A30003B685B7919467B695B0001FA03F31A4343
:101A40007B689A607B685A687B699BB2012101FAC6
:101A500003F3DB431A407B685A607B685A683B6833
:101A60009B7919467B699BB201FA03F39BB21A4337
:101A70007B685A607B68DA687B699BB25B000321F4
:101A800001FA03F3DB431A407B68DA607B68DA68AB
:101A90003B68DB7919467B695B0001FA03F31A4363
:101AA0007B68DA607B6901337B617B690F2B85D9A9
:101AB0001C37BD465DF8047B704700BF80B500AFA2
:101AC0004FF46053C4F202034FF46052C4F20202B6
:101AD000126842F001021A604FF46053C4F202032C
:101AE00000229A604FF46053C4F202034FF4605234
:101AF000C4F20202126822F0847222F480321A6068
:101B00004FF46053C4F2020343F21002C2F20042E7
:101B10005A604FF46053C4F202034FF46052C4F2AF
:101B20000202126822F480221A604FF46053C4F259
:101B300002030022DA6000F009F84FF46D43CEF2A0
:101B400000034FF000629A6080BD00BF80B483B094
:101B500000AF00237B6000233B604FF46053C4F26E
:101B600002034FF46052C4F20202126842F480325F
:101B70001A604FF46053C4F202031B6803F400338D
:101B80003B607B6801337B603B68002B03D17B6843
:101B9000B3F5A06FEDD14FF46053C4F202031B689C
:101BA00003F40033002B02D001233B6001E000234B
:101BB0003B603B68012B40F082804FF46053C4F2DD
:101BC00002034FF46052C4F20202126C42F08052DF
:101BD0001A644FF4E043C4F200034FF4E042C4F24D
:101BE0000002126842F480421A604FF46053C4F25B
:101BF00002034FF46052C4F2020292689A604FF4FA
:101C00006053C4F202034FF46052C4F202029268BD
:101C100042F400429A604FF46053C4F202034FF45E
:101C20006052C4F20202926842F4A0529A604FF4E9
:101C30006053C4F2020345F20842C0F240725A6097
:101C40004FF46053C4F202034FF46052C4F2020234
:101C5000126842F080721A6000BF4FF46053C4F201
:101C600002031B6803F00073002BF6D04FF470538F
:101C7000C4F2020340F205621A604FF46053C4F2EA
:101C800002034FF46052C4F20202926822F003028F
:101C90009A604FF46053C4F202034FF46052C4F2EE
:101CA0000202926842F002029A6000BF4FF4605351
:101CB000C4F202039B6803F00C03082BF6D10C3727
:101CC000BD465DF8047B704780B485B000AF786096
:101CD00039600023FB607B681B68FB60FA6848F290
:101CE0003F03CFF21C031340FB603B681A683B685C
:101CF000DB681A433B685B691A433B689B691A437C
:101D00003B68DB691A433B681B6A1A433B685B6AA2
:101D10001A433B689B6A1A433B685B6B1A433B68F8
:101D20009B6B1343FA681343FB607B68FA681A6085
:101D30007B685B69FB60FB6823F00703FB603B6823
:101D4000DA6A3B681B6B1343FA681343FB607B68DA
:101D5000FA685A613B681A697B685A603B685A683E
:101D60007B689A603B689A687B68DA601437BD4686
:101D70005DF8047B704700BF80B483B000AF78602B
:101D80000B46FB70FB78002B06D07B681B6843F08A
:101D900001027B681A6005E07B681B6823F0010282
:101DA0007B681A600C37BD465DF8047B704700BF46
:101DB00080B485B000AF78600023FB737B681B683C
:101DC00003F00103002B02D00123FB7301E0002389
:101DD000FB73FB7B18461437BD465DF8047B7047E8
:101DE00080B487B000AF786039600023FB750023B2
:101DF000FB607A6846F20F43C4F202039A4205D8A8
:101E00004FF4C043C4F202033B6104E04FF4C84303
:101E1000C4F202033B613B6803F00053002B03D084
:101E20003B695B68FB6002E03B691B68FB60FB6829
:101E300023F0F02323F08213FB60FA683B68134021
:101E4000002B02D00123FB7501E00023FB75FB7D15
:101E500018461C37BD465DF8047B704780B485B0DA
:101E600000AF786039607A6846F20F43C4F202032B
:101E70009A4205D84FF4C043C4F20203FB6004E069
:101E80004FF4C843C4F20203FB603B6803F0005305
:101E9000002B07D03B6823F0F02323F08213FA686D
:101EA000D36006E03B6823F0F02323F08213FA6846
:101EB00093601437BD465DF8047B704780B485B0ED
:101EC00000AF78600023FB607A6813461B019B1A01
:101ED000DB001A4644F62513C2F29243A3FB021319
:101EE000D21A520813449B08BB60FB680133FB60A5
:101EF000FA68BB689A4200D900E0F6E71437BD469D
:101F00005DF8047B704700BF80B584B000AF786097
:101F100039600023FB733B685B78092B39D801A239
:101F200052F823F0751F0008891F0008931F00084E
:101F30007F1F0008931F0008571F00084D1F00084F
:101F4000931F00086B1F0008611F0008786839683C
:101F500000F042F922E07868396800F019FA1DE0D3
:101F60007868396800F052FA18E07868396800F04B
:101F7000E5FA13E07868396800F010FB0EE0786845
:101F8000396800F039FB09E07868396800F09AFB9D
:101F900004E07868396800F003FC00BFFB7B18465A
:101FA0001037BD4680BD00BF80B584B000AF7860FB
:101FB00039600023FB737B6893F81231032B1CD12B
:101FC0003B689B88DBB2012B11D87B68D3F8E035E6
:101FD0009B687868396898473B68DB88002B0BD191
:101FE000FB7B002B08D1786801F034FB0AE07868AD
:101FF000396800F0D5FB05E004E07868396800F046
:10200000CFFB00BFFB7B18461037BD4680BD00BF2D
:1020100080B584B000AF786039600023FB733B6803
:102020009B88BB733B685B78012B39D0032B02D0B4
:10203000002B6BD0CBE07B6893F81231022B02D0DF
:10204000032B0DD026E0BB7B002B08D0BB7B802B65
:1020500005D0BB7B7868194601F022FA1FE01EE02C
:102060003B685B88002B0AD1BB7B002B07D0BB7B76
:10207000802B04D0BB7B7868194601F011FA7B688D
:10208000D3F8E0359B68786839689847786801F03C
:10209000E1FA04E07868396800F082FB00BF96E05E
:1020A0007B6893F81231022B02D0032B0DD027E06E
:1020B000BB7B002B08D0BB7B802B05D0BB7B78681B
:1020C000194601F0EDF920E01FE03B685B88002B2A
:1020D00015D1BB7B002B0ED0BB7B802B0BD0BB7BE9
:1020E0007868194601F016FA7B68D3F8E0359B68EA
:1020F000786839689847786801F0ACFA05E004E040
:102100007868396800F04CFB00BF60E07B6893F8AA
:102110001231022B02D0032B0DD052E0BB7B002BDF
:1021200008D0BB7B802B05D0BB7B7868194601F0BB
:10213000B7F94BE04AE0BB7B5BB2002B1BDABB7B01
:1021400003F07F02796813469B001344DB000B44C5
:1021500003F58C739B78002B06D040F2DC03C2F2AF
:10216000000301221A6023E040F2DC03C2F2000304
:1021700000221A601CE0BB7B5BB2002B18DBBA7B31
:10218000796813469B001344DB000B4403F55C7332
:102190009B78002B06D040F2DC03C2F20003012240
:1021A0001A6005E040F2DC03C2F2000300221A606C
:1021B000786840F2DC01C2F20001022201F002FA6A
:1021C00004E07868396800F0EBFA00BF00BFFB7BE1
:1021D00018461037BD4680BD80B584B000AF78602A
:1021E00039603B685B881B0A9BB2013B062B00F2FF
:1021F000B18001A252F823F01522000847220008FE
:1022000071220008552300085523000841230008C7
:102210004B2300087B68D3F8E8351B687A6891780F
:1022200007F10A02084611469847F8603B68DB88C8
:10223000402B04D07B6893F81231012B02D1082384
:102240007B818CE08BE07B68D3F8E0359B6A7A6811
:10225000917807F10A02084611469847F860FB6832
:10226000013302221A707B68FA68C3F8EC2576E025
:102270003B685B88DBB2052B5CD801A252F823F0E7
:1022800099220008B3220008CD220008E7220008A6
:10229000012300081B2300087B68D3F8E8355B683E
:1022A0007A68917807F10A02084611469847F86063
:1022B00045E07B68D3F8E8359B687A68917807F148
:1022C0000A02084611469847F86038E07B68D3F860
:1022D000E835DB687A68917807F10A02084611460A
:1022E0009847F8602BE07B68D3F8E8351B697A687B
:1022F000917807F10A02084611469847F8601EE0F7
:102300007B68D3F8E8355B697A68917807F10A024F
:10231000084611469847F86011E07B68D3F8E83525
:102320009B697A68917807F10A0208461146984736
:10233000F86004E07868396800F032FA24E00EE0D2
:102340007868396800F02CFA1EE07868396800F087
:1023500027FA19E07868396800F022FA14E07B89DE
:10236000002B11D03B68DB88002B0DD03B68DA884E
:102370007B899A4238BF13469BB27B817B89786800
:10238000F9681A4601F01EF91037BD4680BD00BF3E
:1023900080B584B000AF786039603B689B88002BC3
:1023A0002DD13B68DB88002B29D13B685B88DBB2F1
:1023B00003F07F03FB737B6893F81231032B04D186
:1023C0007868396800F0ECF918E07B68FA7B83F8EC
:1023D0001321FB7B7868194601F0D6F8786801F084
:1023E00039F9FB7B002B04D07B68022283F8122191
:1023F00004E07B68012283F8122104E003E078689E
:10240000396800F0CDF91037BD4680BD80B582B087
:1024100000AF786039603B685B88DAB240F2E8036D
:10242000C2F200031A7040F2E803C2F200031B7804
:10243000012B04D97868396800F0B2F97BE07B6839
:1024400093F81231022B02D0032B24D06EE040F21D
:10245000E803C2F200031B78002B18D040F2E80317
:10246000C2F200031A787B6883F810217B6803228C
:1024700083F8122140F2E803C2F200031B78786867
:102480001946FEF749FF786801F0E4F853E07868F0
:1024900001F0E0F84FE040F2E803C2F200031B78DD
:1024A000002B18D17B68022283F8122140F2E80346
:1024B000C2F200031A787B6883F8102140F2E80327
:1024C000C2F200031B7878681946FEF73DFF786872
:1024D00001F0C0F829E07B6893F8102140F2E8038E
:1024E000C2F200031B789A421BD07B6893F810312C
:1024F00078681946FEF728FF40F2E803C2F20003AD
:102500001A787B6883F8102140F2E803C2F20003D6
:102510001B7878681946FEF7FFFE786801F09AF894
:1025200003E0786801F096F805E004E0786839681F
:1025300000F036F900BF0837BD4680BD80B582B0D7
:1025400000AF786039603B68DB88012B04D0786885
:10255000396800F025F91EE07B6893F81231022BF0
:1025600002D0032B09D011E0786840F2E001C2F2FA
:102570000001012201F026F80DE07B6803F5887365
:1025800078681946012201F01DF804E0786839687E
:1025900000F006F900BF0837BD4680BD80B582B0A7
:1025A00000AF786039607B6893F81231023B012BF1
:1025B0001AD87B68D3F81431002B06D040F2E4031C
:1025C000C2F2000303221A6005E040F2E403C2F203
:1025D000000301221A60786840F2E401C2F20001AF
:1025E000012200F0EFFF04E07868396800F0D8F8C5
:1025F00000BF0837BD4680BD80B584B000AF7860AD
:1026000039600023FB733B685B88012B0ED17B682C
:102610000122C3F814217B68D3F8E0359B68786801
:1026200039689847786801F015F848E03B685B889E
:10263000022B44D13B689B88DBB2002B3FD17B68E7
:102640001B695B68BB603B689B881B0A9BB2FB7382
:10265000FB7B013B042B2BD801A252F823F000BFD7
:1026600075260008812600088D2600089926000896
:10267000A52600083B7A012262F306133B7217E09D
:102680003B7A022262F306133B7211E03B7A03228B
:1026900062F306133B720BE03B7A042262F30613EB
:1026A0003B7205E03B7A052262F306133B7200BFE2
:1026B0007B681B69BA685A60786800F0CBFF1037F6
:1026C000BD4680BD80B582B000AF786039607B6860
:1026D00093F81231023B012B13D83B685B88012B26
:1026E0000ED17B680022C3F814217B68D3F8E03553
:1026F0009B68786839689847786800F0ABFF05E018
:1027000004E07868396800F04BF800BF0837BD4630
:1027100080BD00BF80B483B000AF786039607B6853
:1027200093F8C8253B681A707B6893F8C9253B6805
:102730005A707B6893F8CA351A467B6893F8CB3594
:102740001B029BB213449AB23B685A807B6893F891
:10275000CC351A467B6893F8CD351B029BB21344E7
:102760009AB23B689A807B6893F8CE351A467B68AC
:1027700093F8CF351B029BB213449AB23B68DA80C0
:102780003B68DB881A467B68C3F83C217B680122E2
:1027900083F811210C37BD465DF8047B704700BFFC
:1027A00080B582B000AF786039603B681B78DBB2DF
:1027B0005BB2002B04DA7868802100F071FE0CE037
:1027C0003B68DB88002B04D17868802100F068FE2C
:1027D00003E07868002100F063FE7868FEF76EF988
:1027E0000837BD4680BD00BF80B586B000AF7860B9
:1027F00000237B617868FDF777FD0346002B00F02E
:102800009C807868FDF782FD03463B613B69002BA5
:1028100001D1002392E0BB7CC3F3C003DBB2002BE9
:1028200006D0786800F018FA03467A6913437B6192
:10283000BB7CC3F38003DBB2002B06D0786800F0CA
:1028400015F903467A6913437B613B7CC3F340036C
:10285000DBB2002B09D00023FB603B7B43F002037B
:102860003B737B68DB68FA685A61FB7CC3F3C01377
:10287000DBB2002B06D0786800F064F803467A6972
:1028800013437B617B7CC3F3C003DBB2002B06D018
:10289000786800F097F803467A6913437B613B7CC4
:1028A000C3F3C003DBB2002B06D0786800F094FAC3
:1028B00003467A6913437B613B7CC3F30013DBB2AD
:1028C000002B06D0786800F0A3FA03467A69134318
:1028D0007B617B7CC3F30013DBB2002B06D07868EE
:1028E00000F08AFB03467A6913437B617B7CC3F368
:1028F0004013DBB2002B06D0786800F01FFC0346C3
:102900007A6913437B61BB7CC3F30013DBB2002BFA
:1029100006D0786800F04EFC03467A6913437B6169
:10292000BB7CC3F34013DBB2002B06D0786800F009
:102930005DFC03467A6913437B617B69184618374F
:10294000BD4680BD80B586B000AF78607B689B7A5D
:10295000002B11D07B6803F586731B68FB603B7B03
:102960006FF341033B733B7B6FF300033B737B6867
:10297000D3F80C31FA681A6000233B613B7C43F0CA
:1029800001033B747B681B697A68126951683A6974
:10299000D2430A405A6040F26003C2F200031B684F
:1029A0009B697868984700237B61FB7D43F0800337
:1029B000FB757B68DB687A695A6101231846183712
:1029C000BD4680BD80B586B000AF786040F2600340
:1029D000C2F200031B685B69786898477B681B69D3
:1029E0009B68FB6000237B617B7D43F008037B7564
:1029F0007B68DB687A695A617B689B7A002B2FD0F1
:102A00003B7BC3F30003DBB2012B29D100233B61E5
:102A10003B7C43F001033B747B68D3F80C317A684C
:102A2000D2F80C2111683A690A431A603B7C43F0E2
:102A300002033B747B68D3F80C317A68D2F80C211E
:102A400011683A690A431A604FF46D43CEF20003ED
:102A50004FF46D42CEF20002126942F006021A6192
:102A6000012318461837BD4680BD00BF80B586B02B
:102A700000AF786000233B610023BB607868FEF7FD
:102A800007F87861DFE07B6903F00103002B00F0B9
:102A9000D4803B69DBB27868194600F0C3FB03467B
:102AA000BB603B7AC3F30003DBB2002B35D03B693C
:102AB000012202FA03F3FB607B681B697A681269E2
:102AC000516BFA68D2430A405A630023BB603B7AD9
:102AD00043F001033B727A683B6904339B00134463
:102AE0009B68BA689A6040F26003C2F200031B68F8
:102AF0005B683A69D2B27868114698477B68DB78A0
:102B0000012B0AD13B69002B07D17B6893F8113167
:102B1000042B02D17868FDF7D1FF3B7AC3F3800321
:102B2000DBB2002B0DD00023BB603B7A43F00403E3
:102B30003B727A683B6904339B0013449B68BA6814
:102B40009A603B7AC3F3C003DBB2002B0DD00023A5
:102B5000BB603B7A43F008033B727A683B690433FD
:102B60009B0013449B68BA689A603B7AC3F30013D6
:102B7000DBB2002B0DD00023BB603B7A43F0100387
:102B80003B727A683B6904339B0013449B68BA68C4
:102B90009A603B7AC3F34013DBB2002B0DD00023C5
:102BA000BB603B7A43F020033B727A683B69043395
:102BB0009B0013449B68BA689A603B7AC3F3801306
:102BC000DBB2002B0DD00023BB603B7A43F0400307
:102BD0003B727A683B6904339B0013449B68BA6874
:102BE0009A603B7AC3F34003DBB2002B0DD0002385
:102BF000BB603B7A43F002033B727A683B69043363
:102C00009B0013449B68BA689A603B7AC3F3C01375
:102C1000DBB2002B11D07868396900F07BF9002312
:102C2000BB603B7A43F080033B727A683B690433B4
:102C30009B0013449B68BA689A603B6901333B610F
:102C40007B695B087B617B69002B7FF41CAF0123F0
:102C500018461837BD4680BD80B586B000AF786095
:102C600000233B610023FB607868FDF7DFFE78619D
:102C7000A9E07B6903F00103002B00F09E803B6913
:102C8000DBB278681946FDF7E7FE0346FB603B7B45
:102C9000C3F30003DBB2002B4BD00023FB603B7B74
:102CA00043F001033B737A683B6914339B00134480
:102CB0005B68FA689A607B68DB78012B1FD17A68C1
:102CC0003B6914339B0013445B681B69BB607968E4
:102CD0003A6913469B001344DB000B4403F55E7313
:102CE0001A68BB68C3F31203D11A78683A691346AD
:102CF0009B001344DB00034403F56273196040F248
:102D00006003C2F200031B681B683A69D2B278689C
:102D1000114698477B68DB78012B0AD13B69002B71
:102D200007D17B6893F81131052B02D17868FDF744
:102D3000C5FE3B7BC3F34003DBB2002B0DD0002369
:102D4000FB603B7B43F002033B737A683B691433BF
:102D50009B0013445B68FA689A603B7BC3F3800373
:102D6000DBB2002B0DD00023FB603B7B43F0040360
:102D70003B737A683B6914339B0013445B68FA68C1
:102D80009A603B7BC3F3C003DBB2002B15D040F24B
:102D90006003C2F200031B689B68786898470023B1
:102DA000FB603B7B43F008033B737A683B69143359
:102DB0009B0013445B68FA689A603B6901333B618E
:102DC0007B695B087B617B69002B7FF452AF012339
:102DD00018461837BD4680BD80B584B000AF786016
:102DE00040F26003C2F200031B68DB687868984712
:102DF0000023FB603B7B43F008033B737B68DB688D
:102E0000FA685A61012318461037BD4680BD00BFDD
:102E100080B586B000AF786000233B613B7C43F017
:102E200010033B747B68DB687A68D26891693A6901
:102E3000D2430A409A617B68DB681B6AFB603B7B7C
:102E4000C3F30303DBB21A4613469B001344DB00B3
:102E500003F55C737A6813447B61BB7BC3F3430364
:102E6000DBB2013B052B46D801A252F823F000BF8C
:102E7000F72E0008892E0008F72E0008F72E00080C
:102E8000F72E0008D32E0008BB89C3F30A139BB2A8
:102E9000002B1DD07B69DA68BB89C3F30A139BB290
:102EA000786811461A46FDF7A7F97B69DA68BB898D
:102EB000C3F30A139BB21A447B69DA607B699A698F
:102EC000BB89C3F30A139BB21A447B699A6113E06E
:102ED00012E07B6803F5B963786819460822FDF7AC
:102EE0008BF97B699A69BB89C3F30A139BB21A44B5
:102EF0007B699A6100E000BF7B68DB687A68D26812
:102F000091693A690A439A61012318461837BD4608
:102F100080BD00BF80B586B000AF78603960002307
:102F20007B610023BB603A6813469B001344DB00BF
:102F300003F58C737A681344FB60FB685A69FB687D
:102F40009B69D31A7B61FB689A687B699A4202D2BB
:102F5000FB689B687B617B6903339B083B617A68F4
:102F60003B6804339B0013449B689B69BB602EE065
:102F7000FB685A69FB689B69D31A7B61FB689A6896
:102F80007B699A4202D2FB689B687B617B69033351
:102F90009B083B61FB68D9683B68DAB27B699BB2EE
:102FA0007868FDF7F1F8FB68DA687B691A44FB681A
:102FB000DA60FB689A697B691A44FB689A617A68EF
:102FC0003B6804339B0013449B689B69BB603B894F
:102FD0001A463B699A4209D9FB689A69FB685B69A2
:102FE0009A4203D2FB685B69002BC1D101231846CA
:102FF0001837BD4680BD00BF80B58AB000AF78608D
:1030000000233B6100233B620023FB610023BB6183
:1030100000237B610023FB603B7C43F001033B7496
:103020007B681B697A68126951683A69D2430A4021
:103030005A6078680021FDF70DF900237B6212E0E9
:103040007A687B6A04339B0013449B68FF229A6072
:103050007A687B6A14339B0013445B68FF229A6092
:103060007B6A01337B627B685B781A467B6A9A4293
:10307000E6D87B681B694FF0FF329A613B8C0122D6
:1030800062F30F033B847B8C012262F30F037B848A
:103090007B681B693A6ADA613B7F43F008033B7740
:1030A0003B7F43F001033B773B7F43F004033B77D7
:1030B0003B7F43F002033B777B681B69FA695A61E7
:1030C0003B7E43F001033B763B7E43F008033B76B7
:1030D0003B7E43F002033B763B7E43F004033B76AA
:1030E0003B7E43F020033B767B681B69BA691A611B
:1030F0007B681B691B687B61BB8A6FF30A13BB8209
:103100007B681B697A691A607868FDF7D7FC002331
:10311000FB607B7B43F010037B737B68DB68FA68A2
:103120005A6140F26003C2F200031B681B697868B1
:103130009847012318462837BD4680BD80B584B026
:1031400000AF78607868FDF71DF97B68DB68DB68A5
:10315000BB607868FDF7F2F80346032B0CD17B685F
:1031600000229A707B684FF400729A807B7A092261
:1031700062F385037B720AE07B6801229A707B68A8
:1031800040229A807B7A052262F385037B727B68FA
:10319000DB68BA68DA600023FB607B7B43F02003C6
:1031A0007B737B68DB68FA685A6101231846103725
:1031B000BD4680BD80B584B000AF78600023FB6061
:1031C00040F26003C2F200031B68DB69786898472D
:1031D000BB7B43F01003BB737B68DB68FA685A6102
:1031E000012318461037BD4680BD00BF80B584B0AE
:1031F00000AF78600023FB6040F26003C2F200037E
:103200001B681B6A78689847BB7B43F02003BB733D
:103210007B68DB68FA685A61012318461037BD469F
:1032200080BD00BF80B487B000AF78600B46FB70F4
:103230007B681B691B697B617B681B695B6B3B61FE
:10324000FB783A6922FA03F3DB01DBB27A691343B4
:103250007B61FB787A6804339B0013449B689A680F
:103260007B691340FB60FB6818461C37BD465DF860
:10327000047B704780B483B000AF786039600C374E
:10328000BD465DF8047B704780B400AF002318464C
:10329000BD465DF8047B704780B483B000AF7860B2
:1032A0000B467B807B687A889A810C37BD465DF837
:1032B000047B704780B485B000AF78600B467B809C
:1032C0000023FB737B681B899AB27B8813409BB2F7
:1032D000002B02D00123FB7301E00023FB73FB7B77
:1032E00018461437BD465DF8047B704780B483B040
:1032F00000AF78604FF47053C4F201037A685A61EA
:103300000C37BD465DF8047B704700BF80B584B0C4
:1033100000AF7860F9703A80BB70FB785BB2002B2D
:103320000CDAFB7803F07F0213469B001344DB00AA
:1033300003F58C737A681344FB600BE0FB7803F0B1
:103340007F0213469B001344DB0003F55C737A682D
:103350001344FB60FB7803F07F03DAB2FB681A705A
:10336000FB78DB09DBB21A46FB685A703A88FB68C7
:103370009A60FB68BA78DA70FB685B78002B04D03F
:10338000FB681B781A46FB68DA80BB78022B02D1F7
:10339000FB6800221A717868F968FDF72FF800239E
:1033A00018461037BD4680BD80B586B000AFF860C6
:1033B0007A600A46FA723B81FB7A03F07F02134679
:1033C0009B001344DB0003F55C73FA6813447B61D4
:1033D0007B697A68DA603A897B695A617B69002285
:1033E0009A617B6900225A70FB7A03F07F03DAB29C
:1033F0007B691A70FB68DB78012B02D17A687B69E4
:103400001A617B691B78002B04D1F8687969FDF794
:10341000A3F903E0F8687969FDF75EF80023184620
:103420001837BD4680BD00BF80B586B000AFF860DC
:103430007A603B600B46FB72FB7A03F07F02134617
:103440009B001344DB0003F58C73FA6813447B6123
:103450007B6901225A70FB7A03F07F03DAB27B6941
:103460001A707B697A68DA607A687B691A617B69AD
:1034700000229A617B693A685A617B691B78002B4C
:1034800004D1F8687969FDF767F903E0F8687969AC
:10349000FDF722F8002318461837BD4680BD00BF4F
:1034A00080B584B000AF78600B46FB70FB785BB2F0
:1034B000002B0CDAFB7803F07F0213469B001344C9
:1034C000DB0003F58C737A681344FB6009E0FA783B
:1034D00013469B001344DB0003F55C737A681344C6
:1034E000FB60FB6801229A70FB7803F07F03DAB27D
:1034F000FB681A70FB78DB09DBB21A46FB685A706E
:103500007868F968FDF712FA002318461037BD46AF
:1035100080BD00BF80B584B000AF78600B46FB7003
:10352000FB785BB2002B0CDAFB7803F07F021346CA
:103530009B001344DB0003F58C737A681344FB6033
:1035400009E0FA7813469B001344DB0003F55C7333
:103550007A681344FB60FB6800229A70FB7803F0E2
:103560007F03DAB2FB681A70FB78DB09DBB21A461C
:10357000FB685A707868F968FDF71CFA0023184652
:103580001037BD4680BD00BF80B485B000AF786005
:103590000B46FB700023FB60FB7803F07F03DAB27D
:1035A000BB8962F30A13BB817B681B697A68126965
:1035B0001168FA680A431A601437BD465DF8047B47
:1035C000704700BF80B586B000AFF860B9601346A1
:1035D000FB800023FB75FA88FB68C3F83821FA8862
:1035E000FB68C3F83421FB68022283F81121FB88B1
:1035F000F8680021BA68FFF717FFFB7D18461837F7
:10360000BD4680BD80B586B000AFF860B960134696
:10361000FB800023FB75FB88F8680021BA68FFF780
:1036200003FFFB7D18461837BD4680BD80B586B0C8
:1036300000AFF860B9601346FB800023FB75FB8880
:10364000F8680021BA68FFF7AFFEFB7D184618370F
:10365000BD4680BD80B584B000AF78600023FB73A9
:103660007B68042283F8112178680021002200235E
:10367000FFF7DAFE7868FDF721FAFB7B1846103772
:10368000BD4680BD80B584B000AF78600023FB7379
:103690007B68052283F8112178680021002200232D
:1036A000FFF782FE7868FDF709FAFB7B18461037B2
:1036B000BD4680BD80B483B000AF78600B467B8090
:1036C0007B88DB439AB27B681A820C37BD465DF873
:1036D000047B704780B485B000AF78600B467B8078
:1036E0000023FB730023BB8100237B817B681B8A43
:1036F0009AB27B881340BB817B689B899AB27B8896
:1037000013407B81BB89002B05D07B89002B02D025
:103710000123FB7301E00023FB73FB7B1846143786
:10372000BD465DF8047B704780B483B000AF0346AC
:10373000FB7140F27C03C2F200031A6840F65003AA
:10374000C2F20003F979995440F27C03C2F20003FB
:103750001B685A1C40F27C03C2F200031A6040F25C
:103760007C03C2F200031B68C72B05DD40F2F003A7
:10377000C2F2000300221A6040F27C03C2F200038E
:1037800001221A600C37BD465DF8047B704700BF0C
:1037900080B483B000AF0346FB7140F28403C2F2F1
:1037A00000031A6840F28873C2F20003F979995451
:1037B00040F28403C2F200031B685A1C40F28403E7
:1037C000C2F200031A6040F28403C2F200031B68D5
:1037D000C72B05DD40F2F803C2F2000300221A6095
:1037E00040F28403C2F2000301221A600C37BD4686
:1037F0005DF8047B704700BF80B582B000AF4FF426
:103800008050C4F2010040F22551FDF763FB0346EE
:10381000002B07D04FF48050C4F20100FDF702FBEB
:103820000346FB710837BD4680BD00BF80B582B03E
:1038300000AF4FF48840C4F2000040F22551FDF77C
:1038400049FB0346002B0BD04FF48840C4F2000024
:10385000FDF7E8FA0346FB71FB791846FFF764FFB2
:103860004FF48840C4F2000040F22771FDF732FBAC
:103870000346002B39D040F2F003C2F200031B686C
:103880001A46511C40F2F003C2F20003196040F6E0
:103890005003C2F200039B5C4FF48840C4F2000066
:1038A0001946FDF7ADFA40F2F003C2F200031B68BF
:1038B000C72B05DD40F2F003C2F2000300221A60BC
:1038C00040F2F003C2F200031A6840F27C03C2F235
:1038D00000031B689A4208D14FF48840C4F20000EC
:1038E00040F227710022FDF7ADFA0837BD4680BDD2
:1038F00080B582B000AF4FF49040C4F2000040F2B7
:103900002551FDF7E7FA0346002B0BD04FF490400A
:10391000C4F20000FDF786FA0346FB71FB791846F6
:10392000FFF736FF4FF49040C4F2000040F22771D9
:10393000FDF7D0FA0346002B39D040F2F803C2F26B
:1039400000031B681A46511C40F2F803C2F2000340
:10395000196040F28873C2F200039B5C4FF4904000
:10396000C4F200001946FDF74BFA40F2F803C2F228
:1039700000031B68C72B05DD40F2F803C2F2000309
:1039800000221A6040F2F803C2F200031A6840F203
:103990008403C2F200031B689A4208D14FF490409E
:1039A000C4F2000040F227710022FDF74BFA0837FD
:0439B000BD4680BDD3
:1039B400FFFF0000FFFF000000C012000100000034
:1039C40000002000B86002400C3C00402F000000C2
:1039D4000000002800000024000040200000002215
:1039E400000000218D1000085D110008211000085E
:1039F400ED12000861120008C9120008A51200089F
:103A0400711300089113000800000000000000007A
:103A140034000020007A030A0000000000000000C7
:103A24000102030406070809010000000100000068
:0C3A340001000000010000000100000083
:0400000508000000EF
:00000001FF
