:020000040800F2
:10000000F01D0020191E00082929000835290008C4
:10001000412900084D290008592900080000000066
:10002000000000000000000000000000652900083A
:1000300071290008000000007D29000889290008B6
:10004000791E0008791E0008791E0008791E000834
:10005000791E0008791E0008791E0008791E000824
:10006000791E0008791E0008791E0008491800084A
:10007000791E0008791E0008791E0008791E000804
:10008000791E0008791E0008791E0008791E0008F4
:10009000791E0008791E0008791E0008791E0008E4
:1000A000791E0008791E0008791E0008791E0008D4
:1000B000791E0008791E0008292A0008791E000808
:1000C000791E0008791E0008791E0008791E0008B4
:1000D000791E0008E96900081D6A0008E16A000845
:1000E000791E0008791E0008E5290008791E00081D
:1000F000012B0008791E0008791E00083D18000831
:10010000791E0008A1330008952A00085518000838
:10011000791E0008791E0008791E0008791E000863
:10012000791E0008791E0008791E0008AD3300080A
:10013000791E0008791E0008791E0008791E000843
:10014000791E0008791E0008791E0008D1290008D0
:10015000791E0008791E0008791E0008791E000823
:10016000791E0008791E0008791E0008791E000813
:10017000791E0008791E0008791E0008791E000803
:10018000791E0008791E000880B485B000AF786041
:100190000023FB607B68DB684FF0FF325A607B68AE
:1001A000DB684FF0FF325A61FB7B43F08003FB7347
:1001B0007B7B43F008037B737B68DB68FA689A619A
:1001C0001437BD465DF8047B704700BF80B586B02C
:1001D00000AF78600023FB7400237B610023FB6089
:1001E000032003F0C7FF7B68DB681B69FB607B694A
:1001F00001337B617A694FF45463C0F203039A427E
:1002000001D9002328E0FB68C3F3C073DBB2002BE5
:10021000E6D000237B61FB6843F00103FB607B6851
:10022000DB68FA681A617B68DB681B69FB607B69C5
:1002300001337B617A694FF45463C0F203039A423D
:1002400000D905E0FB68C3F30003DBB2012BEAD061
:10025000032003F08FFFFB7C18461837BD4680BD96
:1002600080B489B000AFF860B960FA71BB80002338
:10027000FB76FB68DB78002B23D100237B61002316
:10028000FB61BB880333DA1C002BB8BF13469B10FD
:100290007B61FB79FA6832339B0013449B683B61B6
:1002A0000023FB6109E0BB681A683B691A60FB69BF
:1002B0000133FB61BB680433BB60FA697B699A4216
:1002C000F1D3FB7E18462437BD465DF8047B7047AA
:1002D00080B489B000AFF860B9601346FB8000239A
:1002E000FB61FB880333DA1C002BB8BF13469B105D
:1002F000BB61FB68D3F8D0307B610023FB6109E070
:100300007B691A68BB681A60FB690133FB61BB68D3
:100310000433BB60FA69BB699A42F1D3BB681846E3
:100320002437BD465DF8047B704700BF80B487B0BA
:1003300000AF78600B46FB7000233B610023FB732A
:100340007B680022DA707B6801229A707B68402209
:100350009A80FB78012B13D14FF0A0433B617B685F
:100360000122DA727B6808221A707B6804225A70B4
:100370007B684FF4A072DA807B6802221A7213E065
:10038000FB78002B10D10023C4F204033B617B688F
:100390000022DA727B680C221A707B6806225A707F
:1003A0007B684FF4A062DA803A697B68DA603B6967
:1003B00003F500631A467B681A6100237B611CE029
:1003C0007B695A013B69134403F510631A46796847
:1003D0007B6904339B000B449A607B695A013B693B
:1003E000134403F530631A4679687B6914339B0024
:1003F0000B445A607B6901337B617B685B781A46EA
:100400007B699A42DCD83B6903F580631A467B68B6
:100410005A613B6903F588631A467B68C3F8CC20B0
:1004200000237B610FE07B695A013B69134403F5AC
:10043000A0631A4679687B6922339B000B449A605B
:100440007B6901337B617B681B781A467B699A4222
:10045000E9D800237B610FE07B691A033B691344F1
:1004600003F580531A4679687B6932339B000B444D
:100470009A607B6901337B617B681B781A467B69D4
:100480009A42E9D83B6903F560631A467B68C3F872
:100490000C21FB7B18461C37BD465DF8047B70477A
:1004A00080B588B000AF78600023FB770023BB6184
:1004B00000237B610023FB607B681B7A012B4FD1FB
:1004C0007B68DB689B6B7B61BB7D6FF30003BB7557
:1004D0007B685B7A002B03D0BB7D43F01003BB75B8
:1004E0007B68DB687A699A630023BB617B68DB68A1
:1004F000DB68BB613B7E6FF386133B76BB7E6FF39D
:100500008613BB763B7E43F010033B763B7E6FF356
:10051000C3033B763B7E6FF3C7133B76BB7E6FF323
:100520004103BB76BB7E6FF3C303BB767B68DB689E
:10053000BA69DA607868FFF749FE7B68DB78012BDF
:1005400040F082803B7B052262F344033B733B7B9C
:1005500043F020033B737B68DB68FA689A6073E0C2
:100560007B68DB68DB68BB613B7E43F040033B7626
:100570007B68DB68BA69DA607868FFF727FE0023DA
:100580007B61BB7D43F00103BB757B681B7A032B4A
:1005900003D1BB7D43F00203BB75BB7D43F0040375
:1005A000BB75BB7D43F00803BB75BB7D43F02003E7
:1005B000BB757B685B7A002B03D0BB7D43F01003D7
:1005C000BB757B68DB687A699A63142003F0F8FDD9
:1005D0007B68DB68DB68BB617B681B7A032B03D11C
:1005E000BB7E43F00103BB767B68DB68BA69DA60E7
:1005F0007B681B7A032B27D17B68DB681B6B3B6115
:10060000FB7C012262F38303FB74BB7C6FF3C71393
:10061000BB74FB7C43F01003FB74BB7C2D2262F3A4
:100620000603BB747B68DB683A691A63C82003F071
:10063000C7FDBB7C43F08003BB747B68DB683A6911
:100640001A63C82003F0BCFD7B68DB78012B10D156
:100650007B68DB689B68FB603B7B052262F344039D
:100660003B733B7B43F020033B737B68DB68FA689A
:100670009A60FB7F18462037BD4680BD80B485B0A8
:1006800000AF78600023FB730023BB603B7A43F02C
:1006900001033B727B68DB687A68D2689168BA684C
:1006A0000A439A60FB7B18461437BD465DF8047B0D
:1006B000704700BF80B485B000AF78600023FB7343
:1006C0000023BB603B7A43F001033B727B68DB682D
:1006D0007A68D2689168BA68D2430A409A60FB7B14
:1006E00018461437BD465DF8047B704780B586B068
:1006F00000AF786039600023FB7400237B61002326
:10070000FB60FB6843F02003FB603B68DBB203F057
:100710001F03DAB2FB6862F38A13FB607B68DB6855
:10072000FA681A617B68DB681B69FB607B690133CF
:100730007B617A694FF45463C0F203039A4200D993
:1007400005E0FB68C3F34013DBB2012BEAD00320C2
:1007500003F010FDFB7C18461837BD4680BD00BF76
:1007600080B586B000AF78600023FB7400237B6106
:100770000023FB60FB6843F01003FB607B68DB68D1
:10078000FA681A617B68DB681B69FB607B6901336F
:100790007B617A694FF45463C0F203039A4200D933
:1007A00005E0FB68C3F30013DBB2012BEAD00320A2
:1007B00003F0E0FCFB7C18461837BD4680BD00BF47
:1007C00080B584B000AF78600B46FB700023FB73EC
:1007D0007B68DB68DB68BB60FB7A6FF34513FB72F9
:1007E000FB7A6FF38613FB72FB78012B04D1FB7A43
:1007F00043F02003FB7206E0FB78002B03D1FB7A69
:1008000043F04003FB727B68DB68BA68DA60322031
:1008100003F0D6FCFB7B18461037BD4680BD00BFF9
:1008200080B483B000AF78607B68DB685B6903F0FD
:10083000010318460C37BD465DF8047B704700BFC6
:1008400080B582B000AF78607868FFF7E9FF0346B3
:10085000012B0CBF00230123DBB218460837BD462D
:1008600080BD00BF80B485B000AF78600023FB601E
:100870007B68DB685B69FB607B68DB689B69FA68A7
:100880001340FB60FB6818461437BD465DF8047BD7
:10089000704700BF80B485B000AF78600B46FB7036
:1008A0007B681B691B68FB60FB7803F00303DAB20B
:1008B0003B7B62F301033B737B681B69FA681A6038
:1008C0001437BD465DF8047B704700BF80B58CB01F
:1008D00000AF7860002387F82B3000237B62002371
:1008E0003B620023FB610023BB6100237B617B68CB
:1008F000D3F80C3100221A607B681B691B683B62CD
:1009000097F821306FF3C40387F821307B681B69A7
:100910003A6A1A607B68DB7A012B40D17868032140
:10092000FFF7B8FF7B68DB6880225A62FB8B4022AE
:1009300062F30F03FB83BB8B802262F30F03BB8345
:100940007B68DB68FA699A62BA8BFB8B13449BB2B3
:100950003B837B8B802262F30F037B837B68DB68A6
:10096000BA69C3F804213A8B7B8B13449BB23B8357
:100970007B8B6FF30F037B837B68DB68BA69C3F8FB
:1009800008213A8B7B8B13449BB23B837B8B6FF3A9
:100990000F037B837B68DB68BA69C3F80C21786836
:1009A0001021FFF7A3FE7868FFF7DAFE7B681B696A
:1009B00000221A617B681B6900225A617B681B69EF
:1009C0004FF0FF329A617B681B690022DA610023D5
:1009D000FB623AE07A68FB6A04339B0013449B682D
:1009E0001B687B6297F82730C3F3C013DBB2002B80
:1009F0000ED000237B6297F8273043F0400387F83E
:100A0000273097F8273043F0080387F8273001E0B4
:100A100000237B627A68FB6A04339B0013449B6863
:100A20007A6A1A607A68FB6A04339B0013449B68F5
:100A300000221A617A68FB6A04339B0013449B68A6
:100A4000FF229A60FB6A0133FB627B685B781A467F
:100A5000FB6A9A42BED80023FB6235E07A68FB6AE3
:100A600014339B0013445B681B68FB60FB7BC3F380
:100A7000C013DBB2002B0AD00023FB60FB7B43F0EA
:100A80004003FB73FB7B43F00803FB7301E000238F
:100A9000FB607A68FB6A14339B0013445B68FA6856
:100AA0001A607A68FB6A14339B0013445B68002267
:100AB0001A617A68FB6A14339B0013445B68FF2257
:100AC0009A60FB6A0133FB627B685B781A46FB6ABB
:100AD0009A42C3D800237B617B7D43F001037B7581
:100AE0007B681B697A68126911697A69D24311407F
:100AF0007A690A431A617B68DB78012B1BD10023DA
:100B00003B613B7C43F001033B743B7C43F00203BD
:100B10003B743B8A402262F38A033B82BB7C43F0F6
:100B20000103BB747B8A402262F349037B827B68AA
:100B30001B693A691A63786800F006F897F82B3059
:100B400018463037BD4680BD80B584B000AF7860B0
:100B50000023FB730023BB607B68DB6800229A6183
:100B60007B68DB684FF0FF325A617868FFF70CFB57
:100B70007B68DB78002B03D13B7A43F010033B7298
:100B80007B7A43F008037B727B7A43F010037B721D
:100B90007B7A43F020037B72BB7A43F00403BB7281
:100BA000BB7A43F00803BB723B7A43F008033B7205
:100BB000BB7A43F01003BB72BB7A43F02003BB72D5
:100BC0007B68DB687A68D2689169BA68D243114061
:100BD000BA680A439A61FB7B18461037BD4680BD50
:100BE00080B485B000AF78600023FB737B681B691D
:100BF0009B68BB603B7AC3F34103DBB2022B09D095
:100C0000032B04D0012B02D00323FB7305E0022346
:100C1000FB7302E00123FB7300BFFB7B1846143714
:100C2000BD465DF8047B704780B487B000AF786044
:100C30000023FB750023BB607B681B699B683B61DD
:100C40007B689B691B68FB603B7CC3F34103DBB2A1
:100C5000022B04D0BB896FF30A03BB8105E0BB897B
:100C6000032262F30A03BB8100BF7B689B69FA68B9
:100C70001A607B7A43F001037B727B681B697A6898
:100C800012695168BA68D2431140BA680A435A607F
:100C9000FB7D18461C37BD465DF8047B704700BFDE
:100CA00080B487B000AF786039600023FB74002304
:100CB000FB600023BB603B685B78012B0FD13B6876
:100CC0001B787A6804339B0013449B687B613B6804
:100CD0001B78012202FA03F39BB23B810EE03B68D2
:100CE0001B787A6814339B0013445B687B613B6814
:100CF0001B78012202FA03F39BB27B817B691B689C
:100D0000FB607B7BC3F3C013DBB2002B27D13B68B6
:100D10009B689BB2C3F30A039AB2BB8962F30A03CE
:100D2000BB813B68DB7803F00303DAB2BB7B62F381
:100D30008303BB733B68DB88DBB203F00F03DAB2DB
:100D4000FB8962F38913FB81FB7B43F01003FB7388
:100D50007B7B43F080037B73FA687B691A607B6856
:100D60001B697A681269D169BA680A43DA61FB7C47
:100D700018461C37BD465DF8047B704780B487B0C9
:100D800000AF786039600023FB740023FB60002310
:100D9000BB603B685B78012B0FD13B681B787A689E
:100DA00004339B0013449B687B613B681B780122E2
:100DB00002FA03F39BB23B810EE03B681B787A6832
:100DC00014339B0013445B687B613B681B780122F2
:100DD00002FA03F39BB27B817B7B6FF3C7137B73B8
:100DE000FA687B691A607B681B697A681269D16945
:100DF000BA68D2430A40DA61FB7C18461C37BD460C
:100E00005DF8047B704700BF80B588B000AF7860A4
:100E100039600023FB770023BB6100237B61002343
:100E20003B613B685B78012B40F0AB803B681B78F3
:100E30007A6804339B0013449B681B687B613B68A2
:100E40001B787A6804339B0013449B681B693B61E1
:100E50003B685B69002B09D13B696FF312033B616F
:100E60007B8A012262F3CC037B8222E03B685B69D0
:100E7000C3F312023B6962F312033B613B685A6998
:100E80003B689B6813445A1E3B689B68B2FBF3F3B4
:100E90009BB2C3F309039AB27B8A62F3CC037B82D1
:100EA0003B68DB78012B04D1FB7C012262F3461303
:100EB000FB743B681B787A6804339B0013449B687F
:100EC0003A691A617B68DB78012B0AD13B681B7891
:100ED0007A6804339B0013449B683A6812695A612C
:100EE00015E03B68DB78012B11D03B685B69002B78
:100EF0000DD03B681B78012202FA03F3BB617B68CB
:100F00001B697A681269516BBA690A435A633B6874
:100F1000DB78012B14D17B681B699B68FB60FB6845
:100F2000C3F30D239BB203F00103002B04D1FB7D1F
:100F300043F02003FB7503E0FB7D43F01003FB75DA
:100F4000FB7D43F00403FB75FB7D43F08003FB75E1
:100F50003B681B787A6804339B0013449B687A696A
:100F60001A603B68DB78012B40F088803B68D968C9
:100F70003B681A783B685B699BB27868FFF770F949
:100F80007CE03B681B787A6814339B0013445B68F1
:100F90001B687B613B681B787A6814339B001344A1
:100FA0005B681B693B613B685B69002B0DD13B684B
:100FB0009B68C3F312023B6962F312033B617B8AB5
:100FC000012262F3CC037B821FE03B685A693B68D5
:100FD0009B6813445A1E3B689B68B2FBF3F39BB2B9
:100FE000C3F309039AB27B8A62F3CC037B827B8AC8
:100FF000C3F3C9039BB23A68926802FB03F3C3F3DD
:1010000012023B6962F312033B613B681B787A680A
:1010100014339B0013445B683A691A617B68DB7880
:10102000012B09D13B681B787A6814339B00134469
:101030005B683A6812695A613B68DB78012B0CD116
:101040003B685B79002B04D0FB7D43F02003FB75EC
:1010500003E0FB7D43F01003FB75FB7D43F00403CD
:10106000FB75FB7D43F08003FB753B681B787A685A
:1010700014339B0013445B687A691A60FB7F18463F
:101080002037BD4680BD00BF80B489B000AF786016
:1010900039600023FB770023BB6100233B61002301
:1010A000BB603B685B78012B6FD17B689B697B6180
:1010B0007B691B683B617B691B69BB603B685B6943
:1010C000002B09D13B7A6FF306033B72BB7A0122F6
:1010D00062F3C403BB7223E03B685A693B689B68B8
:1010E0009A420ED93B689A683B685A613B689B6894
:1010F000DBB203F07F03DAB23B7A62F306033B72A2
:1011000009E03B685B69DBB203F07F03DAB23B7A4C
:1011100062F306033B72BB7A012262F3C403BB7223
:10112000BA687B691A617B68DB78012B09D13B685F
:101130001B787A6804339B0013449B683A681269F1
:101140005A61FB7C43F00403FB74FB7C43F0800397
:10115000FB743A697B691A607B68DB78002B75D178
:101160003B685B69002B71D03B681B78012202FA57
:1011700003F3BA691343BB617B681B697A68126920
:10118000516BBA690A435A6360E03B681B787A681E
:1011900014339B0013445B681B683B613B681B78FE
:1011A0007A6814339B0013445B681B69BB603B681F
:1011B0005B69002B0FD13B689B68DBB203F07F03B8
:1011C000DAB23B7A62F306033B72BB7A012262F326
:1011D000C403BB7212E03B689A683B685A613B6883
:1011E0009B68DBB203F07F03DAB23B7A62F306035B
:1011F0003B72BB7A012262F3C403BB723B681B786B
:101200007A6814339B0013445B68BA681A617B6880
:10121000DB78012B09D13B681B787A6814339B007B
:1012200013445B683A6812695A61FB7C43F004031B
:10123000FB74FB7C43F08003FB743B681B787A688B
:1012400014339B0013445B683A691A60FB7F1846AD
:101250002437BD465DF8047B704700BF80B487B07B
:1012600000AF786039600023FB750023FB603B68AA
:101270005B78012B1CD13B681B787A6804339B0098
:1012800013449B683B613B691B68FB60FB7BC3F3BA
:10129000C013DBB2002B03D0FB7B43F04003FB7396
:1012A000BB7B43F02003BB73FA683B691A6011E013
:1012B0003B681B787A6814339B0013445B683B617E
:1012C0003B691B68FB60BB7B43F02003BB73FA6880
:1012D0003B691A60FB7D18461C37BD465DF8047BF0
:1012E000704700BF80B487B000AF786039600023DA
:1012F000FB740023FB603B685B78012B08D13B68E3
:101300001B787A6804339B0013449B687B6107E079
:101310003B681B787A6814339B0013445B687B61DD
:101320007B691B68FB60BB7B6FF34513BB733B683A
:10133000DB78032B03D03B68DB78022B03D1FB7BEC
:1013400043F01003FB73FA687B691A60FB7C184654
:101350001C37BD465DF8047B704700BF80B485B084
:1013600000AF78607B681B699B69FB607B681B69C9
:10137000DB69FA681340FB60FB681B0C18461437E6
:10138000BD465DF8047B704780B485B000AF7860DF
:101390000B46FB70FB787A6814339B0013445B6840
:1013A0009B68FB607B681B695B69FA681340FB60A4
:1013B000FB6818461437BD465DF8047B704700BFD4
:1013C00080B485B000AF78607B681B699B69FB6067
:1013D0007B681B69DB69FA681340FB60FB689BB2A2
:1013E00018461437BD465DF8047B704780B487B05B
:1013F00000AF786000233B61FB7C43F0C003FB74CB
:10140000BB7C012262F3C403BB743B7C182262F3F1
:1014100006033B747B685B6D3A691A617B68DB7815
:10142000012B16D10023FB607B685B6D7A6802F5A7
:10143000B9625A617B685B6D1B68FB60FB7B43F0A4
:101440008003FB734FF08023FB607B685B6DFA6861
:101450001A601C37BD465DF8047B704780B485B0C8
:1014600000AF78607B689B7A002B1BD07B681B6980
:101470009B68FB603B7BC3F30003DBB2012B11D104
:101480007B6803F586731B68BB603B7A6FF341038F
:101490003B723B7A6FF300033B727B68D3F80C31ED
:1014A000BA681A601437BD465DF8047B704700BF08
:1014B00080B588B000AF07F10C03184604F01CFC9F
:1014C0004FF48050012101F08DF90A20012101F033
:1014D00011F938237B6002233B7203237B720023C4
:1014E000BB720023FB723B1D4FF48060C4F202000C
:1014F000194601F061FF4FF48060C4F2020003213D
:10150000052201F0E7FF4FF48060C4F202000421DD
:10151000052201F0DFFF4FF48060C4F202000521D4
:10152000052201F0D7FF4FF44060C4F2020007210A
:10153000052201F0CFFF80237B6001233B723B1D1E
:101540004FF44060C4F20200194601F035FF4FF439
:101550004063C4F2020380225A614FF44050C4F247
:10156000010004F049FB0023BB814FF48273FB812F
:1015700000233B8200237B820023BB824FF4407315
:10158000FB8220233B8300237B8307F10C034FF472
:101590004050C4F20100194604F06AFB4FF4405079
:1015A000C4F20100012104F0CBFB2037BD4680BD11
:1015B00080B483B000AF78600B46FB70FB78002BE3
:1015C0000CD04FF43053C4F201034FF43052C4F244
:1015D0000102D16B7A680A43DA630CE04FF43053AE
:1015E000C4F201034FF43052C4F20102D16B7A68A5
:1015F000D2430A40DA630C37BD465DF8047B70477E
:1016000080B485B000AF78600023FB734FF4305393
:10161000C4F201035A6B7B681340002B02D00123F4
:10162000FB7301E00023FB73FB7B18461437BD46B8
:101630005DF8047B704700BF80B483B000AF786072
:101640004FF43053C4F201037A689A630C37BD46F5
:101650005DF8047B704700BF80B400AFBD465DF805
:10166000047B704780B483B000AF0346FB71FB7905
:10167000002B02D0012B02D002E000BF00E000BF2F
:101680000C37BD465DF8047B704700BF80B400AFE7
:10169000BD465DF8047B704780B400AFBD465DF881
:1016A000047B704780B400AFBD465DF8047B704793
:1016B00080B400AFBD465DF8047B704780B400AFD6
:1016C000BD465DF8047B704780B500AF40F2300343
:1016D000C2F200031A6840F23C03C2F200031B6826
:1016E0001046194602F056FB0346002B00F0A58079
:1016F00040F22003C2F200031B68002B7DD000BF24
:1017000040F23003C2F200031B68184602F02AFBC5
:101710000346002BF4D140F23003C2F200031A68F2
:1017200040F23C03C2F200031B681046194602F067
:101730006FFB40F60C03C2F200031B681A4640F62A
:101740004C03C2F200039A6040F22003C2F200038D
:101750001A684FF6FF739A4228BF1A4640F64C03A8
:10176000C2F200031A6140F23003C2F200031B68A8
:10177000184640F64C01C2F2000102F049FA40F26C
:101780003003C2F200031B681846012102F0CEFAB2
:1017900040F60C03C2F200031A6840F22003C2F2C2
:1017A000000319684FF6FF73994238BF0B465B0080
:1017B0001A4440F60C03C2F200031A6040F2200300
:1017C000C2F200031A6840F22003C2F20003196853
:1017D0004FF6FF73994238BF0B46D21A40F22003EE
:1017E000C2F200031A6040F23003C2F200031B6829
:1017F0001846012102F09AFA1FE040F23003C2F2CB
:1018000000031B681846002102F090FA40F23003F2
:10181000C2F200031A6840F23C03C2F200031B68E4
:101820001046194602F0F4FA40F60C03C2F2000327
:101830001B681846002103F0DFFE80BD80B500AFB5
:10184000FFF742FF80BD00BF80B500AFFFF73CFF50
:1018500080BD00BF80B500AF4FF47050C4F20000EF
:10186000022104F09BFA0346002B17D040F2280314
:10187000C2F200031B68022B06D103F0C7FE034629
:101880000420194600F0B2F903F0C0FE03464FF4FD
:101890007050C4F20000194604F072FA80BD00BF17
:1018A00080B58AB000AF7860396000237B62002386
:1018B0003B620023FB610023BB617B681B8A9BB2F8
:1018C0007B627B6A23F440537B623B68DB887A6AE5
:1018D00013437B627B6A9AB27B681A827B689B891E
:1018E0009BB27B627B6A23F4B05323F00C037B62D0
:1018F0003B689A883B681B8913439AB23B685B89B3
:1019000013439BB27A6A13437B627B6A9AB27B6809
:101910009A817B689B8A9BB27B627B6A23F44073CB
:101920007B623B689B897A6A13437B627B6A9AB2CB
:101930007B689A8207F10803184600F007FE7A6870
:101940004FF48053C4F201039A4206D07A684FF4F0
:10195000A053C4F201039A4202D17B693B6201E0C9
:101960003B693B627B689B899BB29BB21BB2002B9D
:101970000CDA3A6A13469B0013449A001A443B68F7
:101980001B685B00B2FBF3F3FB610BE03A6A1346A2
:101990009B0013449A001A443B681B689B00B2FBEF
:1019A000F3F3FB61FA6948F21F53C5F2EB13A3FB93
:1019B00002135B091B017B627B6A1B09642202FB29
:1019C00003F3FA69D31ABB617B689B899BB29BB214
:1019D0001BB2002B10DABB69DB0003F1320248F2C4
:1019E0001F53C5F2EB13A3FB02135B0903F00703BC
:1019F0007A6A13437B620FE0BB691B0103F1320279
:101A000048F21F53C5F2EB13A3FB02135B0903F06B
:101A10000F037A6A13437B627B6A9AB27B681A81EE
:101A20002837BD4680BD00BF80B483B000AF78606A
:101A30000B46FB70FB78002B08D07B689B899BB220
:101A400043F400539AB27B689A8107E07B689B89D4
:101A50009BB223F400539AB27B689A810C37BD463F
:101A60005DF8047B704700BF80B483B000AF78603E
:101A70000B467B807B88C3F308039AB27B689A800D
:101A80000C37BD465DF8047B704700BF80B483B05F
:101A900000AF78607B689B889BB2C3F308039BB25E
:101AA00018460C37BD465DF8047B704780B487B09C
:101AB00000AF786013460A467A807B7000233B6152
:101AC0000023FB600023BB6000237B617B687B619C
:101AD0007B88DBB25B09DBB23B617B8803F01F03D1
:101AE000FB60FB68012202FA03F3BB603B69012B38
:101AF00003D17B690C337B6109E03B69022B03D185
:101B00007B6910337B6102E07B6914337B617B78F6
:101B1000002B06D07B697A691168BA680A431A609B
:101B200006E07B697A691168BA68D2430A401A6094
:101B30001C37BD465DF8047B704700BF80B487B09A
:101B400000AF78600B467B800023FB6000237B6145
:101B50000023BB600023FB747B88DBB25B09DBB234
:101B6000BB607B8803F01F037B617B69012202FA63
:101B700003F37B61BB68012B06D17B689B899BB219
:101B80007A6913407B610FE0BB68022B06D17B684A
:101B90001B8A9BB27A6913407B6105E07B689B8A54
:101BA0009BB27A6913407B617B881B0A9BB2FB6006
:101BB000FB68012202FA03F3FB607B681B889BB27F
:101BC000FA681340FB607B69002B05D0FB68002B93
:101BD00002D00123FB7401E00023FB74FB7C184658
:101BE0001C37BD465DF8047B704700BF80B485B0EC
:101BF00000AF78600B467B800023FB604FF4E84326
:101C0000C4F20003FB60FA687B6813440833FB608E
:101C1000FB687A881A601437BD465DF8047B70470C
:101C200080B586B000AF0023FB820220012100F0C6
:101C3000D9FD0C20012100F0ADFD0F20012100F0A5
:101C400059FD02233B7103237B710123FB710323A5
:101C50003B603B460020C4F20200194601F0ACFB99
:101C6000C0233B603B464FF48060C4F2020019463B
:101C700001F0A2FBC0233B603B464FF40060C4F27E
:101C80000200194601F098FB0020C4F20200002176
:101C9000022201F01FFC0020C4F2020001210222F6
:101CA00001F018FC4FF48060C4F202000621022209
:101CB00001F010FC4FF48060C4F202000721022200
:101CC00001F008FC4FF40060C4F202000621032278
:101CD00001F000FC4FF40060C4F20200072103226F
:101CE00001F0F8FB40F2EC03C2F200031A684DF673
:101CF0002913C6F24263A3FB02135B0E9BB2013BA6
:101D0000FB824FF6FE73FB6000233B8100233B8286
:101D100000237B8107F108034FF40060C4F2000048
:101D2000194604F08DFB07F108034FF44060C4F23C
:101D30000000194604F084FB07F108034FF48060AB
:101D4000C4F20100194604F07BFBFB8A4FF40060EB
:101D5000C4F200001946012204F0E8FBFB8A4FF4AC
:101D60004060C4F200001946012204F0DFFBFB8A48
:101D70004FF48060C4F201001946012204F0D6FB42
:101D80004FF40060C4F2000003210022002304F09D
:101D90005FFC4FF44060C4F20000032100220023E6
:101DA00004F056FC4FF48060C4F2010003210022CD
:101DB000002304F04DFC4FF40060C4F20000012148
:101DC000012204F0E7FB4FF44060C4F2000001215F
:101DD000012204F0DFFB4FF48060C4F20100012116
:101DE000012204F0D7FB4FF40060C4F2000001218F
:101DF00004F0B0FB4FF44060C4F20000012104F095
:101E0000A9FB4FF48060C4F20100012104F0A2FBA1
:101E10001837BD4680BD00BF80B582B000AF46F622
:101E20003C43C0F600037B6040F20003C2F20003B3
:101E30003B6007E03B681A1D3A607A68111D7960C3
:101E400012681A603A6840F28813C2F200039A429C
:101E5000F0D3074807494FF000028842B8BF40F866
:101E6000042BFADB00F0D4FA0837BD4680BD000031
:101E700088010020F015002080B400AFFEE700BF0D
:101E800080B584B000AFF8607A603B600B46FB72AF
:101E9000F86802F0F3F8F86800F01CF8FB683A689C
:101EA000C3F8E025FB68BA69C3F8E425FB687A68E3
:101EB000C3F8E825FB7AF868194604F015F8FB68C2
:101EC000D3F8E4351B689847F86802F03BF91037FF
:101ED000BD4680BD80B483B000AF78600023184653
:101EE0000C37BD465DF8047B704700BF80B584B0F9
:101EF00000AF786007F108037868194602F076FDB4
:101F00003B7A03F01F03012B0AD0022B0FD0002BCA
:101F100014D107F108037868194602F061F916E058
:101F200007F108037868194602F0AAF90FE007F1F3
:101F300008037868194602F0D7F908E03B7A23F0E5
:101F40007F03DBB27868194604F050F900BF002324
:101F500018461037BD4680BD80B584B000AF7860AC
:101F60000B46FB70FB78002B45D17B6803F55C7357
:101F7000FB607B6893F81131032B4FD1FB68DA6962
:101F8000FB689B689A4221D9FB68DA69FB689B6809
:101F9000D21AFB68DA617B68DB78012B06D1FB681B
:101FA000DA68FB689B681A44FB68DA60FB68DA68E9
:101FB000FB689968FB68DB69994238BF0B469BB2A6
:101FC000786811461A4604F0F7F927E07B68D3F8E1
:101FD000E0351B69002B0AD07B6893F81231032B84
:101FE00005D17B68D3F8E0351B6978689847786835
:101FF00004F0F6F912E07B68D3F8E0359B69002B1A
:102000000CD07B6893F81231032B07D17B68D3F88F
:10201000E0359B69FA78786811469847002318469E
:102020001037BD4680BD00BF80B584B000AF78607A
:102030000B46FB70FB78002B60D17B6803F58C733B
:10204000FB607B6893F81131022B6AD1FB68DA6977
:10205000FB689B689A421CD9FB68DA69FB689B683D
:10206000D21AFB68DA617B68DB78012B06D1FB684A
:10207000DA68FB689B681A44FB68DA60FB68DA6818
:10208000FB68DB699BB2786811461A4604F060F978
:1020900047E0FB681B6AFA689268B3FBF2F102FB47
:1020A00001F29B1A002B14D1FB681A6AFB689B682B
:1020B0009A420ED3FB681A6AFB685B6A9A4208D29E
:1020C00078680021002204F043F9FB6800225A627C
:1020D00027E07B68D3F8E035DB68002B0AD07B680B
:1020E00093F81231032B05D17B68D3F8E035DB6818
:1020F00078689847786804F08BF912E07B68D3F829
:10210000E0355B69002B0CD07B6893F81231032B10
:1021100007D17B68D3F8E0355B69FA7878681146B7
:102120009847002318461037BD4680BD80B582B061
:1021300000AF7860786800214022002303F054FF4C
:10214000786880214022002303F04EFF7B68012243
:1021500083F812217B68D3F8E4355B687A6892785B
:1021600010469847002318460837BD4680BD00BF7B
:1021700080B582B000AF78607B68D3F8E4351B6926
:1021800098477B68032283F81221002318460837FA
:10219000BD4680BD80B582B000AF78607B68042208
:1021A00083F812217B68D3F8E435DB689847002375
:1021B00018460837BD4680BD80B582B000AF786054
:1021C0007B68D3F8E035DB69002B05D07B68D3F85A
:1021D000E035DB6978689847002318460837BD4624
:1021E00080BD00BF80B582B000AF78600B46FB7049
:1021F0007B68D3F8E0351B68FA7878681146984711
:102200007B68D3F8E4359B68984700231846083765
:10221000BD4680BD80B582B000AF78600B46FB70D4
:102220007B68D3F8E0355B68FA78786811469847A0
:10223000002318460837BD4680BD00BF80B582B078
:1022400000AF78607B68D3F8E0351B6A7868984700
:10225000002318460837BD4680BD00BF80B582B058
:1022600000AF78607B68D3F8E0355B6A78689847A0
:10227000002318460837BD4680BD00BF80B483B038
:1022800000AF03463960FB7197F90730002B0EDA77
:102290004FF46D43CEF20003FA7902F00F02111FE2
:1022A0003A68D2B21201D2B20B441A760CE04FF463
:1022B0006143CEF2000397F907103A68D2B21201D7
:1022C000D2B20B4483F800230C37BD465DF8047B83
:1022D000704700BF80B582B000AF78607B68B3F113
:1022E000807F01D301231AE04EF21003CEF20003E7
:1022F0007A6822F07F42013A5A604FF0FF300F2196
:10230000FFF7BCFF4EF21003CEF2000300229A60EA
:102310004EF21003CEF2000307221A600023184683
:102320000837BD4680BD00BF80B584B002AF01F064
:1023300053FA9D20012100F0DDF94FF400433B608A
:1023400001233B710023BB710023FB7103237B71CD
:102350003B460020C4F20200194601F02DF84FF46C
:10236000C0433B603B464FF40060C4F20200194694
:1023700001F022F84CF208033B603B464FF440600A
:10238000C4F20200194601F017F802233B603B46F5
:102390004FF48050C4F20200194601F00DF840F2EB
:1023A000EC03C2F200031A6844F6D353C1F262038D
:1023B000A3FB02139B091846FFF78CFF0346002B73
:1023C00001D000F087FA40F20003C2F2000300934C
:1023D00040F21C20C2F20000012140F29002C2F241
:1023E000000240F24813C2F20003FFF749FD00F07B
:1023F000A3F801F03DFDFFF75BF8FFF711FC04F0D7
:102400006DF904F0B9F904F00FFA0837BD4680BD44
:1024100080B58EB000AF3B1D00221A60043300224D
:102420001A60043300221A60043300221A60043355
:1024300000221A60043300221A60043300221A605A
:10244000043300221A60043300221A60043300228D
:102450001A60043300221A60043300221A60043325
:1024600000221A800233FFF75FFF0023C4F201034A
:1024700040F247325A630023C4F2010340F2B7121C
:10248000DA630023C4F2010340F247321A644FF0CA
:10249000804340F247321A644FF48063C4F2000371
:1024A00040F24732DA634FF48063C4F2000340F233
:1024B000B7121A644FF4C053C4F2000340F247321B
:1024C0005A630023C4F2010340F247325A630023E7
:1024D000C4F2010340F24732DA630023C4F201037D
:1024E00040F247321A644FF0804340F247321A6498
:1024F0004FF48063C4F2000340F24732DA634FF4D2
:102500008063C4F2000340F247321A644FF4C053B0
:10251000C4F2000340F247325A6305E040F28813E8
:10252000C2F2000300221A6040F28813C2F20003D4
:102530001B68322BF2DCC4E780B500AF00F00AFE66
:1025400001F00EF803F052FB80BD00BF80B489B0EB
:1025500000AF78600023BB6100237B610023FB6137
:1025600002233B610023FB600223BB604FF46053F6
:10257000C4F202039B6803F00C03BB61BB69042B2C
:102580000AD0082B0FD0002B5AD17A684FF4105381
:10259000C0F2F40313605AE07A684FF49053C0F22B
:1025A0007A03136053E04FF46053C4F202035B6894
:1025B00003F480039B0DFB604FF46053C4F20203ED
:1025C0005B6803F03F03BB60FB68002B13D04FF444
:1025D0009053C0F27A03BA68B3FBF2F24FF460533F
:1025E000C4F20203596847F6C0730B409B0903FB12
:1025F00002F3FB6112E04FF41053C0F2F403BA6827
:10260000B3FBF2F24FF46053C4F20203596847F689
:10261000C0730B409B0903FB02F3FB614FF4605353
:10262000C4F202035B6803F440331B0C01335B000C
:102630003B61FA693B69B2FBF3F27B681A6006E022
:102640007A684FF41053C0F2F403136000BF4FF4E4
:102650006053C4F202039B6803F0F003BB61BB69E3
:102660001B09BB6140F28003C2F20003BA69134444
:102670001B78DBB27B617B681A687B69DA407B6818
:102680005A604FF46053C4F202039B6803F4E053B2
:10269000BB61BB699B0ABB6140F28003C2F20003CD
:1026A000BA6913441B78DBB27B617B685A687B692B
:1026B000DA407B689A604FF46053C4F202039B686F
:1026C00003F46043BB61BB695B0BBB6140F28003F9
:1026D000C2F20003BA6913441B78DBB27B617B68EA
:1026E0005A687B69DA407B68DA602437BD465DF85A
:1026F000047B704780B483B000AF78600B46FB70FA
:10270000FB78002B0CD04FF46053C4F202034FF45B
:102710006052C4F20202116B7A680A431A630CE039
:102720004FF46053C4F202034FF46052C4F2020249
:10273000116B7A68D2430A401A630C37BD465DF8C4
:10274000047B704780B483B000AF78600B46FB70A9
:10275000FB78002B0CD04FF46053C4F202034FF40B
:102760006052C4F20202516B7A680A435A630CE069
:102770004FF46053C4F202034FF46052C4F20202F9
:10278000516B7A68D2430A405A630C37BD465DF8F4
:10279000047B704780B483B000AF78600B46FB7059
:1027A000FB78002B0CD04FF46053C4F202034FF4BB
:1027B0006052C4F20202116C7A680A431A640CE097
:1027C0004FF46053C4F202034FF46052C4F20202A9
:1027D000116C7A68D2430A401A640C37BD465DF822
:1027E000047B704780B483B000AF78600B46FB7009
:1027F000FB78002B0CD04FF46053C4F202034FF46B
:102800006052C4F20202516C7A680A435A640CE0C6
:102810004FF46053C4F202034FF46052C4F2020258
:10282000516C7A68D2430A405A640C37BD465DF851
:10283000047B704780B483B000AF78600B46FB70B8
:10284000FB78002B0CD04FF46053C4F202034FF41A
:102850006052C4F20202116A7A680A431A620CE0FA
:102860004FF46053C4F202034FF46052C4F2020208
:10287000116A7A68D2430A401A620C37BD465DF885
:10288000047B704780B483B000AF78600B46FB7068
:10289000FB78002B0CD04FF46053C4F202034FF4CA
:1028A0006052C4F20202516A7A680A435A620CE02A
:1028B0004FF46053C4F202034FF46052C4F20202B8
:1028C000516A7A68D2430A405A620C37BD465DF8B5
:1028D000047B704780B483B000AF0123FB800023EA
:1028E0003B6000BF3A68531C3B604AF21F13C0F2C2
:1028F00007039A42F6D94FF44063C4F20203FA8800
:10290000120392B25A83FB885B00FB80FB880F2B7B
:1029100001D90123FB804FF44063C4F20203FA881B
:10292000120392B21A83DAE780B400AFBD465DF8B5
:10293000047B704780B500AFFFF7CCFF80BD00BFC0
:1029400080B500AFFFF7C6FF80BD00BF80B500AF08
:10295000FFF7C0FF80BD00BF80B500AFFFF7BAFF33
:1029600080BD00BF80B400AFBD465DF8047B7047FA
:1029700080B400AFBD465DF8047B704780B400AF03
:10298000BD465DF8047B704780B400AF40F2881309
:10299000C2F200031B685A1C40F28813C2F2000303
:1029A0001A6040F28C13C2F200031B68002B0AD09D
:1029B00040F28C13C2F200031B685A1E40F28C13C3
:1029C000C2F200031A60BD465DF8047B704700BF89
:1029D00080B500AF40F21C20C2F2000002F0C6F841
:1029E00080BD00BF80B500AF40F21C23C2F20003DF
:1029F0009B7A002B13D04EF61053CEF200034EF606
:102A00001052CEF20002126822F006021A6000F0A4
:102A1000E3FE40F21C20C2F20000FEF71FFD4FF45F
:102A2000802003F0D7F980BD80B500AF4FF400607F
:102A3000C4F20000012103F0E1FD0346002B27D082
:102A40004FF40063C4F200031B889BB21B099BB2C6
:102A5000012B0BD140F68803C2F200031B685A1CFD
:102A600040F68803C2F200031A600AE040F69803B9
:102A7000C2F200031B685A1C40F69803C2F200031E
:102A80001A604FF40060C4F20000012103F0A6FDBB
:102A900080BD00BF80B500AF4FF44060C4F20000BD
:102AA000012103F0ABFD0346002B27D04FF4406318
:102AB000C4F200031B889BB21B099BB2012B0BD1F4
:102AC00040F68C03C2F200031B685A1C40F68C03CC
:102AD000C2F200031A600AE040F69403C2F2000357
:102AE0001B685A1C40F69403C2F200031A604FF4AC
:102AF0004060C4F20000012103F070FD80BD00BF02
:102B000080B500AF4FF48060C4F20100012103F0F2
:102B100075FD0346002B27D04FF48063C4F20103F8
:102B20001B889BB21B099BB2012B0BD140F69C0367
:102B3000C2F200031B685A1C40F69C03C2F2000359
:102B40001A600AE040F69003C2F200031B685A1CA8
:102B500040F69003C2F200031A604FF48060C4F2A2
:102B60000100012103F03AFD80BD00BF80B500AF38
:102B70004FF480700121FFF785FE4FF48070002133
:102B8000FFF780FE80BD00BF80B485B000AF7860E5
:102B900039600023FB600023FB727B685B68FB608D
:102BA000FB6823F0407323F48073FB603B681B7960
:102BB0001A023B681B681343FA681343FB607B6887
:102BC000FA685A607B689B68FB60FA684FF2FD7395
:102BD000CCF2FF031340FB603B681A693B68DB687B
:102BE0001A433B689B681A433B685B795B0013435D
:102BF000FA681343FB607B68FA689A607B68DB6A5B
:102C0000FB60FB6823F47003FB603B681B7D013BAA
:102C1000DAB2FB7A1343FB72FB7A1B05FA681343A3
:102C2000FB607B68FA68DA621437BD465DF8047BA6
:102C3000704700BF80B483B000AF78607B6800222B
:102C40001A607B6800221A717B6800225A717B68C7
:102C500000229A607B680022DA607B6800221A6199
:102C60007B6801221A750C37BD465DF8047B7047FE
:102C700080B485B000AF78600023FB604FF40C5344
:102C8000C4F201035B68FB60FA6843F2E003CFF62D
:102C9000FC731340FB607B681A687B685B681A43AF
:102CA0007B689B681A437B68DB681343FA681343AD
:102CB000FB604FF40C53C4F20103FA685A601437F6
:102CC000BD465DF8047B704780B483B000AF786088
:102CD0007B6800221A607B6800225A607B680022B1
:102CE0009A607B680022DA600C37BD465DF8047B91
:102CF000704700BF80B483B000AF78600B46FB70B4
:102D0000FB78002B06D07B689B6843F001027B6850
:102D10009A6005E07B689B6823F001027B689A60FB
:102D20000C37BD465DF8047B704700BF80B483B0AC
:102D300000AF0346FB71FB79002B0CD04FF40C5312
:102D4000C4F201034FF40C52C4F20102526842F47F
:102D500080025A600BE04FF40C53C4F201034FF4AD
:102D60000C52C4F20102526822F480025A600C37FD
:102D7000BD465DF8047B704780B485B000AF7860D5
:102D8000F970BA707B700023FB600023BB60FB7896
:102D9000092B23D97B68DB68FB60FB78A3F10A026F
:102DA00013465B001344072202FA03F3BB60BB68BF
:102DB000DB43FA681340FB607978FB78A3F10A02E1
:102DC00013465B00134401FA03F3BB60FA68BB6867
:102DD0001343FB607B68FA68DA601EE07B681B695E
:102DE000FB60FA7813465B001344072202FA03F3F0
:102DF000BB60BB68DB43FA681340FB607978FA7804
:102E000013465B00134401FA03F3BB60FA68BB6826
:102E10001343FB607B68FA681A61BB78062B21D8E4
:102E20007B685B6BFB60BB785A1E13469B001344A8
:102E30001F2202FA03F3BB60BB68DB43FA6813404E
:102E4000FB60F978BB785A1E13469B00134401FAC5
:102E500003F3BB60FA68BB681343FB607B68FA68E6
:102E60005A6347E0BB780C2B21D87B681B6BFB6057
:102E7000BB78DA1F13469B0013441F2202FA03F3A8
:102E8000BB60BB68DB43FA681340FB60F978BB7832
:102E9000DA1F13469B00134401FA03F3BB60FA6880
:102EA000BB681343FB607B68FA681A6322E07B68A7
:102EB000DB6AFB60BB78A3F10D0213469B00134451
:102EC0001F2202FA03F3BB60BB68DB43FA681340BE
:102ED000FB60F978BB78A3F10D0213469B00134405
:102EE00001FA03F3BB60FA68BB681343FB607B68BD
:102EF000FA68DA621437BD465DF8047B704700BF9C
:102F000080B483B000AF78607B689B6843F08042F8
:102F10007B689A600C37BD465DF8047B704700BF44
:102F200080B483B000AF78600B46FB70FB78002B59
:102F300006D07B689B6843F480727B689A6005E0EA
:102F40007B689B6823F480727B689A600C37BD466F
:102F50005DF8047B704700BF80B483B000AF786039
:102F60000B46FB70FB78002B06D07B689B6843F414
:102F700000727B689A6005E07B689B6823F40072AE
:102F80007B689A600C37BD465DF8047B704700BFD4
:102F900080B483B000AF03463960FB713B681222F6
:102FA0001A8040F2AC03C2F2000318460C37BD464B
:102FB0005DF8047B704700BF80B483B000AF034668
:102FC0003960FB713B6804221A8040F2CC03C2F2E4
:102FD000000318460C37BD465DF8047B704700BF00
:102FE00080B582B000AF03463960FB71FB79002BDE
:102FF0000BD146F6A430C0F6000040F64811C2F2EC
:1030000000013A6801F05CFD0AE046F6C830C0F6FF
:10301000000040F64811C2F200013A6801F050FD8C
:1030200040F64813C2F2000318460837BD4680BD7B
:1030300080B582B000AF03463960FB7146F6EC30D4
:10304000C0F6000040F64811C2F200013A6801F0F3
:1030500037FD40F64813C2F2000318460837BD4654
:1030600080BD00BF80B582B000AF03463960FB7100
:10307000FB79002B0BD146F60040C0F6000040F66D
:103080004811C2F200013A6801F01AFD0AE046F662
:103090001040C0F6000040F64811C2F200013A6844
:1030A00001F00EFD40F64813C2F20003184608373F
:1030B000BD4680BD80B582B000AF03463960FB716C
:1030C000FB79002B0BD146F62040C0F6000040F6FD
:1030D0004811C2F200013A6801F0F2FC0AE046F63B
:1030E0002040C0F6000040F64811C2F200013A68E4
:1030F00001F0E6FC40F64813C2F200031846083718
:10310000BD4680BD80B582B000AF03463960FB711B
:10311000FB79002B0BD146F62C40C0F6000040F6A0
:103120004811C2F200013A6801F0CAFC0AE046F612
:103130002C40C0F6000040F64811C2F200013A6887
:1031400001F0BEFC40F64813C2F2000318460837EF
:10315000BD4680BD80B500AF00F004F800F0B2F8C5
:1031600080BD00BF80B582B000AF4FF4C06002F0F8
:1031700041FE31233B7100237B710023BB7101238E
:10318000FB713B1D184602F049FE3B233B710123B6
:103190007B713B1D184602F041FE0837BD4680BDDD
:1031A00080B500AF4FF48070FEF72AFA0346002B7B
:1031B00010D040F2CC13C2F2000300221A704FF478
:1031C0008070FEF739FA40F2D013C2F200030122F8
:1031D0001A6050E00220FEF713FA0346002B09D0D4
:1031E0000220FEF729FA40F2CC13C2F200030222B9
:1031F0001A7040E00820FEF703FA0346002B09D0BE
:103200000820FEF719FA40F2CC13C2F200030422A0
:103210001A7030E02020FEF7F3F90346002B09D0A6
:103220002020FEF709FA40F2CC13C2F20003062276
:103230001A7020E01020FEF7E3F90346002B09D0B6
:103240001020FEF7F9F940F2CC13C2F20003052278
:103250001A7010E04FF40070FEF7D2F90346002B0D
:1032600009D04FF40070FEF7E7F940F2CC13C2F238
:10327000000307221A704CF23A300021FEF798F949
:1032800040F2CC13C2F200031B78DBB2184680BDBB
:1032900080B500AF4FF4C843C4F202031B6803F0CB
:1032A000C053002B0DD040F2D413C2F20003012210
:1032B0001A6046F25840C4F202004FF0C25100F0CA
:1032C000A7FD80BD80B582B000AF0C200121FFF7C3
:1032D00011FA4FF40060C4F2020008210C2200F041
:1032E000F9F84FF40060C4F2020009210C2200F04A
:1032F000F1F84FF40060C4F202000A210C2200F041
:10330000E9F84FF40060C4F202000B210C2200F037
:10331000E1F84FF40060C4F202000C210C2200F02E
:10332000D9F84FF44060C4F2020002210C2200F0F0
:10333000D1F84FF470633B6002237B7102233B7131
:103340000023BB710123FB713B464FF40060C4F2C4
:103350000200194600F030F804233B603B464FF46E
:103360004060C4F20200194600F026F84FF4805382
:103370003B600023FB713B464FF40060C4F2020047
:10338000194600F019F84FF400600121FFF72AFAFE
:103390004FF480000121FFF7ADF90837BD4680BD2D
:1033A00080B500AFFFF7FCFE80BD00BF80B500AF69
:1033B000FFF76EFF80BD00BF80B487B000AF7860BC
:1033C000396000237B6100233B610023FB60002305
:1033D0007B6176E07B69012202FA03F33B613B6883
:1033E0001A683B691340FB60FA683B699A4265D1F1
:1033F0007B681A687B695B00032101FA03F3DB43F6
:103400001A407B681A607B681A683B681B7919460A
:103410007B695B0001FA03F31A437B681A603B681F
:103420001B79012B03D03B681B79022B2ED17B68C3
:103430009A687B695B00032101FA03F3DB431A40BE
:103440007B689A607B689A683B685B7919467B6900
:103450005B0001FA03F31A437B689A607B685A6841
:103460007B699BB2012101FA03F3DB431A407B68BD
:103470005A607B685A683B689B7919467B699BB2A6
:1034800001FA03F39BB21A437B685A607B68DA68DF
:103490007B699BB25B00032101FA03F3DB431A4013
:1034A0007B68DA607B68DA683B68DB7919467B69A0
:1034B0005B0001FA03F31A437B68DA607B6901332E
:1034C0007B617B690F2B85D91C37BD465DF8047B7A
:1034D000704700BF80B485B000AF786013460A46DD
:1034E0007A807B700023FB600023BB607A787B8846
:1034F00003F007039B0002FA03F3FB607B88DB0801
:103500009BB21A467B88DB089BB219467B68083160
:1035100053F821107B8803F007039B000F2000FA6B
:1035200003F3DB4319407B68083243F822107B88A1
:10353000DB089BB21A467B68083253F82220FB68EE
:103540001343BB607B88DB089BB21A467B6808325A
:10355000B96843F822101437BD465DF8047B704704
:1035600080B400AFBD465DF8047B704780B400AF07
:1035700000231846BD465DF8047B704780B400AF59
:1035800000231846BD465DF8047B704780B485B0C3
:1035900000AFF860B9607A60FB68232B00F28B8083
:1035A00001A252F823F000BFB7360008B736000872
:1035B000B7360008B7360008B7360008B736000837
:1035C000B7360008B7360008B7360008B736000827
:1035D000B7360008B7360008B7360008B736000817
:1035E000B7360008B7360008B7360008B736000807
:1035F000B7360008B7360008B7360008B7360008F7
:10360000B7360008B7360008B7360008B7360008E6
:10361000B7360008B7360008B7360008B7360008D6
:10362000B7360008B7360008B73600083936000844
:10363000B7360008B736000840F2D003C2F20003E4
:103640001B68DAB2BB681A70BB685A1C40F2D00320
:10365000C2F200031B681B0ADBB21370BB689A1C22
:1036600040F2D003C2F200031B681B0CDBB21370E4
:10367000BB68DA1C40F2D003C2F200031B681B0EC9
:10368000DBB21370BB681A1D40F2D003C2F2000314
:103690001B791370BB685A1D40F2D003C2F20003BD
:1036A0005B791370BB689A1D40F2D003C2F200032D
:1036B0009B79137000E000BF002318461437BD4605
:1036C0005DF8047B704700BF80B485B000AF7860C0
:1036D00039600023FB6029E040F2EC13C2F20003E2
:1036E0001A687968FB680B44197840F60823C2F21F
:1036F0000003995440F2EC13C2F200031B685A1CF9
:1037000040F2EC13C2F200031A60FB680133FB6065
:1037100040F2EC13C2F200031B68B3F5006F05D151
:1037200040F2EC13C2F2000300221A60FA683B6810
:103730009A42D1D3002318461437BD465DF8047B66
:10374000704700BF80B485B000AF78603960002357
:10375000FB6036E040F63413C2F200031A68796861
:10376000FB680B44197840F6A003C2F20003995499
:1037700040F63413C2F200031B685A1C40F634139F
:10378000C2F200031A6040F63413C2F200031B6851
:10379000802B05D140F63413C2F2000300221A60D8
:1037A00040F63413C2F200031A6840F62013C2F246
:1037B00000031B689A4201D1022307E0FB68013332
:1037C000FB60FA683B689A42C4D30023184614375A
:1037D000BD465DF8047B704780B500AF4FF4605381
:1037E000C4F202034FF46052C4F20202126842F0C3
:1037F00001021A604FF46053C4F2020300229A607F
:103800004FF46053C4F202034FF46052C4F2020258
:10381000126822F0847222F480321A604FF46053EE
:10382000C4F2020343F21002C2F200425A604FF4A3
:103830006053C4F202034FF46052C4F202021268F1
:1038400022F480221A604FF46053C4F20203002273
:10385000DA6000F009F84FF46D43CEF200034FF048
:1038600000629A6080BD00BF80B483B000AF0023C7
:103870007B6000233B604FF46053C4F202034FF4BB
:103880006052C4F20202126842F480321A604FF4AD
:103890006053C4F202031B6803F400333B607B688F
:1038A00001337B603B68002B03D17B68B3F5A06FCD
:1038B000EDD14FF46053C4F202031B6803F40033EC
:1038C000002B02D001233B6001E000233B603B68FA
:1038D000012B40F082804FF46053C4F202034FF496
:1038E0006052C4F20202126C42F080521A644FF429
:1038F000E043C4F200034FF4E042C4F20002126855
:1039000042F480421A604FF46053C4F202034FF451
:103910006052C4F2020292689A604FF46053C4F29B
:1039200002034FF46052C4F20202926842F4004271
:103930009A604FF46053C4F202034FF46052C4F231
:103940000202926842F4A0529A604FF46053C4F2AB
:10395000020345F20842C0F240725A604FF46053CD
:10396000C4F202034FF46052C4F20202126842F041
:1039700080721A6000BF4FF46053C4F202031B68E8
:1039800003F00073002BF6D04FF47053C4F202031F
:1039900040F205621A604FF46053C4F202034FF420
:1039A0006052C4F20202926822F003029A604FF45D
:1039B0006053C4F202034FF46052C4F202029268F0
:1039C00042F002029A6000BF4FF46053C4F2020357
:1039D0009B6803F00C03082BF6D10C37BD465DF84D
:1039E000047B704780B483B000AF78607B681B684D
:1039F00023F001027B681A607B6800221A607B68F2
:103A000000225A607B6800229A607B680022DA609C
:103A10007B6800221A617B6821225A617A6846F22B
:103A20001003C4F202039A4206D14FF4C043C4F219
:103A300002033D229A60E6E07A6846F22803C4F267
:103A400002039A4207D14FF4C043C4F202034FF479
:103A500074629A60D7E07A6846F24003C4F20203C7
:103A60009A4207D14FF4C043C4F202034FF47412D8
:103A70009A60C8E07A6846F25803C4F202039A4298
:103A800007D14FF4C043C4F202034FF074629A604E
:103A9000B9E07A6846F27003C4F202039A4208D190
:103AA0004FF4C043C4F202033D22C2F20002DA60C6
:103AB000A9E07A6846F28803C4F202039A4209D167
:103AC0004FF4C043C4F202034FF47462C2F2000226
:103AD000DA6098E07A6846F2A003C4F202039A42E0
:103AE00008D14FF4C043C4F202030022C2F23D02E7
:103AF000DA6088E07A6846F2B803C4F202039A42B8
:103B000007D14FF4C043C4F202034FF03D52DA60D4
:103B100079E07A6846F21043C4F202039A4206D171
:103B20004FF4C843C4F202033D229A606BE07A6806
:103B300046F22843C4F202039A4207D14FF4C84325
:103B4000C4F202034FF474629A605CE07A6846F251
:103B50004043C4F202039A4207D14FF4C843C4F26F
:103B600002034FF474129A604DE07A6846F25843AB
:103B7000C4F202039A4207D14FF4C843C4F20203CD
:103B80004FF074629A603EE07A6846F27043C4F285
:103B900002039A4208D14FF4C843C4F202033D2203
:103BA000C2F20002DA602EE07A6846F28843C4F27C
:103BB00002039A4209D14FF4C843C4F202034FF4FE
:103BC0007462C2F20002DA601DE07A6846F2A04335
:103BD000C4F202039A4208D14FF4C843C4F202036C
:103BE0000022C2F23D02DA600DE07A6846F2B84384
:103BF000C4F202039A4206D14FF4C843C4F202034E
:103C00004FF03D52DA600C37BD465DF8047B7047DB
:103C100080B485B000AF786039600023FB607B68BA
:103C20001B68FB60FA6848F23F03CFF21C031340A5
:103C3000FB603B681A683B68DB681A433B685B695A
:103C40001A433B689B691A433B68DB691A433B682C
:103C50001B6A1A433B685B6A1A433B689B6A1A43B8
:103C60003B685B6B1A433B689B6B1343FA681343D7
:103C7000FB607B68FA681A607B685B69FB60FB68C5
:103C800023F00703FB603B68DA6A3B681B6B134356
:103C9000FA681343FB607B68FA685A613B681A69EB
:103CA0007B685A603B685A687B689A603B689A6890
:103CB0007B68DA601437BD465DF8047B704700BF4F
:103CC00080B483B000AF78607B6800221A607B68A4
:103CD00000225A607B6800229A607B680022DA60CA
:103CE0007B6800221A617B6800225A617B6800228F
:103CF0009A617B680022DA617B6800221A627B6825
:103D000000225A627B6800229A627B680022DA6293
:103D10007B6800221A637B6800225A637B6800225A
:103D20009A630C37BD465DF8047B704780B483B05E
:103D300000AF78600B46FB70FB78002B06D07B68E9
:103D40001B6843F001027B681A6005E07B681B6812
:103D500023F001027B681A600C37BD465DF8047BD6
:103D6000704700BF80B485B000AF78600023FB735C
:103D70007B681B6803F00103002B02D00123FB7357
:103D800001E00023FB73FB7B18461437BD465DF84A
:103D9000047B704780B487B000AF7860396000233F
:103DA000FB750023FB607A6846F20F43C4F20203FE
:103DB0009A4205D84FF4C043C4F202033B6104E0C9
:103DC0004FF4C843C4F202033B613B6803F0005365
:103DD000002B03D03B695B68FB6002E03B691B681A
:103DE000FB60FB6823F0F02323F08213FB60FA688A
:103DF0003B681340002B02D00123FB7501E0002338
:103E0000FB75FB7D18461C37BD465DF8047B70478B
:103E100080B485B000AF786039607A6846F20F43AD
:103E2000C4F202039A4205D84FF4C043C4F202031D
:103E3000FB6004E04FF4C843C4F20203FB603B683C
:103E400003F00053002B07D03B6823F0F02323F04E
:103E50008213FA68D36006E03B6823F0F02323F076
:103E60008213FA6893601437BD465DF8047B70478F
:103E700080B59CB000AF07F158031846FEF7DAFE94
:103E800007F148031846FEF71FFF07F10C03184619
:103E9000FFF716FF4FF480700121FEF7A3FC052009
:103EA000C0F240000121FEF725FC3C237B60032388
:103EB0003B720023FB723B1D0020C4F20200194636
:103EC000FFF77AFA0F237B603B1D4FF40060C4F2CA
:103ED00002001946FFF770FA46F21040C4F20200E1
:103EE000FFF780FD0023FB6042F24C03C4F20103A4
:103EF0003B6140F63813C2F200037B610023BB61D3
:103F00000823FB6100233B624FF480637B624FF424
:103F10000063BB624FF40053FB624FF480733B635A
:103F20004FF400337B630023BB630123FB63002357
:103F30003B6400237B6407F10C0346F21040C4F29B
:103F400002001946FFF764FE46F21040C4F2020078
:103F50000121FFF7EBFEFEF709FE0023BB640023FF
:103F6000FB6400233B654FF470637B6507F14803F6
:103F70001846FEF77DFE0023BB65012387F85C3001
:103F8000012387F85D3000233B6600237B66002316
:103F9000BB66082387F86C3007F158034FF40050D4
:103FA000C4F201001946FEF7EFFD4FF40050C4F2D1
:103FB00001000121FEF7B4FF4FF40050C4F20100EC
:103FC000022101220723FEF7D7FE4FF40050C4F26E
:103FD0000100032102220723FEF7CEFE4FF400501A
:103FE000C4F20100042103220723FEF7C5FE4FF4AB
:103FF0000050C4F20100052104220723FEF7BCFE95
:104000004FF40050C4F201000A2105220723FEF7F5
:10401000B3FE4FF40050C4F201000B210622072327
:10402000FEF7AAFE4FF40050C4F201000C21072253
:104030000723FEF7A1FE4FF40050C4F201000D214A
:1040400008220723FEF798FE0120FEF76FFE4FF4CB
:104050000050C4F201000121FEF77EFF4FF4005032
:10406000C4F201000121FEF745FE4FF40050C4F2F6
:104070000100FEF745FF7037BD4680BD80B584B0B6
:1040800000AF786001200121FEF734FB4FF4D853D4
:10409000BB6003237B7302233B730023BB730023AA
:1040A000FB7307F108030020C4F202001946FFF772
:1040B00083F90020C4F2020008210A22FFF70AFA5D
:1040C0000020C4F2020009210A22FFF703FA0020AF
:1040D000C4F202000B210A22FFF7FCF90020C4F20F
:1040E00002000C210A22FFF7F5F94FF48063BB6050
:1040F0000123BB730123FB7303237B7307F10803C5
:104100000020C4F202001946FFF756F90020C4F25D
:1041100002000A210A22FFF7DDF94FF48040012155
:10412000FEF760FB80200121FEF70CFB4FF0805072
:104130000121FEF77FFB012001F04CFE1037BD4648
:1041400080BD00BF80B584B000AF78604FF4C06020
:1041500001F050FE43233B7301237B730323BB73A6
:104160000123FB7307F10C03184601F057FE1037CB
:10417000BD4680BD80B485B000AF78600023FB6091
:104180007A6813461B019B1ADB001A4644F6251376
:10419000C2F29243A3FB0213D21A520813449B08A3
:1041A000BB60FB680133FB60FA68BB689A4200D9C8
:1041B00000E0F6E71437BD465DF8047B704700BFAA
:1041C00080B582B000AF78607B684FF47A7202FBF2
:1041D00003F31846FFF7CEFF0837BD4680BD00BF8A
:1041E00080B584B000AF786039600023FB733B6812
:1041F0005B78092B39D801A252F823F04D42000810
:10420000614200086B420008574200086B420008F8
:104210002F420008254200086B4200084342000874
:10422000394200087868396800F042F922E078687D
:10423000396800F019FA1DE07868396800F052FA20
:1042400018E07868396800F0E5FA13E078683968B2
:1042500000F010FB0EE07868396800F039FB09E0E7
:104260007868396800F09AFB04E07868396800F0F3
:1042700003FC00BFFB7B18461037BD4680BD00BF66
:1042800080B584B000AF786039600023FB737B6831
:1042900093F81231032B1CD13B689B88DBB2012BB6
:1042A00011D87B68D3F8E0359B68786839689847FF
:1042B0003B68DB88002B0BD1FB7B002B08D1786897
:1042C00002F08EF80AE07868396800F0D5FB05E066
:1042D00004E07868396800F0CFFB00BFFB7B18462C
:1042E0001037BD4680BD00BF80B584B000AF786098
:1042F00039600023FB733B689B88BB733B685B782A
:10430000012B39D0032B02D0002B6BD0CBE07B6884
:1043100093F81231022B02D0032B0DD026E0BB7B89
:10432000002B08D0BB7B802B05D0BB7B786819465F
:1043300001F05CFF1FE01EE03B685B88002B0AD1A8
:10434000BB7B002B07D0BB7B802B04D0BB7B78686A
:10435000194601F04BFF7B68D3F8E0359B6878681D
:1043600039689847786802F03BF804E07868396863
:1043700000F082FB00BF96E07B6893F81231022BBD
:1043800002D0032B0DD027E0BB7B002B08D0BB7BDA
:10439000802B05D0BB7B7868194601F027FF20E011
:1043A0001FE03B685B88002B15D1BB7B002B0ED038
:1043B000BB7B802B0BD0BB7B7868194601F050FF8C
:1043C0007B68D3F8E0359B687868396898477868E7
:1043D00002F006F805E004E07868396800F04CFB6C
:1043E00000BF60E07B6893F81231022B02D0032BF0
:1043F0000DD052E0BB7B002B08D0BB7B802B05D0BF
:10440000BB7B7868194601F0F1FE4BE04AE0BB7BCC
:104410005BB2002B1BDABB7B03F07F02796813468B
:104420009B001344DB000B4403F58C739B78002B3B
:1044300006D040F2D813C2F2000301221A6023E032
:1044400040F2D813C2F2000300221A601CE0BB7BCA
:104450005BB2002B18DBBA7B796813469B001344D0
:10446000DB000B4403F55C739B78002B06D040F215
:10447000D813C2F2000301221A6005E040F2D813FB
:10448000C2F2000300221A60786840F2D811C2F22A
:104490000001022201F03CFF04E07868396800F076
:1044A000EBFA00BF00BFFB7B18461037BD4680BD4E
:1044B00080B584B000AF786039603B685B881B0AC8
:1044C0009BB2013B062B00F2B18001A252F823F00F
:1044D000ED4400081F450008494500082D46000826
:1044E0002D46000819460008234600087B68D3F8CB
:1044F000E8351B687A68917807F10A020846114688
:104500009847F8603B68DB88402B04D07B6893F8C1
:104510001231012B02D108237B818CE08BE07B6878
:10452000D3F8E0359B6A7A68917807F10A02084669
:1045300011469847F860FB68013302221A707B68C5
:10454000FA68C3F8EC2576E03B685B88DBB2052BA4
:104550005CD801A252F823F0714500088B45000891
:10456000A5450008BF450008D9450008F3450008E7
:104570007B68D3F8E8355B687A68917807F10A02BE
:10458000084611469847F86045E07B68D3F8E8355F
:104590009B687A68917807F10A02084611469847A5
:1045A000F86038E07B68D3F8E835DB687A689178A2
:1045B00007F10A02084611469847F8602BE07B682D
:1045C000D3F8E8351B697A68917807F10A02084642
:1045D00011469847F8601EE07B68D3F8E8355B69C0
:1045E0007A68917807F10A02084611469847F86000
:1045F00011E07B68D3F8E8359B697A68917807F118
:104600000A02084611469847F86004E0786839685D
:1046100000F032FA24E00EE07868396800F02CFAF5
:104620001EE07868396800F027FA19E07868396880
:1046300000F022FA14E07B89002B11D03B68DB8864
:10464000002B0DD03B68DA887B899A4238BF13462D
:104650009BB27B817B897868F9681A4601F058FE25
:104660001037BD4680BD00BF80B584B000AF786014
:1046700039603B689B88002B2DD13B68DB88002B81
:1046800029D13B685B88DBB203F07F03FB737B6857
:1046900093F81231032B04D17868396800F0ECF9F3
:1046A00018E07B68FA7B83F81321FB7B7868194656
:1046B00001F010FE786801F093FEFB7B002B04D024
:1046C0007B68022283F8122104E07B68012283F8D0
:1046D000122104E003E07868396800F0CDF9103762
:1046E000BD4680BD80B582B000AF786039603B6860
:1046F0005B88DAB240F2E413C2F200031A7040F2AF
:10470000E413C2F200031B78012B04D978683968DE
:1047100000F0B2F97BE07B6893F81231022B02D0F3
:10472000032B24D06EE040F2E413C2F200031B78A6
:10473000002B18D040F2E413C2F200031A787B6811
:1047400083F810217B68032283F8122140F2E413DE
:10475000C2F200031B7878681946FDF743FD7868BC
:1047600001F03EFE53E0786801F03AFE4FE040F27F
:10477000E413C2F200031B78002B18D17B680222DD
:1047800083F8122140F2E413C2F200031A787B6826
:1047900083F8102140F2E413C2F200031B7878681A
:1047A0001946FDF737FD786801F01AFE29E07B68AD
:1047B00093F8102140F2E413C2F200031B789A42EE
:1047C0001BD07B6893F8103178681946FDF722FDFD
:1047D00040F2E413C2F200031A787B6883F81021D8
:1047E00040F2E413C2F200031B7878681946FDF723
:1047F000F9FC786801F0F4FD03E0786801F0F0FD61
:1048000005E004E07868396800F036F900BF083741
:10481000BD4680BD80B582B000AF786039603B682E
:10482000DB88012B04D07868396800F025F91EE098
:104830007B6893F81231022B02D0032B09D011E0D0
:10484000786840F2DC11C2F20001012201F060FD43
:104850000DE07B6803F5887378681946012201F042
:1048600057FD04E07868396800F006F900BF0837A2
:10487000BD4680BD80B582B000AF786039607B688E
:1048800093F81231023B012B1AD87B68D3F814310C
:10489000002B06D040F2E013C2F2000303221A609C
:1048A00005E040F2E013C2F2000301221A607868CA
:1048B00040F2E011C2F20001012201F029FD04E002
:1048C0007868396800F0D8F800BF0837BD4680BD69
:1048D00080B584B000AF786039600023FB733B681B
:1048E0005B88012B0ED17B680122C3F814217B6801
:1048F000D3F8E0359B68786839689847786801F0A4
:104900006FFD48E03B685B88022B44D13B689B8885
:10491000DBB2002B3FD17B681B695B68BB603B68E7
:104920009B881B0A9BB2FB73FB7B013B042B2BD8A0
:1049300001A252F823F000BF4D4900085949000870
:1049400065490008714900087D4900083B7A012249
:1049500062F306133B7217E03B7A022262F30613FE
:104960003B7211E03B7A032262F306133B720BE0C9
:104970003B7A042262F306133B7205E03B7A052280
:1049800062F306133B7200BF7B681B69BA685A600A
:10499000786801F025FD1037BD4680BD80B582B036
:1049A00000AF786039607B6893F81231023B012BCD
:1049B00013D83B685B88012B0ED17B680022C3F8BB
:1049C00014217B68D3F8E0359B687868396898478C
:1049D000786801F005FD05E004E07868396800F0CA
:1049E0004BF800BF0837BD4680BD00BF80B483B020
:1049F00000AF786039607B6893F8C8253B681A700F
:104A00007B6893F8C9253B685A707B6893F8CA3570
:104A10001A467B6893F8CB351B029BB213449AB2BB
:104A20003B685A807B6893F8CC351A467B6893F8CC
:104A3000CD351B029BB213449AB23B689A807B68C7
:104A400093F8CE351A467B6893F8CF351B029BB29C
:104A500013449AB23B68DA803B68DB881A467B686D
:104A6000C3F83C217B68012283F811210C37BD4635
:104A70005DF8047B704700BF80B582B000AF7860FE
:104A800039603B681B78DBB25BB2002B04DA7868D4
:104A9000802101F0ABFB0CE03B68DB88002B04D1EC
:104AA0007868802101F0A2FB03E07868002101F022
:104AB0009DFB7868FCF79AFC0837BD4680BD00BFB7
:104AC00080B586B000AFF860B9607A600023FB75EE
:104AD000FB68002B2FD0F86800F030F80346013354
:104AE0009BB25B009AB27B681A80FB7D5A1CFA75F8
:104AF000BA6813447A681288D2B21A70FB7D5A1CC5
:104B0000FA75BA68134403221A7010E0FB7D5A1C30
:104B1000FA75BA681A44FB68591CF9601B7813705F
:104B2000FB7D5A1CFA75BA68134400221A70FB68A0
:104B30001B78002BEAD11837BD4680BD80B485B004
:104B400000AF78600023FB7305E0FB7B0133FB7350
:104B50007B6801337B607B681B78002BF5D1FB7B86
:104B600018461437BD465DF8047B704780B586B0A3
:104B700000AF786000237B617868FBF761FE034635
:104B8000002B00F09C807868FBF76CFE03463B61CD
:104B90003B69002B01D1002392E0BB7CC3F3C0032F
:104BA000DBB2002B06D0786800F018FA03467A6969
:104BB00013437B61BB7CC3F38003DBB2002B06D0C5
:104BC000786800F015F903467A6913437B613B7CF2
:104BD000C3F34003DBB2002B09D00023FB603B7B17
:104BE00043F002033B737B68DB68FA685A61FB7C25
:104BF000C3F3C013DBB2002B06D0786800F064F872
:104C000003467A6913437B617B7CC3F3C003DBB249
:104C1000002B06D0786800F097F803467A691343B2
:104C20007B613B7CC3F3C003DBB2002B06D078680A
:104C300000F094FA03467A6913437B613B7CC3F32B
:104C40000013DBB2002B06D0786800F0A3FA03460D
:104C50007A6913437B617B7CC3F30013DBB2002BC7
:104C600006D0786800F08AFB03467A6913437B61BB
:104C70007B7CC3F34013DBB2002B06D0786800F0D6
:104C80001FFC03467A6913437B61BB7CC3F30013AB
:104C9000DBB2002B06D0786800F04EFC03467A6940
:104CA00013437B61BB7CC3F34013DBB2002B06D004
:104CB000786800F05DFC03467A6913437B617B6989
:104CC00018461837BD4680BD80B586B000AF786005
:104CD0007B689B7A002B11D07B6803F586731B6879
:104CE000FB603B7B6FF341033B733B7B6FF3000344
:104CF0003B737B68D3F80C31FA681A6000233B6180
:104D00003B7C43F001033B747B681B697A68126942
:104D100051683A69D2430A405A6040F27C03C2F2B9
:104D200000031B689B697868984700237B61FB7DC3
:104D300043F08003FB757B68DB687A695A61012365
:104D400018461837BD4680BD80B586B000AF786084
:104D500040F27C03C2F200031B685B6978689847E5
:104D60007B681B699B68FB6000237B617B7D43F054
:104D700008037B757B68DB687A695A617B689B7A7C
:104D8000002B2FD03B7BC3F30003DBB2012B29D1D7
:104D900000233B613B7C43F001033B747B68D3F809
:104DA0000C317A68D2F80C2111683A690A431A600A
:104DB0003B7C43F002033B747B68D3F80C317A6888
:104DC000D2F80C2111683A690A431A604FF46D4316
:104DD000CEF200034FF46D42CEF20002126942F0AF
:104DE00006021A61012318461837BD4680BD00BF70
:104DF00080B586B000AF786000233B610023BB60C4
:104E00007868FCF7DDFA7861DFE07B6903F0010385
:104E1000002B00F0D4803B69DBB27868194600F0C3
:104E2000C3FB0346BB603B7AC3F30003DBB2002B3A
:104E300035D03B69012202FA03F3FB607B681B69F2
:104E40007A681269516BFA68D2430A405A630023A8
:104E5000BB603B7A43F001033B727A683B690433E1
:104E60009B0013449B68BA689A6040F27C03C2F2CC
:104E700000031B685B683A69D2B2786811469847AC
:104E80007B68DB78012B0AD13B69002B07D17B685B
:104E900093F81131042B02D17868FCF7A7FA3B7A1A
:104EA000C3F38003DBB2002B0DD00023BB603B7A41
:104EB00043F004033B727A683B6904339B0013445C
:104EC0009B68BA689A603B7AC3F3C003DBB2002BDD
:104ED0000DD00023BB603B7A43F008033B727A6835
:104EE0003B6904339B0013449B68BA689A603B7A21
:104EF000C3F30013DBB2002B0DD00023BB603B7A61
:104F000043F010033B727A683B6904339B001344FF
:104F10009B68BA689A603B7AC3F34013DBB2002BFC
:104F20000DD00023BB603B7A43F020033B727A68CC
:104F30003B6904339B0013449B68BA689A603B7AD0
:104F4000C3F38013DBB2002B0DD00023BB603B7A90
:104F500043F040033B727A683B6904339B0013447F
:104F60009B68BA689A603B7AC3F34003DBB2002BBC
:104F70000DD00023BB603B7A43F002033B727A689A
:104F80003B6904339B0013449B68BA689A603B7A80
:104F9000C3F3C013DBB2002B11D07868396900F07D
:104FA0007BF90023BB603B7A43F080033B727A6855
:104FB0003B6904339B0013449B68BA689A603B6961
:104FC00001333B617B695B087B617B69002B7FF46C
:104FD0001CAF012318461837BD4680BD80B586B08A
:104FE00000AF786000233B610023FB607868FCF72A
:104FF000B5F97861A9E07B6903F00103002B00F0AB
:105000009E803B69DBB278681946FCF7BDF9034620
:10501000FB603B7BC3F30003DBB2002B4BD00023D0
:10502000FB603B7B43F001033B737A683B691433BD
:105030009B0013445B68FA689A607B68DB78012BFD
:105040001FD17A683B6914339B0013445B681B696A
:10505000BB6079683A6913469B001344DB000B443C
:1050600003F55E731A68BB68C3F31203D11A78683C
:105070003A6913469B001344DB00034403F5627353
:10508000196040F27C03C2F200031B681B683A6996
:10509000D2B27868114698477B68DB78012B0AD139
:1050A0003B69002B07D17B6893F81131052B02D1A6
:1050B0007868FCF79BF93B7BC3F34003DBB2002B22
:1050C0000DD00023FB603B7B43F002033B737A6807
:1050D0003B6914339B0013445B68FA689A603B7B1E
:1050E000C3F38003DBB2002B0DD00023FB603B7BBE
:1050F00043F004033B737A683B6914339B00134409
:105100005B68FA689A603B7BC3F3C003DBB2002B99
:1051100015D040F27C03C2F200031B689B687868DC
:1051200098470023FB603B7B43F008033B737A689E
:105130003B6914339B0013445B68FA689A603B69CF
:1051400001333B617B695B087B617B69002B7FF4EA
:1051500052AF012318461837BD4680BD80B584B0D4
:1051600000AF786040F27C03C2F200031B68DB688A
:10517000786898470023FB603B7B43F008033B7350
:105180007B68DB68FA685A61012318461037BD4610
:1051900080BD00BF80B586B000AF786000233B6162
:1051A0003B7C43F010033B747B68DB687A68D26811
:1051B00091693A69D2430A409A617B68DB681B6A4D
:1051C000FB603B7BC3F30303DBB21A4613469B0031
:1051D0001344DB0003F55C737A6813447B61BB7B8B
:1051E000C3F34303DBB2013B052B46D801A252F8BF
:1051F00023F000BF7B5200080D5200087B520008CC
:105200007B5200087B52000857520008BB89C3F349
:105210000A139BB2002B1DD07B69DA68BB89C3F3EC
:105220000A139BB2786811461A46FBF751F87B695E
:10523000DA68BB89C3F30A139BB21A447B69DA604C
:105240007B699A69BB89C3F30A139BB21A447B69D1
:105250009A6113E012E07B6803F5B9637868194638
:105260000822FBF735F87B699A69BB89C3F30A13F7
:105270009BB21A447B699A6100E000BF7B68DB68DF
:105280007A68D26891693A690A439A61012318469B
:105290001837BD4680BD00BF80B586B000AF7860CE
:1052A000396000237B610023BB603A6813469B0092
:1052B0001344DB0003F58C737A681344FB60FB68CE
:1052C0005A69FB689B69D31A7B61FB689A687B69A2
:1052D0009A4202D2FB689B687B617B6903339B081F
:1052E0003B617A683B6804339B0013449B689B696D
:1052F000BB602EE0FB685A69FB689B69D31A7B612F
:10530000FB689A687B699A4202D2FB689B687B6162
:105310007B6903339B083B61FB68D9683B68DAB261
:105320007B699BB27868FAF79BFFFB68DA687B6958
:105330001A44FB68DA60FB689A697B691A44FB6867
:105340009A617A683B6804339B0013449B689B69AD
:10535000BB603B891A463B699A4209D9FB689A6946
:10536000FB685B699A4203D2FB685B69002BC1D181
:10537000012318461837BD4680BD00BF80B58AB0EE
:1053800000AF786000233B6100233B620023FB6198
:105390000023BB6100237B610023FB603B7C43F067
:1053A00001033B747B681B697A68126951683A692A
:1053B000D2430A405A6078680021FBF797F900232E
:1053C0007B6212E07A687B6A04339B0013449B681B
:1053D000FF229A607A687B6A14339B0013445B68EF
:1053E000FF229A607B6A01337B627B685B781A4696
:1053F0007B6A9A42E6D87B681B694FF0FF329A615C
:105400003B8C012262F30F033B847B8C012262F30D
:105410000F037B847B681B693A6ADA613B7F43F048
:1054200008033B773B7F43F001033B773B7F43F02F
:1054300004033B773B7F43F002033B777B681B69A8
:10544000FA695A613B7E43F001033B763B7E43F0B1
:1054500008033B763B7E43F002033B763B7E43F002
:1054600004033B763B7E43F020033B767B681B695D
:10547000BA691A617B681B691B687B61BB8A6FF321
:105480000A13BB827B681B697A691A607868FBF72C
:10549000ADFF0023FB607B7B43F010037B737B68D5
:1054A000DB68FA685A6140F27C03C2F200031B68B1
:1054B0001B6978689847012318462837BD4680BD88
:1054C00080B584B000AF78607868FBF7ADFB7B688F
:1054D000DB68DB68BB607868FBF782FB0346032B65
:1054E0000CD17B6800229A707B684FF400729A801E
:1054F0007B7A092262F385037B720AE07B680122D2
:105500009A707B6840229A807B7A052262F3850339
:105510007B727B68DB68BA68DA600023FB607B7BA8
:1055200043F020037B737B68DB68FA685A610123D0
:1055300018461037BD4680BD80B584B000AF786096
:105540000023FB6040F27C03C2F200031B68DB69AE
:1055500078689847BB7B43F01003BB737B68DB68BC
:10556000FA685A61012318461037BD4680BD00BF56
:1055700080B584B000AF78600023FB6040F27C030C
:10558000C2F200031B681B6A78689847BB7B43F034
:105590002003BB737B68DB68FA685A6101231846F5
:1055A0001037BD4680BD00BF80B487B000AF7860C3
:1055B0000B46FB707B681B691B697B617B681B6901
:1055C0005B6B3B61FB783A6922FA03F3DB01DBB2E8
:1055D0007A6913437B61FB787A6804339B00134438
:1055E0009B689A687B691340FB60FB6818461C3710
:1055F000BD465DF8047B704780B483B000AF78602F
:1056000039600C37BD465DF8047B704780B400AF4D
:1056100000231846BD465DF8047B704780B584B012
:1056200000AF78600B46FB707B68D3F8EC353933FC
:105630001B88786881211A46022300F0D5FC7B681C
:10564000D3F8EC3540331B88786801211A460223D1
:1056500000F0CAFC786882210822032300F0C4FC11
:1056600040F2AC03C2F20003FB60FB680433022289
:105670001A70FB68053300221A7040F2D803C2F298
:1056800000031B6898477B68D3F8EC3540331B88D0
:105690007868012140F6C012C2F2000200F02AFD33
:1056A000002318461037BD4680BD00BF80B582B0CC
:1056B00000AF78600B46FB707868812100F0E2FC57
:1056C0007868012100F0DEFC7868822100F0DAFCC5
:1056D00040F2D803C2F200035B68984700231846E3
:1056E0000837BD4680BD00BF80B584B000AF78608C
:1056F00039603B681B7803F06003002B54D0202BEB
:105700004CD13B68DB88002B3BD03B681B78DBB27D
:105710005BB2002B1ADA40F2D803C2F200039B6896
:105720003A68527811463A68D288084640F6002115
:10573000C2F2000198473B68DB88786840F6002198
:10574000C2F200011A4600F0E3FD25E03B685B78F9
:105750001A4640F24413C2F200031A603B68DB8829
:105760001A4640F2FC13C2F200031A603B68DB8861
:10577000786840F60021C2F200011A4600F0FCFDF4
:105780000AE040F2D803C2F200039B683A685278FC
:105790001046002100229847002340E078683968CD
:1057A000FFF76AF902233AE03B685B780A2B18D0CE
:1057B0000B2B1FD0062B31D13B685B881B0A9BB299
:1057C000212B07D1184BBB603B68DB883A2B28BFE5
:1057D0003A23FB81FB897868B9681A4600F098FD86
:1057E0001CE0786840F2E811C2F20001012200F0EA
:1057F0008FFD13E03B685B88DBB2002B09D13B686F
:105800005B88DBB21A4640F2E813C2F200031A606A
:1058100003E078683968FFF72FF900BF00231846C6
:105820001037BD4680BD00BF1201002090B583B087
:1058300000AF786040F24413C2F200031B68FF2BF4
:105840001BD040F2D803C2F200039C6840F244131C
:10585000C2F200031A6840F2FC13C2F200031B6894
:10586000104640F60021C2F200011A46A04740F25D
:105870004413C2F20003FF221A60002318460C37BB
:10588000BD4690BD80B584B000AF78600B46FB701C
:1058900040F2F813C2F200031B78012B75D140F2DD
:1058A000F413C2F200031B68002B06D140F2F81378
:1058B000C2F2000300221A7067E07B68D3F8EC356F
:1058C00039331B881A4640F2F413C2F200031B68F6
:1058D0009A422DD240F2F013C2F200031B68FB8102
:1058E0007B68D3F8EC35B3F83930BB817B68D3F8EB
:1058F000EC3539331B881A4640F2F013C2F200032C
:105900001B681A4440F2F013C2F200031A6040F21E
:10591000F413C2F200031A687B68D3F8EC3539330C
:105920001B88D21A40F2F413C2F200031A6021E07D
:1059300040F2F013C2F200031B68FB8140F2F41343
:10594000C2F200031B68BB8140F2F013C2F20003F5
:105950001A6840F2F413C2F200031B681A4440F2C2
:10596000F013C2F200031A6040F2F413C2F2000313
:1059700000221A60FA8940F60823C2F200031A4492
:10598000BB897868812100F0F5FB002318461037A9
:10599000BD4680BD80B584B000AF78600B46FB701B
:1059A000FA78796813469B001344DB000B4403F537
:1059B00062731B68FB8140F2D803C2F200031B69CB
:1059C000FA8940F6C010C2F20000114698477B6881
:1059D000D3F8EC3540331B887868012140F6C012BB
:1059E000C2F2000200F086FB002318461037BD46C5
:1059F00080BD00BF80B582B000AF786040F2002368
:105A0000C2F200031B681A46511C40F20023C2F286
:105A100000031960052A08D140F20023C2F20003F6
:105A200000221A60786800F005F80023184608374D
:105A3000BD4680BD80B584B000AF786040F2F813F9
:105A4000C2F200031B78012B00F0B88040F2F01383
:105A5000C2F200031B68B3F5006F05D140F2F013EA
:105A6000C2F2000300221A6040F2F013C2F20003F7
:105A70001A6840F2EC13C2F200031B689A4206D186
:105A800040F2F813C2F2000300221A7096E040F2CE
:105A9000F013C2F200031A6840F2EC13C2F20003E2
:105AA0001B689A420CD940F2F013C2F200031B6843
:105AB000C3F5006240F2F413C2F200031A600FE073
:105AC00040F2EC13C2F200031A6840F2F013C2F283
:105AD00000031B68D21A40F2F413C2F200031A60EA
