:020000040800F2
:10000000A01E002059190008F52000080121000851
:100010000D2100081921000825210008000000001A
:100020000000000000000000000000003121000876
:100030003D2100080000000049210008552100086A
:10004000B9190008B9190008B9190008B919000848
:10005000B9190008B9190008B9190008B919000838
:10006000B9190008B9190008B9190008491700089A
:10007000B9190008B9190008B9190008B919000818
:10008000B9190008B9190008B9190008B919000808
:10009000B9190008B9190008B9190008B9190008F8
:1000A000B9190008B9190008B9190008B9190008E8
:1000B000B9190008B9190008F5210008B919000894
:1000C000B9190008B9190008B9190008B9190008C8
:1000D000B9190008B95200087D53000841540008BE
:1000E000B9190008B9190008B1210008B9190008A8
:1000F000CD220008B9190008B91900083D170008F9
:10010000B9190008212600086122000855170008C7
:10011000B9190008B9190008B9190008B919000877
:10012000B9190008B9190008B91900082D260008E6
:10013000B9190008B9190008B9190008B919000857
:10014000B9190008B9190008B91900089D2100085B
:10015000B9190008B9190008B9190008B919000837
:10016000B9190008B9190008B9190008B919000827
:10017000B9190008B9190008B9190008B919000817
:10018000B9190008B919000880B485B000AF7860CB
:100190000023FB607B68DB684FF0FF325A607B68AE
:1001A000DB684FF0FF325A61FB7B43F08003FB7347
:1001B0007B7B43F008037B737B68DB68FA689A619A
:1001C0001437BD465DF8047B704700BF80B586B02C
:1001D00000AF78600023FB7400237B610023FB6089
:1001E000032002F0C7FE7B68DB681B69FB607B694C
:1001F00001337B617A694FF45463C0F203039A427E
:1002000001D9002328E0FB68C3F3C073DBB2002BE5
:10021000E6D000237B61FB6843F00103FB607B6851
:10022000DB68FA681A617B68DB681B69FB607B69C5
:1002300001337B617A694FF45463C0F203039A423D
:1002400000D905E0FB68C3F30003DBB2012BEAD061
:10025000032002F08FFEFB7C18461837BD4680BD98
:1002600080B489B000AFF860B960FA71BB80002338
:10027000FB76FB68DB78002B23D100237B61002316
:10028000FB61BB880333DA1C002BB8BF13469B10FD
:100290007B61FB79FA6832339B0013449B683B61B6
:1002A0000023FB6109E0BB681A683B691A60FB69BF
:1002B0000133FB61BB680433BB60FA697B699A4216
:1002C000F1D3FB7E18462437BD465DF8047B7047AA
:1002D00080B489B000AFF860B9601346FB8000239A
:1002E000FB61FB880333DA1C002BB8BF13469B105D
:1002F000BB61FB68D3F8D0307B610023FB6109E070
:100300007B691A68BB681A60FB690133FB61BB68D3
:100310000433BB60FA69BB699A42F1D3BB681846E3
:100320002437BD465DF8047B704700BF80B487B0BA
:1003300000AF78600B46FB7000233B610023FB732A
:100340007B680022DA707B6801229A707B68402209
:100350009A80FB78012B13D14FF0A0433B617B685F
:100360000122DA727B6808221A707B6804225A70B4
:100370007B684FF4A072DA807B6802221A7213E065
:10038000FB78002B10D10023C4F204033B617B688F
:100390000022DA727B680C221A707B6806225A707F
:1003A0007B684FF4A062DA803A697B68DA603B6967
:1003B00003F500631A467B681A6100237B611CE029
:1003C0007B695A013B69134403F510631A46796847
:1003D0007B6904339B000B449A607B695A013B693B
:1003E000134403F530631A4679687B6914339B0024
:1003F0000B445A607B6901337B617B685B781A46EA
:100400007B699A42DCD83B6903F580631A467B68B6
:100410005A613B6903F588631A467B68C3F8CC20B0
:1004200000237B610FE07B695A013B69134403F5AC
:10043000A0631A4679687B6922339B000B449A605B
:100440007B6901337B617B681B781A467B699A4222
:10045000E9D800237B610FE07B691A033B691344F1
:1004600003F580531A4679687B6932339B000B444D
:100470009A607B6901337B617B681B781A467B69D4
:100480009A42E9D83B6903F560631A467B68C3F872
:100490000C21FB7B18461C37BD465DF8047B70477A
:1004A00080B588B000AF78600023FB770023BB6184
:1004B00000237B610023FB607B681B7A012B4FD1FB
:1004C0007B68DB689B6B7B61BB7D6FF30003BB7557
:1004D0007B685B7A002B03D0BB7D43F01003BB75B8
:1004E0007B68DB687A699A630023BB617B68DB68A1
:1004F000DB68BB613B7E6FF386133B76BB7E6FF39D
:100500008613BB763B7E43F010033B763B7E6FF356
:10051000C3033B763B7E6FF3C7133B76BB7E6FF323
:100520004103BB76BB7E6FF3C303BB767B68DB689E
:10053000BA69DA607868FFF749FE7B68DB78012BDF
:1005400040F082803B7B052262F344033B733B7B9C
:1005500043F020033B737B68DB68FA689A6073E0C2
:100560007B68DB68DB68BB613B7E43F040033B7626
:100570007B68DB68BA69DA607868FFF727FE0023DA
:100580007B61BB7D43F00103BB757B681B7A032B4A
:1005900003D1BB7D43F00203BB75BB7D43F0040375
:1005A000BB75BB7D43F00803BB75BB7D43F02003E7
:1005B000BB757B685B7A002B03D0BB7D43F01003D7
:1005C000BB757B68DB687A699A63142002F0F8FCDB
:1005D0007B68DB68DB68BB617B681B7A032B03D11C
:1005E000BB7E43F00103BB767B68DB68BA69DA60E7
:1005F0007B681B7A032B27D17B68DB681B6B3B6115
:10060000FB7C012262F38303FB74BB7C6FF3C71393
:10061000BB74FB7C43F01003FB74BB7C2D2262F3A4
:100620000603BB747B68DB683A691A63C82002F072
:10063000C7FCBB7C43F08003BB747B68DB683A6912
:100640001A63C82002F0BCFC7B68DB78012B10D158
:100650007B68DB689B68FB603B7B052262F344039D
:100660003B733B7B43F020033B737B68DB68FA689A
:100670009A60FB7F18462037BD4680BD80B485B0A8
:1006800000AF78600023FB730023BB603B7A43F02C
:1006900001033B727B68DB687A68D2689168BA684C
:1006A0000A439A60FB7B18461437BD465DF8047B0D
:1006B000704700BF80B485B000AF78600023FB7343
:1006C0000023BB603B7A43F001033B727B68DB682D
:1006D0007A68D2689168BA68D2430A409A60FB7B14
:1006E00018461437BD465DF8047B704780B586B068
:1006F00000AF786039600023FB7400237B61002326
:10070000FB60FB6843F02003FB603B68DBB203F057
:100710001F03DAB2FB6862F38A13FB607B68DB6855
:10072000FA681A617B68DB681B69FB607B690133CF
:100730007B617A694FF45463C0F203039A4200D993
:1007400005E0FB68C3F34013DBB2012BEAD00320C2
:1007500002F010FCFB7C18461837BD4680BD00BF78
:1007600080B586B000AF78600023FB7400237B6106
:100770000023FB60FB6843F01003FB607B68DB68D1
:10078000FA681A617B68DB681B69FB607B6901336F
:100790007B617A694FF45463C0F203039A4200D933
:1007A00005E0FB68C3F30013DBB2012BEAD00320A2
:1007B00002F0E0FBFB7C18461837BD4680BD00BF49
:1007C00080B584B000AF78600B46FB700023FB73EC
:1007D0007B68DB68DB68BB60FB7A6FF34513FB72F9
:1007E000FB7A6FF38613FB72FB78012B04D1FB7A43
:1007F00043F02003FB7206E0FB78002B03D1FB7A69
:1008000043F04003FB727B68DB68BA68DA60322031
:1008100002F0D6FBFB7B18461037BD4680BD00BFFB
:1008200080B483B000AF78607B68DB685B6903F0FD
:10083000010318460C37BD465DF8047B704700BFC6
:1008400080B582B000AF78607868FFF7E9FF0346B3
:10085000012B0CBF00230123DBB218460837BD462D
:1008600080BD00BF80B485B000AF78600023FB601E
:100870007B68DB685B69FB607B68DB689B69FA68A7
:100880001340FB60FB6818461437BD465DF8047BD7
:10089000704700BF80B485B000AF78600B46FB7036
:1008A0007B681B691B68FB60FB7803F00303DAB20B
:1008B0003B7B62F301033B737B681B69FA681A6038
:1008C0001437BD465DF8047B704700BF80B58CB01F
:1008D00000AF7860002387F82B3000237B62002371
:1008E0003B620023FB610023BB6100237B617B68CB
:1008F000D3F80C3100221A607B681B691B683B62CD
:1009000097F821306FF3C40387F821307B681B69A7
:100910003A6A1A607B68DB7A012B40D17868032140
:10092000FFF7B8FF7B68DB6880225A62FB8B4022AE
:1009300062F30F03FB83BB8B802262F30F03BB8345
:100940007B68DB68FA699A62BA8BFB8B13449BB2B3
:100950003B837B8B802262F30F037B837B68DB68A6
:10096000BA69C3F804213A8B7B8B13449BB23B8357
:100970007B8B6FF30F037B837B68DB68BA69C3F8FB
:1009800008213A8B7B8B13449BB23B837B8B6FF3A9
:100990000F037B837B68DB68BA69C3F80C21786836
:1009A0001021FFF7A3FE7868FFF7DAFE7B681B696A
:1009B00000221A617B681B6900225A617B681B69EF
:1009C0004FF0FF329A617B681B690022DA610023D5
:1009D000FB623AE07A68FB6A04339B0013449B682D
:1009E0001B687B6297F82730C3F3C013DBB2002B80
:1009F0000ED000237B6297F8273043F0400387F83E
:100A0000273097F8273043F0080387F8273001E0B4
:100A100000237B627A68FB6A04339B0013449B6863
:100A20007A6A1A607A68FB6A04339B0013449B68F5
:100A300000221A617A68FB6A04339B0013449B68A6
:100A4000FF229A60FB6A0133FB627B685B781A467F
:100A5000FB6A9A42BED80023FB6235E07A68FB6AE3
:100A600014339B0013445B681B68FB60FB7BC3F380
:100A7000C013DBB2002B0AD00023FB60FB7B43F0EA
:100A80004003FB73FB7B43F00803FB7301E000238F
:100A9000FB607A68FB6A14339B0013445B68FA6856
:100AA0001A607A68FB6A14339B0013445B68002267
:100AB0001A617A68FB6A14339B0013445B68FF2257
:100AC0009A60FB6A0133FB627B685B781A46FB6ABB
:100AD0009A42C3D800237B617B7D43F001037B7581
:100AE0007B681B697A68126911697A69D24311407F
:100AF0007A690A431A617B68DB78012B1BD10023DA
:100B00003B613B7C43F001033B743B7C43F00203BD
:100B10003B743B8A402262F38A033B82BB7C43F0F6
:100B20000103BB747B8A402262F349037B827B68AA
:100B30001B693A691A63786800F006F897F82B3059
:100B400018463037BD4680BD80B584B000AF7860B0
:100B50000023FB730023BB607B68DB6800229A6183
:100B60007B68DB684FF0FF325A617868FFF70CFB57
:100B70007B68DB78002B03D13B7A43F010033B7298
:100B80007B7A43F008037B727B7A43F010037B721D
:100B90007B7A43F020037B72BB7A43F00403BB7281
:100BA000BB7A43F00803BB723B7A43F008033B7205
:100BB000BB7A43F01003BB72BB7A43F02003BB72D5
:100BC0007B68DB687A68D2689169BA68D243114061
:100BD000BA680A439A61FB7B18461037BD4680BD50
:100BE00080B485B000AF78600023FB737B681B691D
:100BF0009B68BB603B7AC3F34103DBB2022B09D095
:100C0000032B04D0012B02D00323FB7305E0022346
:100C1000FB7302E00123FB7300BFFB7B1846143714
:100C2000BD465DF8047B704780B487B000AF786044
:100C30000023FB750023BB607B681B699B683B61DD
:100C40007B689B691B68FB603B7CC3F34103DBB2A1
:100C5000022B04D0BB896FF30A03BB8105E0BB897B
:100C6000032262F30A03BB8100BF7B689B69FA68B9
:100C70001A607B7A43F001037B727B681B697A6898
:100C800012695168BA68D2431140BA680A435A607F
:100C9000FB7D18461C37BD465DF8047B704700BFDE
:100CA00080B487B000AF786039600023FB74002304
:100CB000FB600023BB603B685B78012B0FD13B6876
:100CC0001B787A6804339B0013449B687B613B6804
:100CD0001B78012202FA03F39BB23B810EE03B68D2
:100CE0001B787A6814339B0013445B687B613B6814
:100CF0001B78012202FA03F39BB27B817B691B689C
:100D0000FB607B7BC3F3C013DBB2002B27D13B68B6
:100D10009B689BB2C3F30A039AB2BB8962F30A03CE
:100D2000BB813B68DB7803F00303DAB2BB7B62F381
:100D30008303BB733B68DB88DBB203F00F03DAB2DB
:100D4000FB8962F38913FB81FB7B43F01003FB7388
:100D50007B7B43F080037B73FA687B691A607B6856
:100D60001B697A681269D169BA680A43DA61FB7C47
:100D700018461C37BD465DF8047B704780B487B0C9
:100D800000AF786039600023FB740023FB60002310
:100D9000BB603B685B78012B0FD13B681B787A689E
:100DA00004339B0013449B687B613B681B780122E2
:100DB00002FA03F39BB23B810EE03B681B787A6832
:100DC00014339B0013445B687B613B681B780122F2
:100DD00002FA03F39BB27B817B7B6FF3C7137B73B8
:100DE000FA687B691A607B681B697A681269D16945
:100DF000BA68D2430A40DA61FB7C18461C37BD460C
:100E00005DF8047B704700BF80B588B000AF7860A4
:100E100039600023FB770023BB6100237B61002343
:100E20003B613B685B78012B40F0AB803B681B78F3
:100E30007A6804339B0013449B681B687B613B68A2
:100E40001B787A6804339B0013449B681B693B61E1
:100E50003B685B69002B09D13B696FF312033B616F
:100E60007B8A012262F3CC037B8222E03B685B69D0
:100E7000C3F312023B6962F312033B613B685A6998
:100E80003B689B6813445A1E3B689B68B2FBF3F3B4
:100E90009BB2C3F309039AB27B8A62F3CC037B82D1
:100EA0003B68DB78012B04D1FB7C012262F3461303
:100EB000FB743B681B787A6804339B0013449B687F
:100EC0003A691A617B68DB78012B0AD13B681B7891
:100ED0007A6804339B0013449B683A6812695A612C
:100EE00015E03B68DB78012B11D03B685B69002B78
:100EF0000DD03B681B78012202FA03F3BB617B68CB
:100F00001B697A681269516BBA690A435A633B6874
:100F1000DB78012B14D17B681B699B68FB60FB6845
:100F2000C3F30D239BB203F00103002B04D1FB7D1F
:100F300043F02003FB7503E0FB7D43F01003FB75DA
:100F4000FB7D43F00403FB75FB7D43F08003FB75E1
:100F50003B681B787A6804339B0013449B687A696A
:100F60001A603B68DB78012B40F088803B68D968C9
:100F70003B681A783B685B699BB27868FFF770F949
:100F80007CE03B681B787A6814339B0013445B68F1
:100F90001B687B613B681B787A6814339B001344A1
:100FA0005B681B693B613B685B69002B0DD13B684B
:100FB0009B68C3F312023B6962F312033B617B8AB5
:100FC000012262F3CC037B821FE03B685A693B68D5
:100FD0009B6813445A1E3B689B68B2FBF3F39BB2B9
:100FE000C3F309039AB27B8A62F3CC037B827B8AC8
:100FF000C3F3C9039BB23A68926802FB03F3C3F3DD
:1010000012023B6962F312033B613B681B787A680A
:1010100014339B0013445B683A691A617B68DB7880
:10102000012B09D13B681B787A6814339B00134469
:101030005B683A6812695A613B68DB78012B0CD116
:101040003B685B79002B04D0FB7D43F02003FB75EC
:1010500003E0FB7D43F01003FB75FB7D43F00403CD
:10106000FB75FB7D43F08003FB753B681B787A685A
:1010700014339B0013445B687A691A60FB7F18463F
:101080002037BD4680BD00BF80B489B000AF786016
:1010900039600023FB770023BB6100233B61002301
:1010A000BB603B685B78012B6FD17B689B697B6180
:1010B0007B691B683B617B691B69BB603B685B6943
:1010C000002B09D13B7A6FF306033B72BB7A0122F6
:1010D00062F3C403BB7223E03B685A693B689B68B8
:1010E0009A420ED93B689A683B685A613B689B6894
:1010F000DBB203F07F03DAB23B7A62F306033B72A2
:1011000009E03B685B69DBB203F07F03DAB23B7A4C
:1011100062F306033B72BB7A012262F3C403BB7223
:10112000BA687B691A617B68DB78012B09D13B685F
:101130001B787A6804339B0013449B683A681269F1
:101140005A61FB7C43F00403FB74FB7C43F0800397
:10115000FB743A697B691A607B68DB78002B75D178
:101160003B685B69002B71D03B681B78012202FA57
:1011700003F3BA691343BB617B681B697A68126920
:10118000516BBA690A435A6360E03B681B787A681E
:1011900014339B0013445B681B683B613B681B78FE
:1011A0007A6814339B0013445B681B69BB603B681F
:1011B0005B69002B0FD13B689B68DBB203F07F03B8
:1011C000DAB23B7A62F306033B72BB7A012262F326
:1011D000C403BB7212E03B689A683B685A613B6883
:1011E0009B68DBB203F07F03DAB23B7A62F306035B
:1011F0003B72BB7A012262F3C403BB723B681B786B
:101200007A6814339B0013445B68BA681A617B6880
:10121000DB78012B09D13B681B787A6814339B007B
:1012200013445B683A6812695A61FB7C43F004031B
:10123000FB74FB7C43F08003FB743B681B787A688B
:1012400014339B0013445B683A691A60FB7F1846AD
:101250002437BD465DF8047B704700BF80B487B07B
:1012600000AF786039600023FB750023FB603B68AA
:101270005B78012B1CD13B681B787A6804339B0098
:1012800013449B683B613B691B68FB60FB7BC3F3BA
:10129000C013DBB2002B03D0FB7B43F04003FB7396
:1012A000BB7B43F02003BB73FA683B691A6011E013
:1012B0003B681B787A6814339B0013445B683B617E
:1012C0003B691B68FB60BB7B43F02003BB73FA6880
:1012D0003B691A60FB7D18461C37BD465DF8047BF0
:1012E000704700BF80B487B000AF786039600023DA
:1012F000FB740023FB603B685B78012B08D13B68E3
:101300001B787A6804339B0013449B687B6107E079
:101310003B681B787A6814339B0013445B687B61DD
:101320007B691B68FB60BB7B6FF34513BB733B683A
:10133000DB78032B03D03B68DB78022B03D1FB7BEC
:1013400043F01003FB73FA687B691A60FB7C184654
:101350001C37BD465DF8047B704700BF80B485B084
:1013600000AF78607B681B699B69FB607B681B69C9
:10137000DB69FA681340FB60FB681B0C18461437E6
:10138000BD465DF8047B704780B485B000AF7860DF
:101390000B46FB70FB787A6814339B0013445B6840
:1013A0009B68FB607B681B695B69FA681340FB60A4
:1013B000FB6818461437BD465DF8047B704700BFD4
:1013C00080B485B000AF78607B681B699B69FB6067
:1013D0007B681B69DB69FA681340FB60FB689BB2A2
:1013E00018461437BD465DF8047B704780B487B05B
:1013F00000AF786000233B61FB7C43F0C003FB74CB
:10140000BB7C012262F3C403BB743B7C182262F3F1
:1014100006033B747B685B6D3A691A617B68DB7815
:10142000012B16D10023FB607B685B6D7A6802F5A7
:10143000B9625A617B685B6D1B68FB60FB7B43F0A4
:101440008003FB734FF08023FB607B685B6DFA6861
:101450001A601C37BD465DF8047B704780B485B0C8
:1014600000AF78607B689B7A002B1BD07B681B6980
:101470009B68FB603B7BC3F30003DBB2012B11D104
:101480007B6803F586731B68BB603B7A6FF341038F
:101490003B723B7A6FF300033B727B68D3F80C31ED
:1014A000BA681A601437BD465DF8047B704700BF08
:1014B00080B483B000AF78600B46FB70FB78002BE4
:1014C0000CD04FF43053C4F201034FF43052C4F245
:1014D0000102D16B7A680A43DA630CE04FF43053AF
:1014E000C4F201034FF43052C4F20102D16B7A68A6
:1014F000D2430A40DA630C37BD465DF8047B70477F
:1015000080B485B000AF78600023FB734FF4305394
:10151000C4F201035A6B7B681340002B02D00123F5
:10152000FB7301E00023FB73FB7B18461437BD46B9
:101530005DF8047B704700BF80B483B000AF786073
:101540004FF43053C4F201037A689A630C37BD46F6
:101550005DF8047B704700BF80B400AFBD465DF806
:10156000047B704780B483B000AF0346FB71FB7906
:10157000002B02D0012B02D002E000BF00E000BF30
:101580000C37BD465DF8047B704700BF80B400AFE8
:10159000BD465DF8047B704780B400AFBD465DF882
:1015A000047B704780B400AFBD465DF8047B704794
:1015B00080B400AFBD465DF8047B704780B400AFD7
:1015C000BD465DF8047B704780B500AF40F2300344
:1015D000C2F200031A6840F23C03C2F200031B6827
:1015E0001046194601F0DCFB0346002B00F0A580F5
:1015F00040F22003C2F200031B68002B7DD000BF25
:1016000040F23003C2F200031B68184601F0B0FB41
:101610000346002BF4D140F23003C2F200031A68F3
:1016200040F23C03C2F200031B681046194601F069
:10163000F5FB40F21023C2F200031B681A4640F289
:101640005023C2F200039A6040F22003C2F200036A
:101650001A684FF6FF739A4228BF1A4640F2502389
:10166000C2F200031A6140F23003C2F200031B68A9
:10167000184640F25021C2F2000101F005FB40F291
:101680003003C2F200031B681846012101F054FB2D
:1016900040F21023C2F200031A6840F22003C2F2A3
:1016A000000319684FF6FF73994238BF0B465B0081
:1016B0001A4440F21023C2F200031A6040F22003E1
:1016C000C2F200031A6840F22003C2F20003196854
:1016D0004FF6FF73994238BF0B46D21A40F22003EF
:1016E000C2F200031A6040F23003C2F200031B682A
:1016F0001846012101F020FB1FE040F23003C2F246
:1017000000031B681846002101F016FB40F230036D
:10171000C2F200031A6840F23C03C2F200031B68E5
:101720001046194601F07AFB40F21023C2F2000382
:101730001B681846002102F05FFE80BD80B500AF37
:10174000FFF742FF80BD00BF80B500AFFFF73CFF51
:1017500080BD00BF80B500AF4FF47050C4F20000F0
:10176000022103F051F90346002B17D040F2280361
:10177000C2F200031B68022B06D102F047FE0346AB
:101780000420194600F0CEF802F040FE03464FF464
:101790007050C4F20000194603F028F980BD00BF64
:1017A00080B483B000AF78600B467B807B88C3F346
:1017B00008039AB27B689A800C37BD465DF8047BBB
:1017C000704700BF80B483B000AF78607B689B88AF
:1017D0009BB2C3F308039BB218460C37BD465DF8B5
:1017E000047B704780B487B000AF786013460A4628
:1017F0007A807B7000233B610023FB600023BB6089
:1018000000237B617B687B617B88DBB25B09DBB299
:101810003B617B8803F01F03FB60FB68012202FA37
:1018200003F3BB603B69012B03D17B690C337B6104
:1018300009E03B69022B03D17B6910337B6102E035
:101840007B6914337B617B78002B06D07B697A69D6
:101850001168BA680A431A6006E07B697A69116800
:10186000BA68D2430A401A601C37BD465DF8047B53
:10187000704700BF80B487B000AF78600B467B80B4
:101880000023FB6000237B610023BB600023FB740B
:101890007B88DBB25B09DBB2BB607B8803F01F0394
:1018A0007B617B69012202FA03F37B61BB68012B38
:1018B00006D17B689B899BB27A6913407B610FE0FC
:1018C000BB68022B06D17B681B8A9BB27A691340E6
:1018D0007B6105E07B689B8A9BB27A6913407B61E0
:1018E0007B881B0A9BB2FB60FB68012202FA03F3B0
:1018F000FB607B681B889BB2FA681340FB607B69C6
:10190000002B05D0FB68002B02D00123FB7401E003
:101910000023FB74FB7C18461C37BD465DF8047B36
:10192000704700BF80B485B000AF78600B467B8005
:101930000023FB604FF4E843C4F20003FB60FA6845
:101940007B6813440833FB60FB687A881A6014379D
:10195000BD465DF8047B704780B582B000AF45F2AC
:10196000A853C0F600037B6040F20003C2F20003FC
:101970003B6007E03B681A1D3A607A68111D796088
:1019800012681A603A6840F27C13C2F200039A426D
:10199000F0D3074807494FF000028842B8BF40F82B
:1019A000042BFADB00F090FA0837BD4680BD00003A
:1019B0007C010020A016002080B400AFFEE700BF2D
:1019C00080B584B000AFF8607A603B600B46FB7274
:1019D000F86801F053FAF86800F01CF8FB683A6800
:1019E000C3F8E025FB68BA69C3F8E425FB687A68A8
:1019F000C3F8E825FB7AF868194603F0ABF8FB68F2
:101A0000D3F8E4351B689847F86801F09BFA103763
:101A1000BD4680BD80B483B000AF78600023184617
:101A20000C37BD465DF8047B704700BF80B584B0BD
:101A300000AF786007F108037868194601F0D6FE18
:101A40003B7A03F01F03012B0AD0022B0FD0002B8F
:101A500014D107F108037868194601F0C1FA16E0BD
:101A600007F108037868194601F00AFB0FE007F157
:101A700008037868194601F037FB08E03B7A23F049
:101A80007F03DBB27868194603F0E6F900BF002354
:101A900018461037BD4680BD80B584B000AF786071
:101AA0000B46FB70FB78002B45D17B6803F55C731C
:101AB000FB607B6893F81131032B4FD1FB68DA6927
:101AC000FB689B689A4221D9FB68DA69FB689B68CE
:101AD000D21AFB68DA617B68DB78012B06D1FB68E0
:101AE000DA68FB689B681A44FB68DA60FB68DA68AE
:101AF000FB689968FB68DB69994238BF0B469BB26B
:101B0000786811461A4603F08DFA27E07B68D3F80F
:101B1000E0351B69002B0AD07B6893F81231032B48
:101B200005D17B68D3F8E0351B69786898477868F9
:101B300003F08CFA12E07B68D3F8E0359B69002B48
:101B40000CD07B6893F81231032B07D17B68D3F854
:101B5000E0359B69FA787868114698470023184663
:101B60001037BD4680BD00BF80B584B000AF78603F
:101B70000B46FB70FB78002B60D17B6803F58C7300
:101B8000FB607B6893F81131022B6AD1FB68DA693C
:101B9000FB689B689A421CD9FB68DA69FB689B6802
:101BA000D21AFB68DA617B68DB78012B06D1FB680F
:101BB000DA68FB689B681A44FB68DA60FB68DA68DD
:101BC000FB68DB699BB2786811461A4603F0F6F9A8
:101BD00047E0FB681B6AFA689268B3FBF2F102FB0C
:101BE00001F29B1A002B14D1FB681A6AFB689B68F0
:101BF0009A420ED3FB681A6AFB685B6A9A4208D263
:101C000078680021002203F0D9F9FB6800225A62AB
:101C100027E07B68D3F8E035DB68002B0AD07B68CF
:101C200093F81231032B05D17B68D3F8E035DB68DC
:101C300078689847786803F021FA12E07B68D3F857
:101C4000E0355B69002B0CD07B6893F81231032BD5
:101C500007D17B68D3F8E0355B69FA78786811467C
:101C60009847002318461037BD4680BD80B582B026
:101C700000AF7860786800214022002302F0EAFF7C
:101C8000786880214022002302F0E4FF7B68012273
:101C900083F812217B68D3F8E4355B687A68927820
:101CA00010469847002318460837BD4680BD00BF40
:101CB00080B582B000AF78607B68D3F8E4351B69EB
:101CC00098477B68032283F81221002318460837BF
:101CD000BD4680BD80B582B000AF78607B680422CD
:101CE00083F812217B68D3F8E435DB68984700233A
:101CF00018460837BD4680BD80B582B000AF786019
:101D00007B68D3F8E035DB69002B05D07B68D3F81E
:101D1000E035DB6978689847002318460837BD46E8
:101D200080BD00BF80B582B000AF78600B46FB700D
:101D30007B68D3F8E0351B68FA78786811469847D5
:101D40007B68D3F8E4359B6898470023184608372A
:101D5000BD4680BD80B582B000AF78600B46FB7099
:101D60007B68D3F8E0355B68FA7878681146984765
:101D7000002318460837BD4680BD00BF80B582B03D
:101D800000AF78607B68D3F8E0351B6A78689847C5
:101D9000002318460837BD4680BD00BF80B582B01D
:101DA00000AF78607B68D3F8E0355B6A7868984765
:101DB000002318460837BD4680BD00BF80B483B0FD
:101DC00000AF03463960FB7197F90730002B0EDA3C
:101DD0004FF46D43CEF20003FA7902F00F02111FA7
:101DE0003A68D2B21201D2B20B441A760CE04FF428
:101DF0006143CEF2000397F907103A68D2B212019C
:101E0000D2B20B4483F800230C37BD465DF8047B47
:101E1000704700BF80B582B000AF78607B68B3F1D7
:101E2000807F01D301231AE04EF21003CEF20003AB
:101E30007A6822F07F42013A5A604FF0FF300F215A
:101E4000FFF7BCFF4EF21003CEF2000300229A60AF
:101E50004EF21003CEF2000307221A600023184648
:101E60000837BD4680BD00BF80B582B002AF00F02C
:101E700005FE40F2DC03C2F200031A6844F6D353B5
:101E8000C1F26203A3FB02139B091846FFF7C2FFCE
:101E90000346002B01D000F003F940F20003C2F228
:101EA0000003009340F29020C2F20000012140F2B2
:101EB0008002C2F2000240F23813C2F20003FFF7C0
:101EC0007FFDBD4680BD00BF90B58FB000AF3B1D0C
:101ED00000221A60043300221A60043300221A60C0
:101EE000043300221A60043300221A6004330022F3
:101EF0001A60043300221A60043300221A6004338B
:101F000000221A60043300221A60043300221A608F
:101F1000043300221A60043300221A800233FFF7D0
:101F2000A3FF13E040F27C13C2F2000300221A6008
:101F30003A1D45F20453C0F60003144693E8070027
:101F400084E807003B1D184600F0F8FC40F27C13C3
:101F5000C2F200031B68642BE4DC00BFF6E700BF9D
:101F600080B483B000AF78600B46FB70FB78002B29
:101F70000CD04FF46053C4F202034FF46052C4F229
:101F80000202116B7A680A431A630CE04FF4605343
:101F9000C4F202034FF46052C4F20202116B7A6879
:101FA000D2430A401A630C37BD465DF8047B704784
:101FB00080B483B000AF78600B46FB70FB78002BD9
:101FC0000CD04FF46053C4F202034FF46052C4F2D9
:101FD0000202516B7A680A435A630CE04FF4605373
:101FE000C4F202034FF46052C4F20202516B7A68E9
:101FF000D2430A405A630C37BD465DF8047B7047F4
:1020000080B483B000AF78600B46FB70FB78002B88
:102010000CD04FF46053C4F202034FF46052C4F288
:102020000202516C7A680A435A640CE04FF4605320
:10203000C4F202034FF46052C4F20202516C7A6897
:10204000D2430A405A640C37BD465DF8047B7047A2
:1020500080B483B000AF78600B46FB70FB78002B38
:102060000CD04FF46053C4F202034FF46052C4F238
:102070000202116A7A680A431A620CE04FF4605354
:10208000C4F202034FF46052C4F20202116A7A6889
:10209000D2430A401A620C37BD465DF8047B704794
:1020A00080B483B000AF0123FB8000233B6000BFFE
:1020B0003A68531C3B604AF21F13C0F207039A426E
:1020C000F6D94FF44063C4F20203FA88120392B2C5
:1020D0005A83FB885B00FB80FB880F2B01D901230F
:1020E000FB804FF44063C4F20203FA88120392B2F9
:1020F0001A83DAE780B400AFBD465DF8047B704711
:1021000080B500AFFFF7CCFF80BD00BF80B500AF4A
:10211000FFF7C6FF80BD00BF80B500AFFFF7C0FF6F
:1021200080BD00BF80B500AFFFF7BAFF80BD00BF24
:1021300080B400AFBD465DF8047B704780B400AF4B
:10214000BD465DF8047B704780B400AFBD465DF8C6
:10215000047B704780B400AF40F27C13C2F20003EE
:102160001B685A1C40F27C13C2F200031A6040F252
:102170008013C2F200031B68002B0AD040F28013C8
:10218000C2F200031B685A1E40F28013C2F2000321
:102190001A60BD465DF8047B704700BF80B500AF94
:1021A00040F29020C2F2000001F0E0FB80BD00BFD1
:1021B00080B500AF40F29023C2F200039B7A002B5F
:1021C00013D04EF61053CEF200034EF61052CEF25C
:1021D0000002126822F006021A6000F04FFC40F282
:1021E0009020C2F20000FFF739F94FF4802002F08E
:1021F00027FC80BD80B500AF4FF40060C4F2000042
:10220000012102F063FF0346002B27D04FF4006347
:10221000C4F200031B889BB21B099BB2012B0BD19C
:1022200040F68003C2F200031B685A1C40F680038C
:10223000C2F200031A600AE040F69003C2F2000303
:102240001B685A1C40F69003C2F200031A604FF458
:102250000060C4F20000012102F028FF80BD00BF31
:1022600080B500AF4FF44060C4F20000012102F0DD
:102270002DFF0346002B27D04FF44063C4F2000328
:102280001B889BB21B099BB2012B0BD140F6840328
:10229000C2F200031B685A1C40F68403C2F200031A
:1022A0001A600AE040F68C03C2F200031B685A1C55
:1022B00040F68C03C2F200031A604FF44060C4F28F
:1022C0000000012102F0F2FE80BD00BF80B500AF2A
:1022D0004FF48060C4F20100012102F0F7FE0346D2
:1022E000002B27D04FF48063C4F201031B889BB2FC
:1022F0001B099BB2012B0BD140F69403C2F20003E1
:102300001B685A1C40F69403C2F200031A600AE0EC
:1023100040F68803C2F200031B685A1C40F688038B
:10232000C2F200031A604FF48060C4F20100012180
:1023300002F0BCFE80BD00BF80B483B000AF034696
:102340003960FB713B6812221A8040F29C03C2F292
:10235000000318460C37BD465DF8047B704700BF8C
:1023600080B483B000AF03463960FB713B68042240
:102370001A8040F2BC03C2F2000318460C37BD4677
:102380005DF8047B704700BF80B582B000AF0346A4
:102390003960FB71FB79002B0BD145F21050C0F670
:1023A000000040F63011C2F200013A6801F088FAEC
:1023B0000AE045F23450C0F6000040F63011C2F297
:1023C00000013A6801F07CFA40F63013C2F20003D3
:1023D00018460837BD4680BD80B582B000AF0346C1
:1023E0003960FB7145F25850C0F6000040F63011DC
:1023F000C2F200013A6801F063FA40F63013C2F20B
:10240000000318460837BD4680BD00BF80B582B0C6
:1024100000AF03463960FB71FB79002B0BD145F20D
:102420006C50C0F6000040F63011C2F200013A686C
:1024300001F046FA0AE045F27C50C0F6000040F692
:102440003011C2F200013A6801F03AFA40F6301356
:10245000C2F2000318460837BD4680BD80B582B081
:1024600000AF03463960FB71FB79002B0BD145F2BD
:102470008C50C0F6000040F63011C2F200013A68FC
:1024800001F01EFA0AE045F28C50C0F6000040F65A
:102490003011C2F200013A6801F012FA40F630132E
:1024A000C2F2000318460837BD4680BD80B582B031
:1024B00000AF03463960FB71FB79002B0BD145F26D
:1024C0009850C0F6000040F63011C2F200013A68A0
:1024D00001F0F6F90AE045F29850C0F6000040F627
:1024E0003011C2F200013A6801F0EAF940F6301307
:1024F000C2F2000318460837BD4680BD80B500AF64
:102500004FF48070FEF7FCFF0346002B10D040F222
:10251000C013C2F2000300221A704FF48070FFF75C
:102520000BF840F2C413C2F2000301221A6050E01B
:102530000220FEF7E5FF0346002B09D00220FEF73C
:10254000FBFF40F2C013C2F2000302221A7040E007
:102550000820FEF7D5FF0346002B09D00820FEF720
:10256000EBFF40F2C013C2F2000304221A7030E005
:102570002020FEF7C5FF0346002B09D02020FEF7E0
:10258000DBFF40F2C013C2F2000306221A7020E003
:102590001020FEF7B5FF0346002B09D01020FEF7F0
:1025A000CBFF40F2C013C2F2000305221A7010E004
:1025B0004FF40070FEF7A4FF0346002B09D04FF440
:1025C0000070FEF7B9FF40F2C013C2F20003072209
:1025D0001A704CF23A300021FEF76AFF40F2C01345
:1025E000C2F200031B78DBB2184680BD80B500AF95
:1025F0004FF4C843C4F202031B6803F0C053002B1E
:102600000DD040F2C813C2F2000301221A6046F254
:102610005840C4F202004FF0C25100F0FFFB80BDF1
:1026200080B500AFFFF76AFF80BD00BF80B500AF87
:10263000FFF7DCFF80BD00BF80B487B000AF7860DB
:10264000396000237B6100233B610023FB60002392
:102650007B6176E07B69012202FA03F33B613B6810
:102660001A683B691340FB60FA683B699A4265D17E
:102670007B681A687B695B00032101FA03F3DB4383
:102680001A407B681A607B681A683B681B79194698
:102690007B695B0001FA03F31A437B681A603B68AD
:1026A0001B79012B03D03B681B79022B2ED17B6851
:1026B0009A687B695B00032101FA03F3DB431A404C
:1026C0007B689A607B689A683B685B7919467B698E
:1026D0005B0001FA03F31A437B689A607B685A68CF
:1026E0007B699BB2012101FA03F3DB431A407B684B
:1026F0005A607B685A683B689B7919467B699BB234
:1027000001FA03F39BB21A437B685A607B68DA686C
:102710007B699BB25B00032101FA03F3DB431A40A0
:102720007B68DA607B68DA683B68DB7919467B692D
:102730005B0001FA03F31A437B68DA607B690133BB
:102740007B617B690F2B85D91C37BD465DF8047B07
:10275000704700BF80B485B000AF786013460A466A
:102760007A807B700023FB600023BB607A787B88D3
:1027700003F007039B0002FA03F3FB607B88DB088E
:102780009BB21A467B88DB089BB219467B680831EE
:1027900053F821107B8803F007039B000F2000FAF9
:1027A00003F3DB4319407B68083243F822107B882F
:1027B000DB089BB21A467B68083253F82220FB687C
:1027C0001343BB607B88DB089BB21A467B680832E8
:1027D000B96843F822101437BD465DF8047B704792
:1027E00080B400AF00231846BD465DF8047B7047F7
:1027F00080B400AF00231846BD465DF8047B7047E7
:1028000080B485B000AFF860B9607A60FB68232BB4
:1028100000F28B8001A252F823F000BF2B290008A0
:102820002B2900082B2900082B2900082B29000838
:102830002B2900082B2900082B2900082B29000828
:102840002B2900082B2900082B2900082B29000818
:102850002B2900082B2900082B2900082B29000808
:102860002B2900082B2900082B2900082B290008F8
:102870002B2900082B2900082B2900082B290008E8
:102880002B2900082B2900082B2900082B290008D8
:102890002B2900082B2900082B2900082B290008C8
:1028A000AD2800082B2900082B29000840F2C0039E
:1028B000C2F200031B68DAB2BB681A70BB685A1C0C
:1028C00040F2C003C2F200031B681B0ADBB21370A4
:1028D000BB689A1C40F2C003C2F200031B681B0CC9
:1028E000DBB21370BB68DA1C40F2C003C2F2000313
:1028F0001B681B0EDBB21370BB681A1D40F2C003CD
:10290000C2F200031B791370BB685A1D40F2C0036A
:10291000C2F200035B791370BB689A1D40F2C003DA
:10292000C2F200039B79137000E000BF0023184639
:102930001437BD465DF8047B704700BF80B584B096
:1029400000AF78600023FB6002E0FB680133FB60AE
:102950007A68FB6813441B78002BF6D17868F96815
:1029600000F004F81037BD4680BD00BF80B485B0CC
:1029700000AF786039600023FB6029E040F2E0138B
:10298000C2F200031A687968FB680B44197840F6B4
:10299000F013C2F20003995440F2E013C2F20003B4
:1029A0001B685A1C40F2E013C2F200031A60FB6875
:1029B0000133FB6040F2E013C2F200031B68B3F581
:1029C000006F05D140F2E013C2F2000300221A604A
:1029D000FA683B689A42D1D3002318461437BD46A3
:1029E0005DF8047B704700BF80B485B000AF7860AD
:1029F00039600023FB6036E040F62C13C2F200037E
:102A00001A687968FB680B44197840F69803C2F29B
:102A10000003995440F62C13C2F200031B685A1CA1
:102A200040F62C13C2F200031A6040F62C13C2F2D7
:102A300000031B68802B05D140F62C13C2F2000363
:102A400000221A6040F62C13C2F200031A6840F606
:102A50001813C2F200031B689A4201D1022307E057
:102A6000FB680133FB60FA683B689A42C4D30023D9
:102A700018461437BD465DF8047B704780B500AF3B
:102A80004FF46053C4F202034FF46052C4F20202E6
:102A9000126842F001021A604FF46053C4F202035C
:102AA00000229A604FF46053C4F202034FF4605264
:102AB000C4F20202126822F0847222F480321A6098
:102AC0004FF46053C4F2020343F21002C2F2004218
:102AD0005A604FF46053C4F202034FF46052C4F2E0
:102AE0000202126822F480221A604FF46053C4F28A
:102AF00002030022DA6000F009F84FF46D43CEF2D1
:102B000000034FF000629A6080BD00BF80B483B0C4
:102B100000AF00237B6000233B604FF46053C4F29E
:102B200002034FF46052C4F20202126842F480328F
:102B30001A604FF46053C4F202031B6803F40033BD
:102B40003B607B6801337B603B68002B03D17B6873
:102B5000B3F5A06FEDD14FF46053C4F202031B68CC
:102B600003F40033002B02D001233B6001E000237B
:102B70003B603B68012B40F082804FF46053C4F20D
:102B800002034FF46052C4F20202126C42F080520F
:102B90001A644FF4E043C4F200034FF4E042C4F27D
:102BA0000002126842F480421A604FF46053C4F28B
:102BB00002034FF46052C4F2020292689A604FF42A
:102BC0006053C4F202034FF46052C4F202029268EE
:102BD00042F400429A604FF46053C4F202034FF48F
:102BE0006052C4F20202926842F4A0529A604FF41A
:102BF0006053C4F2020345F20842C0F240725A60C8
:102C00004FF46053C4F202034FF46052C4F2020264
:102C1000126842F080721A6000BF4FF46053C4F231
:102C200002031B6803F00073002BF6D04FF47053BF
:102C3000C4F2020340F205621A604FF46053C4F21A
:102C400002034FF46052C4F20202926822F00302BF
:102C50009A604FF46053C4F202034FF46052C4F21E
:102C60000202926842F002029A6000BF4FF4605381
:102C7000C4F202039B6803F00C03082BF6D10C3757
:102C8000BD465DF8047B704780B485B000AF7860C6
:102C900039600023FB607B681B68FB60FA6848F2C0
:102CA0003F03CFF21C031340FB603B681A683B688C
:102CB000DB681A433B685B691A433B689B691A43AC
:102CC0003B68DB691A433B681B6A1A433B685B6AD3
:102CD0001A433B689B6A1A433B685B6B1A433B6829
:102CE0009B6B1343FA681343FB607B68FA681A60B6
:102CF0007B685B69FB60FB6823F00703FB603B6854
:102D0000DA6A3B681B6B1343FA681343FB607B680A
:102D1000FA685A613B681A697B685A603B685A686E
:102D20007B689A603B689A687B68DA601437BD46B6
:102D30005DF8047B704700BF80B483B000AF78605B
:102D40000B46FB70FB78002B06D07B681B6843F0BA
:102D500001027B681A6005E07B681B6823F00102B2
:102D60007B681A600C37BD465DF8047B704700BF76
:102D700080B485B000AF78600023FB737B681B686C
:102D800003F00103002B02D00123FB7301E00023B9
:102D9000FB73FB7B18461437BD465DF8047B704718
:102DA00080B487B000AF786039600023FB750023E2
:102DB000FB607A6846F20F43C4F202039A4205D8D8
:102DC0004FF4C043C4F202033B6104E04FF4C84334
:102DD000C4F202033B613B6803F00053002B03D0B5
:102DE0003B695B68FB6002E03B691B68FB60FB685A
:102DF00023F0F02323F08213FB60FA683B68134052
:102E0000002B02D00123FB7501E00023FB75FB7D45
:102E100018461C37BD465DF8047B704780B485B00A
:102E200000AF786039607A6846F20F43C4F202035B
:102E30009A4205D84FF4C043C4F20203FB6004E099
:102E40004FF4C843C4F20203FB603B6803F0005335
:102E5000002B07D03B6823F0F02323F08213FA689D
:102E6000D36006E03B6823F0F02323F08213FA6876
:102E700093601437BD465DF8047B704780B584B01D
:102E800000AF786001200121FFF76AF84FF4D853B2
:102E9000BB6003237B7302233B730023BB730023BC
:102EA000FB7307F108030020C4F202001946FFF784
:102EB000C3FB0020C4F2020008210A22FFF74AFCEB
:102EC0000020C4F2020009210A22FFF743FC00207F
:102ED000C4F202000B210A22FFF73CFC0020C4F2DE
:102EE00002000C210A22FFF735FC4FF48063BB601F
:102EF0000123BB730123FB7303237B7307F10803D7
:102F00000020C4F202001946FFF796FB0020C4F22D
:102F100002000A210A22FFF71DFC4FF48040012124
:102F2000FFF76EF880200121FFF742F84FF0805044
:102F30000121FFF78DF8012001F082FD1037BD4619
:102F400080BD00BF80B584B000AF78604FF4C06032
:102F500001F086FD43233B7301237B730323BB7383
:102F60000123FB7307F10C03184601F08DFD1037A8
:102F7000BD4680BD80B485B000AF78600023FB60A3
:102F80007A6813461B019B1ADB001A4644F6251388
:102F9000C2F29243A3FB0213D21A520813449B08B5
:102FA000BB60FB680133FB60FA68BB689A4200D9DA
:102FB00000E0F6E71437BD465DF8047B704700BFBC
:102FC00080B582B000AF78607B684FF47A7202FB04
:102FD00003F31846FFF7CEFF0837BD4680BD00BF9C
:102FE00080B584B000AF786039600023FB733B6824
:102FF0005B78092B39D801A252F823F04D30000834
:10300000613000086B300008573000086B30000852
:103010002F300008253000086B30000843300008CE
:10302000393000087868396800F042F922E07868A1
:10303000396800F019FA1DE07868396800F052FA32
:1030400018E07868396800F0E5FA13E078683968C4
:1030500000F010FB0EE07868396800F039FB09E0F9
:103060007868396800F09AFB04E07868396800F005
:1030700003FC00BFFB7B18461037BD4680BD00BF78
:1030800080B584B000AF786039600023FB737B6843
:1030900093F81231032B1CD13B689B88DBB2012BC8
:1030A00011D87B68D3F8E0359B6878683968984711
:1030B0003B68DB88002B0BD1FB7B002B08D17868A9
:1030C00001F0C4FF0AE07868396800F0D5FB05E03C
:1030D00004E07868396800F0CFFB00BFFB7B18463E
:1030E0001037BD4680BD00BF80B584B000AF7860AA
:1030F00039600023FB733B689B88BB733B685B783C
:10310000012B39D0032B02D0002B6BD0CBE07B6896
:1031100093F81231022B02D0032B0DD026E0BB7B9B
:10312000002B08D0BB7B802B05D0BB7B7868194671
:1031300001F092FE1FE01EE03B685B88002B0AD185
:10314000BB7B002B07D0BB7B802B04D0BB7B78687C
:10315000194601F081FE7B68D3F8E0359B687868FA
:1031600039689847786801F071FF04E07868396839
:1031700000F082FB00BF96E07B6893F81231022BCF
:1031800002D0032B0DD027E0BB7B002B08D0BB7BEC
:10319000802B05D0BB7B7868194601F05DFE20E0EE
:1031A0001FE03B685B88002B15D1BB7B002B0ED04A
:1031B000BB7B802B0BD0BB7B7868194601F086FE69
:1031C0007B68D3F8E0359B687868396898477868F9
:1031D00001F03CFF05E004E07868396800F04CFB42
:1031E00000BF60E07B6893F81231022B02D0032B02
:1031F0000DD052E0BB7B002B08D0BB7B802B05D0D1
:10320000BB7B7868194601F027FE4BE04AE0BB7BA8
:103210005BB2002B1BDABB7B03F07F02796813469D
:103220009B001344DB000B4403F58C739B78002B4D
:1032300006D040F2CC13C2F2000301221A6023E050
:1032400040F2CC13C2F2000300221A601CE0BB7BE8
:103250005BB2002B18DBBA7B796813469B001344E2
:10326000DB000B4403F55C739B78002B06D040F227
:10327000CC13C2F2000301221A6005E040F2CC1325
:10328000C2F2000300221A60786840F2CC11C2F248
:103290000001022201F072FE04E07868396800F053
:1032A000EBFA00BF00BFFB7B18461037BD4680BD60
:1032B00080B584B000AF786039603B685B881B0ADA
:1032C0009BB2013B062B00F2B18001A252F823F021
:1032D000ED3200081F330008493300082D34000880
:1032E0002D34000819340008233400087B68D3F813
:1032F000E8351B687A68917807F10A02084611469A
:103300009847F8603B68DB88402B04D07B6893F8D3
:103310001231012B02D108237B818CE08BE07B688A
:10332000D3F8E0359B6A7A68917807F10A0208467B
:1033300011469847F860FB68013302221A707B68D7
:10334000FA68C3F8EC2576E03B685B88DBB2052BB6
:103350005CD801A252F823F0713300088B330008C7
:10336000A5330008BF330008D9330008F333000841
:103370007B68D3F8E8355B687A68917807F10A02D0
:10338000084611469847F86045E07B68D3F8E83571
:103390009B687A68917807F10A02084611469847B7
:1033A000F86038E07B68D3F8E835DB687A689178B4
:1033B00007F10A02084611469847F8602BE07B683F
:1033C000D3F8E8351B697A68917807F10A02084654
:1033D00011469847F8601EE07B68D3F8E8355B69D2
:1033E0007A68917807F10A02084611469847F86012
:1033F00011E07B68D3F8E8359B697A68917807F12A
:103400000A02084611469847F86004E0786839686F
:1034100000F032FA24E00EE07868396800F02CFA07
:103420001EE07868396800F027FA19E07868396892
:1034300000F022FA14E07B89002B11D03B68DB8876
:10344000002B0DD03B68DA887B899A4238BF13463F
:103450009BB27B817B897868F9681A4601F08EFD02
:103460001037BD4680BD00BF80B584B000AF786026
:1034700039603B689B88002B2DD13B68DB88002B93
:1034800029D13B685B88DBB203F07F03FB737B6869
:1034900093F81231032B04D17868396800F0ECF905
:1034A00018E07B68FA7B83F81321FB7B7868194668
:1034B00001F046FD786801F0C9FDFB7B002B04D0CC
:1034C0007B68022283F8122104E07B68012283F8E2
:1034D000122104E003E07868396800F0CDF9103774
:1034E000BD4680BD80B582B000AF786039603B6872
:1034F0005B88DAB240F2D813C2F200031A7040F2CD
:10350000D813C2F200031B78012B04D978683968FC
:1035100000F0B2F97BE07B6893F81231022B02D005
:10352000032B24D06EE040F2D813C2F200031B78C4
:10353000002B18D040F2D813C2F200031A787B682F
:1035400083F810217B68032283F8122140F2D813FC
:10355000C2F200031B7878681946FEF7E3FB78682F
:1035600001F074FD53E0786801F070FD4FE040F227
:10357000D813C2F200031B78002B18D17B680222FB
:1035800083F8122140F2D813C2F200031A787B6844
:1035900083F8102140F2D813C2F200031B78786838
:1035A0001946FEF7D7FB786801F050FD29E07B68EB
:1035B00093F8102140F2D813C2F200031B789A420C
:1035C0001BD07B6893F8103178681946FEF7C2FB70
:1035D00040F2D813C2F200031A787B6883F81021F6
:1035E00040F2D813C2F200031B7878681946FEF740
:1035F00099FB786801F02AFD03E0786801F026FD68
:1036000005E004E07868396800F036F900BF083753
:10361000BD4680BD80B582B000AF786039603B6840
:10362000DB88012B04D07868396800F025F91EE0AA
:103630007B6893F81231022B02D0032B09D011E0E2
:10364000786840F2D011C2F20001012201F096FC2C
:103650000DE07B6803F5887378681946012201F054
:103660008DFC04E07868396800F006F900BF08377F
:10367000BD4680BD80B582B000AF786039607B68A0
:1036800093F81231023B012B1AD87B68D3F814311E
:10369000002B06D040F2D413C2F2000303221A60BA
:1036A00005E040F2D413C2F2000301221A607868E8
:1036B00040F2D411C2F20001012201F05FFC04E0EB
:1036C0007868396800F0D8F800BF0837BD4680BD7B
:1036D00080B584B000AF786039600023FB733B682D
:1036E0005B88012B0ED17B680122C3F814217B6813
:1036F000D3F8E0359B68786839689847786801F0B6
:10370000A5FC48E03B685B88022B44D13B689B8862
:10371000DBB2002B3FD17B681B695B68BB603B68F9
:103720009B881B0A9BB2FB73FB7B013B042B2BD8B2
:1037300001A252F823F000BF4D37000859370008A6
:1037400065370008713700087D3700083B7A012291
:1037500062F306133B7217E03B7A022262F3061310
:103760003B7211E03B7A032262F306133B720BE0DB
:103770003B7A042262F306133B7205E03B7A052292
:1037800062F306133B7200BF7B681B69BA685A601C
:10379000786801F05BFC1037BD4680BD80B582B013
:1037A00000AF786039607B6893F81231023B012BDF
:1037B00013D83B685B88012B0ED17B680022C3F8CD
:1037C00014217B68D3F8E0359B687868396898479E
:1037D000786801F03BFC05E004E07868396800F0A7
:1037E0004BF800BF0837BD4680BD00BF80B483B032
:1037F00000AF786039607B6893F8C8253B681A7021
:103800007B6893F8C9253B685A707B6893F8CA3582
:103810001A467B6893F8CB351B029BB213449AB2CD
:103820003B685A807B6893F8CC351A467B6893F8DE
:10383000CD351B029BB213449AB23B689A807B68D9
:1038400093F8CE351A467B6893F8CF351B029BB2AE
:1038500013449AB23B68DA803B68DB881A467B687F
:10386000C3F83C217B68012283F811210C37BD4647
:103870005DF8047B704700BF80B582B000AF786010
:1038800039603B681B78DBB25BB2002B04DA7868E6
:10389000802101F0E1FA0CE03B68DB88002B04D1C9
:1038A0007868802101F0D8FA03E07868002101F0FF
:1038B000D3FA7868FDF79AFD0837BD4680BD00BF92
:1038C00080B586B000AFF860B9607A600023FB7500
:1038D000FB68002B2FD0F86800F030F80346013366
:1038E0009BB25B009AB27B681A80FB7D5A1CFA750A
:1038F000BA6813447A681288D2B21A70FB7D5A1CD7
:10390000FA75BA68134403221A7010E0FB7D5A1C42
:10391000FA75BA681A44FB68591CF9601B78137071
:10392000FB7D5A1CFA75BA68134400221A70FB68B2
:103930001B78002BEAD11837BD4680BD80B485B016
:1039400000AF78600023FB7305E0FB7B0133FB7362
:103950007B6801337B607B681B78002BF5D1FB7B98
:1039600018461437BD465DF8047B704780B586B0B5
:1039700000AF786000237B617868FCF761FF034645
:10398000002B00F09C807868FCF76CFF03463B61DD
:103990003B69002B01D1002392E0BB7CC3F3C00341
:1039A000DBB2002B06D0786800F018FA03467A697B
:1039B00013437B61BB7CC3F38003DBB2002B06D0D7
:1039C000786800F015F903467A6913437B613B7C04
:1039D000C3F34003DBB2002B09D00023FB603B7B29
:1039E00043F002033B737B68DB68FA685A61FB7C37
:1039F000C3F3C013DBB2002B06D0786800F064F884
:103A000003467A6913437B617B7CC3F3C003DBB25B
:103A1000002B06D0786800F097F803467A691343C4
:103A20007B613B7CC3F3C003DBB2002B06D078681C
:103A300000F094FA03467A6913437B613B7CC3F33D
:103A40000013DBB2002B06D0786800F0A3FA03461F
:103A50007A6913437B617B7CC3F30013DBB2002BD9
:103A600006D0786800F08AFB03467A6913437B61CD
:103A70007B7CC3F34013DBB2002B06D0786800F0E8
:103A80001FFC03467A6913437B61BB7CC3F30013BD
:103A9000DBB2002B06D0786800F04EFC03467A6952
:103AA00013437B61BB7CC3F34013DBB2002B06D016
:103AB000786800F05DFC03467A6913437B617B699B
:103AC00018461837BD4680BD80B586B000AF786017
:103AD0007B689B7A002B11D07B6803F586731B688B
:103AE000FB603B7B6FF341033B733B7B6FF3000356
:103AF0003B737B68D3F80C31FA681A6000233B6192
:103B00003B7C43F001033B747B681B697A68126954
:103B100051683A69D2430A405A6040F27C03C2F2CB
:103B200000031B689B697868984700237B61FB7DD5
:103B300043F08003FB757B68DB687A695A61012377
:103B400018461837BD4680BD80B586B000AF786096
:103B500040F27C03C2F200031B685B6978689847F7
:103B60007B681B699B68FB6000237B617B7D43F066
:103B700008037B757B68DB687A695A617B689B7A8E
:103B8000002B2FD03B7BC3F30003DBB2012B29D1E9
:103B900000233B613B7C43F001033B747B68D3F81B
:103BA0000C317A68D2F80C2111683A690A431A601C
:103BB0003B7C43F002033B747B68D3F80C317A689A
:103BC000D2F80C2111683A690A431A604FF46D4328
:103BD000CEF200034FF46D42CEF20002126942F0C1
:103BE00006021A61012318461837BD4680BD00BF82
:103BF00080B586B000AF786000233B610023BB60D6
:103C00007868FDF7DDFB7861DFE07B6903F0010395
:103C1000002B00F0D4803B69DBB27868194600F0D5
:103C2000C3FB0346BB603B7AC3F30003DBB2002B4C
:103C300035D03B69012202FA03F3FB607B681B6904
:103C40007A681269516BFA68D2430A405A630023BA
:103C5000BB603B7A43F001033B727A683B690433F3
:103C60009B0013449B68BA689A6040F27C03C2F2DE
:103C700000031B685B683A69D2B2786811469847BE
:103C80007B68DB78012B0AD13B69002B07D17B686D
:103C900093F81131042B02D17868FDF7A7FB3B7A2A
:103CA000C3F38003DBB2002B0DD00023BB603B7A53
:103CB00043F004033B727A683B6904339B0013446E
:103CC0009B68BA689A603B7AC3F3C003DBB2002BEF
:103CD0000DD00023BB603B7A43F008033B727A6847
:103CE0003B6904339B0013449B68BA689A603B7A33
:103CF000C3F30013DBB2002B0DD00023BB603B7A73
:103D000043F010033B727A683B6904339B00134411
:103D10009B68BA689A603B7AC3F34013DBB2002B0E
:103D20000DD00023BB603B7A43F020033B727A68DE
:103D30003B6904339B0013449B68BA689A603B7AE2
:103D4000C3F38013DBB2002B0DD00023BB603B7AA2
:103D500043F040033B727A683B6904339B00134491
:103D60009B68BA689A603B7AC3F34003DBB2002BCE
:103D70000DD00023BB603B7A43F002033B727A68AC
:103D80003B6904339B0013449B68BA689A603B7A92
:103D9000C3F3C013DBB2002B11D07868396900F08F
:103DA0007BF90023BB603B7A43F080033B727A6867
:103DB0003B6904339B0013449B68BA689A603B6973
:103DC00001333B617B695B087B617B69002B7FF47E
:103DD0001CAF012318461837BD4680BD80B586B09C
:103DE00000AF786000233B610023FB607868FDF73B
:103DF000B5FA7861A9E07B6903F00103002B00F0BC
:103E00009E803B69DBB278681946FDF7BDFA034630
:103E1000FB603B7BC3F30003DBB2002B4BD00023E2
:103E2000FB603B7B43F001033B737A683B691433CF
:103E30009B0013445B68FA689A607B68DB78012B0F
:103E40001FD17A683B6914339B0013445B681B697C
:103E5000BB6079683A6913469B001344DB000B444E
:103E600003F55E731A68BB68C3F31203D11A78684E
:103E70003A6913469B001344DB00034403F5627365
:103E8000196040F27C03C2F200031B681B683A69A8
:103E9000D2B27868114698477B68DB78012B0AD14B
:103EA0003B69002B07D17B6893F81131052B02D1B8
:103EB0007868FDF79BFA3B7BC3F34003DBB2002B32
:103EC0000DD00023FB603B7B43F002033B737A6819
:103ED0003B6914339B0013445B68FA689A603B7B30
:103EE000C3F38003DBB2002B0DD00023FB603B7BD0
:103EF00043F004033B737A683B6914339B0013441B
:103F00005B68FA689A603B7BC3F3C003DBB2002BAB
:103F100015D040F27C03C2F200031B689B687868EE
:103F200098470023FB603B7B43F008033B737A68B0
:103F30003B6914339B0013445B68FA689A603B69E1
:103F400001333B617B695B087B617B69002B7FF4FC
:103F500052AF012318461837BD4680BD80B584B0E6
:103F600000AF786040F27C03C2F200031B68DB689C
:103F7000786898470023FB603B7B43F008033B7362
:103F80007B68DB68FA685A61012318461037BD4622
:103F900080BD00BF80B586B000AF786000233B6174
:103FA0003B7C43F010033B747B68DB687A68D26823
:103FB00091693A69D2430A409A617B68DB681B6A5F
:103FC000FB603B7BC3F30303DBB21A4613469B0043
:103FD0001344DB0003F55C737A6813447B61BB7B9D
:103FE000C3F34303DBB2013B052B46D801A252F8D1
:103FF00023F000BF7B4000080D4000087B40000814
:104000007B4000087B40000857400008BB89C3F391
:104010000A139BB2002B1DD07B69DA68BB89C3F3FE
:104020000A139BB2786811461A46FCF751F97B696E
:10403000DA68BB89C3F30A139BB21A447B69DA605E
:104040007B699A69BB89C3F30A139BB21A447B69E3
:104050009A6113E012E07B6803F5B963786819464A
:104060000822FCF735F97B699A69BB89C3F30A1307
:104070009BB21A447B699A6100E000BF7B68DB68F1
:104080007A68D26891693A690A439A6101231846AD
:104090001837BD4680BD00BF80B586B000AF7860E0
:1040A000396000237B610023BB603A6813469B00A4
:1040B0001344DB0003F58C737A681344FB60FB68E0
:1040C0005A69FB689B69D31A7B61FB689A687B69B4
:1040D0009A4202D2FB689B687B617B6903339B0831
:1040E0003B617A683B6804339B0013449B689B697F
:1040F000BB602EE0FB685A69FB689B69D31A7B6141
:10410000FB689A687B699A4202D2FB689B687B6174
:104110007B6903339B083B61FB68D9683B68DAB273
:104120007B699BB27868FCF79BF8FB68DA687B696F
:104130001A44FB68DA60FB689A697B691A44FB6879
:104140009A617A683B6804339B0013449B689B69BF
:10415000BB603B891A463B699A4209D9FB689A6958
:10416000FB685B699A4203D2FB685B69002BC1D193
:10417000012318461837BD4680BD00BF80B58AB000
:1041800000AF786000233B6100233B620023FB61AA
:104190000023BB6100237B610023FB603B7C43F079
:1041A00001033B747B681B697A68126951683A693C
:1041B000D2430A405A6078680021FCF797FA00233E
:1041C0007B6212E07A687B6A04339B0013449B682D
:1041D000FF229A607A687B6A14339B0013445B6801
:1041E000FF229A607B6A01337B627B685B781A46A8
:1041F0007B6A9A42E6D87B681B694FF0FF329A616E
:104200003B8C012262F30F033B847B8C012262F31F
:104210000F037B847B681B693A6ADA613B7F43F05A
:1042200008033B773B7F43F001033B773B7F43F041
:1042300004033B773B7F43F002033B777B681B69BA
:10424000FA695A613B7E43F001033B763B7E43F0C3
:1042500008033B763B7E43F002033B763B7E43F014
:1042600004033B763B7E43F020033B767B681B696F
:10427000BA691A617B681B691B687B61BB8A6FF333
:104280000A13BB827B681B697A691A607868FDF73C
:10429000ADF80023FB607B7B43F010037B737B68EE
:1042A000DB68FA685A6140F27C03C2F200031B68C3
:1042B0001B6978689847012318462837BD4680BD9A
:1042C00080B584B000AF78607868FCF7ADFC7B689F
:1042D000DB68DB68BB607868FCF782FC0346032B75
:1042E0000CD17B6800229A707B684FF400729A8030
:1042F0007B7A092262F385037B720AE07B680122E4
:104300009A707B6840229A807B7A052262F385034B
:104310007B727B68DB68BA68DA600023FB607B7BBA
:1043200043F020037B737B68DB68FA685A610123E2
:1043300018461037BD4680BD80B584B000AF7860A8
:104340000023FB6040F27C03C2F200031B68DB69C0
:1043500078689847BB7B43F01003BB737B68DB68CE
:10436000FA685A61012318461037BD4680BD00BF68
:1043700080B584B000AF78600023FB6040F27C031E
:10438000C2F200031B681B6A78689847BB7B43F046
:104390002003BB737B68DB68FA685A610123184607
:1043A0001037BD4680BD00BF80B487B000AF7860D5
:1043B0000B46FB707B681B691B697B617B681B6913
:1043C0005B6B3B61FB783A6922FA03F3DB01DBB2FA
:1043D0007A6913437B61FB787A6804339B0013444A
:1043E0009B689A687B691340FB60FB6818461C3722
:1043F000BD465DF8047B704780B483B000AF786041
:1044000039600C37BD465DF8047B704780B400AF5F
:1044100000231846BD465DF8047B704780B584B024
:1044200000AF78600B46FB707B68D3F8EC3539330E
:104430001B88786881211A46022300F00BFC7B68F8
:10444000D3F8EC3540331B88786801211A460223E3
:1044500000F000FC786882210822032300F0FAFBB8
:1044600040F29C03C2F20003FB60FB6804330222AB
:104470001A70FB68053300221A7040F2C803C2F2BA
:1044800000031B6898477B68D3F8EC3540331B88E2
:104490007868012140F6A812C2F2000200F060FC28
:1044A000002318461037BD4680BD00BF80B582B0DE
:1044B00000AF78600B46FB707868812100F018FC33
:1044C0007868012100F014FC7868822100F010FC6B
:1044D00040F2C803C2F200035B6898470023184605
:1044E0000837BD4680BD00BF80B584B000AF78609E
:1044F00039603B681B7803F06003002B54D0202BFD
:104500004CD13B68DB88002B3BD03B681B78DBB28F
:104510005BB2002B1ADA40F2C803C2F200039B68B8
:104520003A68527811463A68D288084640F6E8114F
:10453000C2F2000198473B68DB88786840F6E811D2
:10454000C2F200011A4600F019FD25E03B685B78D5
:104550001A4640F23413C2F200031A603B68DB884B
:104560001A4640F2F013C2F200031A603B68DB887F
:10457000786840F6E811C2F200011A4600F032FDF8
:104580000AE040F2C803C2F200039B683A6852781E
:104590001046002100229847002340E078683968DF
:1045A000FFF76AF902233AE03B685B780A2B18D0E0
:1045B0000B2B1FD0062B31D13B685B881B0A9BB2AB
:1045C000212B07D1184BBB603B68DB883A2B28BFF7
:1045D0003A23FB81FB897868B9681A4600F0CEFC63
:1045E0001CE0786840F2DC11C2F20001012200F008
:1045F000C5FC13E03B685B88DBB2002B09D13B684C
:104600005B88DBB21A4640F2DC13C2F200031A6088
:1046100003E078683968FFF72FF900BF00231846D8
:104620001037BD4680BD00BF0201002090B583B0A9
:1046300000AF786040F23413C2F200031B68FF2B16
:104640001BD040F2C803C2F200039C6840F234134E
:10465000C2F200031A6840F2F013C2F200031B68B2
:10466000104640F6E811C2F200011A46A04740F297
:104670003413C2F20003FF221A60002318460C37DD
:10468000BD4690BD80B584B000AF78600B46FB702E
:1046900040F2EC13C2F200031B78012B75D140F2FB
:1046A000E813C2F200031B68002B06D140F2EC13A2
:1046B000C2F2000300221A7067E07B68D3F8EC3581
:1046C00039331B881A4640F2E813C2F200031B6814
:1046D0009A422DD240F2E413C2F200031B68FB8120
:1046E0007B68D3F8EC35B3F83930BB817B68D3F8FD
:1046F000EC3539331B881A4640F2E413C2F200034A
:104700001B681A4440F2E413C2F200031A6040F23C
:10471000E813C2F200031A687B68D3F8EC3539332A
:104720001B88D21A40F2E813C2F200031A6021E09B
:1047300040F2E413C2F200031B68FB8140F2E8136D
:10474000C2F200031B68BB8140F2E413C2F2000313
:104750001A6840F2E813C2F200031B681A4440F2E0
:10476000E413C2F200031A6040F2E813C2F200033D
:1047700000221A60FA8940F6F013C2F200031A44CC
:10478000BB897868812100F02BFB00231846103785
:10479000BD4680BD80B584B000AF78600B46FB702D
:1047A000FA78796813469B001344DB000B4403F549
:1047B00062731B68FB8140F2C803C2F200031B69ED
:1047C000FA8940F6A810C2F20000114698477B68AB
:1047D000D3F8EC3540331B887868012140F6A812E5
:1047E000C2F2000200F0BCFA002318461037BD46A2
:1047F00080BD00BF80B582B000AF786040F2F41396
:10480000C2F200031B681A46511C40F2F413C2F2B4
:1048100000031960052A08D140F2F413C2F2000324
:1048200000221A60786800F005F80023184608375F
:10483000BD4680BD80B584B000AF786040F2EC1317
:10484000C2F200031B78012B00F0B88040F2E413A1
:10485000C2F200031B68B3F5006F05D140F2E41308
:10486000C2F2000300221A6040F2E413C2F2000315
:104870001A6840F2E013C2F200031B689A4206D1A4
:1048800040F2EC13C2F2000300221A7096E040F2EC
:10489000E413C2F200031A6840F2E013C2F200030C
:1048A0001B689A420CD940F2E413C2F200031B6861
:1048B000C3F5006240F2E813C2F200031A600FE091
:1048C00040F2E013C2F200031A6840F2E413C2F2AD
:1048D00000031B68D21A40F2E813C2F200031A6008
:1048E0007B68D3F8EC3539331B881A4640F2E8135D
:1048F000C2F200031B689A422DD240F2E413C2F2C6
:1049000000031B68FB817B68D3F8EC35B3F83930C2
:10491000BB817B68D3F8EC3539331B881A4640F2EB
:10492000E413C2F200031B681A4440F2E413C2F21B
:1049300000031A6040F2E813C2F200031A687B68B1
:10494000D3F8EC3539331B88D21A40F2E813C2F29F
:1049500000031A6021E040F2E413C2F200031B6876
:10496000FB8140F2E813C2F200031B68BB8140F2F6
:10497000E413C2F200031A6840F2E813C2F2000323
:104980001B681A4440F2E413C2F200031A6040F2BA
:10499000E813C2F2000300221A6040F2EC13C2F2E4
:1049A000000301221A70FA8940F6F013C2F20003E4
:1049B0001A44BB897868812100F012FA1037BD468D
:1049C00080BD00BF80B483B000AF03463960FB7187
:1049D0003B6843221A8040F2F003C2F200031846FB
:1049E0000C37BD465DF8047B704700BF80B483B0D0
:1049F00000AF78600B467B807B687A889A810C37A1
:104A0000BD465DF8047B704780B485B000AF786028
:104A10000B467B800023FB737B681B899AB27B88E3
:104A200013409BB2002B02D00123FB7301E0002353
:104A3000FB73FB7B18461437BD465DF8047B70475B
:104A400080B483B000AF78604FF47053C4F20103B8
:104A50007A685A610C37BD465DF8047B704700BF29
:104A600080B483B000AF78604FF46D43CEF20003A2
:104A70007A6842F0BF6242F40032DA600C37BD4619
:104A80005DF8047B704700BF80B485B000AF7860EC
:104A90000023FB730023BB730F237B737B68DB78DE
:104AA000002B40D04FF46D43CEF20003DB68DB43B4
:104AB00003F4E0631B0AFB73FB7BC3F10403BB73CA
:104AC0007A7BFB7B42FA03F37B737B685B781A4645
:104AD000BB7B02FA03F3FB737B689A787B7B134002
:104AE000DAB2FB7B1343FB73FB7B1B01FB734FF4BD
:104AF0006143CEF200037A6812781344FA7B83F89C
:104B000000234FF46143CEF200037A681278520911
:104B1000D2B27968097801F01F01012000FA01F191
:104B200043F8221011E04FF46143CEF200037A689B
:104B300012785209D2B27968097801F01F01012078
:104B400000FA01F1203243F822101437BD465DF817
:104B5000047B704780B584B000AF78600B46FB7073
:104B6000FB7878681946FBF7E1FB7B68012283F844
:104B700012217B68002283F813210023FB6023E0CD
:104B8000FA6813469B001344DB0003F58C737A68C4
:104B90001344BB60BB6801225A70FB68DAB2BB6881
:104BA0001A70FB689AB2BB68DA80BB680022DA70C0
:104BB000BB6840229A60BB680022DA60BB680022B2
:104BC0005A61FB680133FB607B685B781A46FB68BF
:104BD0009A42D5D80023FB6023E0FA6813469B0075
:104BE0001344DB0003F55C737A681344BB60BB6855
:104BF00000225A70FB68DAB2BB681A70FB689AB27E
:104C0000BB68DA80BB680022DA70BB6840229A6019
:104C1000BB680022DA60BB6800225A61FB6801337E
:104C2000FB607B685B781A46FB689A42D5D8786847
:104C3000FBF740FD7868FBF733FC78680021FBF751
:104C4000BFFD7868FBF742FE7868FBF717FD103769
:104C5000BD4680BD80B584B000AF7860F9703A8001
:104C6000BB70FB785BB2002B0CDAFB7803F07F02A1
:104C700013469B001344DB0003F58C737A681344DE
:104C8000FB600BE0FB7803F07F0213469B001344AC
:104C9000DB0003F55C737A681344FB60FB7803F078
:104CA0007F03DAB2FB681A70FB78DB09DBB21A46C5
:104CB000FB685A703A88FB689A60FB68BA78DA70C9
:104CC000FB685B78002B04D0FB681B781A46FB68F6
:104CD000DA80BB78022B02D1FB6800221A71786857
:104CE000F968FBF7DDFF002318461037BD4680BD8D
:104CF00080B584B000AF78600B46FB70FB785BB288
:104D0000002B0CDAFB7803F07F0213469B00134460
:104D1000DB0003F58C737A681344FB600BE0FB78CF
:104D200003F07F0213469B001344DB0003F55C7322
:104D30007A681344FB60FB7803F07F03DAB2FB6808
:104D40001A70FB78DB09DBB21A46FB685A70786888
:104D5000F968FCF713F8002318461037BD4680BDEC
:104D600080B586B000AFF8607A600A46FA723B817F
:104D7000FB7A03F07F0213469B001344DB0003F52C
:104D80005C73FA6813447B617B697A68DA603A89FC
:104D90007B695A617B6900229A617B6900225A70A3
:104DA000FB7A03F07F03DAB27B691A70FB68DB7869
:104DB000012B02D17A687B691A617B691B78002B11
:104DC00004D1F8687969FCF75FF903E0F86879695C
:104DD000FCF71AF8002318461837BD4680BD00BFFF
:104DE00080B586B000AFF8607A603B600B46FB721E
:104DF000FB7A03F07F0213469B001344DB0003F5AC
:104E00008C73FA6813447B617B6901225A70FB7AC8
:104E100003F07F03DAB27B691A707B697A68DA6023
:104E20007A687B691A617B6900229A617B693A68BA
:104E30005A617B691B78002B04D1F8687969FCF70B
:104E400023F903E0F8687969FBF7DEFF00231846D1
:104E50001837BD4680BD00BF80B584B000AF786014
:104E60000B46FB70FB785BB2002B0CDAFB7803F08F
:104E70007F0213469B001344DB0003F58C737A68B2
:104E80001344FB6009E0FA7813469B001344DB00EF
:104E900003F55C737A681344FB60FB6801229A7027
:104EA000FB7803F07F03DAB2FB681A70FB78DB094A
:104EB000DBB21A46FB685A707868F968FCF7CEF9DD
:104EC000002318461037BD4680BD00BF80B584B0B2
:104ED00000AF78600B46FB70FB785BB2002B0CDAFE
:104EE000FB7803F07F0213469B001344DB0003F5BD
:104EF0008C737A681344FB6009E0FA7813469B00D0
:104F00001344DB0003F55C737A681344FB60FB68B1
:104F100000229A70FB7803F07F03DAB2FB681A7004
:104F2000FB78DB09DBB21A46FB685A707868F968CF
:104F3000FCF7D8F9002318461037BD4680BD00BFE6
:104F400080B485B000AF78600B46FB700023FB6037
:104F5000FB7803F07F03DAB2BB8962F30A13BB81EB
:104F60007B681B697A6812691168FA680A431A60DB
:104F70001437BD465DF8047B704700BF80B586B02E
:104F800000AFF860B9601346FB800023FB75FA8818
:104F9000FB68C3F83821FA88FB68C3F83421FB6842
:104FA000022283F81121FB88F8680021BA68FFF714
:104FB00017FFFB7D18461837BD4680BD80B586B00B
:104FC00000AFF860B9601346FB800023FB75FB88D7
:104FD000F8680021BA68FFF703FFFB7D1846183711
:104FE000BD4680BD80B586B000AFF860B96013469D
:104FF000FB800023FB75FA88FB68C3F89023FA88CE
:10500000FB68C3F88C23FB68032283F81121FB881B
:10501000F8680021BA68FFF7A3FEFB7D1846183731
:10502000BD4680BD80B586B000AFF860B96013465C
:10503000FB800023FB75FB88F8680021BA68FFF746
:105040008FFEFB7D18461837BD4680BD80B584B005
:1050500000AF78600023FB737B68042283F8112182
:105060007868002100220023FFF7BAFE7868FCF779
:10507000BDF9FB7B18461037BD4680BD80B584B0B6
:1050800000AF78600023FB737B68052283F8112151
:105090007868002100220023FFF762FE7868FCF7A1
:1050A000A5F9FB7B18461037BD4680BD80B483B0A0
:1050B00000AF78600B467B807B88DB439AB27B68CD
:1050C0001A820C37BD465DF8047B704780B485B00A
:1050D00000AF78600B467B800023FB730023BB810D
:1050E00000237B817B681B8A9AB27B881340BB813B
:1050F0007B689B899AB27B8813407B81BB89002B9C
:1051000005D07B89002B02D00123FB7301E0002333
:10511000FB73FB7B18461437BD465DF8047B704774
:1051200080B582B000AF0346FB714FF48050C4F2EB
:10513000010040F227710022FCF754FB40F2641397
:10514000C2F200031A6841F2D853C2F20003F9799F
:10515000995440F26413C2F200031B685A1C40F2D7
:105160006413C2F200031A6040F26413C2F2000337
:105170001B68C72B05DD40F2F813C2F200030022C2
:105180001A6040F26413C2F2000301221A604FF465
:105190008050C4F2010040F227710122FCF722FB8B
:1051A0000837BD4680BD00BF80B582B000AF034662
:1051B000FB714FF48840C4F2000040F227710022D6
:1051C000FCF710FB40F26C13C2F200031A6841F2C4
:1051D000F013C2F20003F979995440F26C13C2F251
:1051E00000031B685A1C40F26C13C2F200031A60E1
:1051F00040F26C13C2F200031B68C72B05DD40F2BE
:105200000023C2F2000300221A6040F26C13C2F2C3
:10521000000301221A604FF48840C4F2000040F2FB
:1052200027710122FCF7DEFA0837BD4680BD00BFBA
:1052300080B582B000AF0346FB714FF49040C4F2DA
:10524000000040F227710022FCF7CCFA40F2741300
:10525000C2F200031A6841F28033C2F20003F97906
:10526000995440F27413C2F200031B685A1C40F2B6
:105270007413C2F200031A6040F27413C2F2000306
:105280001B68C72B05DD40F20823C2F20003002291
:105290001A6040F27413C2F2000301221A604FF444
:1052A0009040C4F2000040F227710122FCF79AFA04
:1052B0000837BD4680BD00BF80B582B000AF4FF457
:1052C0008050C4F2010040F22551FCF7D3FA0346A6
:1052D000002B0BD04FF48050C4F20100FCF772FA9F
:1052E0000346FB71FB791846FFF71AFF4FF4805015
:1052F000C4F2010040F22771FCF7BCFA0346002B10
:1053000039D040F2F813C2F200031B681A46511C50
:1053100040F2F813C2F20003196041F2D853C2F20E
:1053200000039B5C4FF48050C4F201001946FCF767
:1053300037FA40F2F813C2F200031B68C72B05DDF1
:1053400040F2F813C2F2000300221A6040F2F81390
:10535000C2F200031A6840F26413C2F200031B6831
:105360009A4208D14FF48050C4F2010040F22771F4
:105370000022FCF737FA0837BD4680BD80B582B001
:1053800000AF4FF48840C4F2000040F22551FCF712
:1053900071FA0346002B0BD04FF48840C4F2000092
:1053A000FCF710FA0346FB71FB791846FFF7FCFE89
:1053B0004FF48840C4F2000040F22771FCF75AFA1B
:1053C0000346002B39D040F20023C2F200031B68D1
:1053D0001A46511C40F20023C2F20003196041F248
:1053E000F013C2F200039B5C4FF48840C4F200004B
:1053F0001946FCF7D5F940F20023C2F200031B68FE
:10540000C72B05DD40F20023C2F2000300221A6020
:1054100040F20023C2F200031A6840F26C13C2F299
:1054200000031B689A4208D14FF48840C4F2000080
:1054300040F227710022FCF7D5F90837BD4680BD40
:1054400080B582B000AF4FF49040C4F2000040F24B
:105450002551FCF70FFA0346002B0BD04FF4904078
:10546000C4F20000FCF7AEF90346FB71FB79184665
:10547000FFF7DEFE4FF49040C4F2000040F22771C7
:10548000FCF7F8F90346002B39D040F20823C2F2AA
:1054900000031B681A46511C40F20823C2F20003A5
:1054A000196041F28033C2F200039B5C4FF49040DC
:1054B000C4F200001946FCF773F940F20823C2F267
:1054C00000031B68C72B05DD40F20823C2F200036E
:1054D00000221A6040F20823C2F200031A6840F268
:1054E0007413C2F200031B689A4208D14FF4904033
:1054F000C4F2000040F227710022FCF773F908376C
:10550000BD4680BD68656C6C6F20776F726C6400FF
:1055100053544D3332205669727475616C20436F59
:105520006D506F727420696E204853206D6F6465F2
:105530000000000053544D33322056697274756177
:105540006C20436F6D506F727420696E204653203B
:105550004D6F64650000000053544D6963726F65C0
:105560006C656374726F6E69637300003030303045
:1055700030303030303530420000000030303030D4
:10558000303030303035304300000000564350207A
:10559000436F6E666967000056435020496E74651C
:0855A000726661636500000002
:1055A80059150008651500088D150008B115000883
:1055B800BD15000899150008A5150008FFFF000093
:1055C800FFFF000000C012000100000000002000E2
:1055D800B86002400C3C00402F000000000000288A
:1055E80000000024000040200000002200000021EC
:1055F800991A0008691B00082D1A0008F91C0008F0
:105608006D1C0008D51C0008B11C00087D1D000891
:105618009D1D000800000000000000005000002050
:105628003923000861230008D923000889230008CA
:105638000D2400085D240008AD24000812010002B2
:1056480000000040830440570002010203010000EB
:105658000A060002000000400100000004030904DB
:1056680000C2010000000800E1270008F127000837
:10567800012800086D290008E9290008007A030AB2
:1056880000000000000000000102030406070809EA
:1056980009024300020100C03209040000010202AD
:1056A8000100052400100105240100010424020260
:1056B8000524060001070582030800FF090401000C
:1056C800020A0000000705010240000007058102E8
:1056D80040000000FF0000001D440008AD44000821
:1056E800E9440008000000002D460008854600082F
:1056F80095470008F547000800000000000000007A
:10570800C549000801000000010000000100000078
:0C57180001000000010000000100000082
:0400000508000000EF
:00000001FF
